{
  "contractName": "HeaderReader",
  "abi": [
    {
      "constant": true,
      "inputs": [
        {
          "internalType": "bytes",
          "name": "header",
          "type": "bytes"
        }
      ],
      "name": "getValidationParams",
      "outputs": [
        {
          "internalType": "bytes32",
          "name": "",
          "type": "bytes32"
        },
        {
          "internalType": "int256",
          "name": "",
          "type": "int256"
        },
        {
          "internalType": "uint64",
          "name": "",
          "type": "uint64"
        },
        {
          "internalType": "uint64",
          "name": "",
          "type": "uint64"
        },
        {
          "internalType": "bytes32",
          "name": "",
          "type": "bytes32"
        },
        {
          "internalType": "bytes[]",
          "name": "",
          "type": "bytes[]"
        }
      ],
      "payable": false,
      "stateMutability": "pure",
      "type": "function"
    },
    {
      "constant": true,
      "inputs": [
        {
          "internalType": "bytes",
          "name": "header",
          "type": "bytes"
        }
      ],
      "name": "getEpoch",
      "outputs": [
        {
          "internalType": "address[]",
          "name": "current",
          "type": "address[]"
        },
        {
          "internalType": "address[]",
          "name": "next",
          "type": "address[]"
        }
      ],
      "payable": false,
      "stateMutability": "pure",
      "type": "function"
    },
    {
      "constant": true,
      "inputs": [
        {
          "internalType": "bytes",
          "name": "extra",
          "type": "bytes"
        }
      ],
      "name": "getExtraData",
      "outputs": [
        {
          "internalType": "bytes",
          "name": "",
          "type": "bytes"
        }
      ],
      "payable": false,
      "stateMutability": "pure",
      "type": "function"
    }
  ],
  "bytecode": "0x6117c3610026600b82828239805160001a60731461001957fe5b30600052607381538281f3fe730000000000000000000000000000000000000000301460806040526004361061004b5760003560e01c806344e06ed414610050578063462648b614610085578063750a2ae5146100b5575b600080fd5b61006a60048036036100659190810190611274565b6100e6565b60405161007c9695949392919061150b565b60405180910390f35b61009f600480360361009a9190810190611274565b6103e0565b6040516100ac9190611573565b60405180910390f35b6100cf60048036036100ca9190810190611274565b610446565b6040516100dd9291906114d4565b60405180910390f35b60008060008060006060806101026100fd89610622565b610650565b9050606061013b61013661013161012c85600c8151811061011f57fe5b602002602001015161072d565b6103e0565b610622565b610650565b9050600061015c8260008151811061014f57fe5b60200260200101516107ab565b905060606101996101808460018151811061017357fe5b6020026020010151610650565b60008151811061018c57fe5b6020026020010151610650565b905060006101c26101bd836000815181106101b057fe5b602002602001015161072d565b610809565b905060006101e3836001815181106101d657fe5b60200260200101516107ab565b90506000610204846002815181106101f757fe5b60200260200101516107ab565b905061022b6102268860008151811061021957fe5b602002602001015161072d565b610809565b831461026c576040517f08c379a000000000000000000000000000000000000000000000000000000000815260040161026390611595565b60405180910390fd5b60606102a761028e8860018151811061028157fe5b6020026020010151610650565b60018151811061029a57fe5b6020026020010151610650565b9050606081516040519080825280602002602001820160405280156102e057816020015b60608152602001906001900390816102cb5790505b50905060008090505b82518110156103325761030e83828151811061030157fe5b602002602001015161072d565b82828151811061031a57fe5b602002602001018190525080806001019150506102e9565b50600061037986868661037461035b8e60018151811061034e57fe5b6020026020010151610650565b60028151811061036757fe5b60200260200101516107ab565b610817565b90506103a061039b8b60008151811061038e57fe5b602002602001015161072d565b610809565b6103bd8b6008815181106103b057fe5b60200260200101516107ab565b898784869f509f509f509f509f509f505050505050505050505091939550919395565b60608060018351036040519080825280601f01601f19166020018201604052801561041a5781602001600182028038833980820191505090505b50905060008060208301915060218501905061043b81836001885103610981565b829350505050919050565b606080606061045c61045785610622565b610650565b9050606061047d8260108151811061047057fe5b6020026020010151610650565b905060008151111561053c5780516040519080825280602002602001820160405280156104b95781602001602082028038833980820191505090505b50935060008090505b815181101561053a576104e78282815181106104da57fe5b60200260200101516109f2565b8582815181106104f357fe5b602002602001019073ffffffffffffffffffffffffffffffffffffffff16908173ffffffffffffffffffffffffffffffffffffffff168152505080806001019150506104c2565b505b606061055b8360118151811061054e57fe5b6020026020010151610650565b905060008151111561061a5780516040519080825280602002602001820160405280156105975781602001602082028038833980820191505090505b50935060008090505b8151811015610618576105c58282815181106105b857fe5b60200260200101516109f2565b8582815181106105d157fe5b602002602001019073ffffffffffffffffffffffffffffffffffffffff16908173ffffffffffffffffffffffffffffffffffffffff168152505080806001019150506105a0565b505b505050915091565b61062a6111ec565b600060208301905060405180604001604052808451815260200182815250915050919050565b606061065b82610a15565b61066457600080fd5b600061066f83610a63565b90506060816040519080825280602002602001820160405280156106ad57816020015b61069a611206565b8152602001906001900390816106925790505b50905060006106bf8560200151610ad4565b8560200151019050600080600090505b84811015610720576106e083610b5d565b915060405180604001604052808381526020018481525084828151811061070357fe5b6020026020010181905250818301925080806001019150506106cf565b5082945050505050919050565b6060600082600001511161074057600080fd5b60008061074c84610c15565b80925081935050506060816040519080825280601f01601f1916602001820160405280156107895781602001600182028038833980820191505090505b509050600081602001905061079f848285610981565b81945050505050919050565b60008082600001511180156107c557506021826000015111155b6107ce57600080fd5b6000806107da84610c15565b809250819350505060008251905060208210156107fe57816020036101000a810490505b809350505050919050565b600060208201519050919050565b60006060600360405190808252806020026020018201604052801561085057816020015b606081526020019060019003908161083b5790505b50905061087b8660405160200161086791906114b9565b604051602081830303815290604052610c4d565b8160008151811061088857fe5b60200260200101819052506108a68567ffffffffffffffff16610cac565b816001815181106108b357fe5b60200260200101819052506108c784610cac565b816002815181106108d457fe5b60200260200101819052506060600260405190808252806020026020018201604052801561091657816020015b60608152602001906001900390816109015790505b50905061092282610cc6565b8160008151811061092f57fe5b602002602001018190525061094d8467ffffffffffffffff16610cac565b8160018151811061095a57fe5b602002602001018190525061096e81610cc6565b8051906020012092505050949350505050565b600081141561098f576109ed565b5b602060ff1681106109bf5782518252602060ff1683019250602060ff1682019150602060ff1681039050610990565b60008111156109ec576000600182602060ff16036101000a03905080198451168184511681811785525050505b5b505050565b60006015826000015114610a0557600080fd5b610a0e826107ab565b9050919050565b60008082600001511415610a2c5760009050610a5e565b60008083602001519050805160001a915060c060ff168260ff161015610a5757600092505050610a5e565b6001925050505b919050565b60008082600001511415610a7a5760009050610acf565b60008090506000610a8e8460200151610ad4565b84602001510190506000846000015185602001510190505b80821015610ac857610ab782610b5d565b820191508280600101935050610aa6565b8293505050505b919050565b600080825160001a9050608060ff16811015610af4576000915050610b58565b60b860ff16811080610b19575060c060ff168110158015610b18575060f860ff1681105b5b15610b28576001915050610b58565b60c060ff16811015610b485760018060b80360ff16820301915050610b58565b60018060f80360ff168203019150505b919050565b6000806000835160001a9050608060ff16811015610b7e5760019150610c0b565b60b860ff16811015610b9b576001608060ff168203019150610c0a565b60c060ff16811015610bcb5760b78103600185019450806020036101000a85510460018201810193505050610c09565b60f860ff16811015610be857600160c060ff168203019150610c08565b60f78103600185019450806020036101000a855104600182018101935050505b5b5b5b8192505050919050565b6000806000610c278460200151610ad4565b905060008185602001510190506000828660000151039050818194509450505050915091565b60608060018351148015610c7e5750608083600081518110610c6b57fe5b602001015160f81c60f81b60f81c60ff16105b15610c8b57829050610ca3565b610ca0610c9a84516080610cf1565b84610ed5565b90505b80915050919050565b6060610cbf610cba83610f5f565b610c4d565b9050919050565b606080610cd2836110be565b9050610ce9610ce3825160c0610cf1565b82610ed5565b915050919050565b6060806038841015610d8b5760016040519080825280601f01601f191660200182016040528015610d315781602001600182028038833980820191505090505b50905082840160001b601f60208110610d4657fe5b1a60f81b81600081518110610d5757fe5b60200101907effffffffffffffffffffffffffffffffffffffffffffffffffffffffffffff1916908160001a905350610ecb565b600080600190505b6000818781610d9e57fe5b0414610db857818060010192505061010081029050610d93565b600182016040519080825280601f01601f191660200182016040528015610dee5781602001600182028038833980820191505090505b50925060378583010160001b601f60208110610e0657fe5b1a60f81b83600081518110610e1757fe5b60200101907effffffffffffffffffffffffffffffffffffffffffffffffffffffffffffff1916908160001a905350600190505b818111610ec8576101008183036101000a8781610e6457fe5b0481610e6c57fe5b0660001b601f60208110610e7c57fe5b1a60f81b838281518110610e8c57fe5b60200101907effffffffffffffffffffffffffffffffffffffffffffffffffffffffffffff1916908160001a9053508080600101915050610e4b565b50505b8091505092915050565b6060806040519050835180825260208201818101602087015b81831015610f0b5780518352602083019250602081019050610eee565b50855192508351830184528091508282019050602086015b81831015610f405780518352602083019250602081019050610f23565b50601f19601f8851850115830101166040525050508091505092915050565b60608060206040519080825280601f01601f191660200182016040528015610f965781602001600182028038833980820191505090505b50905082602082015260008090505b602081101561100357600060f81b828281518110610fbf57fe5b602001015160f81c60f81b7effffffffffffffffffffffffffffffffffffffffffffffffffffffffffffff191614610ff657611003565b8080600101915050610fa5565b6060816020036040519080825280601f01601f19166020018201604052801561103b5781602001600182028038833980820191505090505b50905060008090505b81518110156110b25783838060010194508151811061105f57fe5b602001015160f81c60f81b82828151811061107657fe5b60200101907effffffffffffffffffffffffffffffffffffffffffffffffffffffffffffff1916908160001a9053508080600101915050611044565b50809350505050919050565b60606000825114156111065760006040519080825280601f01601f1916602001820160405280156110fe5781602001600182028038833980820191505090505b5090506111e7565b600080600090505b835181101561113d5783818151811061112357fe5b60200260200101515182019150808060010191505061110e565b6060826040519080825280601f01601f1916602001820160405280156111725781602001600182028038833980820191505090505b5090506000602082019050600092505b85518310156111df57606086848151811061119957fe5b6020026020010151905060006020820190506111b781848451610981565b8785815181106111c357fe5b6020026020010151518301925050508280600101935050611182565b819450505050505b919050565b604051806040016040528060008152602001600081525090565b604051806040016040528060008152602001600081525090565b600082601f83011261123157600080fd5b813561124461123f826115e2565b6115b5565b9150808252602083016020830185838301111561126057600080fd5b61126b838284611723565b50505092915050565b60006020828403121561128657600080fd5b600082013567ffffffffffffffff8111156112a057600080fd5b6112ac84828501611220565b91505092915050565b60006112c183836112e1565b60208301905092915050565b60006112d98383611422565b905092915050565b6112ea816116c9565b82525050565b60006112fb8261162e565b6113058185611674565b93506113108361160e565b8060005b8381101561134157815161132888826112b5565b97506113338361165a565b925050600181019050611314565b5085935050505092915050565b600061135982611639565b6113638185611685565b9350836020820285016113758561161e565b8060005b858110156113b1578484038952815161139285826112cd565b945061139d83611667565b925060208a01995050600181019050611379565b50829750879550505050505092915050565b6113cc816116db565b82525050565b6113e36113de826116db565b611765565b82525050565b60006113f48261164f565b6113fe8185611696565b935061140e818560208601611732565b6114178161176f565b840191505092915050565b600061142d82611644565b61143781856116a7565b9350611447818560208601611732565b6114508161176f565b840191505092915050565b611464816116e5565b82525050565b60006114776013836116b8565b91507f566572696669636174696f6e204661696c6564000000000000000000000000006000830152602082019050919050565b6114b38161170f565b82525050565b60006114c582846113d2565b60208201915081905092915050565b600060408201905081810360008301526114ee81856112f0565b9050818103602083015261150281846112f0565b90509392505050565b600060c08201905061152060008301896113c3565b61152d602083018861145b565b61153a60408301876114aa565b61154760608301866114aa565b61155460808301856113c3565b81810360a0830152611566818461134e565b9050979650505050505050565b6000602082019050818103600083015261158d81846113e9565b905092915050565b600060208201905081810360008301526115ae8161146a565b9050919050565b6000604051905081810181811067ffffffffffffffff821117156115d857600080fd5b8060405250919050565b600067ffffffffffffffff8211156115f957600080fd5b601f19601f8301169050602081019050919050565b6000819050602082019050919050565b6000819050602082019050919050565b600081519050919050565b600081519050919050565b600081519050919050565b600081519050919050565b6000602082019050919050565b6000602082019050919050565b600082825260208201905092915050565b600082825260208201905092915050565b600082825260208201905092915050565b600082825260208201905092915050565b600082825260208201905092915050565b60006116d4826116ef565b9050919050565b6000819050919050565b6000819050919050565b600073ffffffffffffffffffffffffffffffffffffffff82169050919050565b600067ffffffffffffffff82169050919050565b82818337600083830152505050565b60005b83811015611750578082015181840152602081019050611735565b8381111561175f576000848401525b50505050565b6000819050919050565b6000601f19601f830116905091905056fea365627a7a723158207a340afd7d6ee3eaa7b0a102d523b8b7e2f58d1df171590271ea4d4778755cba6c6578706572696d656e74616cf564736f6c63430005100040",
  "source": "// SPDX-License-Identifier: MIT\npragma solidity >=0.4.21 <0.9.0;\npragma experimental ABIEncoderV2;\n\n\n// HeaderReader is a helper library to read fields out of rlp-encoded blocks. \n// It is mainly consisted of Solidity-RLP(https://github.com/hamdiallam/Solidity-RLP) and \n// solidity-rlp-encode(https://github.com/bakaoh/solidity-rlp-encode)\nlibrary HeaderReader {\n\n  // Solidity-RLP defined constants and struct\n  uint8 constant STRING_SHORT_START = 0x80;\n  uint8 constant STRING_LONG_START = 0xb8;\n  uint8 constant LIST_SHORT_START = 0xc0;\n  uint8 constant LIST_LONG_START = 0xf8;\n  uint8 constant WORD_SIZE = 32;\n\n  struct RLPItem {\n    uint256 len;\n    uint256 memPtr;\n  }\n\n\n  /*\n  * @param rlp-encoded block header.\n  * @return (parentHash, blockNum, blockRoundNum, signed hash, sigs).\n  */\n  function getValidationParams(bytes memory header) \n    public \n    pure \n    returns (bytes32, int, uint64, uint64, bytes32, bytes[] memory) \n  {\n    RLPItem[] memory ls = toList(toRlpItem(header));\n    RLPItem[] memory extra = toList(toRlpItem(getExtraData(toBytes(ls[12]))));\n    uint64 round_number = uint64(toUint(extra[0]));\n    RLPItem[] memory proposed_block = toList(toList(extra[1])[0]);\n    bytes32 parent_hash = toBytes32(toBytes(proposed_block[0]));\n    uint64 parent_round_number = uint64(toUint(proposed_block[1]));\n    int parent_number = int(toUint(proposed_block[2]));\n    if (parent_hash != toBytes32(toBytes(ls[0]))) {\n      revert(\"Verification Failed\");\n    }\n    RLPItem[] memory raw_sigs = toList(toList(extra[1])[1]);\n    bytes[] memory sigs = new bytes[](raw_sigs.length);\n    for (uint i = 0; i < raw_sigs.length; i++) {\n      sigs[i] = toBytes(raw_sigs[i]);\n    }\n    bytes32 signHash = createSignHash(parent_hash, parent_round_number, parent_number, uint64(toUint(toList(extra[1])[2])));\n    return (toBytes32(toBytes(ls[0])), int(toUint(ls[8])), round_number, parent_round_number, signHash, sigs);\n  }\n\n  /*\n  * @param rlp-encoded block header.\n  * @return (currentValidator list, nextValidator list).\n  */\n  function getEpoch(bytes memory header) \n    public \n    pure \n  returns (address[] memory current, address[] memory next) \n  {\n    RLPItem[] memory ls = toList(toRlpItem(header));\n    RLPItem[] memory list0 = toList(ls[16]);\n    if (list0.length > 0) {\n      current = new address[](list0.length);\n      for (uint i = 0; i < list0.length; i++) {\n        current[i] = toAddress(list0[i]);\n      }\n    }\n    RLPItem[] memory list1 = toList(ls[17]);\n    if (list1.length > 0) {\n      next = new address[](list1.length);\n      for (uint i = 0; i < list1.length; i++) {\n        next[i] = toAddress(list1[i]);\n      }\n    }\n  }\n\n  /*\n  * @param extra field bytes (version byte + rlp-encoded proposed info).\n  * @return rlp-encoded proposed info.\n  */\n  function getExtraData(bytes memory extra) public pure returns (bytes memory) {\n    bytes memory extraData = new bytes(extra.length-1);\n    uint extraDataPtr;\n    uint extraPtr;\n    assembly { extraDataPtr := add(extraData, 0x20) }\n    assembly { extraPtr := add(extra, 0x21) }\n    copy(extraPtr, extraDataPtr, extra.length-1);\n    return extraData;\n  }\n\n  /*\n  * @param (parentHash, parentRoundNum, parentNum, gapNum).\n  * @return hash of rlp-encoded of [[parentHash, parentRoundNum, parentNum], gapNum].\n  */\n  function createSignHash(bytes32 block_hash, uint64 round_num, int number, uint64 gap_num) \n    internal \n    pure \n  returns (bytes32 signHash) \n  {\n    bytes[] memory x = new bytes[](3);\n    x[0] = encodeBytes(abi.encodePacked(block_hash));\n    x[1] = encodeUint(round_num);\n    x[2] = encodeUint(uint(number));\n\n    bytes[] memory y = new bytes[](2);\n    y[0] = encodeList(x);\n    y[1] = encodeUint(gap_num);\n    signHash = keccak256(encodeList(y));\n  }\n\n  function toBytes32(bytes memory data) internal pure returns (bytes32 res) {\n    assembly {\n      res := mload(add(data, 32))\n    }\n  }\n\n  /*\n  * @param item RLP encoded bytes\n  */\n  function toRlpItem(bytes memory item) internal pure returns (RLPItem memory) {\n    uint256 memPtr;\n    assembly {\n      memPtr := add(item, 0x20)\n    }\n    return RLPItem(item.length, memPtr);\n  }\n\n  /*\n  * @param the RLP item.\n  * @return (memPtr, len) pair: location of the item's payload in memory.\n  */\n  function payloadLocation(RLPItem memory item) internal pure returns (uint256, uint256) {\n    uint256 offset = _payloadOffset(item.memPtr);\n    uint256 memPtr = item.memPtr + offset;\n    uint256 len = item.len - offset; // data length\n    return (memPtr, len);\n  }\n\n  /*\n  * @param the RLP item containing the encoded list.\n  */\n  function toList(RLPItem memory item) internal pure returns (RLPItem[] memory) {\n    require(isList(item));\n\n    uint256 items = numItems(item);\n    RLPItem[] memory result = new RLPItem[](items);\n\n    uint256 memPtr = item.memPtr + _payloadOffset(item.memPtr);\n    uint256 dataLen;\n    for (uint256 i = 0; i < items; i++) {\n      dataLen = _itemLength(memPtr);\n      result[i] = RLPItem(dataLen, memPtr);\n      memPtr = memPtr + dataLen;\n    }\n\n    return result;\n  }\n\n  // @return indicator whether encoded payload is a list. negate this function call for isData.\n  function isList(RLPItem memory item) internal pure returns (bool) {\n    if (item.len == 0) return false;\n\n    uint8 byte0;\n    uint256 memPtr = item.memPtr;\n    assembly {\n      byte0 := byte(0, mload(memPtr))\n    }\n\n    if (byte0 < LIST_SHORT_START) return false;\n    return true;\n  }\n\n  function toUint(RLPItem memory item) internal pure returns (uint256) {\n    require(item.len > 0 && item.len <= 33);\n    uint256 memPtr;\n    uint256 len;\n    (memPtr, len) = payloadLocation(item);\n\n    uint256 result;\n    assembly {\n      result := mload(memPtr)\n\n      // shift to the correct location if neccesary\n      if lt(len, 32) {\n          result := div(result, exp(256, sub(32, len)))\n      }\n    }\n\n    return result;\n  }\n\n  function toAddress(RLPItem memory item) internal pure returns (address) {\n    // 1 byte for the length prefix\n    require(item.len == 21);\n\n    return address(uint160(toUint(item)));\n  }\n\n  // @return number of payload items inside an encoded list.\n  function numItems(RLPItem memory item) internal pure returns (uint256) {\n    if (item.len == 0) return 0;\n\n    uint256 count = 0;\n    uint256 currPtr = item.memPtr + _payloadOffset(item.memPtr);\n    uint256 endPtr = item.memPtr + item.len;\n    while (currPtr < endPtr) {\n      currPtr = currPtr + _itemLength(currPtr); // skip over an item\n      count++;\n    }\n\n    return count;\n  }\n\n  // @return entire rlp item byte length\n  function _itemLength(uint256 memPtr) internal pure returns (uint256) {\n    uint256 itemLen;\n    uint256 byte0;\n    assembly {\n      byte0 := byte(0, mload(memPtr))\n    }\n\n    if (byte0 < STRING_SHORT_START) {\n      itemLen = 1;\n    } else if (byte0 < STRING_LONG_START) {\n      itemLen = byte0 - STRING_SHORT_START + 1;\n    } else if (byte0 < LIST_SHORT_START) {\n      assembly {\n        let byteLen := sub(byte0, 0xb7) // # of bytes the actual length is\n        memPtr := add(memPtr, 1) // skip over the first byte\n\n        /* 32 byte word size */\n        let dataLen := div(mload(memPtr), exp(256, sub(32, byteLen))) // right shifting to get the len\n        itemLen := add(dataLen, add(byteLen, 1))\n      }\n    } else if (byte0 < LIST_LONG_START) {\n      itemLen = byte0 - LIST_SHORT_START + 1;\n    } else {\n      assembly {\n        let byteLen := sub(byte0, 0xf7)\n        memPtr := add(memPtr, 1)\n\n        let dataLen := div(mload(memPtr), exp(256, sub(32, byteLen))) // right shifting to the correct length\n        itemLen := add(dataLen, add(byteLen, 1))\n      }\n    }\n\n    return itemLen;\n  }\n\n\n  // @return number of bytes until the data\n  function _payloadOffset(uint256 memPtr) internal pure returns (uint256) {\n    uint256 byte0;\n    assembly {\n      byte0 := byte(0, mload(memPtr))\n    }\n    if (byte0 < STRING_SHORT_START) {\n      return 0;\n    } else if (byte0 < STRING_LONG_START || (byte0 >= LIST_SHORT_START && byte0 < LIST_LONG_START)) {\n      return 1;\n    } else if (byte0 < LIST_SHORT_START) {\n      // being explicit\n      return byte0 - (STRING_LONG_START - 1) + 1;\n    } else {\n      return byte0 - (LIST_LONG_START - 1) + 1;\n    }\n  }\n\n  function toBytes(RLPItem memory item) internal pure returns (bytes memory) {\n    require(item.len > 0);\n    uint256 memPtr;\n    uint256 len;\n    (memPtr, len) = payloadLocation(item);\n    bytes memory result = new bytes(len);\n\n    uint256 destPtr;\n    assembly {\n      destPtr := add(0x20, result)\n    }\n\n    copy(memPtr, destPtr, len);\n    return result;\n  }\n\n  /*\n  * @param src Pointer to source\n  * @param dest Pointer to destination\n  * @param len Amount of memory to copy from the source\n  */\n  function copy(uint256 src, uint256 dest, uint256 len) internal pure {\n    if (len == 0) return;\n\n    // copy as many word sizes as possible\n    for (; len >= WORD_SIZE; len -= WORD_SIZE) {\n      assembly {\n        mstore(dest, mload(src))\n      }\n\n      src += WORD_SIZE;\n      dest += WORD_SIZE;\n    }\n\n    if (len > 0) {\n      // left over bytes. Mask is used to remove unwanted bytes from the word\n      uint256 mask = 256**(WORD_SIZE - len) - 1;\n      assembly {\n        let srcpart := and(mload(src), not(mask)) // zero out src\n        let destpart := and(mload(dest), mask) // retrieve the bytes\n        mstore(dest, or(destpart, srcpart))\n      }\n    }\n  }\n\n  /**\n  * @dev RLP encodes a byte string.\n  * @param self The byte string to encode.\n  * @return The RLP encoded string in bytes.\n  */\n  function encodeBytes(bytes memory self) internal pure returns (bytes memory) {\n    bytes memory encoded;\n    if (self.length == 1 && uint8(self[0]) < 128) {\n      encoded = self;\n    } else {\n      encoded = concat(encodeLength(self.length, 128), self);\n    }\n    return encoded;\n  }\n\n  /**\n  * @dev RLP encodes a list of RLP encoded byte byte strings.\n  * @param self The list of RLP encoded byte strings.\n  * @return The RLP encoded list of items in bytes.\n  */\n  function encodeList(bytes[] memory self) internal pure returns (bytes memory) {\n    bytes memory list = flatten(self);\n    return concat(encodeLength(list.length, 192), list);\n  }\n\n  /** \n  * @dev RLP encodes a uint.\n  * @param self The uint to encode.\n  * @return The RLP encoded uint in bytes.\n  */\n  function encodeUint(uint self) internal pure returns (bytes memory) {\n    return encodeBytes(toBinary(self));\n  }\n\n  /**\n  * @dev Encode the first byte, followed by the `len` in binary form if `length` is more than 55.\n  * @param len The length of the string or the payload.\n  * @param offset 128 if item is string, 192 if item is list.\n  * @return RLP encoded bytes.\n  */\n  function encodeLength(uint len, uint offset) internal pure returns (bytes memory) {\n    bytes memory encoded;\n    if (len < 56) {\n      encoded = new bytes(1);\n      encoded[0] = bytes32(len + offset)[31];\n    } else {\n      uint lenLen;\n      uint i = 1;\n      while (len / i != 0) {\n        lenLen++;\n        i *= 256;\n      }\n      encoded = new bytes(lenLen + 1);\n      encoded[0] = bytes32(lenLen + offset + 55)[31];\n      for(i = 1; i <= lenLen; i++) {\n          encoded[i] = bytes32((len / (256**(lenLen-i))) % 256)[31];\n      }\n    }\n    return encoded;\n  }\n\n  /**\n  * @dev Encode integer in big endian binary form with no leading zeroes.\n  * @notice TODO: This should be optimized with assembly to save gas costs.\n  * @param _x The integer to encode.\n  * @return RLP encoded bytes.\n  */\n  function toBinary(uint _x) internal pure returns (bytes memory) {\n    bytes memory b = new bytes(32);\n    assembly { \n      mstore(add(b, 32), _x) \n    }\n    uint i;\n    for (i = 0; i < 32; i++) {\n      if (b[i] != 0) {\n        break;\n      }\n    }\n    bytes memory res = new bytes(32 - i);\n    for (uint j = 0; j < res.length; j++) {\n      res[j] = b[i++];\n    }\n    return res;\n  }\n\n  /**\n  * @dev Flattens a list of byte strings into one byte string.\n  * @notice From: https://github.com/sammayo/solidity-rlp-encoder/blob/master/RLPEncode.sol.\n  * @param _list List of byte strings to flatten.\n  * @return The flattened byte string.\n  */\n  function flatten(bytes[] memory _list) internal pure returns (bytes memory) {\n    if (_list.length == 0) {\n      return new bytes(0);\n    }\n\n    uint len;\n    uint i;\n    for (i = 0; i < _list.length; i++) {\n      len += _list[i].length;\n    }\n\n    bytes memory flattened = new bytes(len);\n    uint flattenedPtr;\n    assembly { flattenedPtr := add(flattened, 0x20) }\n\n    for(i = 0; i < _list.length; i++) {\n      bytes memory item = _list[i];\n      \n      uint listPtr;\n      assembly { listPtr := add(item, 0x20)}\n\n      copy(listPtr, flattenedPtr, item.length);\n      flattenedPtr += _list[i].length;\n    }\n    return flattened;\n  }\n\n  /**\n  * @dev Concatenates two bytes.\n  * @notice From: https://github.com/GNSPS/solidity-bytes-utils/blob/master/contracts/BytesLib.sol.\n  * @param _preBytes First byte string.\n  * @param _postBytes Second byte string.\n  * @return Both byte string combined.\n  */\n  function concat(bytes memory _preBytes, bytes memory _postBytes) internal pure returns (bytes memory) {\n    bytes memory tempBytes;\n\n    assembly {\n      tempBytes := mload(0x40)\n\n      let length := mload(_preBytes)\n      mstore(tempBytes, length)\n\n      let mc := add(tempBytes, 0x20)\n      let end := add(mc, length)\n\n      for {\n        let cc := add(_preBytes, 0x20)\n      } lt(mc, end) {\n        mc := add(mc, 0x20)\n        cc := add(cc, 0x20)\n      } {\n        mstore(mc, mload(cc))\n      }\n\n      length := mload(_postBytes)\n      mstore(tempBytes, add(length, mload(tempBytes)))\n\n      mc := end\n      end := add(mc, length)\n\n      for {\n        let cc := add(_postBytes, 0x20)\n      } lt(mc, end) {\n        mc := add(mc, 0x20)\n        cc := add(cc, 0x20)\n      } {\n        mstore(mc, mload(cc))\n      }\n\n      mstore(0x40, and(\n        add(add(end, iszero(add(length, mload(_preBytes)))), 31),\n        not(31)\n      ))\n    }\n    return tempBytes;\n  }\n}",
  "sourcePath": "/Users/sihengpan/Documents/XinFin/XDC-Subnet/mainnet_contract/contracts/HeaderReader.sol",
  "compiler": {
    "name": "solc",
    "version": "0.5.16+commit.9c3226ce.Emscripten.clang"
  },
  "schemaVersion": "3.4.1",
  "updatedAt": "2023-04-27T19:56:06.649Z",
  "devdoc": {
    "methods": {}
  },
  "userdoc": {
    "methods": {}
  }
}