{
  "contractName": "HeaderReader",
  "abi": [
    {
      "constant": true,
      "inputs": [
        {
          "internalType": "bytes",
          "name": "header",
          "type": "bytes"
        }
      ],
      "name": "getParentHashAndNumber",
      "outputs": [
        {
          "internalType": "bytes32",
          "name": "",
          "type": "bytes32"
        },
        {
          "internalType": "int256",
          "name": "",
          "type": "int256"
        }
      ],
      "payable": false,
      "stateMutability": "pure",
      "type": "function"
    },
    {
      "constant": true,
      "inputs": [
        {
          "internalType": "bytes",
          "name": "header",
          "type": "bytes"
        }
      ],
      "name": "getBlock1Params",
      "outputs": [
        {
          "internalType": "bytes32",
          "name": "",
          "type": "bytes32"
        },
        {
          "internalType": "int256",
          "name": "",
          "type": "int256"
        },
        {
          "internalType": "uint64",
          "name": "",
          "type": "uint64"
        }
      ],
      "payable": false,
      "stateMutability": "pure",
      "type": "function"
    },
    {
      "constant": true,
      "inputs": [
        {
          "internalType": "bytes",
          "name": "header",
          "type": "bytes"
        }
      ],
      "name": "getValidationParams",
      "outputs": [
        {
          "internalType": "bytes32",
          "name": "",
          "type": "bytes32"
        },
        {
          "internalType": "int256",
          "name": "",
          "type": "int256"
        },
        {
          "internalType": "uint64",
          "name": "",
          "type": "uint64"
        },
        {
          "internalType": "uint64",
          "name": "",
          "type": "uint64"
        },
        {
          "internalType": "bytes32",
          "name": "",
          "type": "bytes32"
        },
        {
          "internalType": "bytes[]",
          "name": "",
          "type": "bytes[]"
        }
      ],
      "payable": false,
      "stateMutability": "pure",
      "type": "function"
    },
    {
      "constant": false,
      "inputs": [
        {
          "internalType": "bytes",
          "name": "header",
          "type": "bytes"
        }
      ],
      "name": "getEpoch",
      "outputs": [
        {
          "internalType": "address[]",
          "name": "current",
          "type": "address[]"
        },
        {
          "internalType": "address[]",
          "name": "next",
          "type": "address[]"
        }
      ],
      "payable": false,
      "stateMutability": "nonpayable",
      "type": "function"
    },
    {
      "constant": true,
      "inputs": [
        {
          "internalType": "bytes",
          "name": "extra",
          "type": "bytes"
        }
      ],
      "name": "getExtraData",
      "outputs": [
        {
          "internalType": "bytes",
          "name": "",
          "type": "bytes"
        }
      ],
      "payable": false,
      "stateMutability": "pure",
      "type": "function"
    }
  ],
  "bytecode": "0x608060405234801561001057600080fd5b50611bed806100206000396000f3fe608060405234801561001057600080fd5b50600436106100575760003560e01c806344e06ed41461005c578063462648b614610091578063750a2ae5146100c1578063be7558c0146100f2578063dc9e408b14610124575b600080fd5b6100766004803603610071919081019061163e565b610155565b60405161008896959493929190611935565b60405180910390f35b6100ab60048036036100a6919081019061163e565b61044f565b6040516100b8919061199d565b60405180910390f35b6100db60048036036100d6919081019061163e565b6104b5565b6040516100e992919061189e565b60405180910390f35b61010c6004803603610107919081019061163e565b6108c1565b60405161011b939291906118fe565b60405180910390f35b61013e6004803603610139919081019061163e565b610988565b60405161014c9291906118d5565b60405180910390f35b600080600080600060608061017161016c896109ec565b610a1a565b905060606101aa6101a56101a061019b85600c8151811061018e57fe5b6020026020010151610af7565b61044f565b6109ec565b610a1a565b905060006101cb826000815181106101be57fe5b6020026020010151610b75565b905060606102086101ef846001815181106101e257fe5b6020026020010151610a1a565b6000815181106101fb57fe5b6020026020010151610a1a565b9050600061023161022c8360008151811061021f57fe5b6020026020010151610af7565b610bd3565b905060006102528360018151811061024557fe5b6020026020010151610b75565b905060006102738460028151811061026657fe5b6020026020010151610b75565b905061029a6102958860008151811061028857fe5b6020026020010151610af7565b610bd3565b83146102db576040517f08c379a00000000000000000000000000000000000000000000000000000000081526004016102d2906119bf565b60405180910390fd5b60606103166102fd886001815181106102f057fe5b6020026020010151610a1a565b60018151811061030957fe5b6020026020010151610a1a565b90506060815160405190808252806020026020018201604052801561034f57816020015b606081526020019060019003908161033a5790505b50905060008090505b82518110156103a15761037d83828151811061037057fe5b6020026020010151610af7565b82828151811061038957fe5b60200260200101819052508080600101915050610358565b5060006103e88686866103e36103ca8e6001815181106103bd57fe5b6020026020010151610a1a565b6002815181106103d657fe5b6020026020010151610b75565b610be1565b905061040f61040a8b6000815181106103fd57fe5b6020026020010151610af7565b610bd3565b61042c8b60088151811061041f57fe5b6020026020010151610b75565b898784869f509f509f509f509f509f505050505050505050505091939550919395565b60608060018351036040519080825280601f01601f1916602001820160405280156104895781602001600182028038833980820191505090505b5090506000806020830191506021850190506104aa81836001885103610d4b565b829350505050919050565b60608060606104cb6104c6856109ec565b610a1a565b905060606104ec826010815181106104df57fe5b6020026020010151610a1a565b90506000815111156105ab5780516040519080825280602002602001820160405280156105285781602001602082028038833980820191505090505b50935060008090505b81518110156105a95761055682828151811061054957fe5b6020026020010151610dbc565b85828151811061056257fe5b602002602001019073ffffffffffffffffffffffffffffffffffffffff16908173ffffffffffffffffffffffffffffffffffffffff16815250508080600101915050610531565b505b60606105ca836011815181106105bd57fe5b6020026020010151610a1a565b90506000815111156108b95760606105f5846012815181106105e857fe5b6020026020010151610a1a565b9050606081516040519080825280602002602001820160405280156106295781602001602082028038833980820191505090505b509050600080905060008090505b83518110156107195761065c84828151811061064f57fe5b6020026020010151610dbc565b83828151811061066857fe5b602002602001019073ffffffffffffffffffffffffffffffffffffffff16908173ffffffffffffffffffffffffffffffffffffffff168152505060016000808584815181106106b357fe5b602002602001015173ffffffffffffffffffffffffffffffffffffffff1673ffffffffffffffffffffffffffffffffffffffff16815260200190815260200160002060006101000a81548160ff0219169083151502179055508080600101915050610637565b50825184510360405190808252806020026020018201604052801561074d5781602001602082028038833980820191505090505b50965060008090505b845181101561082d57600061077d86838151811061077057fe5b6020026020010151610dbc565b90506000808273ffffffffffffffffffffffffffffffffffffffff1673ffffffffffffffffffffffffffffffffffffffff16815260200190815260200160002060009054906101000a900460ff1661081f57808984815181106107dc57fe5b602002602001019073ffffffffffffffffffffffffffffffffffffffff16908173ffffffffffffffffffffffffffffffffffffffff168152505082806001019350505b508080600101915050610756565b5060008090505b83518110156108b457600080600085848151811061084e57fe5b602002602001015173ffffffffffffffffffffffffffffffffffffffff1673ffffffffffffffffffffffffffffffffffffffff16815260200190815260200160002060006101000a81548160ff0219169083151502179055508080600101915050610834565b505050505b505050915091565b600080600060606108d96108d4866109ec565b610a1a565b9050606061091261090d61090861090385600c815181106108f657fe5b6020026020010151610af7565b61044f565b6109ec565b610a1a565b905060006109338260008151811061092657fe5b6020026020010151610b75565b905061095a6109558460008151811061094857fe5b6020026020010151610af7565b610bd3565b6109778460088151811061096a57fe5b6020026020010151610b75565b829550955095505050509193909250565b600080606061099e610999856109ec565b610a1a565b90506109c56109c0826000815181106109b357fe5b6020026020010151610af7565b610bd3565b6109e2826008815181106109d557fe5b6020026020010151610b75565b9250925050915091565b6109f46115b6565b600060208301905060405180604001604052808451815260200182815250915050919050565b6060610a2582610ddf565b610a2e57600080fd5b6000610a3983610e2d565b9050606081604051908082528060200260200182016040528015610a7757816020015b610a646115d0565b815260200190600190039081610a5c5790505b5090506000610a898560200151610e9e565b8560200151019050600080600090505b84811015610aea57610aaa83610f27565b9150604051806040016040528083815260200184815250848281518110610acd57fe5b602002602001018190525081830192508080600101915050610a99565b5082945050505050919050565b60606000826000015111610b0a57600080fd5b600080610b1684610fdf565b80925081935050506060816040519080825280601f01601f191660200182016040528015610b535781602001600182028038833980820191505090505b5090506000816020019050610b69848285610d4b565b81945050505050919050565b6000808260000151118015610b8f57506021826000015111155b610b9857600080fd5b600080610ba484610fdf565b80925081935050506000825190506020821015610bc857816020036101000a810490505b809350505050919050565b600060208201519050919050565b600060606003604051908082528060200260200182016040528015610c1a57816020015b6060815260200190600190039081610c055790505b509050610c4586604051602001610c319190611883565b604051602081830303815290604052611017565b81600081518110610c5257fe5b6020026020010181905250610c708567ffffffffffffffff16611076565b81600181518110610c7d57fe5b6020026020010181905250610c9184611076565b81600281518110610c9e57fe5b602002602001018190525060606002604051908082528060200260200182016040528015610ce057816020015b6060815260200190600190039081610ccb5790505b509050610cec82611090565b81600081518110610cf957fe5b6020026020010181905250610d178467ffffffffffffffff16611076565b81600181518110610d2457fe5b6020026020010181905250610d3881611090565b8051906020012092505050949350505050565b6000811415610d5957610db7565b5b602060ff168110610d895782518252602060ff1683019250602060ff1682019150602060ff1681039050610d5a565b6000811115610db6576000600182602060ff16036101000a03905080198451168184511681811785525050505b5b505050565b60006015826000015114610dcf57600080fd5b610dd882610b75565b9050919050565b60008082600001511415610df65760009050610e28565b60008083602001519050805160001a915060c060ff168260ff161015610e2157600092505050610e28565b6001925050505b919050565b60008082600001511415610e445760009050610e99565b60008090506000610e588460200151610e9e565b84602001510190506000846000015185602001510190505b80821015610e9257610e8182610f27565b820191508280600101935050610e70565b8293505050505b919050565b600080825160001a9050608060ff16811015610ebe576000915050610f22565b60b860ff16811080610ee3575060c060ff168110158015610ee2575060f860ff1681105b5b15610ef2576001915050610f22565b60c060ff16811015610f125760018060b80360ff16820301915050610f22565b60018060f80360ff168203019150505b919050565b6000806000835160001a9050608060ff16811015610f485760019150610fd5565b60b860ff16811015610f65576001608060ff168203019150610fd4565b60c060ff16811015610f955760b78103600185019450806020036101000a85510460018201810193505050610fd3565b60f860ff16811015610fb257600160c060ff168203019150610fd2565b60f78103600185019450806020036101000a855104600182018101935050505b5b5b5b8192505050919050565b6000806000610ff18460200151610e9e565b905060008185602001510190506000828660000151039050818194509450505050915091565b60608060018351148015611048575060808360008151811061103557fe5b602001015160f81c60f81b60f81c60ff16105b156110555782905061106d565b61106a611064845160806110bb565b8461129f565b90505b80915050919050565b606061108961108483611329565b611017565b9050919050565b60608061109c83611488565b90506110b36110ad825160c06110bb565b8261129f565b915050919050565b60608060388410156111555760016040519080825280601f01601f1916602001820160405280156110fb5781602001600182028038833980820191505090505b50905082840160001b601f6020811061111057fe5b1a60f81b8160008151811061112157fe5b60200101907effffffffffffffffffffffffffffffffffffffffffffffffffffffffffffff1916908160001a905350611295565b600080600190505b600081878161116857fe5b04146111825781806001019250506101008102905061115d565b600182016040519080825280601f01601f1916602001820160405280156111b85781602001600182028038833980820191505090505b50925060378583010160001b601f602081106111d057fe5b1a60f81b836000815181106111e157fe5b60200101907effffffffffffffffffffffffffffffffffffffffffffffffffffffffffffff1916908160001a905350600190505b818111611292576101008183036101000a878161122e57fe5b048161123657fe5b0660001b601f6020811061124657fe5b1a60f81b83828151811061125657fe5b60200101907effffffffffffffffffffffffffffffffffffffffffffffffffffffffffffff1916908160001a9053508080600101915050611215565b50505b8091505092915050565b6060806040519050835180825260208201818101602087015b818310156112d557805183526020830192506020810190506112b8565b50855192508351830184528091508282019050602086015b8183101561130a57805183526020830192506020810190506112ed565b50601f19601f8851850115830101166040525050508091505092915050565b60608060206040519080825280601f01601f1916602001820160405280156113605781602001600182028038833980820191505090505b50905082602082015260008090505b60208110156113cd57600060f81b82828151811061138957fe5b602001015160f81c60f81b7effffffffffffffffffffffffffffffffffffffffffffffffffffffffffffff1916146113c0576113cd565b808060010191505061136f565b6060816020036040519080825280601f01601f1916602001820160405280156114055781602001600182028038833980820191505090505b50905060008090505b815181101561147c5783838060010194508151811061142957fe5b602001015160f81c60f81b82828151811061144057fe5b60200101907effffffffffffffffffffffffffffffffffffffffffffffffffffffffffffff1916908160001a905350808060010191505061140e565b50809350505050919050565b60606000825114156114d05760006040519080825280601f01601f1916602001820160405280156114c85781602001600182028038833980820191505090505b5090506115b1565b600080600090505b8351811015611507578381815181106114ed57fe5b6020026020010151518201915080806001019150506114d8565b6060826040519080825280601f01601f19166020018201604052801561153c5781602001600182028038833980820191505090505b5090506000602082019050600092505b85518310156115a957606086848151811061156357fe5b60200260200101519050600060208201905061158181848451610d4b565b87858151811061158d57fe5b602002602001015151830192505050828060010193505061154c565b819450505050505b919050565b604051806040016040528060008152602001600081525090565b604051806040016040528060008152602001600081525090565b600082601f8301126115fb57600080fd5b813561160e61160982611a0c565b6119df565b9150808252602083016020830185838301111561162a57600080fd5b611635838284611b4d565b50505092915050565b60006020828403121561165057600080fd5b600082013567ffffffffffffffff81111561166a57600080fd5b611676848285016115ea565b91505092915050565b600061168b83836116ab565b60208301905092915050565b60006116a383836117ec565b905092915050565b6116b481611af3565b82525050565b60006116c582611a58565b6116cf8185611a9e565b93506116da83611a38565b8060005b8381101561170b5781516116f2888261167f565b97506116fd83611a84565b9250506001810190506116de565b5085935050505092915050565b600061172382611a63565b61172d8185611aaf565b93508360208202850161173f85611a48565b8060005b8581101561177b578484038952815161175c8582611697565b945061176783611a91565b925060208a01995050600181019050611743565b50829750879550505050505092915050565b61179681611b05565b82525050565b6117ad6117a882611b05565b611b8f565b82525050565b60006117be82611a79565b6117c88185611ad1565b93506117d8818560208601611b5c565b6117e181611b99565b840191505092915050565b60006117f782611a6e565b6118018185611ac0565b9350611811818560208601611b5c565b61181a81611b99565b840191505092915050565b61182e81611b0f565b82525050565b6000611841601383611ae2565b91507f566572696669636174696f6e204661696c6564000000000000000000000000006000830152602082019050919050565b61187d81611b39565b82525050565b600061188f828461179c565b60208201915081905092915050565b600060408201905081810360008301526118b881856116ba565b905081810360208301526118cc81846116ba565b90509392505050565b60006040820190506118ea600083018561178d565b6118f76020830184611825565b9392505050565b6000606082019050611913600083018661178d565b6119206020830185611825565b61192d6040830184611874565b949350505050565b600060c08201905061194a600083018961178d565b6119576020830188611825565b6119646040830187611874565b6119716060830186611874565b61197e608083018561178d565b81810360a08301526119908184611718565b9050979650505050505050565b600060208201905081810360008301526119b781846117b3565b905092915050565b600060208201905081810360008301526119d881611834565b9050919050565b6000604051905081810181811067ffffffffffffffff82111715611a0257600080fd5b8060405250919050565b600067ffffffffffffffff821115611a2357600080fd5b601f19601f8301169050602081019050919050565b6000819050602082019050919050565b6000819050602082019050919050565b600081519050919050565b600081519050919050565b600081519050919050565b600081519050919050565b6000602082019050919050565b6000602082019050919050565b600082825260208201905092915050565b600082825260208201905092915050565b600082825260208201905092915050565b600082825260208201905092915050565b600082825260208201905092915050565b6000611afe82611b19565b9050919050565b6000819050919050565b6000819050919050565b600073ffffffffffffffffffffffffffffffffffffffff82169050919050565b600067ffffffffffffffff82169050919050565b82818337600083830152505050565b60005b83811015611b7a578082015181840152602081019050611b5f565b83811115611b89576000848401525b50505050565b6000819050919050565b6000601f19601f830116905091905056fea365627a7a723158206a78da8c4560487bb7be65aac2b3833419179e394962e441ba7318f835c981946c6578706572696d656e74616cf564736f6c63430005100040",
  "source": "// SPDX-License-Identifier: MIT\npragma solidity >=0.4.21 <0.9.0;\npragma experimental ABIEncoderV2;\n\n\n// HeaderReader is a helper library to read fields out of rlp-encoded blocks. \n// It is mainly consisted of Solidity-RLP(https://github.com/hamdiallam/Solidity-RLP) and \n// solidity-rlp-encode(https://github.com/bakaoh/solidity-rlp-encode)\ncontract HeaderReader {\n\n  mapping(address => bool) unique_addr;\n\n  // Solidity-RLP defined constants and struct\n  uint8 constant STRING_SHORT_START = 0x80;\n  uint8 constant STRING_LONG_START = 0xb8;\n  uint8 constant LIST_SHORT_START = 0xc0;\n  uint8 constant LIST_LONG_START = 0xf8;\n  uint8 constant WORD_SIZE = 32;\n\n  struct RLPItem {\n    uint256 len;\n    uint256 memPtr;\n  }\n\n  /*\n  * @param genesis rlp-encoded block header.\n  * @return (parentHash, genesisNum) pair.\n  */\n  function getParentHashAndNumber(bytes memory header) public pure returns (bytes32, int) {\n    RLPItem[] memory ls = toList(toRlpItem(header));\n    return (toBytes32(toBytes(ls[0])), int(toUint(ls[8])));\n  }\n\n  /*\n  * @param block1 rlp-encoded header.\n  * @return (parentHash, blockNum, blockRoundNum).\n  */\n  function getBlock1Params(bytes memory header) \n    public\n    pure \n    returns (bytes32, int, uint64) \n  {\n    RLPItem[] memory ls = toList(toRlpItem(header));\n    RLPItem[] memory extra = toList(toRlpItem(getExtraData(toBytes(ls[12]))));\n    uint64 round_number = uint64(toUint(extra[0]));\n    return (toBytes32(toBytes(ls[0])), int(toUint(ls[8])), round_number);\n  }\n\n  /*\n  * @param rlp-encoded block header.\n  * @return (parentHash, blockNum, blockRoundNum, signed hash, sigs).\n  */\n  function getValidationParams(bytes memory header) \n    public \n    pure \n    returns (bytes32, int, uint64, uint64, bytes32, bytes[] memory) \n  {\n    RLPItem[] memory ls = toList(toRlpItem(header));\n    RLPItem[] memory extra = toList(toRlpItem(getExtraData(toBytes(ls[12]))));\n    uint64 round_number = uint64(toUint(extra[0]));\n    RLPItem[] memory proposed_block = toList(toList(extra[1])[0]);\n    bytes32 parent_hash = toBytes32(toBytes(proposed_block[0]));\n    uint64 parent_round_number = uint64(toUint(proposed_block[1]));\n    int parent_number = int(toUint(proposed_block[2]));\n    if (parent_hash != toBytes32(toBytes(ls[0]))) {\n      revert(\"Verification Failed\");\n    }\n    RLPItem[] memory raw_sigs = toList(toList(extra[1])[1]);\n    bytes[] memory sigs = new bytes[](raw_sigs.length);\n    for (uint i = 0; i < raw_sigs.length; i++) {\n      sigs[i] = toBytes(raw_sigs[i]);\n    }\n    bytes32 signHash = createSignHash(parent_hash, parent_round_number, parent_number, uint64(toUint(toList(extra[1])[2])));\n    return (toBytes32(toBytes(ls[0])), int(toUint(ls[8])), round_number, parent_round_number, signHash, sigs);\n  }\n\n  /*\n  * @param rlp-encoded block header.\n  * @return (currentValidator list, nextValidator list).\n  */\n  function getEpoch(bytes memory header) \n    public \n  returns (address[] memory current, address[] memory next) \n  {\n    RLPItem[] memory ls = toList(toRlpItem(header));\n    RLPItem[] memory list0 = toList(ls[16]);\n    if (list0.length > 0) {\n      current = new address[](list0.length);\n      for (uint i = 0; i < list0.length; i++) {\n        current[i] = toAddress(list0[i]);\n      }\n    }\n    RLPItem[] memory list1 = toList(ls[17]);\n    if (list1.length > 0) {\n      RLPItem[] memory list2 = toList(ls[18]);\n      address[] memory penalty = new address[](list2.length);\n      uint counter = 0;\n      for (uint i = 0; i < list2.length; i++) {\n        penalty[i] = toAddress(list2[i]);\n        unique_addr[penalty[i]] = true;\n      }\n      next = new address[](list1.length - list2.length);\n      for (uint i = 0; i < list1.length; i++) {\n        address temp = toAddress(list1[i]);\n        if (!unique_addr[temp]) {\n          next[counter] = temp;\n          counter ++;\n        }\n      }\n      for (uint i = 0; i < list2.length; i++) {\n        unique_addr[penalty[i]] = false;\n      } \n    }\n  }\n\n  /*\n  * @param extra field bytes (version byte + rlp-encoded proposed info).\n  * @return rlp-encoded proposed info.\n  */\n  function getExtraData(bytes memory extra) public pure returns (bytes memory) {\n    bytes memory extraData = new bytes(extra.length-1);\n    uint extraDataPtr;\n    uint extraPtr;\n    assembly { extraDataPtr := add(extraData, 0x20) }\n    assembly { extraPtr := add(extra, 0x21) }\n    copy(extraPtr, extraDataPtr, extra.length-1);\n    return extraData;\n  }\n\n  /*\n  * @param (parentHash, parentRoundNum, parentNum, gapNum).\n  * @return hash of rlp-encoded of [[parentHash, parentRoundNum, parentNum], gapNum].\n  */\n  function createSignHash(bytes32 block_hash, uint64 round_num, int number, uint64 gap_num) \n    internal \n    pure \n  returns (bytes32 signHash) \n  {\n    bytes[] memory x = new bytes[](3);\n    x[0] = encodeBytes(abi.encodePacked(block_hash));\n    x[1] = encodeUint(round_num);\n    x[2] = encodeUint(uint(number));\n\n    bytes[] memory y = new bytes[](2);\n    y[0] = encodeList(x);\n    y[1] = encodeUint(gap_num);\n    signHash = keccak256(encodeList(y));\n  }\n\n  function toBytes32(bytes memory data) internal pure returns (bytes32 res) {\n    assembly {\n      res := mload(add(data, 32))\n    }\n  }\n\n  /*\n  * @param item RLP encoded bytes\n  */\n  function toRlpItem(bytes memory item) internal pure returns (RLPItem memory) {\n    uint256 memPtr;\n    assembly {\n      memPtr := add(item, 0x20)\n    }\n    return RLPItem(item.length, memPtr);\n  }\n\n  /*\n  * @param the RLP item.\n  * @return (memPtr, len) pair: location of the item's payload in memory.\n  */\n  function payloadLocation(RLPItem memory item) internal pure returns (uint256, uint256) {\n    uint256 offset = _payloadOffset(item.memPtr);\n    uint256 memPtr = item.memPtr + offset;\n    uint256 len = item.len - offset; // data length\n    return (memPtr, len);\n  }\n\n  /*\n  * @param the RLP item containing the encoded list.\n  */\n  function toList(RLPItem memory item) internal pure returns (RLPItem[] memory) {\n    require(isList(item));\n\n    uint256 items = numItems(item);\n    RLPItem[] memory result = new RLPItem[](items);\n\n    uint256 memPtr = item.memPtr + _payloadOffset(item.memPtr);\n    uint256 dataLen;\n    for (uint256 i = 0; i < items; i++) {\n      dataLen = _itemLength(memPtr);\n      result[i] = RLPItem(dataLen, memPtr);\n      memPtr = memPtr + dataLen;\n    }\n\n    return result;\n  }\n\n  // @return indicator whether encoded payload is a list. negate this function call for isData.\n  function isList(RLPItem memory item) internal pure returns (bool) {\n    if (item.len == 0) return false;\n\n    uint8 byte0;\n    uint256 memPtr = item.memPtr;\n    assembly {\n      byte0 := byte(0, mload(memPtr))\n    }\n\n    if (byte0 < LIST_SHORT_START) return false;\n    return true;\n  }\n\n  function toUint(RLPItem memory item) internal pure returns (uint256) {\n    require(item.len > 0 && item.len <= 33);\n    uint256 memPtr;\n    uint256 len;\n    (memPtr, len) = payloadLocation(item);\n\n    uint256 result;\n    assembly {\n      result := mload(memPtr)\n\n      // shift to the correct location if neccesary\n      if lt(len, 32) {\n          result := div(result, exp(256, sub(32, len)))\n      }\n    }\n\n    return result;\n  }\n\n  function toAddress(RLPItem memory item) internal pure returns (address) {\n    // 1 byte for the length prefix\n    require(item.len == 21);\n\n    return address(uint160(toUint(item)));\n  }\n\n  // @return number of payload items inside an encoded list.\n  function numItems(RLPItem memory item) internal pure returns (uint256) {\n    if (item.len == 0) return 0;\n\n    uint256 count = 0;\n    uint256 currPtr = item.memPtr + _payloadOffset(item.memPtr);\n    uint256 endPtr = item.memPtr + item.len;\n    while (currPtr < endPtr) {\n      currPtr = currPtr + _itemLength(currPtr); // skip over an item\n      count++;\n    }\n\n    return count;\n  }\n\n  // @return entire rlp item byte length\n  function _itemLength(uint256 memPtr) internal pure returns (uint256) {\n    uint256 itemLen;\n    uint256 byte0;\n    assembly {\n      byte0 := byte(0, mload(memPtr))\n    }\n\n    if (byte0 < STRING_SHORT_START) {\n      itemLen = 1;\n    } else if (byte0 < STRING_LONG_START) {\n      itemLen = byte0 - STRING_SHORT_START + 1;\n    } else if (byte0 < LIST_SHORT_START) {\n      assembly {\n        let byteLen := sub(byte0, 0xb7) // # of bytes the actual length is\n        memPtr := add(memPtr, 1) // skip over the first byte\n\n        /* 32 byte word size */\n        let dataLen := div(mload(memPtr), exp(256, sub(32, byteLen))) // right shifting to get the len\n        itemLen := add(dataLen, add(byteLen, 1))\n      }\n    } else if (byte0 < LIST_LONG_START) {\n      itemLen = byte0 - LIST_SHORT_START + 1;\n    } else {\n      assembly {\n        let byteLen := sub(byte0, 0xf7)\n        memPtr := add(memPtr, 1)\n\n        let dataLen := div(mload(memPtr), exp(256, sub(32, byteLen))) // right shifting to the correct length\n        itemLen := add(dataLen, add(byteLen, 1))\n      }\n    }\n\n    return itemLen;\n  }\n\n\n  // @return number of bytes until the data\n  function _payloadOffset(uint256 memPtr) internal pure returns (uint256) {\n    uint256 byte0;\n    assembly {\n      byte0 := byte(0, mload(memPtr))\n    }\n    if (byte0 < STRING_SHORT_START) {\n      return 0;\n    } else if (byte0 < STRING_LONG_START || (byte0 >= LIST_SHORT_START && byte0 < LIST_LONG_START)) {\n      return 1;\n    } else if (byte0 < LIST_SHORT_START) {\n      // being explicit\n      return byte0 - (STRING_LONG_START - 1) + 1;\n    } else {\n      return byte0 - (LIST_LONG_START - 1) + 1;\n    }\n  }\n\n  function toBytes(RLPItem memory item) internal pure returns (bytes memory) {\n    require(item.len > 0);\n    uint256 memPtr;\n    uint256 len;\n    (memPtr, len) = payloadLocation(item);\n    bytes memory result = new bytes(len);\n\n    uint256 destPtr;\n    assembly {\n      destPtr := add(0x20, result)\n    }\n\n    copy(memPtr, destPtr, len);\n    return result;\n  }\n\n  /*\n  * @param src Pointer to source\n  * @param dest Pointer to destination\n  * @param len Amount of memory to copy from the source\n  */\n  function copy(uint256 src, uint256 dest, uint256 len) internal pure {\n    if (len == 0) return;\n\n    // copy as many word sizes as possible\n    for (; len >= WORD_SIZE; len -= WORD_SIZE) {\n      assembly {\n        mstore(dest, mload(src))\n      }\n\n      src += WORD_SIZE;\n      dest += WORD_SIZE;\n    }\n\n    if (len > 0) {\n      // left over bytes. Mask is used to remove unwanted bytes from the word\n      uint256 mask = 256**(WORD_SIZE - len) - 1;\n      assembly {\n        let srcpart := and(mload(src), not(mask)) // zero out src\n        let destpart := and(mload(dest), mask) // retrieve the bytes\n        mstore(dest, or(destpart, srcpart))\n      }\n    }\n  }\n\n  /**\n  * @dev RLP encodes a byte string.\n  * @param self The byte string to encode.\n  * @return The RLP encoded string in bytes.\n  */\n  function encodeBytes(bytes memory self) internal pure returns (bytes memory) {\n    bytes memory encoded;\n    if (self.length == 1 && uint8(self[0]) < 128) {\n      encoded = self;\n    } else {\n      encoded = concat(encodeLength(self.length, 128), self);\n    }\n    return encoded;\n  }\n\n  /**\n  * @dev RLP encodes a list of RLP encoded byte byte strings.\n  * @param self The list of RLP encoded byte strings.\n  * @return The RLP encoded list of items in bytes.\n  */\n  function encodeList(bytes[] memory self) internal pure returns (bytes memory) {\n    bytes memory list = flatten(self);\n    return concat(encodeLength(list.length, 192), list);\n  }\n\n  /** \n  * @dev RLP encodes a uint.\n  * @param self The uint to encode.\n  * @return The RLP encoded uint in bytes.\n  */\n  function encodeUint(uint self) internal pure returns (bytes memory) {\n    return encodeBytes(toBinary(self));\n  }\n\n  /**\n  * @dev Encode the first byte, followed by the `len` in binary form if `length` is more than 55.\n  * @param len The length of the string or the payload.\n  * @param offset 128 if item is string, 192 if item is list.\n  * @return RLP encoded bytes.\n  */\n  function encodeLength(uint len, uint offset) internal pure returns (bytes memory) {\n    bytes memory encoded;\n    if (len < 56) {\n      encoded = new bytes(1);\n      encoded[0] = bytes32(len + offset)[31];\n    } else {\n      uint lenLen;\n      uint i = 1;\n      while (len / i != 0) {\n        lenLen++;\n        i *= 256;\n      }\n      encoded = new bytes(lenLen + 1);\n      encoded[0] = bytes32(lenLen + offset + 55)[31];\n      for(i = 1; i <= lenLen; i++) {\n          encoded[i] = bytes32((len / (256**(lenLen-i))) % 256)[31];\n      }\n    }\n    return encoded;\n  }\n\n  /**\n  * @dev Encode integer in big endian binary form with no leading zeroes.\n  * @notice TODO: This should be optimized with assembly to save gas costs.\n  * @param _x The integer to encode.\n  * @return RLP encoded bytes.\n  */\n  function toBinary(uint _x) internal pure returns (bytes memory) {\n    bytes memory b = new bytes(32);\n    assembly { \n      mstore(add(b, 32), _x) \n    }\n    uint i;\n    for (i = 0; i < 32; i++) {\n      if (b[i] != 0) {\n        break;\n      }\n    }\n    bytes memory res = new bytes(32 - i);\n    for (uint j = 0; j < res.length; j++) {\n      res[j] = b[i++];\n    }\n    return res;\n  }\n\n  /**\n  * @dev Flattens a list of byte strings into one byte string.\n  * @notice From: https://github.com/sammayo/solidity-rlp-encoder/blob/master/RLPEncode.sol.\n  * @param _list List of byte strings to flatten.\n  * @return The flattened byte string.\n  */\n  function flatten(bytes[] memory _list) internal pure returns (bytes memory) {\n    if (_list.length == 0) {\n      return new bytes(0);\n    }\n\n    uint len;\n    uint i;\n    for (i = 0; i < _list.length; i++) {\n      len += _list[i].length;\n    }\n\n    bytes memory flattened = new bytes(len);\n    uint flattenedPtr;\n    assembly { flattenedPtr := add(flattened, 0x20) }\n\n    for(i = 0; i < _list.length; i++) {\n      bytes memory item = _list[i];\n      \n      uint listPtr;\n      assembly { listPtr := add(item, 0x20)}\n\n      copy(listPtr, flattenedPtr, item.length);\n      flattenedPtr += _list[i].length;\n    }\n    return flattened;\n  }\n\n  /**\n  * @dev Concatenates two bytes.\n  * @notice From: https://github.com/GNSPS/solidity-bytes-utils/blob/master/contracts/BytesLib.sol.\n  * @param _preBytes First byte string.\n  * @param _postBytes Second byte string.\n  * @return Both byte string combined.\n  */\n  function concat(bytes memory _preBytes, bytes memory _postBytes) internal pure returns (bytes memory) {\n    bytes memory tempBytes;\n\n    assembly {\n      tempBytes := mload(0x40)\n\n      let length := mload(_preBytes)\n      mstore(tempBytes, length)\n\n      let mc := add(tempBytes, 0x20)\n      let end := add(mc, length)\n\n      for {\n        let cc := add(_preBytes, 0x20)\n      } lt(mc, end) {\n        mc := add(mc, 0x20)\n        cc := add(cc, 0x20)\n      } {\n        mstore(mc, mload(cc))\n      }\n\n      length := mload(_postBytes)\n      mstore(tempBytes, add(length, mload(tempBytes)))\n\n      mc := end\n      end := add(mc, length)\n\n      for {\n        let cc := add(_postBytes, 0x20)\n      } lt(mc, end) {\n        mc := add(mc, 0x20)\n        cc := add(cc, 0x20)\n      } {\n        mstore(mc, mload(cc))\n      }\n\n      mstore(0x40, and(\n        add(add(end, iszero(add(length, mload(_preBytes)))), 31),\n        not(31)\n      ))\n    }\n    return tempBytes;\n  }\n}",
  "sourcePath": "/Users/sihengpan/Documents/XinFin/XDC-Subnet/mainnet_contract/contracts/HeaderReader.sol",
  "compiler": {
    "name": "solc",
    "version": "0.5.16+commit.9c3226ce.Emscripten.clang"
  },
  "schemaVersion": "3.4.1",
  "updatedAt": "2023-05-26T14:48:07.885Z",
  "devdoc": {
    "methods": {}
  },
  "userdoc": {
    "methods": {}
  }
}