{
  "contractName": "HeaderReader",
  "abi": [
    {
      "constant": true,
      "inputs": [
        {
          "internalType": "bytes",
          "name": "header",
          "type": "bytes"
        }
      ],
      "name": "getParentHashAndNumber",
      "outputs": [
        {
          "internalType": "bytes32",
          "name": "",
          "type": "bytes32"
        },
        {
          "internalType": "int256",
          "name": "",
          "type": "int256"
        }
      ],
      "payable": false,
      "stateMutability": "pure",
      "type": "function"
    },
    {
      "constant": true,
      "inputs": [
        {
          "internalType": "bytes",
          "name": "header",
          "type": "bytes"
        }
      ],
      "name": "getBlock1Params",
      "outputs": [
        {
          "internalType": "bytes32",
          "name": "",
          "type": "bytes32"
        },
        {
          "internalType": "int256",
          "name": "",
          "type": "int256"
        },
        {
          "internalType": "uint64",
          "name": "",
          "type": "uint64"
        }
      ],
      "payable": false,
      "stateMutability": "pure",
      "type": "function"
    },
    {
      "constant": true,
      "inputs": [
        {
          "internalType": "bytes",
          "name": "header",
          "type": "bytes"
        }
      ],
      "name": "getValidationParams",
      "outputs": [
        {
          "internalType": "bytes32",
          "name": "",
          "type": "bytes32"
        },
        {
          "internalType": "int256",
          "name": "",
          "type": "int256"
        },
        {
          "internalType": "uint64",
          "name": "",
          "type": "uint64"
        },
        {
          "internalType": "uint64",
          "name": "",
          "type": "uint64"
        },
        {
          "internalType": "bytes32",
          "name": "",
          "type": "bytes32"
        },
        {
          "internalType": "bytes[]",
          "name": "",
          "type": "bytes[]"
        }
      ],
      "payable": false,
      "stateMutability": "pure",
      "type": "function"
    },
    {
      "constant": true,
      "inputs": [
        {
          "internalType": "bytes",
          "name": "header",
          "type": "bytes"
        }
      ],
      "name": "getEpoch",
      "outputs": [
        {
          "internalType": "address[]",
          "name": "current",
          "type": "address[]"
        },
        {
          "internalType": "address[]",
          "name": "next",
          "type": "address[]"
        }
      ],
      "payable": false,
      "stateMutability": "pure",
      "type": "function"
    },
    {
      "constant": true,
      "inputs": [
        {
          "internalType": "bytes",
          "name": "extra",
          "type": "bytes"
        }
      ],
      "name": "getExtraData",
      "outputs": [
        {
          "internalType": "bytes",
          "name": "",
          "type": "bytes"
        }
      ],
      "payable": false,
      "stateMutability": "pure",
      "type": "function"
    }
  ],
  "bytecode": "0x6119c7610026600b82828239805160001a60731461001957fe5b30600052607381538281f3fe73000000000000000000000000000000000000000030146080604052600436106100615760003560e01c806344e06ed414610066578063462648b61461009b578063750a2ae5146100cb578063be7558c0146100fc578063dc9e408b1461012e575b600080fd5b610080600480360361007b9190810190611418565b61015f565b6040516100929695949392919061170f565b60405180910390f35b6100b560048036036100b09190810190611418565b610459565b6040516100c29190611777565b60405180910390f35b6100e560048036036100e09190810190611418565b6104bf565b6040516100f3929190611678565b60405180910390f35b61011660048036036101119190810190611418565b61069b565b604051610125939291906116d8565b60405180910390f35b61014860048036036101439190810190611418565b610762565b6040516101569291906116af565b60405180910390f35b600080600080600060608061017b610176896107c6565b6107f4565b905060606101b46101af6101aa6101a585600c8151811061019857fe5b60200260200101516108d1565b610459565b6107c6565b6107f4565b905060006101d5826000815181106101c857fe5b602002602001015161094f565b905060606102126101f9846001815181106101ec57fe5b60200260200101516107f4565b60008151811061020557fe5b60200260200101516107f4565b9050600061023b6102368360008151811061022957fe5b60200260200101516108d1565b6109ad565b9050600061025c8360018151811061024f57fe5b602002602001015161094f565b9050600061027d8460028151811061027057fe5b602002602001015161094f565b90506102a461029f8860008151811061029257fe5b60200260200101516108d1565b6109ad565b83146102e5576040517f08c379a00000000000000000000000000000000000000000000000000000000081526004016102dc90611799565b60405180910390fd5b6060610320610307886001815181106102fa57fe5b60200260200101516107f4565b60018151811061031357fe5b60200260200101516107f4565b90506060815160405190808252806020026020018201604052801561035957816020015b60608152602001906001900390816103445790505b50905060008090505b82518110156103ab5761038783828151811061037a57fe5b60200260200101516108d1565b82828151811061039357fe5b60200260200101819052508080600101915050610362565b5060006103f28686866103ed6103d48e6001815181106103c757fe5b60200260200101516107f4565b6002815181106103e057fe5b602002602001015161094f565b6109bb565b90506104196104148b60008151811061040757fe5b60200260200101516108d1565b6109ad565b6104368b60088151811061042957fe5b602002602001015161094f565b898784869f509f509f509f509f509f505050505050505050505091939550919395565b60608060018351036040519080825280601f01601f1916602001820160405280156104935781602001600182028038833980820191505090505b5090506000806020830191506021850190506104b481836001885103610b25565b829350505050919050565b60608060606104d56104d0856107c6565b6107f4565b905060606104f6826010815181106104e957fe5b60200260200101516107f4565b90506000815111156105b55780516040519080825280602002602001820160405280156105325781602001602082028038833980820191505090505b50935060008090505b81518110156105b35761056082828151811061055357fe5b6020026020010151610b96565b85828151811061056c57fe5b602002602001019073ffffffffffffffffffffffffffffffffffffffff16908173ffffffffffffffffffffffffffffffffffffffff1681525050808060010191505061053b565b505b60606105d4836011815181106105c757fe5b60200260200101516107f4565b90506000815111156106935780516040519080825280602002602001820160405280156106105781602001602082028038833980820191505090505b50935060008090505b81518110156106915761063e82828151811061063157fe5b6020026020010151610b96565b85828151811061064a57fe5b602002602001019073ffffffffffffffffffffffffffffffffffffffff16908173ffffffffffffffffffffffffffffffffffffffff16815250508080600101915050610619565b505b505050915091565b600080600060606106b36106ae866107c6565b6107f4565b905060606106ec6106e76106e26106dd85600c815181106106d057fe5b60200260200101516108d1565b610459565b6107c6565b6107f4565b9050600061070d8260008151811061070057fe5b602002602001015161094f565b905061073461072f8460008151811061072257fe5b60200260200101516108d1565b6109ad565b6107518460088151811061074457fe5b602002602001015161094f565b829550955095505050509193909250565b6000806060610778610773856107c6565b6107f4565b905061079f61079a8260008151811061078d57fe5b60200260200101516108d1565b6109ad565b6107bc826008815181106107af57fe5b602002602001015161094f565b9250925050915091565b6107ce611390565b600060208301905060405180604001604052808451815260200182815250915050919050565b60606107ff82610bb9565b61080857600080fd5b600061081383610c07565b905060608160405190808252806020026020018201604052801561085157816020015b61083e6113aa565b8152602001906001900390816108365790505b50905060006108638560200151610c78565b8560200151019050600080600090505b848110156108c45761088483610d01565b91506040518060400160405280838152602001848152508482815181106108a757fe5b602002602001018190525081830192508080600101915050610873565b5082945050505050919050565b606060008260000151116108e457600080fd5b6000806108f084610db9565b80925081935050506060816040519080825280601f01601f19166020018201604052801561092d5781602001600182028038833980820191505090505b5090506000816020019050610943848285610b25565b81945050505050919050565b600080826000015111801561096957506021826000015111155b61097257600080fd5b60008061097e84610db9565b809250819350505060008251905060208210156109a257816020036101000a810490505b809350505050919050565b600060208201519050919050565b6000606060036040519080825280602002602001820160405280156109f457816020015b60608152602001906001900390816109df5790505b509050610a1f86604051602001610a0b919061165d565b604051602081830303815290604052610df1565b81600081518110610a2c57fe5b6020026020010181905250610a4a8567ffffffffffffffff16610e50565b81600181518110610a5757fe5b6020026020010181905250610a6b84610e50565b81600281518110610a7857fe5b602002602001018190525060606002604051908082528060200260200182016040528015610aba57816020015b6060815260200190600190039081610aa55790505b509050610ac682610e6a565b81600081518110610ad357fe5b6020026020010181905250610af18467ffffffffffffffff16610e50565b81600181518110610afe57fe5b6020026020010181905250610b1281610e6a565b8051906020012092505050949350505050565b6000811415610b3357610b91565b5b602060ff168110610b635782518252602060ff1683019250602060ff1682019150602060ff1681039050610b34565b6000811115610b90576000600182602060ff16036101000a03905080198451168184511681811785525050505b5b505050565b60006015826000015114610ba957600080fd5b610bb28261094f565b9050919050565b60008082600001511415610bd05760009050610c02565b60008083602001519050805160001a915060c060ff168260ff161015610bfb57600092505050610c02565b6001925050505b919050565b60008082600001511415610c1e5760009050610c73565b60008090506000610c328460200151610c78565b84602001510190506000846000015185602001510190505b80821015610c6c57610c5b82610d01565b820191508280600101935050610c4a565b8293505050505b919050565b600080825160001a9050608060ff16811015610c98576000915050610cfc565b60b860ff16811080610cbd575060c060ff168110158015610cbc575060f860ff1681105b5b15610ccc576001915050610cfc565b60c060ff16811015610cec5760018060b80360ff16820301915050610cfc565b60018060f80360ff168203019150505b919050565b6000806000835160001a9050608060ff16811015610d225760019150610daf565b60b860ff16811015610d3f576001608060ff168203019150610dae565b60c060ff16811015610d6f5760b78103600185019450806020036101000a85510460018201810193505050610dad565b60f860ff16811015610d8c57600160c060ff168203019150610dac565b60f78103600185019450806020036101000a855104600182018101935050505b5b5b5b8192505050919050565b6000806000610dcb8460200151610c78565b905060008185602001510190506000828660000151039050818194509450505050915091565b60608060018351148015610e225750608083600081518110610e0f57fe5b602001015160f81c60f81b60f81c60ff16105b15610e2f57829050610e47565b610e44610e3e84516080610e95565b84611079565b90505b80915050919050565b6060610e63610e5e83611103565b610df1565b9050919050565b606080610e7683611262565b9050610e8d610e87825160c0610e95565b82611079565b915050919050565b6060806038841015610f2f5760016040519080825280601f01601f191660200182016040528015610ed55781602001600182028038833980820191505090505b50905082840160001b601f60208110610eea57fe5b1a60f81b81600081518110610efb57fe5b60200101907effffffffffffffffffffffffffffffffffffffffffffffffffffffffffffff1916908160001a90535061106f565b600080600190505b6000818781610f4257fe5b0414610f5c57818060010192505061010081029050610f37565b600182016040519080825280601f01601f191660200182016040528015610f925781602001600182028038833980820191505090505b50925060378583010160001b601f60208110610faa57fe5b1a60f81b83600081518110610fbb57fe5b60200101907effffffffffffffffffffffffffffffffffffffffffffffffffffffffffffff1916908160001a905350600190505b81811161106c576101008183036101000a878161100857fe5b048161101057fe5b0660001b601f6020811061102057fe5b1a60f81b83828151811061103057fe5b60200101907effffffffffffffffffffffffffffffffffffffffffffffffffffffffffffff1916908160001a9053508080600101915050610fef565b50505b8091505092915050565b6060806040519050835180825260208201818101602087015b818310156110af5780518352602083019250602081019050611092565b50855192508351830184528091508282019050602086015b818310156110e457805183526020830192506020810190506110c7565b50601f19601f8851850115830101166040525050508091505092915050565b60608060206040519080825280601f01601f19166020018201604052801561113a5781602001600182028038833980820191505090505b50905082602082015260008090505b60208110156111a757600060f81b82828151811061116357fe5b602001015160f81c60f81b7effffffffffffffffffffffffffffffffffffffffffffffffffffffffffffff19161461119a576111a7565b8080600101915050611149565b6060816020036040519080825280601f01601f1916602001820160405280156111df5781602001600182028038833980820191505090505b50905060008090505b81518110156112565783838060010194508151811061120357fe5b602001015160f81c60f81b82828151811061121a57fe5b60200101907effffffffffffffffffffffffffffffffffffffffffffffffffffffffffffff1916908160001a90535080806001019150506111e8565b50809350505050919050565b60606000825114156112aa5760006040519080825280601f01601f1916602001820160405280156112a25781602001600182028038833980820191505090505b50905061138b565b600080600090505b83518110156112e1578381815181106112c757fe5b6020026020010151518201915080806001019150506112b2565b6060826040519080825280601f01601f1916602001820160405280156113165781602001600182028038833980820191505090505b5090506000602082019050600092505b855183101561138357606086848151811061133d57fe5b60200260200101519050600060208201905061135b81848451610b25565b87858151811061136757fe5b6020026020010151518301925050508280600101935050611326565b819450505050505b919050565b604051806040016040528060008152602001600081525090565b604051806040016040528060008152602001600081525090565b600082601f8301126113d557600080fd5b81356113e86113e3826117e6565b6117b9565b9150808252602083016020830185838301111561140457600080fd5b61140f838284611927565b50505092915050565b60006020828403121561142a57600080fd5b600082013567ffffffffffffffff81111561144457600080fd5b611450848285016113c4565b91505092915050565b60006114658383611485565b60208301905092915050565b600061147d83836115c6565b905092915050565b61148e816118cd565b82525050565b600061149f82611832565b6114a98185611878565b93506114b483611812565b8060005b838110156114e55781516114cc8882611459565b97506114d78361185e565b9250506001810190506114b8565b5085935050505092915050565b60006114fd8261183d565b6115078185611889565b93508360208202850161151985611822565b8060005b8581101561155557848403895281516115368582611471565b94506115418361186b565b925060208a0199505060018101905061151d565b50829750879550505050505092915050565b611570816118df565b82525050565b611587611582826118df565b611969565b82525050565b600061159882611853565b6115a2818561189a565b93506115b2818560208601611936565b6115bb81611973565b840191505092915050565b60006115d182611848565b6115db81856118ab565b93506115eb818560208601611936565b6115f481611973565b840191505092915050565b611608816118e9565b82525050565b600061161b6013836118bc565b91507f566572696669636174696f6e204661696c6564000000000000000000000000006000830152602082019050919050565b61165781611913565b82525050565b60006116698284611576565b60208201915081905092915050565b600060408201905081810360008301526116928185611494565b905081810360208301526116a68184611494565b90509392505050565b60006040820190506116c46000830185611567565b6116d160208301846115ff565b9392505050565b60006060820190506116ed6000830186611567565b6116fa60208301856115ff565b611707604083018461164e565b949350505050565b600060c0820190506117246000830189611567565b61173160208301886115ff565b61173e604083018761164e565b61174b606083018661164e565b6117586080830185611567565b81810360a083015261176a81846114f2565b9050979650505050505050565b60006020820190508181036000830152611791818461158d565b905092915050565b600060208201905081810360008301526117b28161160e565b9050919050565b6000604051905081810181811067ffffffffffffffff821117156117dc57600080fd5b8060405250919050565b600067ffffffffffffffff8211156117fd57600080fd5b601f19601f8301169050602081019050919050565b6000819050602082019050919050565b6000819050602082019050919050565b600081519050919050565b600081519050919050565b600081519050919050565b600081519050919050565b6000602082019050919050565b6000602082019050919050565b600082825260208201905092915050565b600082825260208201905092915050565b600082825260208201905092915050565b600082825260208201905092915050565b600082825260208201905092915050565b60006118d8826118f3565b9050919050565b6000819050919050565b6000819050919050565b600073ffffffffffffffffffffffffffffffffffffffff82169050919050565b600067ffffffffffffffff82169050919050565b82818337600083830152505050565b60005b83811015611954578082015181840152602081019050611939565b83811115611963576000848401525b50505050565b6000819050919050565b6000601f19601f830116905091905056fea365627a7a723158205afb8be167f50be13d25e983986040c8a7676a08cce2938813684f0ae8fd001b6c6578706572696d656e74616cf564736f6c63430005100040",
  "source": "// SPDX-License-Identifier: MIT\npragma solidity >=0.4.21 <0.9.0;\npragma experimental ABIEncoderV2;\n\nlibrary HeaderReader {\n\n  uint8 constant STRING_SHORT_START = 0x80;\n  uint8 constant STRING_LONG_START = 0xb8;\n  uint8 constant LIST_SHORT_START = 0xc0;\n  uint8 constant LIST_LONG_START = 0xf8;\n  uint8 constant WORD_SIZE = 32;\n\n  struct RLPItem {\n    uint256 len;\n    uint256 memPtr;\n  }\n\n  function getParentHashAndNumber(bytes memory header) public pure returns (bytes32, int) {\n    RLPItem[] memory ls = toList(toRlpItem(header));\n    return (toBytes32(toBytes(ls[0])), int(toUint(ls[8])));\n  }\n\n  function getBlock1Params(bytes memory header) public pure returns (bytes32, int, uint64) {\n    RLPItem[] memory ls = toList(toRlpItem(header));\n    RLPItem[] memory extra = toList(toRlpItem(getExtraData(toBytes(ls[12]))));\n    uint64 round_number = uint64(toUint(extra[0]));\n    return (toBytes32(toBytes(ls[0])), int(toUint(ls[8])), round_number);\n  }\n\n  // Returns (parentHash, number, round_number, certificate hash, sigs)\n  function getValidationParams(bytes memory header) public pure returns (bytes32, int, uint64, uint64, bytes32, bytes[] memory) {\n    RLPItem[] memory ls = toList(toRlpItem(header));\n    RLPItem[] memory extra = toList(toRlpItem(getExtraData(toBytes(ls[12]))));\n    uint64 round_number = uint64(toUint(extra[0]));\n    RLPItem[] memory proposed_block = toList(toList(extra[1])[0]);\n    bytes32 parent_hash = toBytes32(toBytes(proposed_block[0]));\n    uint64 parent_round_number = uint64(toUint(proposed_block[1]));\n    int parent_number = int(toUint(proposed_block[2]));\n    if (parent_hash != toBytes32(toBytes(ls[0]))) {\n      revert(\"Verification Failed\");\n    }\n    RLPItem[] memory raw_sigs = toList(toList(extra[1])[1]);\n    bytes[] memory sigs = new bytes[](raw_sigs.length);\n    for (uint i = 0; i < raw_sigs.length; i++) {\n      sigs[i] = toBytes(raw_sigs[i]);\n    }\n    bytes32 signHash = createSignHash(parent_hash, parent_round_number, parent_number, uint64(toUint(toList(extra[1])[2])));\n    return (toBytes32(toBytes(ls[0])), int(toUint(ls[8])), round_number, parent_round_number, signHash, sigs);\n  }\n\n  function getEpoch(bytes memory header) public pure returns (address[] memory current, address[] memory next) {\n    RLPItem[] memory ls = toList(toRlpItem(header));\n    RLPItem[] memory list0 = toList(ls[16]);\n    // RLPItem[] memory list0 = toList(epoch[0]);\n    if (list0.length > 0) {\n      current = new address[](list0.length);\n      for (uint i = 0; i < list0.length; i++) {\n        current[i] = toAddress(list0[i]);\n      }\n    }\n    RLPItem[] memory list1 = toList(ls[17]);\n    // RLPItem[] memory list1 = toList(epoch[1]);\n    if (list1.length > 0) {\n      next = new address[](list1.length);\n      for (uint i = 0; i < list1.length; i++) {\n        next[i] = toAddress(list1[i]);\n      }\n    }\n  }\n\n  function getExtraData(bytes memory extra) public pure returns (bytes memory) {\n    bytes memory extraData = new bytes(extra.length-1);\n    uint extraDataPtr;\n    uint extraPtr;\n    assembly { extraDataPtr := add(extraData, 0x20) }\n    assembly { extraPtr := add(extra, 0x21) }\n    copy(extraPtr, extraDataPtr, extra.length-1);\n    return extraData;\n  }\n\n  function createSignHash(bytes32 block_hash, uint64 round_num, int number, uint64 gap_num) internal pure returns (bytes32 signHash) {\n    bytes[] memory x = new bytes[](3);\n    x[0] = encodeBytes(abi.encodePacked(block_hash));\n    x[1] = encodeUint(round_num);\n    x[2] = encodeUint(uint(number));\n\n    bytes[] memory y = new bytes[](2);\n    y[0] = encodeList(x);\n    y[1] = encodeUint(gap_num);\n    signHash = keccak256(encodeList(y));\n  }\n\n  function toBytes32(bytes memory data) internal pure returns (bytes32 res) {\n    assembly {\n      res := mload(add(data, 32))\n    }\n  }\n\n  /*\n  * @param item RLP encoded bytes\n  */\n  function toRlpItem(bytes memory item) internal pure returns (RLPItem memory) {\n    uint256 memPtr;\n    assembly {\n      memPtr := add(item, 0x20)\n    }\n    return RLPItem(item.length, memPtr);\n  }\n\n  /*\n  * @param the RLP item.\n  * @return (memPtr, len) pair: location of the item's payload in memory.\n  */\n  function payloadLocation(RLPItem memory item) internal pure returns (uint256, uint256) {\n    uint256 offset = _payloadOffset(item.memPtr);\n    uint256 memPtr = item.memPtr + offset;\n    uint256 len = item.len - offset; // data length\n    return (memPtr, len);\n  }\n\n  /*\n    * @param the RLP item containing the encoded list.\n    */\n  function toList(RLPItem memory item) internal pure returns (RLPItem[] memory) {\n    require(isList(item));\n\n    uint256 items = numItems(item);\n    RLPItem[] memory result = new RLPItem[](items);\n\n    uint256 memPtr = item.memPtr + _payloadOffset(item.memPtr);\n    uint256 dataLen;\n    for (uint256 i = 0; i < items; i++) {\n      dataLen = _itemLength(memPtr);\n      result[i] = RLPItem(dataLen, memPtr);\n      memPtr = memPtr + dataLen;\n    }\n\n    return result;\n  }\n\n  // @return indicator whether encoded payload is a list. negate this function call for isData.\n  function isList(RLPItem memory item) internal pure returns (bool) {\n    if (item.len == 0) return false;\n\n    uint8 byte0;\n    uint256 memPtr = item.memPtr;\n    assembly {\n      byte0 := byte(0, mload(memPtr))\n    }\n\n    if (byte0 < LIST_SHORT_START) return false;\n    return true;\n  }\n\n  function toUint(RLPItem memory item) internal pure returns (uint256) {\n    require(item.len > 0 && item.len <= 33);\n    uint256 memPtr;\n    uint256 len;\n    (memPtr, len) = payloadLocation(item);\n\n    uint256 result;\n    assembly {\n      result := mload(memPtr)\n\n      // shift to the correct location if neccesary\n      if lt(len, 32) {\n          result := div(result, exp(256, sub(32, len)))\n      }\n    }\n\n    return result;\n  }\n\n  function toAddress(RLPItem memory item) internal pure returns (address) {\n    // 1 byte for the length prefix\n    require(item.len == 21);\n\n    return address(uint160(toUint(item)));\n  }\n\n  // @return number of payload items inside an encoded list.\n  function numItems(RLPItem memory item) internal pure returns (uint256) {\n    if (item.len == 0) return 0;\n\n    uint256 count = 0;\n    uint256 currPtr = item.memPtr + _payloadOffset(item.memPtr);\n    uint256 endPtr = item.memPtr + item.len;\n    while (currPtr < endPtr) {\n      currPtr = currPtr + _itemLength(currPtr); // skip over an item\n      count++;\n    }\n\n    return count;\n  }\n\n  // @return entire rlp item byte length\n  function _itemLength(uint256 memPtr) internal pure returns (uint256) {\n    uint256 itemLen;\n    uint256 byte0;\n    assembly {\n      byte0 := byte(0, mload(memPtr))\n    }\n\n    if (byte0 < STRING_SHORT_START) {\n      itemLen = 1;\n    } else if (byte0 < STRING_LONG_START) {\n      itemLen = byte0 - STRING_SHORT_START + 1;\n    } else if (byte0 < LIST_SHORT_START) {\n      assembly {\n          let byteLen := sub(byte0, 0xb7) // # of bytes the actual length is\n          memPtr := add(memPtr, 1) // skip over the first byte\n\n          /* 32 byte word size */\n          let dataLen := div(mload(memPtr), exp(256, sub(32, byteLen))) // right shifting to get the len\n          itemLen := add(dataLen, add(byteLen, 1))\n      }\n    } else if (byte0 < LIST_LONG_START) {\n      itemLen = byte0 - LIST_SHORT_START + 1;\n    } else {\n      assembly {\n        let byteLen := sub(byte0, 0xf7)\n        memPtr := add(memPtr, 1)\n\n        let dataLen := div(mload(memPtr), exp(256, sub(32, byteLen))) // right shifting to the correct length\n        itemLen := add(dataLen, add(byteLen, 1))\n      }\n    }\n\n    return itemLen;\n  }\n\n\n  // @return number of bytes until the data\n  function _payloadOffset(uint256 memPtr) internal pure returns (uint256) {\n    uint256 byte0;\n    assembly {\n      byte0 := byte(0, mload(memPtr))\n    }\n    if (byte0 < STRING_SHORT_START) {\n      return 0;\n    } else if (byte0 < STRING_LONG_START || (byte0 >= LIST_SHORT_START && byte0 < LIST_LONG_START)) {\n      return 1;\n    } else if (byte0 < LIST_SHORT_START) {\n      // being explicit\n      return byte0 - (STRING_LONG_START - 1) + 1;\n    } else {\n      return byte0 - (LIST_LONG_START - 1) + 1;\n    }\n  }\n\n  function toBytes(RLPItem memory item) internal pure returns (bytes memory) {\n    require(item.len > 0);\n    uint256 memPtr;\n    uint256 len;\n    (memPtr, len) = payloadLocation(item);\n    bytes memory result = new bytes(len);\n\n    uint256 destPtr;\n    assembly {\n      destPtr := add(0x20, result)\n    }\n\n    copy(memPtr, destPtr, len);\n    return result;\n  }\n\n  /*\n  * @param src Pointer to source\n  * @param dest Pointer to destination\n  * @param len Amount of memory to copy from the source\n  */\n  function copy(uint256 src, uint256 dest, uint256 len) internal pure {\n    if (len == 0) return;\n\n    // copy as many word sizes as possible\n    for (; len >= WORD_SIZE; len -= WORD_SIZE) {\n      assembly {\n        mstore(dest, mload(src))\n      }\n\n      src += WORD_SIZE;\n      dest += WORD_SIZE;\n    }\n\n    if (len > 0) {\n      // left over bytes. Mask is used to remove unwanted bytes from the word\n      uint256 mask = 256**(WORD_SIZE - len) - 1;\n      assembly {\n        let srcpart := and(mload(src), not(mask)) // zero out src\n        let destpart := and(mload(dest), mask) // retrieve the bytes\n        mstore(dest, or(destpart, srcpart))\n      }\n    }\n  }\n\n  /**\n    * @dev RLP encodes a byte string.\n    * @param self The byte string to encode.\n    * @return The RLP encoded string in bytes.\n    */\n  function encodeBytes(bytes memory self) internal pure returns (bytes memory) {\n    bytes memory encoded;\n    if (self.length == 1 && uint8(self[0]) < 128) {\n      encoded = self;\n    } else {\n      encoded = concat(encodeLength(self.length, 128), self);\n    }\n    return encoded;\n  }\n\n  /**\n    * @dev RLP encodes a list of RLP encoded byte byte strings.\n    * @param self The list of RLP encoded byte strings.\n    * @return The RLP encoded list of items in bytes.\n    */\n  function encodeList(bytes[] memory self) internal pure returns (bytes memory) {\n    bytes memory list = flatten(self);\n    return concat(encodeLength(list.length, 192), list);\n  }\n\n  /** \n    * @dev RLP encodes a uint.\n    * @param self The uint to encode.\n    * @return The RLP encoded uint in bytes.\n    */\n  function encodeUint(uint self) internal pure returns (bytes memory) {\n    return encodeBytes(toBinary(self));\n  }\n\n    /**\n     * @dev Encode the first byte, followed by the `len` in binary form if `length` is more than 55.\n     * @param len The length of the string or the payload.\n     * @param offset 128 if item is string, 192 if item is list.\n     * @return RLP encoded bytes.\n     */\n    function encodeLength(uint len, uint offset) internal pure returns (bytes memory) {\n      bytes memory encoded;\n      if (len < 56) {\n        encoded = new bytes(1);\n        encoded[0] = bytes32(len + offset)[31];\n      } else {\n        uint lenLen;\n        uint i = 1;\n        while (len / i != 0) {\n          lenLen++;\n          i *= 256;\n        }\n        encoded = new bytes(lenLen + 1);\n        encoded[0] = bytes32(lenLen + offset + 55)[31];\n        for(i = 1; i <= lenLen; i++) {\n            encoded[i] = bytes32((len / (256**(lenLen-i))) % 256)[31];\n        }\n      }\n      return encoded;\n    }\n\n  /**\n    * @dev Encode integer in big endian binary form with no leading zeroes.\n    * @notice TODO: This should be optimized with assembly to save gas costs.\n    * @param _x The integer to encode.\n    * @return RLP encoded bytes.\n    */\n  function toBinary(uint _x) internal pure returns (bytes memory) {\n    bytes memory b = new bytes(32);\n    assembly { \n      mstore(add(b, 32), _x) \n    }\n    uint i;\n    for (i = 0; i < 32; i++) {\n      if (b[i] != 0) {\n        break;\n      }\n    }\n    bytes memory res = new bytes(32 - i);\n    for (uint j = 0; j < res.length; j++) {\n      res[j] = b[i++];\n    }\n    return res;\n  }\n\n    /**\n    * @dev Flattens a list of byte strings into one byte string.\n    * @notice From: https://github.com/sammayo/solidity-rlp-encoder/blob/master/RLPEncode.sol.\n    * @param _list List of byte strings to flatten.\n    * @return The flattened byte string.\n    */\n  function flatten(bytes[] memory _list) internal pure returns (bytes memory) {\n    if (_list.length == 0) {\n      return new bytes(0);\n    }\n\n    uint len;\n    uint i;\n    for (i = 0; i < _list.length; i++) {\n      len += _list[i].length;\n    }\n\n    bytes memory flattened = new bytes(len);\n    uint flattenedPtr;\n    assembly { flattenedPtr := add(flattened, 0x20) }\n\n    for(i = 0; i < _list.length; i++) {\n      bytes memory item = _list[i];\n      \n      uint listPtr;\n      assembly { listPtr := add(item, 0x20)}\n\n      copy(listPtr, flattenedPtr, item.length);\n      flattenedPtr += _list[i].length;\n    }\n    return flattened;\n  }\n\n  /**\n    * @dev Concatenates two bytes.\n    * @notice From: https://github.com/GNSPS/solidity-bytes-utils/blob/master/contracts/BytesLib.sol.\n    * @param _preBytes First byte string.\n    * @param _postBytes Second byte string.\n    * @return Both byte string combined.\n    */\n  function concat(bytes memory _preBytes, bytes memory _postBytes) internal pure returns (bytes memory) {\n    bytes memory tempBytes;\n\n    assembly {\n      tempBytes := mload(0x40)\n\n      let length := mload(_preBytes)\n      mstore(tempBytes, length)\n\n      let mc := add(tempBytes, 0x20)\n      let end := add(mc, length)\n\n      for {\n        let cc := add(_preBytes, 0x20)\n      } lt(mc, end) {\n        mc := add(mc, 0x20)\n        cc := add(cc, 0x20)\n      } {\n        mstore(mc, mload(cc))\n      }\n\n      length := mload(_postBytes)\n      mstore(tempBytes, add(length, mload(tempBytes)))\n\n      mc := end\n      end := add(mc, length)\n\n      for {\n        let cc := add(_postBytes, 0x20)\n      } lt(mc, end) {\n        mc := add(mc, 0x20)\n        cc := add(cc, 0x20)\n      } {\n        mstore(mc, mload(cc))\n      }\n\n      mstore(0x40, and(\n        add(add(end, iszero(add(length, mload(_preBytes)))), 31),\n        not(31)\n      ))\n    }\n    return tempBytes;\n  }\n}",
  "sourcePath": "/Users/sihengpan/Documents/XinFin/XDC-Subnet/mainnet_contract/contracts/HeaderReader.sol",
  "compiler": {
    "name": "solc",
    "version": "0.5.16+commit.9c3226ce.Emscripten.clang"
  },
  "schemaVersion": "3.4.1",
  "updatedAt": "2023-04-24T14:10:49.294Z",
  "devdoc": {
    "methods": {}
  },
  "userdoc": {
    "methods": {}
  }
}