{
  "contractName": "HeaderReader",
  "abi": [
    {
      "constant": true,
      "inputs": [
        {
          "internalType": "bytes",
          "name": "genesis_header",
          "type": "bytes"
        }
      ],
      "name": "getParentHashAndNumber",
      "outputs": [
        {
          "internalType": "bytes32",
          "name": "",
          "type": "bytes32"
        },
        {
          "internalType": "int256",
          "name": "",
          "type": "int256"
        }
      ],
      "payable": false,
      "stateMutability": "pure",
      "type": "function"
    },
    {
      "constant": true,
      "inputs": [
        {
          "internalType": "bytes",
          "name": "header",
          "type": "bytes"
        }
      ],
      "name": "getValidationParams",
      "outputs": [
        {
          "internalType": "bytes32",
          "name": "",
          "type": "bytes32"
        },
        {
          "internalType": "int256",
          "name": "",
          "type": "int256"
        },
        {
          "internalType": "uint64",
          "name": "",
          "type": "uint64"
        },
        {
          "internalType": "bytes32",
          "name": "",
          "type": "bytes32"
        },
        {
          "internalType": "bytes[]",
          "name": "",
          "type": "bytes[]"
        }
      ],
      "payable": false,
      "stateMutability": "pure",
      "type": "function"
    },
    {
      "constant": true,
      "inputs": [
        {
          "internalType": "bytes",
          "name": "extra",
          "type": "bytes"
        }
      ],
      "name": "getExtraData",
      "outputs": [
        {
          "internalType": "bytes",
          "name": "",
          "type": "bytes"
        }
      ],
      "payable": false,
      "stateMutability": "pure",
      "type": "function"
    }
  ],
  "bytecode": "0x6113d3610026600b82828239805160001a60731461001957fe5b30600052607381538281f3fe730000000000000000000000000000000000000000301460806040526004361061004b5760003560e01c806344e06ed414610050578063462648b614610084578063dc9e408b146100b4575b600080fd5b61006a60048036036100659190810190611001565b6100e5565b60405161007b9594939291906111c5565b60405180910390f35b61009e60048036036100999190810190611001565b610308565b6040516100ab919061121f565b60405180910390f35b6100ce60048036036100c99190810190611001565b61036e565b6040516100dc92919061119c565b60405180910390f35b6000806000806060806100ff6100fa886103d2565b610400565b9050606061013861013361012e61012985600c8151811061011c57fe5b60200260200101516104dd565b610308565b6103d2565b610400565b905060006101598260008151811061014c57fe5b602002602001015161055b565b9050606061019661017d8460018151811061017057fe5b6020026020010151610400565b60018151811061018957fe5b6020026020010151610400565b9050606081516040519080825280602002602001820160405280156101cf57816020015b60608152602001906001900390816101ba5790505b50905060008090505b8251811015610221576101fd8382815181106101f057fe5b60200260200101516104dd565b82828151811061020957fe5b602002602001018190525080806001019150506101d8565b5060006102a861024c6102478860008151811061023a57fe5b60200260200101516104dd565b6105b9565b8561026a8960088151811061025d57fe5b602002602001015161055b565b6102a361028a8a60018151811061027d57fe5b6020026020010151610400565b60028151811061029657fe5b602002602001015161055b565b6105c7565b90506102cf6102ca876000815181106102bd57fe5b60200260200101516104dd565b6105b9565b6102ec876008815181106102df57fe5b602002602001015161055b565b8583859a509a509a509a509a5050505050505091939590929450565b60608060018351036040519080825280601f01601f1916602001820160405280156103425781602001600182028038833980820191505090505b50905060008060208301915060218501905061036381836001885103610731565b829350505050919050565b600080606061038461037f856103d2565b610400565b90506103ab6103a68260008151811061039957fe5b60200260200101516104dd565b6105b9565b6103c8826008815181106103bb57fe5b602002602001015161055b565b9250925050915091565b6103da610f79565b600060208301905060405180604001604052808451815260200182815250915050919050565b606061040b826107a2565b61041457600080fd5b600061041f836107f0565b905060608160405190808252806020026020018201604052801561045d57816020015b61044a610f93565b8152602001906001900390816104425790505b509050600061046f8560200151610861565b8560200151019050600080600090505b848110156104d057610490836108ea565b91506040518060400160405280838152602001848152508482815181106104b357fe5b60200260200101819052508183019250808060010191505061047f565b5082945050505050919050565b606060008260000151116104f057600080fd5b6000806104fc846109a2565b80925081935050506060816040519080825280601f01601f1916602001820160405280156105395781602001600182028038833980820191505090505b509050600081602001905061054f848285610731565b81945050505050919050565b600080826000015111801561057557506021826000015111155b61057e57600080fd5b60008061058a846109a2565b809250819350505060008251905060208210156105ae57816020036101000a810490505b809350505050919050565b600060208201519050919050565b60006060600360405190808252806020026020018201604052801561060057816020015b60608152602001906001900390816105eb5790505b50905061062b866040516020016106179190611181565b6040516020818303038152906040526109da565b8160008151811061063857fe5b60200260200101819052506106568567ffffffffffffffff16610a39565b8160018151811061066357fe5b602002602001018190525061067784610a39565b8160028151811061068457fe5b6020026020010181905250606060026040519080825280602002602001820160405280156106c657816020015b60608152602001906001900390816106b15790505b5090506106d282610a53565b816000815181106106df57fe5b60200260200101819052506106fd8467ffffffffffffffff16610a39565b8160018151811061070a57fe5b602002602001018190525061071e81610a53565b8051906020012092505050949350505050565b600081141561073f5761079d565b5b602060ff16811061076f5782518252602060ff1683019250602060ff1682019150602060ff1681039050610740565b600081111561079c576000600182602060ff16036101000a03905080198451168184511681811785525050505b5b505050565b600080826000015114156107b957600090506107eb565b60008083602001519050805160001a915060c060ff168260ff1610156107e4576000925050506107eb565b6001925050505b919050565b60008082600001511415610807576000905061085c565b6000809050600061081b8460200151610861565b84602001510190506000846000015185602001510190505b8082101561085557610844826108ea565b820191508280600101935050610833565b8293505050505b919050565b600080825160001a9050608060ff168110156108815760009150506108e5565b60b860ff168110806108a6575060c060ff1681101580156108a5575060f860ff1681105b5b156108b55760019150506108e5565b60c060ff168110156108d55760018060b80360ff168203019150506108e5565b60018060f80360ff168203019150505b919050565b6000806000835160001a9050608060ff1681101561090b5760019150610998565b60b860ff16811015610928576001608060ff168203019150610997565b60c060ff168110156109585760b78103600185019450806020036101000a85510460018201810193505050610996565b60f860ff1681101561097557600160c060ff168203019150610995565b60f78103600185019450806020036101000a855104600182018101935050505b5b5b5b8192505050919050565b60008060006109b48460200151610861565b905060008185602001510190506000828660000151039050818194509450505050915091565b60608060018351148015610a0b57506080836000815181106109f857fe5b602001015160f81c60f81b60f81c60ff16105b15610a1857829050610a30565b610a2d610a2784516080610a7e565b84610c62565b90505b80915050919050565b6060610a4c610a4783610cec565b6109da565b9050919050565b606080610a5f83610e4b565b9050610a76610a70825160c0610a7e565b82610c62565b915050919050565b6060806038841015610b185760016040519080825280601f01601f191660200182016040528015610abe5781602001600182028038833980820191505090505b50905082840160001b601f60208110610ad357fe5b1a60f81b81600081518110610ae457fe5b60200101907effffffffffffffffffffffffffffffffffffffffffffffffffffffffffffff1916908160001a905350610c58565b600080600190505b6000818781610b2b57fe5b0414610b4557818060010192505061010081029050610b20565b600182016040519080825280601f01601f191660200182016040528015610b7b5781602001600182028038833980820191505090505b50925060378583010160001b601f60208110610b9357fe5b1a60f81b83600081518110610ba457fe5b60200101907effffffffffffffffffffffffffffffffffffffffffffffffffffffffffffff1916908160001a905350600190505b818111610c55576101008183036101000a8781610bf157fe5b0481610bf957fe5b0660001b601f60208110610c0957fe5b1a60f81b838281518110610c1957fe5b60200101907effffffffffffffffffffffffffffffffffffffffffffffffffffffffffffff1916908160001a9053508080600101915050610bd8565b50505b8091505092915050565b6060806040519050835180825260208201818101602087015b81831015610c985780518352602083019250602081019050610c7b565b50855192508351830184528091508282019050602086015b81831015610ccd5780518352602083019250602081019050610cb0565b50601f19601f8851850115830101166040525050508091505092915050565b60608060206040519080825280601f01601f191660200182016040528015610d235781602001600182028038833980820191505090505b50905082602082015260008090505b6020811015610d9057600060f81b828281518110610d4c57fe5b602001015160f81c60f81b7effffffffffffffffffffffffffffffffffffffffffffffffffffffffffffff191614610d8357610d90565b8080600101915050610d32565b6060816020036040519080825280601f01601f191660200182016040528015610dc85781602001600182028038833980820191505090505b50905060008090505b8151811015610e3f57838380600101945081518110610dec57fe5b602001015160f81c60f81b828281518110610e0357fe5b60200101907effffffffffffffffffffffffffffffffffffffffffffffffffffffffffffff1916908160001a9053508080600101915050610dd1565b50809350505050919050565b6060600082511415610e935760006040519080825280601f01601f191660200182016040528015610e8b5781602001600182028038833980820191505090505b509050610f74565b600080600090505b8351811015610eca57838181518110610eb057fe5b602002602001015151820191508080600101915050610e9b565b6060826040519080825280601f01601f191660200182016040528015610eff5781602001600182028038833980820191505090505b5090506000602082019050600092505b8551831015610f6c576060868481518110610f2657fe5b602002602001015190506000602082019050610f4481848451610731565b878581518110610f5057fe5b6020026020010151518301925050508280600101935050610f0f565b819450505050505b919050565b604051806040016040528060008152602001600081525090565b604051806040016040528060008152602001600081525090565b600082601f830112610fbe57600080fd5b8135610fd1610fcc8261126e565b611241565b91508082526020830160208301858383011115610fed57600080fd5b610ff8838284611333565b50505092915050565b60006020828403121561101357600080fd5b600082013567ffffffffffffffff81111561102d57600080fd5b61103984828501610fad565b91505092915050565b600061104e838361112a565b905092915050565b6000611061826112aa565b61106b81856112d8565b93508360208202850161107d8561129a565b8060005b858110156110b9578484038952815161109a8582611042565b94506110a5836112cb565b925060208a01995050600181019050611081565b50829750879550505050505092915050565b6110d48161130b565b82525050565b6110eb6110e68261130b565b611375565b82525050565b60006110fc826112c0565b61110681856112e9565b9350611116818560208601611342565b61111f8161137f565b840191505092915050565b6000611135826112b5565b61113f81856112fa565b935061114f818560208601611342565b6111588161137f565b840191505092915050565b61116c81611315565b82525050565b61117b8161131f565b82525050565b600061118d82846110da565b60208201915081905092915050565b60006040820190506111b160008301856110cb565b6111be6020830184611163565b9392505050565b600060a0820190506111da60008301886110cb565b6111e76020830187611163565b6111f46040830186611172565b61120160608301856110cb565b81810360808301526112138184611056565b90509695505050505050565b6000602082019050818103600083015261123981846110f1565b905092915050565b6000604051905081810181811067ffffffffffffffff8211171561126457600080fd5b8060405250919050565b600067ffffffffffffffff82111561128557600080fd5b601f19601f8301169050602081019050919050565b6000819050602082019050919050565b600081519050919050565b600081519050919050565b600081519050919050565b6000602082019050919050565b600082825260208201905092915050565b600082825260208201905092915050565b600082825260208201905092915050565b6000819050919050565b6000819050919050565b600067ffffffffffffffff82169050919050565b82818337600083830152505050565b60005b83811015611360578082015181840152602081019050611345565b8381111561136f576000848401525b50505050565b6000819050919050565b6000601f19601f830116905091905056fea365627a7a723158201725f1d0f149e8f4c6d851569db30a1a247df8d39078bdee46b62c6b63dce3c76c6578706572696d656e74616cf564736f6c63430005100040",
  "source": "// SPDX-License-Identifier: MIT\npragma solidity >=0.4.21 <0.9.0;\npragma experimental ABIEncoderV2;\n\nlibrary HeaderReader {\n\n  uint8 constant STRING_SHORT_START = 0x80;\n  uint8 constant STRING_LONG_START = 0xb8;\n  uint8 constant LIST_SHORT_START = 0xc0;\n  uint8 constant LIST_LONG_START = 0xf8;\n  uint8 constant WORD_SIZE = 32;\n\n  struct RLPItem {\n    uint256 len;\n    uint256 memPtr;\n  }\n\n  function getParentHashAndNumber(bytes memory genesis_header) public pure returns (bytes32, int) {\n    RLPItem[] memory ls = toList(toRlpItem(genesis_header));\n    return (toBytes32(toBytes(ls[0])), int(toUint(ls[8])));\n  }\n\n  // Returns (parentHash, number, round_number, certificate hash, sigs)\n  function getValidationParams(bytes memory header) public pure returns (bytes32, int, uint64, bytes32, bytes[] memory) {\n    RLPItem[] memory ls = toList(toRlpItem(header));\n    RLPItem[] memory extra = toList(toRlpItem(getExtraData(toBytes(ls[12]))));\n    uint64 round_number = uint64(toUint(extra[0]));\n    RLPItem[] memory raw_sigs = toList(toList(extra[1])[1]);\n    bytes[] memory sigs = new bytes[](raw_sigs.length);\n    for (uint i = 0; i < raw_sigs.length; i++) {\n      sigs[i] = toBytes(raw_sigs[i]);\n    }\n    bytes32 signHash = createSignHash(toBytes32(toBytes(ls[0])), round_number, int(toUint(ls[8])), uint64(toUint(toList(extra[1])[2])));\n    return (toBytes32(toBytes(ls[0])), int(toUint(ls[8])), round_number, signHash, sigs);\n  }\n\n  function getExtraData(bytes memory extra) public pure returns (bytes memory) {\n    bytes memory extraData = new bytes(extra.length-1);\n    uint extraDataPtr;\n    uint extraPtr;\n    assembly { extraDataPtr := add(extraData, 0x20) }\n    assembly { extraPtr := add(extra, 0x21) }\n    copy(extraPtr, extraDataPtr, extra.length-1);\n    return extraData;\n  }\n\n  function createSignHash(bytes32 block_hash, uint64 round_num, int number, uint64 gap_num) internal pure returns (bytes32 signHash) {\n    bytes[] memory x = new bytes[](3);\n    x[0] = encodeBytes(abi.encodePacked(block_hash));\n    x[1] = encodeUint(round_num);\n    x[2] = encodeUint(uint(number));\n\n    bytes[] memory y = new bytes[](2);\n    y[0] = encodeList(x);\n    y[1] = encodeUint(gap_num);\n    signHash = keccak256(encodeList(y));\n  }\n\n  function toBytes32(bytes memory data) internal pure returns (bytes32 res) {\n    assembly {\n      res := mload(add(data, 32))\n    }\n  }\n\n  /*\n  * @param item RLP encoded bytes\n  */\n  function toRlpItem(bytes memory item) internal pure returns (RLPItem memory) {\n    uint256 memPtr;\n    assembly {\n      memPtr := add(item, 0x20)\n    }\n    return RLPItem(item.length, memPtr);\n  }\n\n  /*\n  * @param the RLP item.\n  * @return (memPtr, len) pair: location of the item's payload in memory.\n  */\n  function payloadLocation(RLPItem memory item) internal pure returns (uint256, uint256) {\n    uint256 offset = _payloadOffset(item.memPtr);\n    uint256 memPtr = item.memPtr + offset;\n    uint256 len = item.len - offset; // data length\n    return (memPtr, len);\n  }\n\n  /*\n    * @param the RLP item containing the encoded list.\n    */\n  function toList(RLPItem memory item) internal pure returns (RLPItem[] memory) {\n    require(isList(item));\n\n    uint256 items = numItems(item);\n    RLPItem[] memory result = new RLPItem[](items);\n\n    uint256 memPtr = item.memPtr + _payloadOffset(item.memPtr);\n    uint256 dataLen;\n    for (uint256 i = 0; i < items; i++) {\n      dataLen = _itemLength(memPtr);\n      result[i] = RLPItem(dataLen, memPtr);\n      memPtr = memPtr + dataLen;\n    }\n\n    return result;\n  }\n\n  // @return indicator whether encoded payload is a list. negate this function call for isData.\n  function isList(RLPItem memory item) internal pure returns (bool) {\n    if (item.len == 0) return false;\n\n    uint8 byte0;\n    uint256 memPtr = item.memPtr;\n    assembly {\n      byte0 := byte(0, mload(memPtr))\n    }\n\n    if (byte0 < LIST_SHORT_START) return false;\n    return true;\n  }\n\n  function toUint(RLPItem memory item) internal pure returns (uint256) {\n    require(item.len > 0 && item.len <= 33);\n    uint256 memPtr;\n    uint256 len;\n    (memPtr, len) = payloadLocation(item);\n\n    uint256 result;\n    assembly {\n      result := mload(memPtr)\n\n      // shift to the correct location if neccesary\n      if lt(len, 32) {\n          result := div(result, exp(256, sub(32, len)))\n      }\n    }\n\n    return result;\n  }\n\n  // @return number of payload items inside an encoded list.\n  function numItems(RLPItem memory item) internal pure returns (uint256) {\n    if (item.len == 0) return 0;\n\n    uint256 count = 0;\n    uint256 currPtr = item.memPtr + _payloadOffset(item.memPtr);\n    uint256 endPtr = item.memPtr + item.len;\n    while (currPtr < endPtr) {\n      currPtr = currPtr + _itemLength(currPtr); // skip over an item\n      count++;\n    }\n\n    return count;\n  }\n\n  // @return entire rlp item byte length\n  function _itemLength(uint256 memPtr) internal pure returns (uint256) {\n    uint256 itemLen;\n    uint256 byte0;\n    assembly {\n      byte0 := byte(0, mload(memPtr))\n    }\n\n    if (byte0 < STRING_SHORT_START) {\n      itemLen = 1;\n    } else if (byte0 < STRING_LONG_START) {\n      itemLen = byte0 - STRING_SHORT_START + 1;\n    } else if (byte0 < LIST_SHORT_START) {\n      assembly {\n          let byteLen := sub(byte0, 0xb7) // # of bytes the actual length is\n          memPtr := add(memPtr, 1) // skip over the first byte\n\n          /* 32 byte word size */\n          let dataLen := div(mload(memPtr), exp(256, sub(32, byteLen))) // right shifting to get the len\n          itemLen := add(dataLen, add(byteLen, 1))\n      }\n    } else if (byte0 < LIST_LONG_START) {\n      itemLen = byte0 - LIST_SHORT_START + 1;\n    } else {\n      assembly {\n        let byteLen := sub(byte0, 0xf7)\n        memPtr := add(memPtr, 1)\n\n        let dataLen := div(mload(memPtr), exp(256, sub(32, byteLen))) // right shifting to the correct length\n        itemLen := add(dataLen, add(byteLen, 1))\n      }\n    }\n\n    return itemLen;\n  }\n\n\n  // @return number of bytes until the data\n  function _payloadOffset(uint256 memPtr) internal pure returns (uint256) {\n    uint256 byte0;\n    assembly {\n      byte0 := byte(0, mload(memPtr))\n    }\n    if (byte0 < STRING_SHORT_START) {\n      return 0;\n    } else if (byte0 < STRING_LONG_START || (byte0 >= LIST_SHORT_START && byte0 < LIST_LONG_START)) {\n      return 1;\n    } else if (byte0 < LIST_SHORT_START) {\n      // being explicit\n      return byte0 - (STRING_LONG_START - 1) + 1;\n    } else {\n      return byte0 - (LIST_LONG_START - 1) + 1;\n    }\n  }\n\n  function toBytes(RLPItem memory item) internal pure returns (bytes memory) {\n    require(item.len > 0);\n    uint256 memPtr;\n    uint256 len;\n    (memPtr, len) = payloadLocation(item);\n    bytes memory result = new bytes(len);\n\n    uint256 destPtr;\n    assembly {\n      destPtr := add(0x20, result)\n    }\n\n    copy(memPtr, destPtr, len);\n    return result;\n  }\n\n  /*\n  * @param src Pointer to source\n  * @param dest Pointer to destination\n  * @param len Amount of memory to copy from the source\n  */\n  function copy(uint256 src, uint256 dest, uint256 len) internal pure {\n    if (len == 0) return;\n\n    // copy as many word sizes as possible\n    for (; len >= WORD_SIZE; len -= WORD_SIZE) {\n      assembly {\n        mstore(dest, mload(src))\n      }\n\n      src += WORD_SIZE;\n      dest += WORD_SIZE;\n    }\n\n    if (len > 0) {\n      // left over bytes. Mask is used to remove unwanted bytes from the word\n      uint256 mask = 256**(WORD_SIZE - len) - 1;\n      assembly {\n        let srcpart := and(mload(src), not(mask)) // zero out src\n        let destpart := and(mload(dest), mask) // retrieve the bytes\n        mstore(dest, or(destpart, srcpart))\n      }\n    }\n  }\n\n  /**\n    * @dev RLP encodes a byte string.\n    * @param self The byte string to encode.\n    * @return The RLP encoded string in bytes.\n    */\n  function encodeBytes(bytes memory self) internal pure returns (bytes memory) {\n    bytes memory encoded;\n    if (self.length == 1 && uint8(self[0]) < 128) {\n      encoded = self;\n    } else {\n      encoded = concat(encodeLength(self.length, 128), self);\n    }\n    return encoded;\n  }\n\n  /**\n    * @dev RLP encodes a list of RLP encoded byte byte strings.\n    * @param self The list of RLP encoded byte strings.\n    * @return The RLP encoded list of items in bytes.\n    */\n  function encodeList(bytes[] memory self) internal pure returns (bytes memory) {\n    bytes memory list = flatten(self);\n    return concat(encodeLength(list.length, 192), list);\n  }\n\n  /** \n    * @dev RLP encodes a uint.\n    * @param self The uint to encode.\n    * @return The RLP encoded uint in bytes.\n    */\n  function encodeUint(uint self) internal pure returns (bytes memory) {\n    return encodeBytes(toBinary(self));\n  }\n\n    /**\n     * @dev Encode the first byte, followed by the `len` in binary form if `length` is more than 55.\n     * @param len The length of the string or the payload.\n     * @param offset 128 if item is string, 192 if item is list.\n     * @return RLP encoded bytes.\n     */\n    function encodeLength(uint len, uint offset) internal pure returns (bytes memory) {\n      bytes memory encoded;\n      if (len < 56) {\n        encoded = new bytes(1);\n        encoded[0] = bytes32(len + offset)[31];\n      } else {\n        uint lenLen;\n        uint i = 1;\n        while (len / i != 0) {\n          lenLen++;\n          i *= 256;\n        }\n        encoded = new bytes(lenLen + 1);\n        encoded[0] = bytes32(lenLen + offset + 55)[31];\n        for(i = 1; i <= lenLen; i++) {\n            encoded[i] = bytes32((len / (256**(lenLen-i))) % 256)[31];\n        }\n      }\n      return encoded;\n    }\n\n  /**\n    * @dev Encode integer in big endian binary form with no leading zeroes.\n    * @notice TODO: This should be optimized with assembly to save gas costs.\n    * @param _x The integer to encode.\n    * @return RLP encoded bytes.\n    */\n  function toBinary(uint _x) internal pure returns (bytes memory) {\n    bytes memory b = new bytes(32);\n    assembly { \n      mstore(add(b, 32), _x) \n    }\n    uint i;\n    for (i = 0; i < 32; i++) {\n      if (b[i] != 0) {\n        break;\n      }\n    }\n    bytes memory res = new bytes(32 - i);\n    for (uint j = 0; j < res.length; j++) {\n      res[j] = b[i++];\n    }\n    return res;\n  }\n\n    /**\n    * @dev Flattens a list of byte strings into one byte string.\n    * @notice From: https://github.com/sammayo/solidity-rlp-encoder/blob/master/RLPEncode.sol.\n    * @param _list List of byte strings to flatten.\n    * @return The flattened byte string.\n    */\n  function flatten(bytes[] memory _list) internal pure returns (bytes memory) {\n    if (_list.length == 0) {\n      return new bytes(0);\n    }\n\n    uint len;\n    uint i;\n    for (i = 0; i < _list.length; i++) {\n      len += _list[i].length;\n    }\n\n    bytes memory flattened = new bytes(len);\n    uint flattenedPtr;\n    assembly { flattenedPtr := add(flattened, 0x20) }\n\n    for(i = 0; i < _list.length; i++) {\n      bytes memory item = _list[i];\n      \n      uint listPtr;\n      assembly { listPtr := add(item, 0x20)}\n\n      copy(listPtr, flattenedPtr, item.length);\n      flattenedPtr += _list[i].length;\n    }\n    return flattened;\n  }\n\n  /**\n    * @dev Concatenates two bytes.\n    * @notice From: https://github.com/GNSPS/solidity-bytes-utils/blob/master/contracts/BytesLib.sol.\n    * @param _preBytes First byte string.\n    * @param _postBytes Second byte string.\n    * @return Both byte string combined.\n    */\n  function concat(bytes memory _preBytes, bytes memory _postBytes) internal pure returns (bytes memory) {\n    bytes memory tempBytes;\n\n    assembly {\n      tempBytes := mload(0x40)\n\n      let length := mload(_preBytes)\n      mstore(tempBytes, length)\n\n      let mc := add(tempBytes, 0x20)\n      let end := add(mc, length)\n\n      for {\n        let cc := add(_preBytes, 0x20)\n      } lt(mc, end) {\n        mc := add(mc, 0x20)\n        cc := add(cc, 0x20)\n      } {\n        mstore(mc, mload(cc))\n      }\n\n      length := mload(_postBytes)\n      mstore(tempBytes, add(length, mload(tempBytes)))\n\n      mc := end\n      end := add(mc, length)\n\n      for {\n        let cc := add(_postBytes, 0x20)\n      } lt(mc, end) {\n        mc := add(mc, 0x20)\n        cc := add(cc, 0x20)\n      } {\n        mstore(mc, mload(cc))\n      }\n\n      mstore(0x40, and(\n        add(add(end, iszero(add(length, mload(_preBytes)))), 31),\n        not(31)\n      ))\n    }\n    return tempBytes;\n  }\n}",
  "sourcePath": "/Users/sihengpan/Documents/XinFin/Subnet/contracts/HeaderReader.sol",
  "compiler": {
    "name": "solc",
    "version": "0.5.16+commit.9c3226ce.Emscripten.clang"
  },
  "schemaVersion": "3.4.1",
  "updatedAt": "2023-01-30T22:02:42.814Z",
  "devdoc": {
    "methods": {}
  },
  "userdoc": {
    "methods": {}
  }
}