{
  "contractName": "HeaderReader",
  "abi": [
    {
      "constant": true,
      "inputs": [
        {
          "internalType": "bytes",
          "name": "header",
          "type": "bytes"
        }
      ],
      "name": "getParentHashAndNumber",
      "outputs": [
        {
          "internalType": "bytes32",
          "name": "",
          "type": "bytes32"
        },
        {
          "internalType": "int256",
          "name": "",
          "type": "int256"
        }
      ],
      "payable": false,
      "stateMutability": "pure",
      "type": "function"
    },
    {
      "constant": true,
      "inputs": [
        {
          "internalType": "bytes",
          "name": "header",
          "type": "bytes"
        }
      ],
      "name": "getBlock1Params",
      "outputs": [
        {
          "internalType": "bytes32",
          "name": "",
          "type": "bytes32"
        },
        {
          "internalType": "int256",
          "name": "",
          "type": "int256"
        },
        {
          "internalType": "uint64",
          "name": "",
          "type": "uint64"
        }
      ],
      "payable": false,
      "stateMutability": "pure",
      "type": "function"
    },
    {
      "constant": true,
      "inputs": [
        {
          "internalType": "bytes",
          "name": "header",
          "type": "bytes"
        }
      ],
      "name": "getValidationParams",
      "outputs": [
        {
          "internalType": "bytes32",
          "name": "",
          "type": "bytes32"
        },
        {
          "internalType": "int256",
          "name": "",
          "type": "int256"
        },
        {
          "internalType": "uint64",
          "name": "",
          "type": "uint64"
        },
        {
          "internalType": "uint64",
          "name": "",
          "type": "uint64"
        },
        {
          "internalType": "bytes32",
          "name": "",
          "type": "bytes32"
        },
        {
          "internalType": "bytes[]",
          "name": "",
          "type": "bytes[]"
        }
      ],
      "payable": false,
      "stateMutability": "pure",
      "type": "function"
    },
    {
      "constant": true,
      "inputs": [
        {
          "internalType": "bytes",
          "name": "extra",
          "type": "bytes"
        }
      ],
      "name": "getExtraData",
      "outputs": [
        {
          "internalType": "bytes",
          "name": "",
          "type": "bytes"
        }
      ],
      "payable": false,
      "stateMutability": "pure",
      "type": "function"
    }
  ],
  "bytecode": "0x611665610026600b82828239805160001a60731461001957fe5b30600052607381538281f3fe73000000000000000000000000000000000000000030146080604052600436106100565760003560e01c806344e06ed41461005b578063462648b614610090578063be7558c0146100c0578063dc9e408b146100f2575b600080fd5b610075600480360361007091908101906111dd565b610123565b60405161008796959493929190611418565b60405180910390f35b6100aa60048036036100a591908101906111dd565b61041d565b6040516100b79190611480565b60405180910390f35b6100da60048036036100d591908101906111dd565b610483565b6040516100e9939291906113e1565b60405180910390f35b61010c600480360361010791908101906111dd565b61054a565b60405161011a9291906113b8565b60405180910390f35b600080600080600060608061013f61013a896105ae565b6105dc565b9050606061017861017361016e61016985600c8151811061015c57fe5b60200260200101516106b9565b61041d565b6105ae565b6105dc565b905060006101998260008151811061018c57fe5b6020026020010151610737565b905060606101d66101bd846001815181106101b057fe5b60200260200101516105dc565b6000815181106101c957fe5b60200260200101516105dc565b905060006101ff6101fa836000815181106101ed57fe5b60200260200101516106b9565b610795565b905060006102208360018151811061021357fe5b6020026020010151610737565b905060006102418460028151811061023457fe5b6020026020010151610737565b90506102686102638860008151811061025657fe5b60200260200101516106b9565b610795565b83146102a9576040517f08c379a00000000000000000000000000000000000000000000000000000000081526004016102a0906114a2565b60405180910390fd5b60606102e46102cb886001815181106102be57fe5b60200260200101516105dc565b6001815181106102d757fe5b60200260200101516105dc565b90506060815160405190808252806020026020018201604052801561031d57816020015b60608152602001906001900390816103085790505b50905060008090505b825181101561036f5761034b83828151811061033e57fe5b60200260200101516106b9565b82828151811061035757fe5b60200260200101819052508080600101915050610326565b5060006103b68686866103b16103988e60018151811061038b57fe5b60200260200101516105dc565b6002815181106103a457fe5b6020026020010151610737565b6107a3565b90506103dd6103d88b6000815181106103cb57fe5b60200260200101516106b9565b610795565b6103fa8b6008815181106103ed57fe5b6020026020010151610737565b898784869f509f509f509f509f509f505050505050505050505091939550919395565b60608060018351036040519080825280601f01601f1916602001820160405280156104575781602001600182028038833980820191505090505b5090506000806020830191506021850190506104788183600188510361090d565b829350505050919050565b6000806000606061049b610496866105ae565b6105dc565b905060606104d46104cf6104ca6104c585600c815181106104b857fe5b60200260200101516106b9565b61041d565b6105ae565b6105dc565b905060006104f5826000815181106104e857fe5b6020026020010151610737565b905061051c6105178460008151811061050a57fe5b60200260200101516106b9565b610795565b6105398460088151811061052c57fe5b6020026020010151610737565b829550955095505050509193909250565b600080606061056061055b856105ae565b6105dc565b90506105876105828260008151811061057557fe5b60200260200101516106b9565b610795565b6105a48260088151811061059757fe5b6020026020010151610737565b9250925050915091565b6105b6611155565b600060208301905060405180604001604052808451815260200182815250915050919050565b60606105e78261097e565b6105f057600080fd5b60006105fb836109cc565b905060608160405190808252806020026020018201604052801561063957816020015b61062661116f565b81526020019060019003908161061e5790505b509050600061064b8560200151610a3d565b8560200151019050600080600090505b848110156106ac5761066c83610ac6565b915060405180604001604052808381526020018481525084828151811061068f57fe5b60200260200101819052508183019250808060010191505061065b565b5082945050505050919050565b606060008260000151116106cc57600080fd5b6000806106d884610b7e565b80925081935050506060816040519080825280601f01601f1916602001820160405280156107155781602001600182028038833980820191505090505b509050600081602001905061072b84828561090d565b81945050505050919050565b600080826000015111801561075157506021826000015111155b61075a57600080fd5b60008061076684610b7e565b8092508193505050600082519050602082101561078a57816020036101000a810490505b809350505050919050565b600060208201519050919050565b6000606060036040519080825280602002602001820160405280156107dc57816020015b60608152602001906001900390816107c75790505b509050610807866040516020016107f3919061139d565b604051602081830303815290604052610bb6565b8160008151811061081457fe5b60200260200101819052506108328567ffffffffffffffff16610c15565b8160018151811061083f57fe5b602002602001018190525061085384610c15565b8160028151811061086057fe5b6020026020010181905250606060026040519080825280602002602001820160405280156108a257816020015b606081526020019060019003908161088d5790505b5090506108ae82610c2f565b816000815181106108bb57fe5b60200260200101819052506108d98467ffffffffffffffff16610c15565b816001815181106108e657fe5b60200260200101819052506108fa81610c2f565b8051906020012092505050949350505050565b600081141561091b57610979565b5b602060ff16811061094b5782518252602060ff1683019250602060ff1682019150602060ff168103905061091c565b6000811115610978576000600182602060ff16036101000a03905080198451168184511681811785525050505b5b505050565b6000808260000151141561099557600090506109c7565b60008083602001519050805160001a915060c060ff168260ff1610156109c0576000925050506109c7565b6001925050505b919050565b600080826000015114156109e35760009050610a38565b600080905060006109f78460200151610a3d565b84602001510190506000846000015185602001510190505b80821015610a3157610a2082610ac6565b820191508280600101935050610a0f565b8293505050505b919050565b600080825160001a9050608060ff16811015610a5d576000915050610ac1565b60b860ff16811080610a82575060c060ff168110158015610a81575060f860ff1681105b5b15610a91576001915050610ac1565b60c060ff16811015610ab15760018060b80360ff16820301915050610ac1565b60018060f80360ff168203019150505b919050565b6000806000835160001a9050608060ff16811015610ae75760019150610b74565b60b860ff16811015610b04576001608060ff168203019150610b73565b60c060ff16811015610b345760b78103600185019450806020036101000a85510460018201810193505050610b72565b60f860ff16811015610b5157600160c060ff168203019150610b71565b60f78103600185019450806020036101000a855104600182018101935050505b5b5b5b8192505050919050565b6000806000610b908460200151610a3d565b905060008185602001510190506000828660000151039050818194509450505050915091565b60608060018351148015610be75750608083600081518110610bd457fe5b602001015160f81c60f81b60f81c60ff16105b15610bf457829050610c0c565b610c09610c0384516080610c5a565b84610e3e565b90505b80915050919050565b6060610c28610c2383610ec8565b610bb6565b9050919050565b606080610c3b83611027565b9050610c52610c4c825160c0610c5a565b82610e3e565b915050919050565b6060806038841015610cf45760016040519080825280601f01601f191660200182016040528015610c9a5781602001600182028038833980820191505090505b50905082840160001b601f60208110610caf57fe5b1a60f81b81600081518110610cc057fe5b60200101907effffffffffffffffffffffffffffffffffffffffffffffffffffffffffffff1916908160001a905350610e34565b600080600190505b6000818781610d0757fe5b0414610d2157818060010192505061010081029050610cfc565b600182016040519080825280601f01601f191660200182016040528015610d575781602001600182028038833980820191505090505b50925060378583010160001b601f60208110610d6f57fe5b1a60f81b83600081518110610d8057fe5b60200101907effffffffffffffffffffffffffffffffffffffffffffffffffffffffffffff1916908160001a905350600190505b818111610e31576101008183036101000a8781610dcd57fe5b0481610dd557fe5b0660001b601f60208110610de557fe5b1a60f81b838281518110610df557fe5b60200101907effffffffffffffffffffffffffffffffffffffffffffffffffffffffffffff1916908160001a9053508080600101915050610db4565b50505b8091505092915050565b6060806040519050835180825260208201818101602087015b81831015610e745780518352602083019250602081019050610e57565b50855192508351830184528091508282019050602086015b81831015610ea95780518352602083019250602081019050610e8c565b50601f19601f8851850115830101166040525050508091505092915050565b60608060206040519080825280601f01601f191660200182016040528015610eff5781602001600182028038833980820191505090505b50905082602082015260008090505b6020811015610f6c57600060f81b828281518110610f2857fe5b602001015160f81c60f81b7effffffffffffffffffffffffffffffffffffffffffffffffffffffffffffff191614610f5f57610f6c565b8080600101915050610f0e565b6060816020036040519080825280601f01601f191660200182016040528015610fa45781602001600182028038833980820191505090505b50905060008090505b815181101561101b57838380600101945081518110610fc857fe5b602001015160f81c60f81b828281518110610fdf57fe5b60200101907effffffffffffffffffffffffffffffffffffffffffffffffffffffffffffff1916908160001a9053508080600101915050610fad565b50809350505050919050565b606060008251141561106f5760006040519080825280601f01601f1916602001820160405280156110675781602001600182028038833980820191505090505b509050611150565b600080600090505b83518110156110a65783818151811061108c57fe5b602002602001015151820191508080600101915050611077565b6060826040519080825280601f01601f1916602001820160405280156110db5781602001600182028038833980820191505090505b5090506000602082019050600092505b855183101561114857606086848151811061110257fe5b6020026020010151905060006020820190506111208184845161090d565b87858151811061112c57fe5b60200260200101515183019250505082806001019350506110eb565b819450505050505b919050565b604051806040016040528060008152602001600081525090565b604051806040016040528060008152602001600081525090565b600082601f83011261119a57600080fd5b81356111ad6111a8826114ef565b6114c2565b915080825260208301602083018583830111156111c957600080fd5b6111d48382846115c5565b50505092915050565b6000602082840312156111ef57600080fd5b600082013567ffffffffffffffff81111561120957600080fd5b61121584828501611189565b91505092915050565b600061122a8383611306565b905092915050565b600061123d8261152b565b6112478185611559565b9350836020820285016112598561151b565b8060005b858110156112955784840389528151611276858261121e565b94506112818361154c565b925060208a0199505060018101905061125d565b50829750879550505050505092915050565b6112b08161159d565b82525050565b6112c76112c28261159d565b611607565b82525050565b60006112d882611541565b6112e2818561156a565b93506112f28185602086016115d4565b6112fb81611611565b840191505092915050565b600061131182611536565b61131b818561157b565b935061132b8185602086016115d4565b61133481611611565b840191505092915050565b611348816115a7565b82525050565b600061135b60138361158c565b91507f566572696669636174696f6e204661696c6564000000000000000000000000006000830152602082019050919050565b611397816115b1565b82525050565b60006113a982846112b6565b60208201915081905092915050565b60006040820190506113cd60008301856112a7565b6113da602083018461133f565b9392505050565b60006060820190506113f660008301866112a7565b611403602083018561133f565b611410604083018461138e565b949350505050565b600060c08201905061142d60008301896112a7565b61143a602083018861133f565b611447604083018761138e565b611454606083018661138e565b61146160808301856112a7565b81810360a08301526114738184611232565b9050979650505050505050565b6000602082019050818103600083015261149a81846112cd565b905092915050565b600060208201905081810360008301526114bb8161134e565b9050919050565b6000604051905081810181811067ffffffffffffffff821117156114e557600080fd5b8060405250919050565b600067ffffffffffffffff82111561150657600080fd5b601f19601f8301169050602081019050919050565b6000819050602082019050919050565b600081519050919050565b600081519050919050565b600081519050919050565b6000602082019050919050565b600082825260208201905092915050565b600082825260208201905092915050565b600082825260208201905092915050565b600082825260208201905092915050565b6000819050919050565b6000819050919050565b600067ffffffffffffffff82169050919050565b82818337600083830152505050565b60005b838110156115f25780820151818401526020810190506115d7565b83811115611601576000848401525b50505050565b6000819050919050565b6000601f19601f830116905091905056fea365627a7a723158209e2df656217fe0a161b6cdab7193bdaab43b665dcc234fa8e3584a7730ea9f4e6c6578706572696d656e74616cf564736f6c63430005100040",
  "source": "// SPDX-License-Identifier: MIT\npragma solidity >=0.4.21 <0.9.0;\npragma experimental ABIEncoderV2;\n\nlibrary HeaderReader {\n\n  uint8 constant STRING_SHORT_START = 0x80;\n  uint8 constant STRING_LONG_START = 0xb8;\n  uint8 constant LIST_SHORT_START = 0xc0;\n  uint8 constant LIST_LONG_START = 0xf8;\n  uint8 constant WORD_SIZE = 32;\n\n  struct RLPItem {\n    uint256 len;\n    uint256 memPtr;\n  }\n\n  function getParentHashAndNumber(bytes memory header) public pure returns (bytes32, int) {\n    RLPItem[] memory ls = toList(toRlpItem(header));\n    return (toBytes32(toBytes(ls[0])), int(toUint(ls[8])));\n  }\n\n  function getBlock1Params(bytes memory header) public pure returns (bytes32, int, uint64) {\n    RLPItem[] memory ls = toList(toRlpItem(header));\n    RLPItem[] memory extra = toList(toRlpItem(getExtraData(toBytes(ls[12]))));\n    uint64 round_number = uint64(toUint(extra[0]));\n    return (toBytes32(toBytes(ls[0])), int(toUint(ls[8])), round_number);\n  }\n\n  // Returns (parentHash, number, round_number, certificate hash, sigs)\n  function getValidationParams(bytes memory header) public pure returns (bytes32, int, uint64, uint64, bytes32, bytes[] memory) {\n    RLPItem[] memory ls = toList(toRlpItem(header));\n    RLPItem[] memory extra = toList(toRlpItem(getExtraData(toBytes(ls[12]))));\n    uint64 round_number = uint64(toUint(extra[0]));\n    RLPItem[] memory proposed_block = toList(toList(extra[1])[0]);\n    bytes32 parent_hash = toBytes32(toBytes(proposed_block[0]));\n    uint64 parent_round_number = uint64(toUint(proposed_block[1]));\n    int parent_number = int(toUint(proposed_block[2]));\n    if (parent_hash != toBytes32(toBytes(ls[0]))) {\n      revert(\"Verification Failed\");\n    }\n    RLPItem[] memory raw_sigs = toList(toList(extra[1])[1]);\n    bytes[] memory sigs = new bytes[](raw_sigs.length);\n    for (uint i = 0; i < raw_sigs.length; i++) {\n      sigs[i] = toBytes(raw_sigs[i]);\n    }\n    bytes32 signHash = createSignHash(parent_hash, parent_round_number, parent_number, uint64(toUint(toList(extra[1])[2])));\n    return (toBytes32(toBytes(ls[0])), int(toUint(ls[8])), round_number, parent_round_number, signHash, sigs);\n  }\n\n  function getExtraData(bytes memory extra) public pure returns (bytes memory) {\n    bytes memory extraData = new bytes(extra.length-1);\n    uint extraDataPtr;\n    uint extraPtr;\n    assembly { extraDataPtr := add(extraData, 0x20) }\n    assembly { extraPtr := add(extra, 0x21) }\n    copy(extraPtr, extraDataPtr, extra.length-1);\n    return extraData;\n  }\n\n  function createSignHash(bytes32 block_hash, uint64 round_num, int number, uint64 gap_num) internal pure returns (bytes32 signHash) {\n    bytes[] memory x = new bytes[](3);\n    x[0] = encodeBytes(abi.encodePacked(block_hash));\n    x[1] = encodeUint(round_num);\n    x[2] = encodeUint(uint(number));\n\n    bytes[] memory y = new bytes[](2);\n    y[0] = encodeList(x);\n    y[1] = encodeUint(gap_num);\n    signHash = keccak256(encodeList(y));\n  }\n\n  function toBytes32(bytes memory data) internal pure returns (bytes32 res) {\n    assembly {\n      res := mload(add(data, 32))\n    }\n  }\n\n  /*\n  * @param item RLP encoded bytes\n  */\n  function toRlpItem(bytes memory item) internal pure returns (RLPItem memory) {\n    uint256 memPtr;\n    assembly {\n      memPtr := add(item, 0x20)\n    }\n    return RLPItem(item.length, memPtr);\n  }\n\n  /*\n  * @param the RLP item.\n  * @return (memPtr, len) pair: location of the item's payload in memory.\n  */\n  function payloadLocation(RLPItem memory item) internal pure returns (uint256, uint256) {\n    uint256 offset = _payloadOffset(item.memPtr);\n    uint256 memPtr = item.memPtr + offset;\n    uint256 len = item.len - offset; // data length\n    return (memPtr, len);\n  }\n\n  /*\n    * @param the RLP item containing the encoded list.\n    */\n  function toList(RLPItem memory item) internal pure returns (RLPItem[] memory) {\n    require(isList(item));\n\n    uint256 items = numItems(item);\n    RLPItem[] memory result = new RLPItem[](items);\n\n    uint256 memPtr = item.memPtr + _payloadOffset(item.memPtr);\n    uint256 dataLen;\n    for (uint256 i = 0; i < items; i++) {\n      dataLen = _itemLength(memPtr);\n      result[i] = RLPItem(dataLen, memPtr);\n      memPtr = memPtr + dataLen;\n    }\n\n    return result;\n  }\n\n  // @return indicator whether encoded payload is a list. negate this function call for isData.\n  function isList(RLPItem memory item) internal pure returns (bool) {\n    if (item.len == 0) return false;\n\n    uint8 byte0;\n    uint256 memPtr = item.memPtr;\n    assembly {\n      byte0 := byte(0, mload(memPtr))\n    }\n\n    if (byte0 < LIST_SHORT_START) return false;\n    return true;\n  }\n\n  function toUint(RLPItem memory item) internal pure returns (uint256) {\n    require(item.len > 0 && item.len <= 33);\n    uint256 memPtr;\n    uint256 len;\n    (memPtr, len) = payloadLocation(item);\n\n    uint256 result;\n    assembly {\n      result := mload(memPtr)\n\n      // shift to the correct location if neccesary\n      if lt(len, 32) {\n          result := div(result, exp(256, sub(32, len)))\n      }\n    }\n\n    return result;\n  }\n\n  // @return number of payload items inside an encoded list.\n  function numItems(RLPItem memory item) internal pure returns (uint256) {\n    if (item.len == 0) return 0;\n\n    uint256 count = 0;\n    uint256 currPtr = item.memPtr + _payloadOffset(item.memPtr);\n    uint256 endPtr = item.memPtr + item.len;\n    while (currPtr < endPtr) {\n      currPtr = currPtr + _itemLength(currPtr); // skip over an item\n      count++;\n    }\n\n    return count;\n  }\n\n  // @return entire rlp item byte length\n  function _itemLength(uint256 memPtr) internal pure returns (uint256) {\n    uint256 itemLen;\n    uint256 byte0;\n    assembly {\n      byte0 := byte(0, mload(memPtr))\n    }\n\n    if (byte0 < STRING_SHORT_START) {\n      itemLen = 1;\n    } else if (byte0 < STRING_LONG_START) {\n      itemLen = byte0 - STRING_SHORT_START + 1;\n    } else if (byte0 < LIST_SHORT_START) {\n      assembly {\n          let byteLen := sub(byte0, 0xb7) // # of bytes the actual length is\n          memPtr := add(memPtr, 1) // skip over the first byte\n\n          /* 32 byte word size */\n          let dataLen := div(mload(memPtr), exp(256, sub(32, byteLen))) // right shifting to get the len\n          itemLen := add(dataLen, add(byteLen, 1))\n      }\n    } else if (byte0 < LIST_LONG_START) {\n      itemLen = byte0 - LIST_SHORT_START + 1;\n    } else {\n      assembly {\n        let byteLen := sub(byte0, 0xf7)\n        memPtr := add(memPtr, 1)\n\n        let dataLen := div(mload(memPtr), exp(256, sub(32, byteLen))) // right shifting to the correct length\n        itemLen := add(dataLen, add(byteLen, 1))\n      }\n    }\n\n    return itemLen;\n  }\n\n\n  // @return number of bytes until the data\n  function _payloadOffset(uint256 memPtr) internal pure returns (uint256) {\n    uint256 byte0;\n    assembly {\n      byte0 := byte(0, mload(memPtr))\n    }\n    if (byte0 < STRING_SHORT_START) {\n      return 0;\n    } else if (byte0 < STRING_LONG_START || (byte0 >= LIST_SHORT_START && byte0 < LIST_LONG_START)) {\n      return 1;\n    } else if (byte0 < LIST_SHORT_START) {\n      // being explicit\n      return byte0 - (STRING_LONG_START - 1) + 1;\n    } else {\n      return byte0 - (LIST_LONG_START - 1) + 1;\n    }\n  }\n\n  function toBytes(RLPItem memory item) internal pure returns (bytes memory) {\n    require(item.len > 0);\n    uint256 memPtr;\n    uint256 len;\n    (memPtr, len) = payloadLocation(item);\n    bytes memory result = new bytes(len);\n\n    uint256 destPtr;\n    assembly {\n      destPtr := add(0x20, result)\n    }\n\n    copy(memPtr, destPtr, len);\n    return result;\n  }\n\n  /*\n  * @param src Pointer to source\n  * @param dest Pointer to destination\n  * @param len Amount of memory to copy from the source\n  */\n  function copy(uint256 src, uint256 dest, uint256 len) internal pure {\n    if (len == 0) return;\n\n    // copy as many word sizes as possible\n    for (; len >= WORD_SIZE; len -= WORD_SIZE) {\n      assembly {\n        mstore(dest, mload(src))\n      }\n\n      src += WORD_SIZE;\n      dest += WORD_SIZE;\n    }\n\n    if (len > 0) {\n      // left over bytes. Mask is used to remove unwanted bytes from the word\n      uint256 mask = 256**(WORD_SIZE - len) - 1;\n      assembly {\n        let srcpart := and(mload(src), not(mask)) // zero out src\n        let destpart := and(mload(dest), mask) // retrieve the bytes\n        mstore(dest, or(destpart, srcpart))\n      }\n    }\n  }\n\n  /**\n    * @dev RLP encodes a byte string.\n    * @param self The byte string to encode.\n    * @return The RLP encoded string in bytes.\n    */\n  function encodeBytes(bytes memory self) internal pure returns (bytes memory) {\n    bytes memory encoded;\n    if (self.length == 1 && uint8(self[0]) < 128) {\n      encoded = self;\n    } else {\n      encoded = concat(encodeLength(self.length, 128), self);\n    }\n    return encoded;\n  }\n\n  /**\n    * @dev RLP encodes a list of RLP encoded byte byte strings.\n    * @param self The list of RLP encoded byte strings.\n    * @return The RLP encoded list of items in bytes.\n    */\n  function encodeList(bytes[] memory self) internal pure returns (bytes memory) {\n    bytes memory list = flatten(self);\n    return concat(encodeLength(list.length, 192), list);\n  }\n\n  /** \n    * @dev RLP encodes a uint.\n    * @param self The uint to encode.\n    * @return The RLP encoded uint in bytes.\n    */\n  function encodeUint(uint self) internal pure returns (bytes memory) {\n    return encodeBytes(toBinary(self));\n  }\n\n    /**\n     * @dev Encode the first byte, followed by the `len` in binary form if `length` is more than 55.\n     * @param len The length of the string or the payload.\n     * @param offset 128 if item is string, 192 if item is list.\n     * @return RLP encoded bytes.\n     */\n    function encodeLength(uint len, uint offset) internal pure returns (bytes memory) {\n      bytes memory encoded;\n      if (len < 56) {\n        encoded = new bytes(1);\n        encoded[0] = bytes32(len + offset)[31];\n      } else {\n        uint lenLen;\n        uint i = 1;\n        while (len / i != 0) {\n          lenLen++;\n          i *= 256;\n        }\n        encoded = new bytes(lenLen + 1);\n        encoded[0] = bytes32(lenLen + offset + 55)[31];\n        for(i = 1; i <= lenLen; i++) {\n            encoded[i] = bytes32((len / (256**(lenLen-i))) % 256)[31];\n        }\n      }\n      return encoded;\n    }\n\n  /**\n    * @dev Encode integer in big endian binary form with no leading zeroes.\n    * @notice TODO: This should be optimized with assembly to save gas costs.\n    * @param _x The integer to encode.\n    * @return RLP encoded bytes.\n    */\n  function toBinary(uint _x) internal pure returns (bytes memory) {\n    bytes memory b = new bytes(32);\n    assembly { \n      mstore(add(b, 32), _x) \n    }\n    uint i;\n    for (i = 0; i < 32; i++) {\n      if (b[i] != 0) {\n        break;\n      }\n    }\n    bytes memory res = new bytes(32 - i);\n    for (uint j = 0; j < res.length; j++) {\n      res[j] = b[i++];\n    }\n    return res;\n  }\n\n    /**\n    * @dev Flattens a list of byte strings into one byte string.\n    * @notice From: https://github.com/sammayo/solidity-rlp-encoder/blob/master/RLPEncode.sol.\n    * @param _list List of byte strings to flatten.\n    * @return The flattened byte string.\n    */\n  function flatten(bytes[] memory _list) internal pure returns (bytes memory) {\n    if (_list.length == 0) {\n      return new bytes(0);\n    }\n\n    uint len;\n    uint i;\n    for (i = 0; i < _list.length; i++) {\n      len += _list[i].length;\n    }\n\n    bytes memory flattened = new bytes(len);\n    uint flattenedPtr;\n    assembly { flattenedPtr := add(flattened, 0x20) }\n\n    for(i = 0; i < _list.length; i++) {\n      bytes memory item = _list[i];\n      \n      uint listPtr;\n      assembly { listPtr := add(item, 0x20)}\n\n      copy(listPtr, flattenedPtr, item.length);\n      flattenedPtr += _list[i].length;\n    }\n    return flattened;\n  }\n\n  /**\n    * @dev Concatenates two bytes.\n    * @notice From: https://github.com/GNSPS/solidity-bytes-utils/blob/master/contracts/BytesLib.sol.\n    * @param _preBytes First byte string.\n    * @param _postBytes Second byte string.\n    * @return Both byte string combined.\n    */\n  function concat(bytes memory _preBytes, bytes memory _postBytes) internal pure returns (bytes memory) {\n    bytes memory tempBytes;\n\n    assembly {\n      tempBytes := mload(0x40)\n\n      let length := mload(_preBytes)\n      mstore(tempBytes, length)\n\n      let mc := add(tempBytes, 0x20)\n      let end := add(mc, length)\n\n      for {\n        let cc := add(_preBytes, 0x20)\n      } lt(mc, end) {\n        mc := add(mc, 0x20)\n        cc := add(cc, 0x20)\n      } {\n        mstore(mc, mload(cc))\n      }\n\n      length := mload(_postBytes)\n      mstore(tempBytes, add(length, mload(tempBytes)))\n\n      mc := end\n      end := add(mc, length)\n\n      for {\n        let cc := add(_postBytes, 0x20)\n      } lt(mc, end) {\n        mc := add(mc, 0x20)\n        cc := add(cc, 0x20)\n      } {\n        mstore(mc, mload(cc))\n      }\n\n      mstore(0x40, and(\n        add(add(end, iszero(add(length, mload(_preBytes)))), 31),\n        not(31)\n      ))\n    }\n    return tempBytes;\n  }\n}",
  "sourcePath": "/Users/sihengpan/Documents/XinFin/XDC-Subnet/mainnet_contract/contracts/HeaderReader.sol",
  "compiler": {
    "name": "solc",
    "version": "0.5.16+commit.9c3226ce.Emscripten.clang"
  },
  "schemaVersion": "3.4.1",
  "updatedAt": "2023-02-28T22:18:01.823Z",
  "devdoc": {
    "methods": {}
  },
  "userdoc": {
    "methods": {}
  }
}