{
  "contractName": "Subnet",
  "abi": [
    {
      "inputs": [
        {
          "internalType": "address[]",
          "name": "initial_validator_set",
          "type": "address[]"
        },
        {
          "internalType": "int256",
          "name": "threshold",
          "type": "int256"
        },
        {
          "internalType": "bytes",
          "name": "genesis_header",
          "type": "bytes"
        }
      ],
      "payable": false,
      "stateMutability": "nonpayable",
      "type": "constructor"
    },
    {
      "anonymous": false,
      "inputs": [
        {
          "indexed": false,
          "internalType": "bytes32",
          "name": "block_hash",
          "type": "bytes32"
        },
        {
          "indexed": false,
          "internalType": "int256",
          "name": "number",
          "type": "int256"
        }
      ],
      "name": "SubnetBlockAccepted",
      "type": "event"
    },
    {
      "anonymous": false,
      "inputs": [
        {
          "indexed": false,
          "internalType": "bytes32",
          "name": "block_hash",
          "type": "bytes32"
        },
        {
          "indexed": false,
          "internalType": "int256",
          "name": "number",
          "type": "int256"
        }
      ],
      "name": "SubnetBlockFinalized",
      "type": "event"
    },
    {
      "constant": true,
      "inputs": [
        {
          "internalType": "address",
          "name": "master",
          "type": "address"
        }
      ],
      "name": "isMaster",
      "outputs": [
        {
          "internalType": "bool",
          "name": "",
          "type": "bool"
        }
      ],
      "payable": false,
      "stateMutability": "view",
      "type": "function"
    },
    {
      "constant": false,
      "inputs": [
        {
          "internalType": "address",
          "name": "master",
          "type": "address"
        }
      ],
      "name": "addMaster",
      "outputs": [],
      "payable": false,
      "stateMutability": "nonpayable",
      "type": "function"
    },
    {
      "constant": false,
      "inputs": [
        {
          "internalType": "address",
          "name": "master",
          "type": "address"
        }
      ],
      "name": "removeMaster",
      "outputs": [],
      "payable": false,
      "stateMutability": "nonpayable",
      "type": "function"
    },
    {
      "constant": false,
      "inputs": [
        {
          "internalType": "address[]",
          "name": "new_validator_set",
          "type": "address[]"
        },
        {
          "internalType": "int256",
          "name": "threshold",
          "type": "int256"
        },
        {
          "internalType": "int256",
          "name": "subnet_block_height",
          "type": "int256"
        }
      ],
      "name": "reviseValidatorSet",
      "outputs": [],
      "payable": false,
      "stateMutability": "nonpayable",
      "type": "function"
    },
    {
      "constant": false,
      "inputs": [
        {
          "internalType": "bytes",
          "name": "header",
          "type": "bytes"
        }
      ],
      "name": "receiveHeader",
      "outputs": [],
      "payable": false,
      "stateMutability": "nonpayable",
      "type": "function"
    },
    {
      "constant": true,
      "inputs": [
        {
          "internalType": "bytes32",
          "name": "header_hash",
          "type": "bytes32"
        }
      ],
      "name": "getHeader",
      "outputs": [
        {
          "internalType": "bytes",
          "name": "",
          "type": "bytes"
        }
      ],
      "payable": false,
      "stateMutability": "view",
      "type": "function"
    },
    {
      "constant": true,
      "inputs": [
        {
          "internalType": "bytes32",
          "name": "header_hash",
          "type": "bytes32"
        }
      ],
      "name": "getHeaderConfirmationStatus",
      "outputs": [
        {
          "internalType": "bool",
          "name": "",
          "type": "bool"
        }
      ],
      "payable": false,
      "stateMutability": "view",
      "type": "function"
    },
    {
      "constant": true,
      "inputs": [
        {
          "internalType": "bytes32",
          "name": "header_hash",
          "type": "bytes32"
        }
      ],
      "name": "getMainnetBlockNumber",
      "outputs": [
        {
          "internalType": "uint256",
          "name": "",
          "type": "uint256"
        }
      ],
      "payable": false,
      "stateMutability": "view",
      "type": "function"
    },
    {
      "constant": true,
      "inputs": [],
      "name": "getLatestFinalizedBlock",
      "outputs": [
        {
          "internalType": "bytes32",
          "name": "",
          "type": "bytes32"
        }
      ],
      "payable": false,
      "stateMutability": "view",
      "type": "function"
    },
    {
      "constant": true,
      "inputs": [
        {
          "internalType": "int256",
          "name": "height",
          "type": "int256"
        }
      ],
      "name": "getValidatorSet",
      "outputs": [
        {
          "internalType": "address[]",
          "name": "res",
          "type": "address[]"
        }
      ],
      "payable": false,
      "stateMutability": "view",
      "type": "function"
    },
    {
      "constant": true,
      "inputs": [
        {
          "internalType": "int256",
          "name": "height",
          "type": "int256"
        }
      ],
      "name": "getValidatorThreshold",
      "outputs": [
        {
          "internalType": "int256",
          "name": "res",
          "type": "int256"
        }
      ],
      "payable": false,
      "stateMutability": "view",
      "type": "function"
    }
  ],
  "bytecode": "0x608060405260006005553480156200001657600080fd5b5060405162002bbf38038062002bbf83398181016040526200003c91908101906200060a565b600083511162000083576040517f08c379a00000000000000000000000000000000000000000000000000000000081526004016200007a906200077a565b60405180910390fd5b60008180519060200120905060008073__HeaderReader__________________________63dc9e408b856040518263ffffffff1660e01b8152600401620000cb919062000756565b604080518083038186803b158015620000e357600080fd5b505af4158015620000f8573d6000803e3d6000fd5b505050506040513d601f19601f820116820180604052506200011e919081019062000692565b915091506040518060e00160405280848152602001828152602001600067ffffffffffffffff16815260200183815260200160011515815260200143815260200185815250600080858152602001908152602001600020600082015181600001556020820151816001015560408201518160020160006101000a81548167ffffffffffffffff021916908367ffffffffffffffff1602179055506060820151816003015560808201518160040160006101000a81548160ff02191690831515021790555060a0820151816005015560c08201518160060190805190602001906200020a92919062000358565b5090505060405180604001604052808781526020018681525060016000808152602001908152602001600020600082015181600001908051906020019062000254929190620003df565b506020820151816001015590505060008090505b8651811015620002ec576001600260008984815181106200028557fe5b602002602001015173ffffffffffffffffffffffffffffffffffffffff1673ffffffffffffffffffffffffffffffffffffffff16815260200190815260200160002060006101000a81548160ff021916908315150217905550808060010191505062000268565b506001600460003373ffffffffffffffffffffffffffffffffffffffff1673ffffffffffffffffffffffffffffffffffffffff16815260200190815260200160002060006101000a81548160ff021916908315150217905550826007819055505050505050506200092a565b828054600181600116156101000203166002900490600052602060002090601f016020900481019282601f106200039b57805160ff1916838001178555620003cc565b82800160010185558215620003cc579182015b82811115620003cb578251825591602001919060010190620003ae565b5b509050620003db91906200046e565b5090565b8280548282559060005260206000209081019282156200045b579160200282015b828111156200045a5782518260006101000a81548173ffffffffffffffffffffffffffffffffffffffff021916908373ffffffffffffffffffffffffffffffffffffffff1602179055509160200191906001019062000400565b5b5090506200046a919062000496565b5090565b6200049391905b808211156200048f57600081600090555060010162000475565b5090565b90565b620004d991905b80821115620004d557600081816101000a81549073ffffffffffffffffffffffffffffffffffffffff0219169055506001016200049d565b5090565b90565b600081519050620004ed81620008dc565b92915050565b600082601f8301126200050557600080fd5b81516200051c6200051682620007ca565b6200079c565b915081818352602084019350602081019050838560208402820111156200054257600080fd5b60005b838110156200057657816200055b8882620004dc565b84526020840193506020830192505060018101905062000545565b5050505092915050565b6000815190506200059181620008f6565b92915050565b600082601f830112620005a957600080fd5b8151620005c0620005ba82620007f3565b6200079c565b91508082526020830160208301858383011115620005dd57600080fd5b620005ea83828462000895565b50505092915050565b600081519050620006048162000910565b92915050565b6000806000606084860312156200062057600080fd5b600084015167ffffffffffffffff8111156200063b57600080fd5b6200064986828701620004f3565b93505060206200065c86828701620005f3565b925050604084015167ffffffffffffffff8111156200067a57600080fd5b620006888682870162000597565b9150509250925092565b60008060408385031215620006a657600080fd5b6000620006b68582860162000580565b9250506020620006c985828601620005f3565b9150509250929050565b6000620006e08262000820565b620006ec81856200082b565b9350620006fe81856020860162000895565b6200070981620008cb565b840191505092915050565b600062000723600f836200083c565b91507f56616c696461746f7220456d70747900000000000000000000000000000000006000830152602082019050919050565b60006020820190508181036000830152620007728184620006d3565b905092915050565b60006020820190508181036000830152620007958162000714565b9050919050565b6000604051905081810181811067ffffffffffffffff82111715620007c057600080fd5b8060405250919050565b600067ffffffffffffffff821115620007e257600080fd5b602082029050602081019050919050565b600067ffffffffffffffff8211156200080b57600080fd5b601f19601f8301169050602081019050919050565b600081519050919050565b600082825260208201905092915050565b600082825260208201905092915050565b60006200085a8262000875565b9050919050565b6000819050919050565b6000819050919050565b600073ffffffffffffffffffffffffffffffffffffffff82169050919050565b60005b83811015620008b557808201518184015260208101905062000898565b83811115620008c5576000848401525b50505050565b6000601f19601f8301169050919050565b620008e7816200084d565b8114620008f357600080fd5b50565b620009018162000861565b81146200090d57600080fd5b50565b6200091b816200086b565b81146200092757600080fd5b50565b612285806200093a6000396000f3fe608060405234801561001057600080fd5b50600436106100a95760003560e01c80636c624a5f116100715780636c624a5f146101645780636fed6f8314610194578063884bdd86146101c4578063b9615878146101e0578063e2a2f0a314610210578063f720f80b1461022c576100a9565b80630247dd65146100ae5780630a89ed4a146100ca5780631097d54a146100e857806322b8f46e146101045780633756804914610134575b600080fd5b6100c860048036036100c3919081019061179f565b61025c565b005b6100d261040b565b6040516100df9190611d67565b60405180910390f35b61010260048036036100fd9190810190611776565b610415565b005b61011e600480360361011991908101906118ff565b6104fc565b60405161012b9190611d2a565b60405180910390f35b61014e600480360361014991908101906118ff565b6105f8565b60405161015b9190611e34565b60405180910390f35b61017e60048036036101799190810190611806565b610640565b60405161018b9190611d4c565b60405180910390f35b6101ae60048036036101a99190810190611806565b61066c565b6040516101bb9190611faf565b60405180910390f35b6101de60048036036101d991908101906118be565b61068b565b005b6101fa60048036036101f59190810190611806565b611110565b6040516102079190611df0565b60405180910390f35b61022a60048036036102259190810190611776565b6111c7565b005b61024660048036036102419190810190611776565b6112ae565b6040516102539190611d4c565b60405180910390f35b600460003373ffffffffffffffffffffffffffffffffffffffff1673ffffffffffffffffffffffffffffffffffffffff16815260200190815260200160002060009054906101000a900460ff166102e8576040517f08c379a00000000000000000000000000000000000000000000000000000000081526004016102df90611f4f565b60405180910390fd5b600083511161032c576040517f08c379a000000000000000000000000000000000000000000000000000000000815260040161032390611e6f565b60405180910390fd5b6000821361036f576040517f08c379a000000000000000000000000000000000000000000000000000000000815260040161036690611eef565b60405180910390fd5b6005548112156103b4576040517f08c379a00000000000000000000000000000000000000000000000000000000081526004016103ab90611f0f565b60405180910390fd5b6040518060400160405280848152602001838152506001600083815260200190815260200160002060008201518160000190805190602001906103f89291906113e7565b5060208201518160010155905050505050565b6000600754905090565b600460003373ffffffffffffffffffffffffffffffffffffffff1673ffffffffffffffffffffffffffffffffffffffff16815260200190815260200160002060009054906101000a900460ff166104a1576040517f08c379a000000000000000000000000000000000000000000000000000000000815260040161049890611f4f565b60405180910390fd5b6001600460008373ffffffffffffffffffffffffffffffffffffffff1673ffffffffffffffffffffffffffffffffffffffff16815260200190815260200160002060006101000a81548160ff02191690831515021790555050565b606060006001600084815260200190815260200160002060010154141561055557600060405190808252806020026020018201604052801561054d5781602001602082028038833980820191505090505b5090506105f3565b600160008381526020019081526020016000206000018054806020026020016040519081016040528092919081815260200182805480156105eb57602002820191906000526020600020905b8160009054906101000a900473ffffffffffffffffffffffffffffffffffffffff1673ffffffffffffffffffffffffffffffffffffffff16815260200190600101908083116105a1575b505050505090505b919050565b60008060016000848152602001908152602001600020600101541415610621576000905061063b565b600160008381526020019081526020016000206001015490505b919050565b600080600083815260200190815260200160002060040160009054906101000a900460ff169050919050565b6000806000838152602001908152602001600020600501549050919050565b600460003373ffffffffffffffffffffffffffffffffffffffff1673ffffffffffffffffffffffffffffffffffffffff16815260200190815260200160002060009054906101000a900460ff16610717576040517f08c379a000000000000000000000000000000000000000000000000000000000815260040161070e90611f4f565b60405180910390fd5b600080600080606073__HeaderReader__________________________6344e06ed4876040518263ffffffff1660e01b81526004016107569190611e12565b60006040518083038186803b15801561076e57600080fd5b505af4158015610782573d6000803e3d6000fd5b505050506040513d6000823e3d601f19601f820116820180604052506107ab919081019061182f565b94509450945094509450600084136107f8576040517f08c379a00000000000000000000000000000000000000000000000000000000081526004016107ef90611f6f565b60405180910390fd5b6000801b600080878152602001908152602001600020600001541415610853576040517f08c379a000000000000000000000000000000000000000000000000000000000815260040161084a90611e4f565b60405180910390fd5b8360016000808881526020019081526020016000206001015401146108ad576040517f08c379a00000000000000000000000000000000000000000000000000000000081526004016108a490611eaf565b60405180910390fd5b8267ffffffffffffffff1660008087815260200190815260200160002060020160009054906101000a900467ffffffffffffffff1667ffffffffffffffff161061092c576040517f08c379a000000000000000000000000000000000000000000000000000000000815260040161092390611f8f565b60405180910390fd5b6000868051906020012090506000806000838152602001908152602001600020600101541315610991576040517f08c379a000000000000000000000000000000000000000000000000000000000815260040161098890611e8f565b60405180910390fd5b600060016000878152602001908152602001600020600001805490501115610b6f5760008090505b60016000600554815260200190815260200160002060000180549050811015610a8e576000600260006001600060055481526020019081526020016000206000018481548110610a0557fe5b9060005260206000200160009054906101000a900473ffffffffffffffffffffffffffffffffffffffff1673ffffffffffffffffffffffffffffffffffffffff1673ffffffffffffffffffffffffffffffffffffffff16815260200190815260200160002060006101000a81548160ff02191690831515021790555080806001019150506109b9565b5060008090505b6001600087815260200190815260200160002060000180549050811015610b6657600160026000600160008a81526020019081526020016000206000018481548110610add57fe5b9060005260206000200160009054906101000a900473ffffffffffffffffffffffffffffffffffffffff1673ffffffffffffffffffffffffffffffffffffffff1673ffffffffffffffffffffffffffffffffffffffff16815260200190815260200160002060006101000a81548160ff0219169083151502179055508080600101915050610a95565b50846005819055505b600080905060608351604051908082528060200260200182016040528015610ba65781602001602082028038833980820191505090505b50905060008090505b8451811015610d3f576000610bd787878481518110610bca57fe5b6020026020010151611304565b905060011515600260008373ffffffffffffffffffffffffffffffffffffffff1673ffffffffffffffffffffffffffffffffffffffff16815260200190815260200160002060009054906101000a900460ff16151514610c375750610d32565b600360008273ffffffffffffffffffffffffffffffffffffffff1673ffffffffffffffffffffffffffffffffffffffff16815260200190815260200160002060009054906101000a900460ff16610ce95783806001019450506001600360008373ffffffffffffffffffffffffffffffffffffffff1673ffffffffffffffffffffffffffffffffffffffff16815260200190815260200160002060006101000a81548160ff0219169083151502179055505b80838381518110610cf657fe5b602002602001019073ffffffffffffffffffffffffffffffffffffffff16908173ffffffffffffffffffffffffffffffffffffffff1681525050505b8080600101915050610baf565b5060008090505b8151811015610dc757600060036000848481518110610d6157fe5b602002602001015173ffffffffffffffffffffffffffffffffffffffff1673ffffffffffffffffffffffffffffffffffffffff16815260200190815260200160002060006101000a81548160ff0219169083151502179055508080600101915050610d46565b5060016000600554815260200190815260200160002060010154821215610e23576040517f08c379a0000000000000000000000000000000000000000000000000000000008152600401610e1a90611ecf565b60405180910390fd5b6040518060e001604052808481526020018881526020018767ffffffffffffffff1681526020018981526020016000151581526020014381526020018a815250600080858152602001908152602001600020600082015181600001556020820151816001015560408201518160020160006101000a81548167ffffffffffffffff021916908367ffffffffffffffff1602179055506060820151816003015560808201518160040160006101000a81548160ff02191690831515021790555060a0820151816005015560c0820151816006019080519060200190610f08929190611471565b509050507fc92de1e80780c8f239052c833b238f36e1f1f03c09628a198cefab0ed37d2b238388604051610f3d929190611d82565b60405180910390a1600083905060008090505b6003811015611033576000801b600080848152602001908152602001600020600301541415610f88575050505050505050505061110d565b6000806000848152602001908152602001600020600301549050600160008083815260200190815260200160002060020160009054906101000a900467ffffffffffffffff160167ffffffffffffffff1660008085815260200190815260200160002060020160009054906101000a900467ffffffffffffffff1667ffffffffffffffff161461102257505050505050505050505061110d565b809250508080600101915050610f50565b50806007819055505b6001151560008083815260200190815260200160002060040160009054906101000a900460ff1615151461110357600160008083815260200190815260200160002060040160006101000a81548160ff0219169083151502179055507fc87258113ecbd0404f86cc5c0155894cfc47dae8fadab01aa8eefe5b5b40bdbb81600080848152602001908152602001600020600101546040516110de929190611d82565b60405180910390a160008082815260200190815260200160002060030154905061103c565b5050505050505050505b50565b60606000808381526020019081526020016000206006018054600181600116156101000203166002900480601f0160208091040260200160405190810160405280929190818152602001828054600181600116156101000203166002900480156111bb5780601f10611190576101008083540402835291602001916111bb565b820191906000526020600020905b81548152906001019060200180831161119e57829003601f168201915b50505050509050919050565b600460003373ffffffffffffffffffffffffffffffffffffffff1673ffffffffffffffffffffffffffffffffffffffff16815260200190815260200160002060009054906101000a900460ff16611253576040517f08c379a000000000000000000000000000000000000000000000000000000000815260040161124a90611f4f565b60405180910390fd5b6000600460008373ffffffffffffffffffffffffffffffffffffffff1673ffffffffffffffffffffffffffffffffffffffff16815260200190815260200160002060006101000a81548160ff02191690831515021790555050565b6000600460008373ffffffffffffffffffffffffffffffffffffffff1673ffffffffffffffffffffffffffffffffffffffff16815260200190815260200160002060009054906101000a900460ff169050919050565b60008060008061131385611373565b9250925092506001868484846040516000815260200160405260405161133c9493929190611dab565b6020604051602081039080840390855afa15801561135e573d6000803e3d6000fd5b50505060206040510351935050505092915050565b600080600060418451146113bc576040517f08c379a00000000000000000000000000000000000000000000000000000000081526004016113b390611f2f565b60405180910390fd5b6020840151915060408401519050606084015160001a9250601b830182829250925092509193909250565b828054828255906000526020600020908101928215611460579160200282015b8281111561145f5782518260006101000a81548173ffffffffffffffffffffffffffffffffffffffff021916908373ffffffffffffffffffffffffffffffffffffffff16021790555091602001919060010190611407565b5b50905061146d91906114f1565b5090565b828054600181600116156101000203166002900490600052602060002090601f016020900481019282601f106114b257805160ff19168380011785556114e0565b828001600101855582156114e0579182015b828111156114df5782518255916020019190600101906114c4565b5b5090506114ed9190611534565b5090565b61153191905b8082111561152d57600081816101000a81549073ffffffffffffffffffffffffffffffffffffffff0219169055506001016114f7565b5090565b90565b61155691905b8082111561155257600081600090555060010161153a565b5090565b90565b600081359050611568816121e6565b92915050565b600082601f83011261157f57600080fd5b813561159261158d82611ff7565b611fca565b915081818352602084019350602081019050838560208402820111156115b757600080fd5b60005b838110156115e757816115cd8882611559565b8452602084019350602083019250506001810190506115ba565b5050505092915050565b600082601f83011261160257600080fd5b81516116156116108261201f565b611fca565b9150818183526020840193506020810190508360005b8381101561165b5781518601611641888261168f565b84526020840193506020830192505060018101905061162b565b5050505092915050565b600081359050611674816121fd565b92915050565b600081519050611689816121fd565b92915050565b600082601f8301126116a057600080fd5b81516116b36116ae82612047565b611fca565b915080825260208301602083018583830111156116cf57600080fd5b6116da8382846121a2565b50505092915050565b600082601f8301126116f457600080fd5b813561170761170282612073565b611fca565b9150808252602083016020830185838301111561172357600080fd5b61172e838284612193565b50505092915050565b60008135905061174681612214565b92915050565b60008151905061175b81612214565b92915050565b6000815190506117708161222b565b92915050565b60006020828403121561178857600080fd5b600061179684828501611559565b91505092915050565b6000806000606084860312156117b457600080fd5b600084013567ffffffffffffffff8111156117ce57600080fd5b6117da8682870161156e565b93505060206117eb86828701611737565b92505060406117fc86828701611737565b9150509250925092565b60006020828403121561181857600080fd5b600061182684828501611665565b91505092915050565b600080600080600060a0868803121561184757600080fd5b60006118558882890161167a565b95505060206118668882890161174c565b945050604061187788828901611761565b93505060606118888882890161167a565b925050608086015167ffffffffffffffff8111156118a557600080fd5b6118b1888289016115f1565b9150509295509295909350565b6000602082840312156118d057600080fd5b600082013567ffffffffffffffff8111156118ea57600080fd5b6118f6848285016116e3565b91505092915050565b60006020828403121561191157600080fd5b600061191f84828501611737565b91505092915050565b60006119348383611940565b60208301905092915050565b61194981612116565b82525050565b600061195a826120af565b61196481856120d2565b935061196f8361209f565b8060005b838110156119a05781516119878882611928565b9750611992836120c5565b925050600181019050611973565b5085935050505092915050565b6119b681612128565b82525050565b6119c581612134565b82525050565b60006119d6826120ba565b6119e081856120e3565b93506119f08185602086016121a2565b6119f9816121d5565b840191505092915050565b6000611a0f826120ba565b611a1981856120f4565b9350611a298185602086016121a2565b611a32816121d5565b840191505092915050565b611a468161213e565b82525050565b6000611a59600e83612105565b91507f506172656e74204d697373696e670000000000000000000000000000000000006000830152602082019050919050565b6000611a99600f83612105565b91507f56616c696461746f7220456d70747900000000000000000000000000000000006000830152602082019050919050565b6000611ad9600f83612105565b91507f52657065617465642048656164657200000000000000000000000000000000006000830152602082019050919050565b6000611b19600983612105565b91507f496e76616c6964204e00000000000000000000000000000000000000000000006000830152602082019050919050565b6000611b59601183612105565b91507f566572696669636174696f6e204661696c0000000000000000000000000000006000830152602082019050919050565b6000611b99601183612105565b91507f496e76616c6964205468726573686f6c640000000000000000000000000000006000830152602082019050919050565b6000611bd9601583612105565b91507f4d6f6469667920506173742056616c696461746f7200000000000000000000006000830152602082019050919050565b6000611c19601183612105565b91507f496e76616c6964205369676e61747572650000000000000000000000000000006000830152602082019050919050565b6000611c59600c83612105565b91507f4d617374657273204f6e6c7900000000000000000000000000000000000000006000830152602082019050919050565b6000611c99601083612105565b91507f52657065617465642047656e65736973000000000000000000000000000000006000830152602082019050919050565b6000611cd9600a83612105565b91507f496e76616c696420524e000000000000000000000000000000000000000000006000830152602082019050919050565b611d1581612168565b82525050565b611d2481612186565b82525050565b60006020820190508181036000830152611d44818461194f565b905092915050565b6000602082019050611d6160008301846119ad565b92915050565b6000602082019050611d7c60008301846119bc565b92915050565b6000604082019050611d9760008301856119bc565b611da46020830184611a3d565b9392505050565b6000608082019050611dc060008301876119bc565b611dcd6020830186611d1b565b611dda60408301856119bc565b611de760608301846119bc565b95945050505050565b60006020820190508181036000830152611e0a81846119cb565b905092915050565b60006020820190508181036000830152611e2c8184611a04565b905092915050565b6000602082019050611e496000830184611a3d565b92915050565b60006020820190508181036000830152611e6881611a4c565b9050919050565b60006020820190508181036000830152611e8881611a8c565b9050919050565b60006020820190508181036000830152611ea881611acc565b9050919050565b60006020820190508181036000830152611ec881611b0c565b9050919050565b60006020820190508181036000830152611ee881611b4c565b9050919050565b60006020820190508181036000830152611f0881611b8c565b9050919050565b60006020820190508181036000830152611f2881611bcc565b9050919050565b60006020820190508181036000830152611f4881611c0c565b9050919050565b60006020820190508181036000830152611f6881611c4c565b9050919050565b60006020820190508181036000830152611f8881611c8c565b9050919050565b60006020820190508181036000830152611fa881611ccc565b9050919050565b6000602082019050611fc46000830184611d0c565b92915050565b6000604051905081810181811067ffffffffffffffff82111715611fed57600080fd5b8060405250919050565b600067ffffffffffffffff82111561200e57600080fd5b602082029050602081019050919050565b600067ffffffffffffffff82111561203657600080fd5b602082029050602081019050919050565b600067ffffffffffffffff82111561205e57600080fd5b601f19601f8301169050602081019050919050565b600067ffffffffffffffff82111561208a57600080fd5b601f19601f8301169050602081019050919050565b6000819050602082019050919050565b600081519050919050565b600081519050919050565b6000602082019050919050565b600082825260208201905092915050565b600082825260208201905092915050565b600082825260208201905092915050565b600082825260208201905092915050565b600061212182612148565b9050919050565b60008115159050919050565b6000819050919050565b6000819050919050565b600073ffffffffffffffffffffffffffffffffffffffff82169050919050565b6000819050919050565b600067ffffffffffffffff82169050919050565b600060ff82169050919050565b82818337600083830152505050565b60005b838110156121c05780820151818401526020810190506121a5565b838111156121cf576000848401525b50505050565b6000601f19601f8301169050919050565b6121ef81612116565b81146121fa57600080fd5b50565b61220681612134565b811461221157600080fd5b50565b61221d8161213e565b811461222857600080fd5b50565b61223481612172565b811461223f57600080fd5b5056fea365627a7a72315820185b1d4d4b09263f7a431a9abb894e23ecd0a9a5a45cca7b1ba24f2d49e746d16c6578706572696d656e74616cf564736f6c63430005100040",
  "source": "// SPDX-License-Identifier: MIT\npragma solidity >=0.4.21 <0.9.0;\npragma experimental ABIEncoderV2;\n\nimport \"./HeaderReader.sol\";\n\ncontract Subnet {\n\n  struct Header {\n    bytes32 hash;\n    int number;\n    uint64 round_num;\n    bytes32 parent_hash;\n    bool finalized;\n    uint mainnet_num;\n    bytes src;\n  }\n\n  struct Validators {\n    address[] set;\n    int threshold;\n  }\n\n  mapping(bytes32 => Header) header_tree;\n  mapping(int => Validators) validator_sets;\n  mapping(address => bool) lookup;\n  mapping(address => bool) unique_addr;\n  mapping(address => bool) masters;\n  int current_validator_set_pointer = 0;\n  int current_subnet_height;\n  bytes32 latest_finalized_block;\n\n  // Event types\n  event SubnetBlockAccepted(bytes32 block_hash, int number);\n  event SubnetBlockFinalized(bytes32 block_hash, int number);\n\n  // Modifier\n  modifier onlyMasters() {\n    if (!masters[msg.sender]) revert(\"Masters Only\");\n    _;\n  }\n\n  constructor(address[] memory initial_validator_set, int threshold, bytes memory genesis_header) public {\n    require(initial_validator_set.length > 0, \"Validator Empty\");\n    bytes32 genesis_header_hash = keccak256(genesis_header);\n    (bytes32 ph, int n) = HeaderReader.getParentHashAndNumber(genesis_header);\n    header_tree[genesis_header_hash] = Header({\n      hash: genesis_header_hash,\n      number: n,\n      round_num: 0, \n      parent_hash: ph,\n      finalized: true,\n      mainnet_num: block.number,\n      src: genesis_header\n    });\n    validator_sets[0] = Validators({\n      set: initial_validator_set,\n      threshold: threshold\n    });\n    for (uint i = 0; i < initial_validator_set.length; i++) {\n      lookup[initial_validator_set[i]] = true;\n    }\n    masters[msg.sender] = true;\n    latest_finalized_block = genesis_header_hash;\n  }\n\n  function isMaster(address master) public view returns (bool) {\n    return masters[master];\n  }\n\n  function addMaster(address master) public onlyMasters {\n    masters[master] = true;\n  }\n\n  function removeMaster(address master) public onlyMasters {\n    masters[master] = false;\n  }\n\n  function reviseValidatorSet(address[] memory new_validator_set, int threshold, int subnet_block_height) public onlyMasters  {\n    require(new_validator_set.length > 0, \"Validator Empty\");\n    require(threshold > 0, \"Invalid Threshold\");\n    require(subnet_block_height >= current_validator_set_pointer, \"Modify Past Validator\");\n    validator_sets[subnet_block_height] = Validators({\n      set: new_validator_set,\n      threshold: threshold\n    });\n  }\n\n  function receiveHeader(bytes memory header) public onlyMasters { \n    (bytes32 parent_hash, int number, uint64 round_number, bytes32 signHash, bytes[] memory sigs) = HeaderReader.getValidationParams(header);\n    require(number > 0, \"Repeated Genesis\");\n    require(header_tree[parent_hash].hash != 0, \"Parent Missing\");\n    require(header_tree[parent_hash].number + 1 == number, \"Invalid N\");\n    require(header_tree[parent_hash].round_num < round_number, \"Invalid RN\");\n    bytes32 block_hash = keccak256(header);\n    if (header_tree[block_hash].number > 0) \n      revert(\"Repeated Header\");\n    if (validator_sets[number].set.length > 0) {\n      for (uint i = 0; i < validator_sets[current_validator_set_pointer].set.length; i++) {\n        lookup[validator_sets[current_validator_set_pointer].set[i]] = false;\n      }\n      for (uint i = 0; i < validator_sets[number].set.length; i++) {\n        lookup[validator_sets[number].set[i]] = true;\n      }\n      current_validator_set_pointer = number;\n    }\n\n    int unique_counter = 0;\n    address[] memory signer_list = new address[](sigs.length);\n    for (uint i = 0; i < sigs.length; i++) {\n      address signer = recoverSigner(signHash, sigs[i]);\n      if (lookup[signer] != true) {\n        continue;\n      }\n      if (!unique_addr[signer]) {\n        unique_counter ++;\n        unique_addr[signer]=true;\n      }\n      signer_list[i] = signer;\n    }\n    for (uint i = 0; i < signer_list.length; i++) {\n      unique_addr[signer_list[i]] = false;\n    }\n    if (unique_counter < validator_sets[current_validator_set_pointer].threshold) {\n      revert(\"Verification Fail\");\n    }\n    header_tree[block_hash] = Header({\n      hash: block_hash,\n      number: number,\n      round_num: round_number,\n      parent_hash: parent_hash,\n      finalized: false,\n      mainnet_num: block.number,\n      src: header\n    });\n    emit SubnetBlockAccepted(block_hash, number);\n\n    // Look for 3 consecutive round\n    bytes32 curr_hash = block_hash;\n    for (uint i = 0; i < 3; i++) {\n      if (header_tree[curr_hash].parent_hash == 0) return;\n      bytes32 prev_hash = header_tree[curr_hash].parent_hash;\n      if (header_tree[curr_hash].round_num != header_tree[prev_hash].round_num+1) return;\n      curr_hash = prev_hash;\n    }\n    latest_finalized_block = curr_hash;\n    // Confirm all ancestor unconfirmed block\n    while (header_tree[curr_hash].finalized != true) {\n      header_tree[curr_hash].finalized = true;\n      emit SubnetBlockFinalized(curr_hash, header_tree[curr_hash].number);\n      curr_hash = header_tree[curr_hash].parent_hash;\n    }\n  }\n\n  /// signature methods.\n  function splitSignature(bytes memory sig)\n    internal\n    pure\n    returns (uint8 v, bytes32 r, bytes32 s)\n  {\n    require(sig.length == 65, \"Invalid Signature\");\n    assembly {\n      // first 32 bytes, after the length prefix.\n      r := mload(add(sig, 32))\n      // second 32 bytes.\n      s := mload(add(sig, 64))\n      // final byte (first byte of the next 32 bytes).\n      v := byte(0, mload(add(sig, 96)))\n    }\n    // TOCHECK: v needs 27 more, may related with EIP1559\n    return (v+27, r, s);\n  }\n\n  function recoverSigner(bytes32 message, bytes memory sig)\n    internal\n    pure\n    returns (address)\n  {\n    (uint8 v, bytes32 r, bytes32 s) = splitSignature(sig);\n    return ecrecover(message, v, r, s);\n  }\n\n  function getHeader(bytes32 header_hash) public view returns (bytes memory) {\n    return header_tree[header_hash].src;\n  }\n  \n  function getHeaderConfirmationStatus(bytes32 header_hash) public view returns (bool) {\n    return header_tree[header_hash].finalized;\n  }\n\n  function getMainnetBlockNumber(bytes32 header_hash) public view returns (uint) {\n    return header_tree[header_hash].mainnet_num;\n  }\n\n  function getLatestFinalizedBlock() public view returns (bytes32) {\n    return latest_finalized_block;\n  }\n\n  function getValidatorSet(int height) public view returns (address[] memory res) {\n    if (validator_sets[height].threshold == 0) {\n      res = new address[](0);\n    } else {\n      res = validator_sets[height].set;\n    }\n  }\n\n  function getValidatorThreshold(int height) public view returns (int res) {\n    if (validator_sets[height].threshold == 0) {\n      res = 0;\n    } else {\n      res = validator_sets[height].threshold;\n    }\n  }\n}",
  "sourcePath": "/Users/sihengpan/Documents/XinFin/Subnet/contracts/Subnet.sol",
  "compiler": {
    "name": "solc",
    "version": "0.5.16+commit.9c3226ce.Emscripten.clang"
  },
  "schemaVersion": "3.4.1",
  "updatedAt": "2023-01-30T23:39:41.363Z",
  "devdoc": {
    "methods": {}
  },
  "userdoc": {
    "methods": {}
  }
}