{
  "contractName": "Subnet",
  "abi": [
    {
      "inputs": [
        {
          "internalType": "address[]",
          "name": "initial_validator_set",
          "type": "address[]"
        },
        {
          "internalType": "int256",
          "name": "threshold",
          "type": "int256"
        },
        {
          "internalType": "bytes",
          "name": "genesis_header",
          "type": "bytes"
        },
        {
          "internalType": "bytes",
          "name": "block1_header",
          "type": "bytes"
        }
      ],
      "payable": false,
      "stateMutability": "nonpayable",
      "type": "constructor"
    },
    {
      "anonymous": false,
      "inputs": [
        {
          "indexed": false,
          "internalType": "bytes32",
          "name": "block_hash",
          "type": "bytes32"
        },
        {
          "indexed": false,
          "internalType": "int256",
          "name": "number",
          "type": "int256"
        }
      ],
      "name": "SubnetBlockAccepted",
      "type": "event"
    },
    {
      "anonymous": false,
      "inputs": [
        {
          "indexed": false,
          "internalType": "bytes32",
          "name": "block_hash",
          "type": "bytes32"
        },
        {
          "indexed": false,
          "internalType": "int256",
          "name": "number",
          "type": "int256"
        }
      ],
      "name": "SubnetBlockFinalized",
      "type": "event"
    },
    {
      "constant": true,
      "inputs": [
        {
          "internalType": "address",
          "name": "master",
          "type": "address"
        }
      ],
      "name": "isMaster",
      "outputs": [
        {
          "internalType": "bool",
          "name": "",
          "type": "bool"
        }
      ],
      "payable": false,
      "stateMutability": "view",
      "type": "function"
    },
    {
      "constant": false,
      "inputs": [
        {
          "internalType": "address",
          "name": "master",
          "type": "address"
        }
      ],
      "name": "addMaster",
      "outputs": [],
      "payable": false,
      "stateMutability": "nonpayable",
      "type": "function"
    },
    {
      "constant": false,
      "inputs": [
        {
          "internalType": "address",
          "name": "master",
          "type": "address"
        }
      ],
      "name": "removeMaster",
      "outputs": [],
      "payable": false,
      "stateMutability": "nonpayable",
      "type": "function"
    },
    {
      "constant": false,
      "inputs": [
        {
          "internalType": "address[]",
          "name": "new_validator_set",
          "type": "address[]"
        },
        {
          "internalType": "int256",
          "name": "threshold",
          "type": "int256"
        },
        {
          "internalType": "int256",
          "name": "subnet_block_height",
          "type": "int256"
        }
      ],
      "name": "reviseValidatorSet",
      "outputs": [],
      "payable": false,
      "stateMutability": "nonpayable",
      "type": "function"
    },
    {
      "constant": false,
      "inputs": [
        {
          "internalType": "bytes",
          "name": "header",
          "type": "bytes"
        }
      ],
      "name": "receiveHeader",
      "outputs": [],
      "payable": false,
      "stateMutability": "nonpayable",
      "type": "function"
    },
    {
      "constant": true,
      "inputs": [
        {
          "internalType": "bytes32",
          "name": "header_hash",
          "type": "bytes32"
        }
      ],
      "name": "getHeader",
      "outputs": [
        {
          "components": [
            {
              "internalType": "bytes32",
              "name": "parent_hash",
              "type": "bytes32"
            },
            {
              "internalType": "int256",
              "name": "number",
              "type": "int256"
            },
            {
              "internalType": "uint64",
              "name": "round_num",
              "type": "uint64"
            },
            {
              "internalType": "int256",
              "name": "mainnet_num",
              "type": "int256"
            },
            {
              "internalType": "bool",
              "name": "finalized",
              "type": "bool"
            }
          ],
          "internalType": "struct Subnet.HeaderInfo",
          "name": "",
          "type": "tuple"
        }
      ],
      "payable": false,
      "stateMutability": "view",
      "type": "function"
    },
    {
      "constant": true,
      "inputs": [],
      "name": "getLatestBlocks",
      "outputs": [
        {
          "components": [
            {
              "internalType": "bytes32",
              "name": "hash",
              "type": "bytes32"
            },
            {
              "internalType": "int256",
              "name": "number",
              "type": "int256"
            }
          ],
          "internalType": "struct Subnet.BlockLite",
          "name": "",
          "type": "tuple"
        },
        {
          "components": [
            {
              "internalType": "bytes32",
              "name": "hash",
              "type": "bytes32"
            },
            {
              "internalType": "int256",
              "name": "number",
              "type": "int256"
            }
          ],
          "internalType": "struct Subnet.BlockLite",
          "name": "",
          "type": "tuple"
        }
      ],
      "payable": false,
      "stateMutability": "view",
      "type": "function"
    },
    {
      "constant": true,
      "inputs": [
        {
          "internalType": "int256",
          "name": "height",
          "type": "int256"
        }
      ],
      "name": "getValidatorSet",
      "outputs": [
        {
          "internalType": "address[]",
          "name": "res",
          "type": "address[]"
        }
      ],
      "payable": false,
      "stateMutability": "view",
      "type": "function"
    },
    {
      "constant": true,
      "inputs": [
        {
          "internalType": "int256",
          "name": "height",
          "type": "int256"
        }
      ],
      "name": "getValidatorThreshold",
      "outputs": [
        {
          "internalType": "int256",
          "name": "res",
          "type": "int256"
        }
      ],
      "payable": false,
      "stateMutability": "view",
      "type": "function"
    },
    {
      "constant": true,
      "inputs": [
        {
          "internalType": "bytes32",
          "name": "header_hash",
          "type": "bytes32"
        }
      ],
      "name": "getMix",
      "outputs": [
        {
          "internalType": "uint256",
          "name": "",
          "type": "uint256"
        }
      ],
      "payable": false,
      "stateMutability": "view",
      "type": "function"
    }
  ],
  "bytecode": "0x608060405260006005553480156200001657600080fd5b50604051620030623803806200306283398181016040526200003c919081019062000673565b600084511162000083576040517f08c379a00000000000000000000000000000000000000000000000000000000081526004016200007a90620008ec565b60405180910390fd5b60008313620000c9576040517f08c379a0000000000000000000000000000000000000000000000000000000008152600401620000c09062000930565b60405180910390fd5b60008280519060200120905060008280519060200120905060008073__HeaderReader__________________________63dc9e408b876040518263ffffffff1660e01b81526004016200011d9190620008c8565b604080518083038186803b1580156200013557600080fd5b505af41580156200014a573d6000803e3d6000fd5b505050506040513d601f19601f820116820180604052506200017091908101906200072a565b91509150600080600073__HeaderReader__________________________63be7558c0896040518263ffffffff1660e01b8152600401620001b29190620008c8565b60606040518083038186803b158015620001cb57600080fd5b505af4158015620001e0573d6000803e3d6000fd5b505050506040513d601f19601f820116820180604052506200020691908101906200076b565b9250925092506000841480156200021d5750600182145b6200025f576040517f08c379a000000000000000000000000000000000000000000000000000000000815260040162000256906200090e565b60405180910390fd5b604051806040016040528086815260200160018043901b608188901b17178152506000808981526020019081526020016000206000820151816000015560208201518160010155905050604051806040016040528084815260200160018043901b60418567ffffffffffffffff16901b608187901b171717815250600080888152602001908152602001600020600082015181600001556020820151816001015590505060405180604001604052808c81526020018b8152506001600080815260200190815260200160002060008201518160000190805190602001906200034992919062000459565b506020820151816001015590505060008090505b8b51811015620003e1576001600260008e84815181106200037a57fe5b602002602001015173ffffffffffffffffffffffffffffffffffffffff1673ffffffffffffffffffffffffffffffffffffffff16815260200190815260200160002060006101000a81548160ff02191690831515021790555080806001019150506200035d565b506001600460003373ffffffffffffffffffffffffffffffffffffffff1673ffffffffffffffffffffffffffffffffffffffff16815260200190815260200160002060006101000a81548160ff0219169083151502179055508560078190555085600881905550505050505050505050505062000b0e565b828054828255906000526020600020908101928215620004d5579160200282015b82811115620004d45782518260006101000a81548173ffffffffffffffffffffffffffffffffffffffff021916908373ffffffffffffffffffffffffffffffffffffffff160217905550916020019190600101906200047a565b5b509050620004e49190620004e8565b5090565b6200052b91905b808211156200052757600081816101000a81549073ffffffffffffffffffffffffffffffffffffffff021916905550600101620004ef565b5090565b90565b6000815190506200053f8162000aa6565b92915050565b600082601f8301126200055757600080fd5b81516200056e620005688262000980565b62000952565b915081818352602084019350602081019050838560208402820111156200059457600080fd5b60005b83811015620005c85781620005ad88826200052e565b84526020840193506020830192505060018101905062000597565b5050505092915050565b600081519050620005e38162000ac0565b92915050565b600082601f830112620005fb57600080fd5b8151620006126200060c82620009a9565b62000952565b915080825260208301602083018583830111156200062f57600080fd5b6200063c83828462000a5f565b50505092915050565b600081519050620006568162000ada565b92915050565b6000815190506200066d8162000af4565b92915050565b600080600080608085870312156200068a57600080fd5b600085015167ffffffffffffffff811115620006a557600080fd5b620006b38782880162000545565b9450506020620006c68782880162000645565b935050604085015167ffffffffffffffff811115620006e457600080fd5b620006f287828801620005e9565b925050606085015167ffffffffffffffff8111156200071057600080fd5b6200071e87828801620005e9565b91505092959194509250565b600080604083850312156200073e57600080fd5b60006200074e85828601620005d2565b9250506020620007618582860162000645565b9150509250929050565b6000806000606084860312156200078157600080fd5b60006200079186828701620005d2565b9350506020620007a48682870162000645565b9250506040620007b7868287016200065c565b9150509250925092565b6000620007ce82620009d6565b620007da8185620009e1565b9350620007ec81856020860162000a5f565b620007f78162000a95565b840191505092915050565b600062000811600f83620009f2565b91507f56616c696461746f7220456d70747900000000000000000000000000000000006000830152602082019050919050565b600062000853601283620009f2565b91507f496e76616c696420496e697420426c6f636b00000000000000000000000000006000830152602082019050919050565b600062000895601183620009f2565b91507f496e76616c6964205468726573686f6c640000000000000000000000000000006000830152602082019050919050565b60006020820190508181036000830152620008e48184620007c1565b905092915050565b60006020820190508181036000830152620009078162000802565b9050919050565b60006020820190508181036000830152620009298162000844565b9050919050565b600060208201905081810360008301526200094b8162000886565b9050919050565b6000604051905081810181811067ffffffffffffffff821117156200097657600080fd5b8060405250919050565b600067ffffffffffffffff8211156200099857600080fd5b602082029050602081019050919050565b600067ffffffffffffffff821115620009c157600080fd5b601f19601f8301169050602081019050919050565b600081519050919050565b600082825260208201905092915050565b600082825260208201905092915050565b600062000a108262000a2b565b9050919050565b6000819050919050565b6000819050919050565b600073ffffffffffffffffffffffffffffffffffffffff82169050919050565b600067ffffffffffffffff82169050919050565b60005b8381101562000a7f57808201518184015260208101905062000a62565b8381111562000a8f576000848401525b50505050565b6000601f19601f8301169050919050565b62000ab18162000a03565b811462000abd57600080fd5b50565b62000acb8162000a17565b811462000ad757600080fd5b50565b62000ae58162000a21565b811462000af157600080fd5b50565b62000aff8162000a4b565b811462000b0b57600080fd5b50565b6125448062000b1e6000396000f3fe608060405234801561001057600080fd5b506004361061009e5760003560e01c8063884bdd8611610066578063884bdd861461015a578063b961587814610176578063c9ab1c9e146101a6578063e2a2f0a3146101d6578063f720f80b146101f25761009e565b80630247dd65146100a35780631097d54a146100bf57806322b8f46e146100db578063375680491461010b57806366dcb0ba1461013b575b600080fd5b6100bd60048036036100b8919081019061189c565b610222565b005b6100d960048036036100d49190810190611873565b610414565b005b6100f560048036036100f09190810190611a0e565b6104fb565b6040516101029190611f93565b60405180910390f35b61012560048036036101209190810190611a0e565b6105f7565b6040516101329190612060565b60405180910390f35b61014361063f565b60405161015192919061223b565b60405180910390f35b610174600480360361016f91908101906119cd565b6106d5565b005b610190600480360361018b9190810190611903565b61121f565b60405161019d9190612264565b60405180910390f35b6101c060048036036101bb9190810190611903565b6112ef565b6040516101cd919061227f565b60405180910390f35b6101f060048036036101eb9190810190611873565b61130e565b005b61020c60048036036102079190810190611873565b6113f5565b6040516102199190611fb5565b60405180910390f35b600460003373ffffffffffffffffffffffffffffffffffffffff1673ffffffffffffffffffffffffffffffffffffffff16815260200190815260200160002060009054906101000a900460ff166102ae576040517f08c379a00000000000000000000000000000000000000000000000000000000081526004016102a59061219b565b60405180910390fd5b60008351116102f2576040517f08c379a00000000000000000000000000000000000000000000000000000000081526004016102e99061209b565b60405180910390fd5b60008213610335576040517f08c379a000000000000000000000000000000000000000000000000000000000815260040161032c9061211b565b60405180910390fd5b60018113610378576040517f08c379a000000000000000000000000000000000000000000000000000000000815260040161036f9061221b565b60405180910390fd5b6005548112156103bd576040517f08c379a00000000000000000000000000000000000000000000000000000000081526004016103b49061213b565b60405180910390fd5b60405180604001604052808481526020018381525060016000838152602001908152602001600020600082015181600001908051906020019061040192919061152e565b5060208201518160010155905050505050565b600460003373ffffffffffffffffffffffffffffffffffffffff1673ffffffffffffffffffffffffffffffffffffffff16815260200190815260200160002060009054906101000a900460ff166104a0576040517f08c379a00000000000000000000000000000000000000000000000000000000081526004016104979061219b565b60405180910390fd5b6001600460008373ffffffffffffffffffffffffffffffffffffffff1673ffffffffffffffffffffffffffffffffffffffff16815260200190815260200160002060006101000a81548160ff02191690831515021790555050565b606060006001600084815260200190815260200160002060010154141561055457600060405190808252806020026020018201604052801561054c5781602001602082028038833980820191505090505b5090506105f2565b600160008381526020019081526020016000206000018054806020026020016040519081016040528092919081815260200182805480156105ea57602002820191906000526020600020905b8160009054906101000a900473ffffffffffffffffffffffffffffffffffffffff1673ffffffffffffffffffffffffffffffffffffffff16815260200190600101908083116105a0575b505050505090505b919050565b60008060016000848152602001908152602001600020600101541415610620576000905061063a565b600160008381526020019081526020016000206001015490505b919050565b6106476115b8565b61064f6115b8565b604051806040016040528060075481526020016081600080600754815260200190815260200160002060010154901c67ffffffffffffffff16815250604051806040016040528060085481526020016081600080600854815260200190815260200160002060010154901c67ffffffffffffffff16815250819150809050915091509091565b600460003373ffffffffffffffffffffffffffffffffffffffff1673ffffffffffffffffffffffffffffffffffffffff16815260200190815260200160002060009054906101000a900460ff16610761576040517f08c379a00000000000000000000000000000000000000000000000000000000081526004016107589061219b565b60405180910390fd5b6000806000806000606073__HeaderReader__________________________6344e06ed4886040518263ffffffff1660e01b81526004016107a2919061203e565b60006040518083038186803b1580156107ba57600080fd5b505af41580156107ce573d6000803e3d6000fd5b505050506040513d6000823e3d601f19601f820116820180604052506107f7919081019061192c565b95509550955095509550955060008513610846576040517f08c379a000000000000000000000000000000000000000000000000000000000815260040161083d906121bb565b60405180910390fd5b6081600080600854815260200190815260200160002060010154901c67ffffffffffffffff1685136108ad576040517f08c379a00000000000000000000000000000000000000000000000000000000081526004016108a4906121fb565b60405180910390fd5b6000806000888152602001908152602001600020600101541415610906576040517f08c379a00000000000000000000000000000000000000000000000000000000081526004016108fd9061207b565b60405180910390fd5b84600160816000808a815260200190815260200160002060010154901c67ffffffffffffffff16011461096e576040517f08c379a0000000000000000000000000000000000000000000000000000000008152600401610965906120db565b60405180910390fd5b8367ffffffffffffffff16604160008089815260200190815260200160002060010154901c67ffffffffffffffff16106109dd576040517f08c379a00000000000000000000000000000000000000000000000000000000081526004016109d4906121db565b60405180910390fd5b8267ffffffffffffffff16604160008089815260200190815260200160002060010154901c67ffffffffffffffff1614610a4c576040517f08c379a0000000000000000000000000000000000000000000000000000000008152600401610a439061215b565b60405180910390fd5b6000878051906020012090506000806000838152602001908152602001600020600101541115610ab1576040517f08c379a0000000000000000000000000000000000000000000000000000000008152600401610aa8906120bb565b60405180910390fd5b600060016000888152602001908152602001600020600001805490501115610c8f5760008090505b60016000600554815260200190815260200160002060000180549050811015610bae576000600260006001600060055481526020019081526020016000206000018481548110610b2557fe5b9060005260206000200160009054906101000a900473ffffffffffffffffffffffffffffffffffffffff1673ffffffffffffffffffffffffffffffffffffffff1673ffffffffffffffffffffffffffffffffffffffff16815260200190815260200160002060006101000a81548160ff0219169083151502179055508080600101915050610ad9565b5060008090505b6001600088815260200190815260200160002060000180549050811015610c8657600160026000600160008b81526020019081526020016000206000018481548110610bfd57fe5b9060005260206000200160009054906101000a900473ffffffffffffffffffffffffffffffffffffffff1673ffffffffffffffffffffffffffffffffffffffff1673ffffffffffffffffffffffffffffffffffffffff16815260200190815260200160002060006101000a81548160ff0219169083151502179055508080600101915050610bb5565b50856005819055505b600080905060608351604051908082528060200260200182016040528015610cc65781602001602082028038833980820191505090505b50905060008090505b8451811015610ed2576000610cf787878481518110610cea57fe5b602002602001015161144b565b905060011515600260008373ffffffffffffffffffffffffffffffffffffffff1673ffffffffffffffffffffffffffffffffffffffff16815260200190815260200160002060009054906101000a900460ff16151514610d8c576040517f08c379a0000000000000000000000000000000000000000000000000000000008152600401610d83906120fb565b60405180910390fd5b600360008273ffffffffffffffffffffffffffffffffffffffff1673ffffffffffffffffffffffffffffffffffffffff16815260200190815260200160002060009054906101000a900460ff16610e425783806001019450506001600360008373ffffffffffffffffffffffffffffffffffffffff1673ffffffffffffffffffffffffffffffffffffffff16815260200190815260200160002060006101000a81548160ff021916908315150217905550610e7d565b6040517f08c379a0000000000000000000000000000000000000000000000000000000008152600401610e74906120fb565b60405180910390fd5b80838381518110610e8a57fe5b602002602001019073ffffffffffffffffffffffffffffffffffffffff16908173ffffffffffffffffffffffffffffffffffffffff1681525050508080600101915050610ccf565b5060008090505b8151811015610f5a57600060036000848481518110610ef457fe5b602002602001015173ffffffffffffffffffffffffffffffffffffffff1673ffffffffffffffffffffffffffffffffffffffff16815260200190815260200160002060006101000a81548160ff0219169083151502179055508080600101915050610ed9565b5060016000600554815260200190815260200160002060010154821215610fb6576040517f08c379a0000000000000000000000000000000000000000000000000000000008152600401610fad906120fb565b60405180910390fd5b60405180604001604052808a8152602001600143901b60418a67ffffffffffffffff16901b60818c901b171781525060008085815260200190815260200160002060008201518160000155602082015181600101559050507fc92de1e80780c8f239052c833b238f36e1f1f03c09628a198cefab0ed37d2b23838960405161103f929190611fd0565b60405180910390a16081600080600754815260200190815260200160002060010154901c67ffffffffffffffff1688131561107c57826007819055505b600083905060008090505b600381101561114c576000801b6000808481526020019081526020016000206000015414156110c057505050505050505050505061121c565b60008060008481526020019081526020016000206000015490506001604160008084815260200190815260200160002060010154901c0167ffffffffffffffff16604160008086815260200190815260200160002060010154901c67ffffffffffffffff161461113b5750505050505050505050505061121c565b809250508080600101915050611087565b50806008819055505b600180600080848152602001908152602001600020600101541614611211576001600080838152602001908152602001600020600101600082825417925050819055507fc87258113ecbd0404f86cc5c0155894cfc47dae8fadab01aa8eefe5b5b40bdbb81608160008085815260200190815260200160002060010154901c67ffffffffffffffff166040516111ec929190611fd0565b60405180910390a1600080828152602001908152602001600020600001549050611155565b505050505050505050505b50565b6112276115d5565b6040518060a00160405280600080858152602001908152602001600020600001548152602001608160008086815260200190815260200160002060010154901c67ffffffffffffffff168152602001604160008086815260200190815260200160002060010154901c67ffffffffffffffff168152602001600160008086815260200190815260200160002060010154901c67ffffffffffffffff16815260200160018060008087815260200190815260200160002060010154161415158152509050919050565b6000806000838152602001908152602001600020600101549050919050565b600460003373ffffffffffffffffffffffffffffffffffffffff1673ffffffffffffffffffffffffffffffffffffffff16815260200190815260200160002060009054906101000a900460ff1661139a576040517f08c379a00000000000000000000000000000000000000000000000000000000081526004016113919061219b565b60405180910390fd5b6000600460008373ffffffffffffffffffffffffffffffffffffffff1673ffffffffffffffffffffffffffffffffffffffff16815260200190815260200160002060006101000a81548160ff02191690831515021790555050565b6000600460008373ffffffffffffffffffffffffffffffffffffffff1673ffffffffffffffffffffffffffffffffffffffff16815260200190815260200160002060009054906101000a900460ff169050919050565b60008060008061145a856114ba565b925092509250600186848484604051600081526020016040526040516114839493929190611ff9565b6020604051602081039080840390855afa1580156114a5573d6000803e3d6000fd5b50505060206040510351935050505092915050565b60008060006041845114611503576040517f08c379a00000000000000000000000000000000000000000000000000000000081526004016114fa9061217b565b60405180910390fd5b6020840151915060408401519050606084015160001a9250601b830182829250925092509193909250565b8280548282559060005260206000209081019282156115a7579160200282015b828111156115a65782518260006101000a81548173ffffffffffffffffffffffffffffffffffffffff021916908373ffffffffffffffffffffffffffffffffffffffff1602179055509160200191906001019061154e565b5b5090506115b49190611613565b5090565b604051806040016040528060008019168152602001600081525090565b6040518060a001604052806000801916815260200160008152602001600067ffffffffffffffff168152602001600081526020016000151581525090565b61165391905b8082111561164f57600081816101000a81549073ffffffffffffffffffffffffffffffffffffffff021916905550600101611619565b5090565b90565b600081359050611665816124a5565b92915050565b600082601f83011261167c57600080fd5b813561168f61168a826122c7565b61229a565b915081818352602084019350602081019050838560208402820111156116b457600080fd5b60005b838110156116e457816116ca8882611656565b8452602084019350602083019250506001810190506116b7565b5050505092915050565b600082601f8301126116ff57600080fd5b815161171261170d826122ef565b61229a565b9150818183526020840193506020810190508360005b83811015611758578151860161173e888261178c565b845260208401935060208301925050600181019050611728565b5050505092915050565b600081359050611771816124bc565b92915050565b600081519050611786816124bc565b92915050565b600082601f83011261179d57600080fd5b81516117b06117ab82612317565b61229a565b915080825260208301602083018583830111156117cc57600080fd5b6117d7838284612461565b50505092915050565b600082601f8301126117f157600080fd5b81356118046117ff82612343565b61229a565b9150808252602083016020830185838301111561182057600080fd5b61182b838284612452565b50505092915050565b600081359050611843816124d3565b92915050565b600081519050611858816124d3565b92915050565b60008151905061186d816124ea565b92915050565b60006020828403121561188557600080fd5b600061189384828501611656565b91505092915050565b6000806000606084860312156118b157600080fd5b600084013567ffffffffffffffff8111156118cb57600080fd5b6118d78682870161166b565b93505060206118e886828701611834565b92505060406118f986828701611834565b9150509250925092565b60006020828403121561191557600080fd5b600061192384828501611762565b91505092915050565b60008060008060008060c0878903121561194557600080fd5b600061195389828a01611777565b965050602061196489828a01611849565b955050604061197589828a0161185e565b945050606061198689828a0161185e565b935050608061199789828a01611777565b92505060a087015167ffffffffffffffff8111156119b457600080fd5b6119c089828a016116ee565b9150509295509295509295565b6000602082840312156119df57600080fd5b600082013567ffffffffffffffff8111156119f957600080fd5b611a05848285016117e0565b91505092915050565b600060208284031215611a2057600080fd5b6000611a2e84828501611834565b91505092915050565b6000611a438383611a4f565b60208301905092915050565b611a58816123d5565b82525050565b6000611a698261237f565b611a7381856123a2565b9350611a7e8361236f565b8060005b83811015611aaf578151611a968882611a37565b9750611aa183612395565b925050600181019050611a82565b5085935050505092915050565b611ac5816123e7565b82525050565b611ad4816123e7565b82525050565b611ae3816123f3565b82525050565b611af2816123f3565b82525050565b6000611b038261238a565b611b0d81856123b3565b9350611b1d818560208601612461565b611b2681612494565b840191505092915050565b611b3a816123fd565b82525050565b611b49816123fd565b82525050565b6000611b5c600e836123c4565b91507f506172656e74204d697373696e670000000000000000000000000000000000006000830152602082019050919050565b6000611b9c600f836123c4565b91507f56616c696461746f7220456d70747900000000000000000000000000000000006000830152602082019050919050565b6000611bdc600f836123c4565b91507f52657065617465642048656164657200000000000000000000000000000000006000830152602082019050919050565b6000611c1c6009836123c4565b91507f496e76616c6964204e00000000000000000000000000000000000000000000006000830152602082019050919050565b6000611c5c6011836123c4565b91507f566572696669636174696f6e204661696c0000000000000000000000000000006000830152602082019050919050565b6000611c9c6011836123c4565b91507f496e76616c6964205468726573686f6c640000000000000000000000000000006000830152602082019050919050565b6000611cdc6015836123c4565b91507f4d6f6469667920506173742056616c696461746f7200000000000000000000006000830152602082019050919050565b6000611d1c600b836123c4565b91507f496e76616c69642050524e0000000000000000000000000000000000000000006000830152602082019050919050565b6000611d5c6011836123c4565b91507f496e76616c6964205369676e61747572650000000000000000000000000000006000830152602082019050919050565b6000611d9c600c836123c4565b91507f4d617374657273204f6e6c7900000000000000000000000000000000000000006000830152602082019050919050565b6000611ddc6010836123c4565b91507f52657065617465642047656e65736973000000000000000000000000000000006000830152602082019050919050565b6000611e1c600a836123c4565b91507f496e76616c696420524e000000000000000000000000000000000000000000006000830152602082019050919050565b6000611e5c6009836123c4565b91507f4f6c6420426c6f636b00000000000000000000000000000000000000000000006000830152602082019050919050565b6000611e9c6015836123c4565b91507f496e76616c6964205461726765742048656967687400000000000000000000006000830152602082019050919050565b604082016000820151611ee56000850182611ada565b506020820151611ef86020850182611b31565b50505050565b60a082016000820151611f146000850182611ada565b506020820151611f276020850182611b31565b506040820151611f3a6040850182611f75565b506060820151611f4d6060850182611b31565b506080820151611f606080850182611abc565b50505050565b611f6f81612427565b82525050565b611f7e81612431565b82525050565b611f8d81612445565b82525050565b60006020820190508181036000830152611fad8184611a5e565b905092915050565b6000602082019050611fca6000830184611acb565b92915050565b6000604082019050611fe56000830185611ae9565b611ff26020830184611b40565b9392505050565b600060808201905061200e6000830187611ae9565b61201b6020830186611f84565b6120286040830185611ae9565b6120356060830184611ae9565b95945050505050565b600060208201905081810360008301526120588184611af8565b905092915050565b60006020820190506120756000830184611b40565b92915050565b6000602082019050818103600083015261209481611b4f565b9050919050565b600060208201905081810360008301526120b481611b8f565b9050919050565b600060208201905081810360008301526120d481611bcf565b9050919050565b600060208201905081810360008301526120f481611c0f565b9050919050565b6000602082019050818103600083015261211481611c4f565b9050919050565b6000602082019050818103600083015261213481611c8f565b9050919050565b6000602082019050818103600083015261215481611ccf565b9050919050565b6000602082019050818103600083015261217481611d0f565b9050919050565b6000602082019050818103600083015261219481611d4f565b9050919050565b600060208201905081810360008301526121b481611d8f565b9050919050565b600060208201905081810360008301526121d481611dcf565b9050919050565b600060208201905081810360008301526121f481611e0f565b9050919050565b6000602082019050818103600083015261221481611e4f565b9050919050565b6000602082019050818103600083015261223481611e8f565b9050919050565b60006080820190506122506000830185611ecf565b61225d6040830184611ecf565b9392505050565b600060a0820190506122796000830184611efe565b92915050565b60006020820190506122946000830184611f66565b92915050565b6000604051905081810181811067ffffffffffffffff821117156122bd57600080fd5b8060405250919050565b600067ffffffffffffffff8211156122de57600080fd5b602082029050602081019050919050565b600067ffffffffffffffff82111561230657600080fd5b602082029050602081019050919050565b600067ffffffffffffffff82111561232e57600080fd5b601f19601f8301169050602081019050919050565b600067ffffffffffffffff82111561235a57600080fd5b601f19601f8301169050602081019050919050565b6000819050602082019050919050565b600081519050919050565b600081519050919050565b6000602082019050919050565b600082825260208201905092915050565b600082825260208201905092915050565b600082825260208201905092915050565b60006123e082612407565b9050919050565b60008115159050919050565b6000819050919050565b6000819050919050565b600073ffffffffffffffffffffffffffffffffffffffff82169050919050565b6000819050919050565b600067ffffffffffffffff82169050919050565b600060ff82169050919050565b82818337600083830152505050565b60005b8381101561247f578082015181840152602081019050612464565b8381111561248e576000848401525b50505050565b6000601f19601f8301169050919050565b6124ae816123d5565b81146124b957600080fd5b50565b6124c5816123f3565b81146124d057600080fd5b50565b6124dc816123fd565b81146124e757600080fd5b50565b6124f381612431565b81146124fe57600080fd5b5056fea365627a7a72315820ae2aa67a04df6bdea92af479cccf19ff0314f2481fdf6db7a6d731bab7e470716c6578706572696d656e74616cf564736f6c63430005100040",
  "source": "// SPDX-License-Identifier: MIT\npragma solidity >=0.4.21 <0.9.0;\npragma experimental ABIEncoderV2;\n\nimport \"./HeaderReader.sol\";\n\ncontract Subnet {\n\n  struct Header {\n    bytes32 parent_hash;\n    uint256 mix; // padding 63 | uint64 number | uint64 round_num | uint64 mainnet_num | bool finalized \n  }\n\n  struct HeaderInfo {\n    bytes32 parent_hash;\n    int number;\n    uint64 round_num;\n    int mainnet_num;\n    bool finalized;\n  }\n\n  struct Validators {\n    address[] set;\n    int threshold;\n  }\n\n  struct BlockLite {\n    bytes32 hash;\n    int number;\n  }\n\n  mapping(bytes32 => Header) header_tree;\n  mapping(int => Validators) validator_sets;\n  mapping(address => bool) lookup;\n  mapping(address => bool) unique_addr;\n  mapping(address => bool) masters;\n  int current_validator_set_pointer = 0;\n  int current_subnet_height;\n  bytes32 latest_block;\n  bytes32 latest_finalized_block;\n\n  // Event types\n  event SubnetBlockAccepted(bytes32 block_hash, int number);\n  event SubnetBlockFinalized(bytes32 block_hash, int number);\n\n  // Modifier\n  modifier onlyMasters() {\n    if (!masters[msg.sender]) revert(\"Masters Only\");\n    _;\n  }\n\n  constructor(\n    address[] memory initial_validator_set,\n    int threshold,\n    bytes memory genesis_header,\n    bytes memory block1_header\n  ) public {\n    require(initial_validator_set.length > 0, \"Validator Empty\");\n    require(threshold > 0, \"Invalid Threshold\");\n    bytes32 genesis_header_hash = keccak256(genesis_header);\n    bytes32 block1_header_hash = keccak256(block1_header);\n    (bytes32 ph, int n) = HeaderReader.getParentHashAndNumber(genesis_header);\n    (bytes32 ph1, int n1, uint64 rn) = HeaderReader.getBlock1Params(block1_header);\n    require(n == 0 && n1 == 1, \"Invalid Init Block\");\n    header_tree[genesis_header_hash] = Header({ \n      parent_hash: ph,\n      mix: uint256(n) << 129 | uint256(block.number) << 1 | 1\n    });\n    header_tree[block1_header_hash] = Header({\n      parent_hash: ph1,\n      mix: uint256(n1) << 129 | uint256(rn) << 65 | uint256(block.number) << 1 | 1\n    });\n    validator_sets[0] = Validators({\n      set: initial_validator_set,\n      threshold: threshold\n    });\n    for (uint i = 0; i < initial_validator_set.length; i++) {\n      lookup[initial_validator_set[i]] = true;\n    }\n    masters[msg.sender] = true;\n    latest_block = block1_header_hash;\n    latest_finalized_block = block1_header_hash;\n  }\n\n  function isMaster(address master) public view returns (bool) {\n    return masters[master];\n  }\n\n  function addMaster(address master) public onlyMasters {\n    masters[master] = true;\n  }\n\n  function removeMaster(address master) public onlyMasters {\n    masters[master] = false;\n  }\n\n  function reviseValidatorSet(address[] memory new_validator_set, int threshold, int subnet_block_height) public onlyMasters  {\n    require(new_validator_set.length > 0, \"Validator Empty\");\n    require(threshold > 0, \"Invalid Threshold\");\n    require(subnet_block_height > 1, \"Invalid Target Height\");\n    require(subnet_block_height >= current_validator_set_pointer, \"Modify Past Validator\");\n    validator_sets[subnet_block_height] = Validators({\n      set: new_validator_set,\n      threshold: threshold\n    });\n  }\n\n  function receiveHeader(bytes memory header) public onlyMasters { \n    (\n      bytes32 parent_hash,\n      int number,\n      uint64 round_number,\n      uint64 prev_round_number,\n      bytes32 signHash,\n      bytes[] memory sigs\n    ) = HeaderReader.getValidationParams(header);\n    require(number > 0, \"Repeated Genesis\");\n    require(number > int256(uint256(uint64(header_tree[latest_finalized_block].mix >> 129))), \"Old Block\");\n    require(header_tree[parent_hash].mix != 0, \"Parent Missing\");\n    require(int256(uint256(uint64(header_tree[parent_hash].mix >> 129))) + 1 == number, \"Invalid N\");\n    require(uint64(header_tree[parent_hash].mix >> 65) < round_number, \"Invalid RN\");\n    require(uint64(header_tree[parent_hash].mix >> 65) == prev_round_number, \"Invalid PRN\");\n    bytes32 block_hash = keccak256(header);\n    if (header_tree[block_hash].mix > 0) \n      revert(\"Repeated Header\");\n    if (validator_sets[number].set.length > 0) {\n      for (uint i = 0; i < validator_sets[current_validator_set_pointer].set.length; i++) {\n        lookup[validator_sets[current_validator_set_pointer].set[i]] = false;\n      }\n      for (uint i = 0; i < validator_sets[number].set.length; i++) {\n        lookup[validator_sets[number].set[i]] = true;\n      }\n      current_validator_set_pointer = number;\n    }\n\n    int unique_counter = 0;\n    address[] memory signer_list = new address[](sigs.length);\n    for (uint i = 0; i < sigs.length; i++) {\n      address signer = recoverSigner(signHash, sigs[i]);\n      if (lookup[signer] != true) {\n        revert(\"Verification Fail\");\n      }\n      if (!unique_addr[signer]) {\n        unique_counter ++;\n        unique_addr[signer]=true;\n      } else {\n        revert(\"Verification Fail\");\n      }\n      signer_list[i] = signer;\n    }\n    for (uint i = 0; i < signer_list.length; i++) {\n      unique_addr[signer_list[i]] = false;\n    }\n    if (unique_counter < validator_sets[current_validator_set_pointer].threshold) {\n      revert(\"Verification Fail\");\n    }\n    header_tree[block_hash] = Header({\n      parent_hash: parent_hash,\n      mix: uint256(number) << 129 | uint256(round_number) << 65 | uint256(block.number) << 1\n    });\n    emit SubnetBlockAccepted(block_hash, number);\n    if (number > int256(uint256(uint64(header_tree[latest_block].mix >> 129)))) {\n      latest_block = block_hash;\n    }\n    // Look for 3 consecutive round\n    bytes32 curr_hash = block_hash;\n    for (uint i = 0; i < 3; i++) {\n      if (header_tree[curr_hash].parent_hash == 0) return;\n      bytes32 prev_hash = header_tree[curr_hash].parent_hash;\n      if (uint64(header_tree[curr_hash].mix >> 65) != uint64(header_tree[prev_hash].mix >> 65)+1) return;\n      curr_hash = prev_hash;\n    }\n    latest_finalized_block = curr_hash;\n    // Confirm all ancestor unconfirmed block\n    while ( (header_tree[curr_hash].mix & 1) != 1) {\n      header_tree[curr_hash].mix |= 1;\n      emit SubnetBlockFinalized(curr_hash, int256(uint256(uint64(header_tree[curr_hash].mix >> 129))));\n      curr_hash = header_tree[curr_hash].parent_hash;\n    }\n  }\n\n  /// signature methods.\n  function splitSignature(bytes memory sig)\n    internal\n    pure\n    returns (uint8 v, bytes32 r, bytes32 s)\n  {\n    require(sig.length == 65, \"Invalid Signature\");\n    assembly {\n      // first 32 bytes, after the length prefix.\n      r := mload(add(sig, 32))\n      // second 32 bytes.\n      s := mload(add(sig, 64))\n      // final byte (first byte of the next 32 bytes).\n      v := byte(0, mload(add(sig, 96)))\n    }\n    // TOCHECK: v needs 27 more, may related with EIP1559\n    return (v+27, r, s);\n  }\n\n  function recoverSigner(bytes32 message, bytes memory sig)\n    internal\n    pure\n    returns (address)\n  {\n    (uint8 v, bytes32 r, bytes32 s) = splitSignature(sig);\n    return ecrecover(message, v, r, s);\n  }\n\n  function getHeader(bytes32 header_hash) public view returns (HeaderInfo memory) {\n    return HeaderInfo({\n      parent_hash: header_tree[header_hash].parent_hash,\n      number: int256(uint256(uint64(header_tree[header_hash].mix >> 129))),\n      round_num: uint64(header_tree[header_hash].mix >> 65),\n      mainnet_num: int256(uint256(uint64(header_tree[header_hash].mix >> 1))),\n      finalized: (header_tree[header_hash].mix & 1) == 1\n    });\n  }\n  \n\n  function getLatestBlocks() public view returns (BlockLite memory, BlockLite memory) {\n    return (\n      BlockLite({\n        hash: latest_block,\n        number: int256(uint256(uint64(header_tree[latest_block].mix >> 129)))\n      }),\n      BlockLite({\n        hash: latest_finalized_block,\n        number: int256(uint256(uint64(header_tree[latest_finalized_block].mix >> 129)))\n      })\n    );\n  }\n\n  function getValidatorSet(int height) public view returns (address[] memory res) {\n    if (validator_sets[height].threshold == 0) {\n      res = new address[](0);\n    } else {\n      res = validator_sets[height].set;\n    }\n  }\n\n  function getValidatorThreshold(int height) public view returns (int res) {\n    if (validator_sets[height].threshold == 0) {\n      res = 0;\n    } else {\n      res = validator_sets[height].threshold;\n    }\n  }\n\n\n  function getMix(bytes32 header_hash) public view returns (uint256) {\n    return header_tree[header_hash].mix;\n  }\n}",
  "sourcePath": "/Users/sihengpan/Documents/XinFin/XDC-Subnet/mainnet_contract/contracts/Subnet.sol",
  "compiler": {
    "name": "solc",
    "version": "0.5.16+commit.9c3226ce.Emscripten.clang"
  },
  "schemaVersion": "3.4.1",
  "updatedAt": "2023-03-08T02:21:27.354Z",
  "devdoc": {
    "methods": {}
  },
  "userdoc": {
    "methods": {}
  }
}