{
  "contractName": "Subnet",
  "abi": [
    {
      "inputs": [
        {
          "internalType": "address[]",
          "name": "initial_validator_set",
          "type": "address[]"
        },
        {
          "internalType": "bytes",
          "name": "genesis_header",
          "type": "bytes"
        },
        {
          "internalType": "bytes",
          "name": "block1_header",
          "type": "bytes"
        },
        {
          "internalType": "uint64",
          "name": "gap",
          "type": "uint64"
        },
        {
          "internalType": "uint64",
          "name": "epoch",
          "type": "uint64"
        }
      ],
      "payable": false,
      "stateMutability": "nonpayable",
      "type": "constructor"
    },
    {
      "anonymous": false,
      "inputs": [
        {
          "indexed": false,
          "internalType": "bytes32",
          "name": "block_hash",
          "type": "bytes32"
        },
        {
          "indexed": false,
          "internalType": "int256",
          "name": "number",
          "type": "int256"
        }
      ],
      "name": "SubnetBlockAccepted",
      "type": "event"
    },
    {
      "anonymous": false,
      "inputs": [
        {
          "indexed": false,
          "internalType": "bytes32",
          "name": "block_hash",
          "type": "bytes32"
        },
        {
          "indexed": false,
          "internalType": "int256",
          "name": "number",
          "type": "int256"
        }
      ],
      "name": "SubnetBlockFinalized",
      "type": "event"
    },
    {
      "constant": true,
      "inputs": [
        {
          "internalType": "address",
          "name": "master",
          "type": "address"
        }
      ],
      "name": "isMaster",
      "outputs": [
        {
          "internalType": "bool",
          "name": "",
          "type": "bool"
        }
      ],
      "payable": false,
      "stateMutability": "view",
      "type": "function"
    },
    {
      "constant": false,
      "inputs": [
        {
          "internalType": "address",
          "name": "master",
          "type": "address"
        }
      ],
      "name": "addMaster",
      "outputs": [],
      "payable": false,
      "stateMutability": "nonpayable",
      "type": "function"
    },
    {
      "constant": false,
      "inputs": [
        {
          "internalType": "address",
          "name": "master",
          "type": "address"
        }
      ],
      "name": "removeMaster",
      "outputs": [],
      "payable": false,
      "stateMutability": "nonpayable",
      "type": "function"
    },
    {
      "constant": false,
      "inputs": [
        {
          "internalType": "int256",
          "name": "threshold",
          "type": "int256"
        }
      ],
      "name": "setThreshold",
      "outputs": [],
      "payable": false,
      "stateMutability": "nonpayable",
      "type": "function"
    },
    {
      "constant": false,
      "inputs": [
        {
          "internalType": "bytes[]",
          "name": "headers",
          "type": "bytes[]"
        }
      ],
      "name": "receiveHeader",
      "outputs": [],
      "payable": false,
      "stateMutability": "nonpayable",
      "type": "function"
    },
    {
      "constant": true,
      "inputs": [
        {
          "internalType": "bytes32",
          "name": "header_hash",
          "type": "bytes32"
        }
      ],
      "name": "getHeader",
      "outputs": [
        {
          "components": [
            {
              "internalType": "bytes32",
              "name": "parent_hash",
              "type": "bytes32"
            },
            {
              "internalType": "int256",
              "name": "number",
              "type": "int256"
            },
            {
              "internalType": "uint64",
              "name": "round_num",
              "type": "uint64"
            },
            {
              "internalType": "int256",
              "name": "mainnet_num",
              "type": "int256"
            },
            {
              "internalType": "bool",
              "name": "finalized",
              "type": "bool"
            }
          ],
          "internalType": "struct Subnet.HeaderInfo",
          "name": "",
          "type": "tuple"
        }
      ],
      "payable": false,
      "stateMutability": "view",
      "type": "function"
    },
    {
      "constant": true,
      "inputs": [
        {
          "internalType": "int256",
          "name": "number",
          "type": "int256"
        }
      ],
      "name": "getHeaderByNumber",
      "outputs": [
        {
          "components": [
            {
              "internalType": "bytes32",
              "name": "hash",
              "type": "bytes32"
            },
            {
              "internalType": "int256",
              "name": "number",
              "type": "int256"
            }
          ],
          "internalType": "struct Subnet.BlockLite",
          "name": "",
          "type": "tuple"
        }
      ],
      "payable": false,
      "stateMutability": "view",
      "type": "function"
    },
    {
      "constant": true,
      "inputs": [
        {
          "internalType": "bytes32",
          "name": "header_hash",
          "type": "bytes32"
        }
      ],
      "name": "getHeaderConfirmationStatus",
      "outputs": [
        {
          "internalType": "bool",
          "name": "",
          "type": "bool"
        }
      ],
      "payable": false,
      "stateMutability": "view",
      "type": "function"
    },
    {
      "constant": true,
      "inputs": [
        {
          "internalType": "bytes32",
          "name": "header_hash",
          "type": "bytes32"
        }
      ],
      "name": "getMainnetBlockNumber",
      "outputs": [
        {
          "internalType": "uint256",
          "name": "",
          "type": "uint256"
        }
      ],
      "payable": false,
      "stateMutability": "view",
      "type": "function"
    },
    {
      "constant": true,
      "inputs": [],
      "name": "getLatestBlocks",
      "outputs": [
        {
          "components": [
            {
              "internalType": "bytes32",
              "name": "hash",
              "type": "bytes32"
            },
            {
              "internalType": "int256",
              "name": "number",
              "type": "int256"
            }
          ],
          "internalType": "struct Subnet.BlockLite",
          "name": "",
          "type": "tuple"
        },
        {
          "components": [
            {
              "internalType": "bytes32",
              "name": "hash",
              "type": "bytes32"
            },
            {
              "internalType": "int256",
              "name": "number",
              "type": "int256"
            }
          ],
          "internalType": "struct Subnet.BlockLite",
          "name": "",
          "type": "tuple"
        }
      ],
      "payable": false,
      "stateMutability": "view",
      "type": "function"
    },
    {
      "constant": true,
      "inputs": [],
      "name": "getCurrentValidators",
      "outputs": [
        {
          "components": [
            {
              "internalType": "address[]",
              "name": "set",
              "type": "address[]"
            },
            {
              "internalType": "int256",
              "name": "number",
              "type": "int256"
            },
            {
              "internalType": "int256",
              "name": "threshold",
              "type": "int256"
            }
          ],
          "internalType": "struct Subnet.Validators",
          "name": "",
          "type": "tuple"
        }
      ],
      "payable": false,
      "stateMutability": "view",
      "type": "function"
    }
  ],
  "bytecode": "0x60806040523480156200001157600080fd5b50604051620038ab380380620038ab8339818101604052620000379190810190620006cf565b60008551116200007e576040517f08c379a000000000000000000000000000000000000000000000000000000000815260040162000075906200091c565b60405180910390fd5b60008480519060200120905060008480519060200120905060008073__HeaderReader__________________________63dc9e408b896040518263ffffffff1660e01b8152600401620000d29190620008f8565b604080518083038186803b158015620000ea57600080fd5b505af4158015620000ff573d6000803e3d6000fd5b505050506040513d601f19601f820116820180604052506200012591908101906200079c565b91509150600080600073__HeaderReader__________________________63be7558c08b6040518263ffffffff1660e01b8152600401620001679190620008f8565b60606040518083038186803b1580156200018057600080fd5b505af415801562000195573d6000803e3d6000fd5b505050506040513d601f19601f82011682018060405250620001bb9190810190620007dd565b925092509250600084148015620001d25750600182145b62000214576040517f08c379a00000000000000000000000000000000000000000000000000000000081526004016200020b906200093e565b60405180910390fd5b604051806040016040528086815260200160018043901b608188901b17178152506000808981526020019081526020016000206000820151816000015560208201518160010155905050604051806040016040528084815260200160018043901b60418567ffffffffffffffff16901b608187901b171717815250600080888152602001908152602001600020600082015181600001556020820151816001015590505060405180606001604052808d815260200160018152602001600360028f510281620002df57fe5b048152506005600082015181600001908051906020019062000303929190620004b5565b5060208201518160010155604082015181600201559050506200032c8c6200042760201b60201c565b6001600460003373ffffffffffffffffffffffffffffffffffffffff1673ffffffffffffffffffffffffffffffffffffffff16815260200190815260200160002060006101000a81548160ff02191690831515021790555085600b8190555085600c819055508660016000808152602001908152602001600020819055508560016000600181526020019081526020016000208190555088600d60006101000a81548167ffffffffffffffff021916908367ffffffffffffffff16021790555087600d60086101000a81548167ffffffffffffffff021916908367ffffffffffffffff16021790555050505050505050505050505062000b1c565b60008090505b8151811015620004b1576001600260008484815181106200044a57fe5b602002602001015173ffffffffffffffffffffffffffffffffffffffff1673ffffffffffffffffffffffffffffffffffffffff16815260200190815260200160002060006101000a81548160ff02191690831515021790555080806001019150506200042d565b5050565b82805482825590600052602060002090810192821562000531579160200282015b82811115620005305782518260006101000a81548173ffffffffffffffffffffffffffffffffffffffff021916908373ffffffffffffffffffffffffffffffffffffffff16021790555091602001919060010190620004d6565b5b50905062000540919062000544565b5090565b6200058791905b808211156200058357600081816101000a81549073ffffffffffffffffffffffffffffffffffffffff0219169055506001016200054b565b5090565b90565b6000815190506200059b8162000ab4565b92915050565b600082601f830112620005b357600080fd5b8151620005ca620005c4826200098e565b62000960565b91508181835260208401935060208101905083856020840282011115620005f057600080fd5b60005b838110156200062457816200060988826200058a565b845260208401935060208301925050600181019050620005f3565b5050505092915050565b6000815190506200063f8162000ace565b92915050565b600082601f8301126200065757600080fd5b81516200066e6200066882620009b7565b62000960565b915080825260208301602083018583830111156200068b57600080fd5b6200069883828462000a6d565b50505092915050565b600081519050620006b28162000ae8565b92915050565b600081519050620006c98162000b02565b92915050565b600080600080600060a08688031215620006e857600080fd5b600086015167ffffffffffffffff8111156200070357600080fd5b6200071188828901620005a1565b955050602086015167ffffffffffffffff8111156200072f57600080fd5b6200073d8882890162000645565b945050604086015167ffffffffffffffff8111156200075b57600080fd5b620007698882890162000645565b93505060606200077c88828901620006b8565b92505060806200078f88828901620006b8565b9150509295509295909350565b60008060408385031215620007b057600080fd5b6000620007c0858286016200062e565b9250506020620007d385828601620006a1565b9150509250929050565b600080600060608486031215620007f357600080fd5b600062000803868287016200062e565b93505060206200081686828701620006a1565b92505060406200082986828701620006b8565b9150509250925092565b60006200084082620009e4565b6200084c8185620009ef565b93506200085e81856020860162000a6d565b620008698162000aa3565b840191505092915050565b600062000883600f8362000a00565b91507f56616c696461746f7220456d70747900000000000000000000000000000000006000830152602082019050919050565b6000620008c560128362000a00565b91507f496e76616c696420496e697420426c6f636b00000000000000000000000000006000830152602082019050919050565b6000602082019050818103600083015262000914818462000833565b905092915050565b60006020820190508181036000830152620009378162000874565b9050919050565b600060208201905081810360008301526200095981620008b6565b9050919050565b6000604051905081810181811067ffffffffffffffff821117156200098457600080fd5b8060405250919050565b600067ffffffffffffffff821115620009a657600080fd5b602082029050602081019050919050565b600067ffffffffffffffff821115620009cf57600080fd5b601f19601f8301169050602081019050919050565b600081519050919050565b600082825260208201905092915050565b600082825260208201905092915050565b600062000a1e8262000a39565b9050919050565b6000819050919050565b6000819050919050565b600073ffffffffffffffffffffffffffffffffffffffff82169050919050565b600067ffffffffffffffff82169050919050565b60005b8381101562000a8d57808201518184015260208101905062000a70565b8381111562000a9d576000848401525b50505050565b6000601f19601f8301169050919050565b62000abf8162000a11565b811462000acb57600080fd5b50565b62000ad98162000a25565b811462000ae557600080fd5b50565b62000af38162000a2f565b811462000aff57600080fd5b50565b62000b0d8162000a59565b811462000b1957600080fd5b50565b612d7f8062000b2c6000396000f3fe608060405234801561001057600080fd5b50600436106100a95760003560e01c8063b961587811610071578063b961587814610165578063c5f9dff014610195578063e2a2f0a3146101b3578063eb71f0f8146101cf578063ef0fb558146101ff578063f720f80b1461021b576100a9565b80631097d54a146100ae57806366dcb0ba146100ca5780636c624a5f146100e95780636fed6f8314610119578063a20140c314610149575b600080fd5b6100c860048036036100c39190810190611fd2565b61024b565b005b6100d2610332565b6040516100e0929190612a75565b60405180910390f35b61010360048036036100fe91908101906120a8565b6103c8565b60405161011091906127cf565b60405180910390f35b610133600480360361012e91908101906120a8565b6103ec565b6040516101409190612adb565b60405180910390f35b610163600480360361015e9190810190612067565b610419565b005b61017f600480360361017a91908101906120a8565b6115a6565b60405161018c9190612a9e565b60405180910390f35b61019d611676565b6040516101aa9190612ab9565b60405180910390f35b6101cd60048036036101c89190810190611fd2565b611732565b005b6101e960048036036101e49190810190612172565b611819565b6040516101f69190612a5a565b60405180910390f35b61021960048036036102149190810190612172565b61197c565b005b61023560048036036102309190810190611fd2565b611a58565b60405161024291906127cf565b60405180910390f35b600460003373ffffffffffffffffffffffffffffffffffffffff1673ffffffffffffffffffffffffffffffffffffffff16815260200190815260200160002060009054906101000a900460ff166102d7576040517f08c379a00000000000000000000000000000000000000000000000000000000081526004016102ce906129da565b60405180910390fd5b6001600460008373ffffffffffffffffffffffffffffffffffffffff1673ffffffffffffffffffffffffffffffffffffffff16815260200190815260200160002060006101000a81548160ff02191690831515021790555050565b61033a611b91565b610342611b91565b6040518060400160405280600b5481526020016081600080600b54815260200190815260200160002060010154901c67ffffffffffffffff168152506040518060400160405280600c5481526020016081600080600c54815260200190815260200160002060010154901c67ffffffffffffffff16815250819150809050915091509091565b60006001806000808581526020019081526020016000206001015416149050919050565b6000600160008084815260200190815260200160002060010154901c67ffffffffffffffff169050919050565b600460003373ffffffffffffffffffffffffffffffffffffffff1673ffffffffffffffffffffffffffffffffffffffff16815260200190815260200160002060009054906101000a900460ff166104a5576040517f08c379a000000000000000000000000000000000000000000000000000000000815260040161049c906129da565b60405180910390fd5b60008090505b81518110156115a2576000806000806000606073__HeaderReader__________________________6344e06ed48989815181106104e457fe5b60200260200101516040518263ffffffff1660e01b81526004016105089190612858565b60006040518083038186803b15801561052057600080fd5b505af4158015610534573d6000803e3d6000fd5b505050506040513d6000823e3d601f19601f8201168201806040525061055d91908101906120d1565b95509550955095509550955060608073__HeaderReader__________________________63750a2ae58b8b8151811061059257fe5b60200260200101516040518263ffffffff1660e01b81526004016105b69190612858565b60006040518083038186803b1580156105ce57600080fd5b505af41580156105e2573d6000803e3d6000fd5b505050506040513d6000823e3d601f19601f8201168201806040525061060b9190810190611ffb565b9150915060008713610652576040517f08c379a0000000000000000000000000000000000000000000000000000000008152600401610649906129fa565b60405180910390fd5b6081600080600c54815260200190815260200160002060010154901c67ffffffffffffffff1687136106b9576040517f08c379a00000000000000000000000000000000000000000000000000000000081526004016106b090612a3a565b60405180910390fd5b60008060008a8152602001908152602001600020600101541415610712576040517f08c379a00000000000000000000000000000000000000000000000000000000081526004016107099061287a565b60405180910390fd5b86600160816000808c815260200190815260200160002060010154901c67ffffffffffffffff16011461077a576040517f08c379a0000000000000000000000000000000000000000000000000000000008152600401610771906128da565b60405180910390fd5b8567ffffffffffffffff1660416000808b815260200190815260200160002060010154901c67ffffffffffffffff16106107e9576040517f08c379a00000000000000000000000000000000000000000000000000000000081526004016107e090612a1a565b60405180910390fd5b8467ffffffffffffffff1660416000808b815260200190815260200160002060010154901c67ffffffffffffffff1614610858576040517f08c379a000000000000000000000000000000000000000000000000000000000815260040161084f9061293a565b60405180910390fd5b60008a8a8151811061086657fe5b602002602001015160405161087b91906127b8565b6040518091039020905060008060008381526020019081526020016000206001015411156108de576040517f08c379a00000000000000000000000000000000000000000000000000000000081526004016108d59061289a565b60405180910390fd5b600083511180156108f0575060008251115b15610930576040517f08c379a00000000000000000000000000000000000000000000000000000000081526004016109279061295a565b60405180910390fd5b600083511115610ea557825160086000018054905014610985576040517f08c379a000000000000000000000000000000000000000000000000000000000815260040161097c906129ba565b60405180910390fd5b600d60089054906101000a900467ffffffffffffffff1667ffffffffffffffff168767ffffffffffffffff16816109b857fe5b06870367ffffffffffffffff168667ffffffffffffffff161015610e65576000600d60009054906101000a900467ffffffffffffffff1667ffffffffffffffff16600d60089054906101000a900467ffffffffffffffff1667ffffffffffffffff168a81610a2257fe5b078a030390506000811215610a3657600090505b600860010154600182011415610e145760008090505b600860000180549050811015610afb5760016003600060086000018481548110610a7257fe5b9060005260206000200160009054906101000a900473ffffffffffffffffffffffffffffffffffffffff1673ffffffffffffffffffffffffffffffffffffffff1673ffffffffffffffffffffffffffffffffffffffff16815260200190815260200160002060006101000a81548160ff0219169083151502179055508080600101915050610a4c565b5060008090505b600860000180549050811015610c77576003600060086000018381548110610b2657fe5b9060005260206000200160009054906101000a900473ffffffffffffffffffffffffffffffffffffffff1673ffffffffffffffffffffffffffffffffffffffff1673ffffffffffffffffffffffffffffffffffffffff16815260200190815260200160002060009054906101000a900460ff16610bd8576040517f08c379a0000000000000000000000000000000000000000000000000000000008152600401610bcf906129ba565b60405180910390fd5b60006003600060086000018481548110610bee57fe5b9060005260206000200160009054906101000a900473ffffffffffffffffffffffffffffffffffffffff1673ffffffffffffffffffffffffffffffffffffffff1673ffffffffffffffffffffffffffffffffffffffff16815260200190815260200160002060006101000a81548160ff0219169083151502179055508080600101915050610b02565b5060008090505b600560000180549050811015610d2d5760006002600060056000018481548110610ca457fe5b9060005260206000200160009054906101000a900473ffffffffffffffffffffffffffffffffffffffff1673ffffffffffffffffffffffffffffffffffffffff1673ffffffffffffffffffffffffffffffffffffffff16815260200190815260200160002060006101000a81548160ff0219169083151502179055508080600101915050610c7e565b5060008090505b8451811015610ddc5760016002600060086000018481548110610d5357fe5b9060005260206000200160009054906101000a900473ffffffffffffffffffffffffffffffffffffffff1673ffffffffffffffffffffffffffffffffffffffff1673ffffffffffffffffffffffffffffffffffffffff16815260200190815260200160002060006101000a81548160ff0219169083151502179055508080600101915050610d34565b50600860056000820181600001908054610df7929190611bae565b506001820154816001015560028201548160020155905050610e5f565b6005600101546001820114610e5e576040517f08c379a0000000000000000000000000000000000000000000000000000000008152600401610e559061291a565b60405180910390fd5b5b50610ea0565b6040517f08c379a0000000000000000000000000000000000000000000000000000000008152600401610e979061291a565b60405180910390fd5b610fc6565b600082511115610fc5576001600d60009054906101000a900467ffffffffffffffff16600d60089054906101000a900467ffffffffffffffff16030167ffffffffffffffff16600d60089054906101000a900467ffffffffffffffff1667ffffffffffffffff168981610f1457fe5b0767ffffffffffffffff161415610f895760405180606001604052808381526020018981526020016003600285510281610f4a57fe5b0481525060086000820151816000019080519060200190610f6c929190611c00565b506020820151816001015560408201518160020155905050610fc4565b6040517f08c379a0000000000000000000000000000000000000000000000000000000008152600401610fbb906128ba565b60405180910390fd5b5b5b600080905060608551604051908082528060200260200182016040528015610ffd5781602001602082028038833980820191505090505b50905060008090505b865181101561120957600061102e8989848151811061102157fe5b6020026020010151611aae565b905060011515600260008373ffffffffffffffffffffffffffffffffffffffff1673ffffffffffffffffffffffffffffffffffffffff16815260200190815260200160002060009054906101000a900460ff161515146110c3576040517f08c379a00000000000000000000000000000000000000000000000000000000081526004016110ba906128fa565b60405180910390fd5b600360008273ffffffffffffffffffffffffffffffffffffffff1673ffffffffffffffffffffffffffffffffffffffff16815260200190815260200160002060009054906101000a900460ff166111795783806001019450506001600360008373ffffffffffffffffffffffffffffffffffffffff1673ffffffffffffffffffffffffffffffffffffffff16815260200190815260200160002060006101000a81548160ff0219169083151502179055506111b4565b6040517f08c379a00000000000000000000000000000000000000000000000000000000081526004016111ab906128fa565b60405180910390fd5b808383815181106111c157fe5b602002602001019073ffffffffffffffffffffffffffffffffffffffff16908173ffffffffffffffffffffffffffffffffffffffff1681525050508080600101915050611006565b5060008090505b81518110156112915760006003600084848151811061122b57fe5b602002602001015173ffffffffffffffffffffffffffffffffffffffff1673ffffffffffffffffffffffffffffffffffffffff16815260200190815260200160002060006101000a81548160ff0219169083151502179055508080600101915050611210565b506005600201548212156112da576040517f08c379a00000000000000000000000000000000000000000000000000000000081526004016112d1906128fa565b60405180910390fd5b60405180604001604052808c8152602001600143901b60418c67ffffffffffffffff16901b60818e901b171781525060008085815260200190815260200160002060008201518160000155602082015181600101559050507fc92de1e80780c8f239052c833b238f36e1f1f03c09628a198cefab0ed37d2b23838b6040516113639291906127ea565b60405180910390a16081600080600b54815260200190815260200160002060010154901c67ffffffffffffffff168a13156113a05782600b819055505b600060019050600084905060008090505b6003811015611468576000801b6000808481526020019081526020016000206000015414156113e35760009250611468565b60008060008481526020019081526020016000206000015490506001604160008084815260200190815260200160002060010154901c0167ffffffffffffffff16604160008086815260200190815260200160002060010154901c67ffffffffffffffff1614611457576000935050611468565b8092505080806001019150506113b1565b506000151582151514156114885750505050505050505050505050611595565b80600c819055505b600180600080848152602001908152602001600020600101541614611587576001600080838152602001908152602001600020600101600082825417925050819055508060016000608160008086815260200190815260200160002060010154901c67ffffffffffffffff168152602001908152602001600020819055507fc87258113ecbd0404f86cc5c0155894cfc47dae8fadab01aa8eefe5b5b40bdbb81608160008085815260200190815260200160002060010154901c67ffffffffffffffff166040516115629291906127ea565b60405180910390a1600080828152602001908152602001600020600001549050611490565b505050505050505050505050505b80806001019150506104ab565b5050565b6115ae611c8a565b6040518060a00160405280600080858152602001908152602001600020600001548152602001608160008086815260200190815260200160002060010154901c67ffffffffffffffff168152602001604160008086815260200190815260200160002060010154901c67ffffffffffffffff168152602001600160008086815260200190815260200160002060010154901c67ffffffffffffffff16815260200160018060008087815260200190815260200160002060010154161415158152509050919050565b61167e611cc8565b60056040518060600160405290816000820180548060200260200160405190810160405280929190818152602001828054801561171057602002820191906000526020600020905b8160009054906101000a900473ffffffffffffffffffffffffffffffffffffffff1673ffffffffffffffffffffffffffffffffffffffff16815260200190600101908083116116c6575b5050505050815260200160018201548152602001600282015481525050905090565b600460003373ffffffffffffffffffffffffffffffffffffffff1673ffffffffffffffffffffffffffffffffffffffff16815260200190815260200160002060009054906101000a900460ff166117be576040517f08c379a00000000000000000000000000000000000000000000000000000000081526004016117b5906129da565b60405180910390fd5b6000600460008373ffffffffffffffffffffffffffffffffffffffff1673ffffffffffffffffffffffffffffffffffffffff16815260200190815260200160002060006101000a81548160ff02191690831515021790555050565b611821611b91565b6000801b600160008481526020019081526020016000205414156119165760006081600080600b54815260200190815260200160002060010154901c67ffffffffffffffff169050808313156118925760405180604001604052806000801b81526020016000815250915050611977565b600083820390506000600b54905060008090505b828112156118d35760008083815260200190815260200160002060000154915080806001019150506118a6565b506040518060400160405280828152602001608160008085815260200190815260200160002060010154901c67ffffffffffffffff168152509350505050611977565b60405180604001604052806001600085815260200190815260200160002054815260200160816000806001600088815260200190815260200160002054815260200190815260200160002060010154901c67ffffffffffffffff1681525090505b919050565b600460003373ffffffffffffffffffffffffffffffffffffffff1673ffffffffffffffffffffffffffffffffffffffff16815260200190815260200160002060009054906101000a900460ff16611a08576040517f08c379a00000000000000000000000000000000000000000000000000000000081526004016119ff906129da565b60405180910390fd5b60008113611a4b576040517f08c379a0000000000000000000000000000000000000000000000000000000008152600401611a429061299a565b60405180910390fd5b8060086002018190555050565b6000600460008373ffffffffffffffffffffffffffffffffffffffff1673ffffffffffffffffffffffffffffffffffffffff16815260200190815260200160002060009054906101000a900460ff169050919050565b600080600080611abd85611b1d565b92509250925060018684848460405160008152602001604052604051611ae69493929190612813565b6020604051602081039080840390855afa158015611b08573d6000803e3d6000fd5b50505060206040510351935050505092915050565b60008060006041845114611b66576040517f08c379a0000000000000000000000000000000000000000000000000000000008152600401611b5d9061297a565b60405180910390fd5b6020840151915060408401519050606084015160001a9250601b830182829250925092509193909250565b604051806040016040528060008019168152602001600081525090565b828054828255906000526020600020908101928215611bef5760005260206000209182015b82811115611bee578254825591600101919060010190611bd3565b5b509050611bfc9190611ce9565b5090565b828054828255906000526020600020908101928215611c79579160200282015b82811115611c785782518260006101000a81548173ffffffffffffffffffffffffffffffffffffffff021916908373ffffffffffffffffffffffffffffffffffffffff16021790555091602001919060010190611c20565b5b509050611c869190611ce9565b5090565b6040518060a001604052806000801916815260200160008152602001600067ffffffffffffffff168152602001600081526020016000151581525090565b60405180606001604052806060815260200160008152602001600081525090565b611d2991905b80821115611d2557600081816101000a81549073ffffffffffffffffffffffffffffffffffffffff021916905550600101611cef565b5090565b90565b600081359050611d3b81612ce0565b92915050565b600081519050611d5081612ce0565b92915050565b600082601f830112611d6757600080fd5b8151611d7a611d7582612b23565b612af6565b91508181835260208401935060208101905083856020840282011115611d9f57600080fd5b60005b83811015611dcf5781611db58882611d41565b845260208401935060208301925050600181019050611da2565b5050505092915050565b600082601f830112611dea57600080fd5b8135611dfd611df882612b4b565b612af6565b9150818183526020840193506020810190508360005b83811015611e435781358601611e298882611eeb565b845260208401935060208301925050600181019050611e13565b5050505092915050565b600082601f830112611e5e57600080fd5b8151611e71611e6c82612b4b565b612af6565b9150818183526020840193506020810190508360005b83811015611eb75781518601611e9d8882611f3f565b845260208401935060208301925050600181019050611e87565b5050505092915050565b600081359050611ed081612cf7565b92915050565b600081519050611ee581612cf7565b92915050565b600082601f830112611efc57600080fd5b8135611f0f611f0a82612b73565b612af6565b91508082526020830160208301858383011115611f2b57600080fd5b611f36838284612c8d565b50505092915050565b600082601f830112611f5057600080fd5b8151611f63611f5e82612b73565b612af6565b91508082526020830160208301858383011115611f7f57600080fd5b611f8a838284612c9c565b50505092915050565b600081359050611fa281612d0e565b92915050565b600081519050611fb781612d0e565b92915050565b600081519050611fcc81612d25565b92915050565b600060208284031215611fe457600080fd5b6000611ff284828501611d2c565b91505092915050565b6000806040838503121561200e57600080fd5b600083015167ffffffffffffffff81111561202857600080fd5b61203485828601611d56565b925050602083015167ffffffffffffffff81111561205157600080fd5b61205d85828601611d56565b9150509250929050565b60006020828403121561207957600080fd5b600082013567ffffffffffffffff81111561209357600080fd5b61209f84828501611dd9565b91505092915050565b6000602082840312156120ba57600080fd5b60006120c884828501611ec1565b91505092915050565b60008060008060008060c087890312156120ea57600080fd5b60006120f889828a01611ed6565b965050602061210989828a01611fa8565b955050604061211a89828a01611fbd565b945050606061212b89828a01611fbd565b935050608061213c89828a01611ed6565b92505060a087015167ffffffffffffffff81111561215957600080fd5b61216589828a01611e4d565b9150509295509295509295565b60006020828403121561218457600080fd5b600061219284828501611f93565b91505092915050565b60006121a783836121b3565b60208301905092915050565b6121bc81612c10565b82525050565b60006121cd82612baf565b6121d78185612bd2565b93506121e283612b9f565b8060005b838110156122135781516121fa888261219b565b975061220583612bc5565b9250506001810190506121e6565b5085935050505092915050565b61222981612c22565b82525050565b61223881612c22565b82525050565b61224781612c2e565b82525050565b61225681612c2e565b82525050565b600061226782612bba565b6122718185612be3565b9350612281818560208601612c9c565b61228a81612ccf565b840191505092915050565b60006122a082612bba565b6122aa8185612bf4565b93506122ba818560208601612c9c565b80840191505092915050565b6122cf81612c38565b82525050565b6122de81612c38565b82525050565b60006122f1600e83612bff565b91507f506172656e74204d697373696e670000000000000000000000000000000000006000830152602082019050919050565b6000612331600f83612bff565b91507f52657065617465642048656164657200000000000000000000000000000000006000830152602082019050919050565b6000612371601283612bff565b91507f496e76616c6964204e65787420426c6f636b00000000000000000000000000006000830152602082019050919050565b60006123b1600983612bff565b91507f496e76616c6964204e00000000000000000000000000000000000000000000006000830152602082019050919050565b60006123f1601183612bff565b91507f566572696669636174696f6e204661696c0000000000000000000000000000006000830152602082019050919050565b6000612431601583612bff565b91507f496e76616c69642043757272656e7420426c6f636b00000000000000000000006000830152602082019050919050565b6000612471600b83612bff565b91507f496e76616c69642050524e0000000000000000000000000000000000000000006000830152602082019050919050565b60006124b1600f83612bff565b91507f4d616c666f726d656420426c6f636b00000000000000000000000000000000006000830152602082019050919050565b60006124f1601183612bff565b91507f496e76616c6964205369676e61747572650000000000000000000000000000006000830152602082019050919050565b6000612531600b83612bff565b91507f30205468726573686f6c640000000000000000000000000000000000000000006000830152602082019050919050565b6000612571601583612bff565b91507f4d69736d6174636865642056616c696461746f727300000000000000000000006000830152602082019050919050565b60006125b1600c83612bff565b91507f4d617374657273204f6e6c7900000000000000000000000000000000000000006000830152602082019050919050565b60006125f1601083612bff565b91507f52657065617465642047656e65736973000000000000000000000000000000006000830152602082019050919050565b6000612631600a83612bff565b91507f496e76616c696420524e000000000000000000000000000000000000000000006000830152602082019050919050565b6000612671600983612bff565b91507f4f6c6420426c6f636b00000000000000000000000000000000000000000000006000830152602082019050919050565b6040820160008201516126ba600085018261223e565b5060208201516126cd60208501826122c6565b50505050565b60a0820160008201516126e9600085018261223e565b5060208201516126fc60208501826122c6565b50604082015161270f604085018261279a565b50606082015161272260608501826122c6565b5060808201516127356080850182612220565b50505050565b6000606083016000830151848203600086015261275882826121c2565b915050602083015161276d60208601826122c6565b50604083015161278060408601826122c6565b508091505092915050565b61279481612c62565b82525050565b6127a381612c6c565b82525050565b6127b281612c80565b82525050565b60006127c48284612295565b915081905092915050565b60006020820190506127e4600083018461222f565b92915050565b60006040820190506127ff600083018561224d565b61280c60208301846122d5565b9392505050565b6000608082019050612828600083018761224d565b61283560208301866127a9565b612842604083018561224d565b61284f606083018461224d565b95945050505050565b60006020820190508181036000830152612872818461225c565b905092915050565b60006020820190508181036000830152612893816122e4565b9050919050565b600060208201905081810360008301526128b381612324565b9050919050565b600060208201905081810360008301526128d381612364565b9050919050565b600060208201905081810360008301526128f3816123a4565b9050919050565b60006020820190508181036000830152612913816123e4565b9050919050565b6000602082019050818103600083015261293381612424565b9050919050565b6000602082019050818103600083015261295381612464565b9050919050565b60006020820190508181036000830152612973816124a4565b9050919050565b60006020820190508181036000830152612993816124e4565b9050919050565b600060208201905081810360008301526129b381612524565b9050919050565b600060208201905081810360008301526129d381612564565b9050919050565b600060208201905081810360008301526129f3816125a4565b9050919050565b60006020820190508181036000830152612a13816125e4565b9050919050565b60006020820190508181036000830152612a3381612624565b9050919050565b60006020820190508181036000830152612a5381612664565b9050919050565b6000604082019050612a6f60008301846126a4565b92915050565b6000608082019050612a8a60008301856126a4565b612a9760408301846126a4565b9392505050565b600060a082019050612ab360008301846126d3565b92915050565b60006020820190508181036000830152612ad3818461273b565b905092915050565b6000602082019050612af0600083018461278b565b92915050565b6000604051905081810181811067ffffffffffffffff82111715612b1957600080fd5b8060405250919050565b600067ffffffffffffffff821115612b3a57600080fd5b602082029050602081019050919050565b600067ffffffffffffffff821115612b6257600080fd5b602082029050602081019050919050565b600067ffffffffffffffff821115612b8a57600080fd5b601f19601f8301169050602081019050919050565b6000819050602082019050919050565b600081519050919050565b600081519050919050565b6000602082019050919050565b600082825260208201905092915050565b600082825260208201905092915050565b600081905092915050565b600082825260208201905092915050565b6000612c1b82612c42565b9050919050565b60008115159050919050565b6000819050919050565b6000819050919050565b600073ffffffffffffffffffffffffffffffffffffffff82169050919050565b6000819050919050565b600067ffffffffffffffff82169050919050565b600060ff82169050919050565b82818337600083830152505050565b60005b83811015612cba578082015181840152602081019050612c9f565b83811115612cc9576000848401525b50505050565b6000601f19601f8301169050919050565b612ce981612c10565b8114612cf457600080fd5b50565b612d0081612c2e565b8114612d0b57600080fd5b50565b612d1781612c38565b8114612d2257600080fd5b50565b612d2e81612c6c565b8114612d3957600080fd5b5056fea365627a7a72315820048b9ea29d5a09d23899e9cf592d0bb9eb9ceca8b6c086ed6da2886a3ad66f726c6578706572696d656e74616cf564736f6c63430005100040",
  "source": "// SPDX-License-Identifier: MIT\npragma solidity >=0.4.21 <0.9.0;\npragma experimental ABIEncoderV2;\n\nimport \"./HeaderReader.sol\";\n\ncontract Subnet {\n\n  struct Header {\n    bytes32 parent_hash;\n    uint256 mix; // padding 63 | uint64 number | uint64 round_num | uint64 mainnet_num | bool finalized \n  }\n\n  struct HeaderInfo {\n    bytes32 parent_hash;\n    int number;\n    uint64 round_num;\n    int mainnet_num;\n    bool finalized;\n  }\n\n  struct Validators {\n    address[] set;\n    int number;\n    int threshold;\n  }\n\n  struct BlockLite {\n    bytes32 hash;\n    int number;\n  }\n\n  mapping(bytes32 => Header) header_tree;\n  mapping(int => bytes32) committed_blocks;\n  mapping(address => bool) lookup;\n  mapping(address => bool) unique_addr;\n  mapping(address => bool) masters;\n  Validators current_validators;\n  Validators next_validators;\n  bytes32 latest_block;\n  bytes32 latest_finalized_block;\n  uint64 private GAP;\n  uint64 private EPOCH;\n\n  // Event types\n  event SubnetBlockAccepted(bytes32 block_hash, int number);\n  event SubnetBlockFinalized(bytes32 block_hash, int number);\n\n  // Modifier\n  modifier onlyMasters() {\n    if (!masters[msg.sender]) revert(\"Masters Only\");\n    _;\n  }\n\n  constructor(\n    address[] memory initial_validator_set,\n    bytes memory genesis_header,\n    bytes memory block1_header,\n    uint64 gap,\n    uint64 epoch\n  ) public {\n    require(initial_validator_set.length > 0, \"Validator Empty\");\n    bytes32 genesis_header_hash = keccak256(genesis_header);\n    bytes32 block1_header_hash = keccak256(block1_header);\n    (bytes32 ph, int n) = HeaderReader.getParentHashAndNumber(genesis_header);\n    (bytes32 ph1, int n1, uint64 rn) = HeaderReader.getBlock1Params(block1_header);\n    require(n == 0 && n1 == 1, \"Invalid Init Block\");\n    header_tree[genesis_header_hash] = Header({\n      parent_hash: ph,\n      mix: uint256(n) << 129 | uint256(block.number) << 1 | 1\n    });\n    header_tree[block1_header_hash] = Header({\n      parent_hash: ph1,\n      mix: uint256(n1) << 129 | uint256(rn) << 65 | uint256(block.number) << 1 | 1\n    });\n    current_validators = Validators({\n      set: initial_validator_set,\n      number: 1,\n      threshold: int256(initial_validator_set.length * 2 / 3)\n    });\n    updateLookup(initial_validator_set);\n    masters[msg.sender] = true;\n    latest_block = block1_header_hash;\n    latest_finalized_block = block1_header_hash;\n    committed_blocks[0] = genesis_header_hash;\n    committed_blocks[1] = block1_header_hash;\n    GAP = gap;\n    EPOCH = epoch;\n  }\n\n  function isMaster(address master) public view returns (bool) {\n    return masters[master];\n  }\n\n  function addMaster(address master) public onlyMasters {\n    masters[master] = true;\n  }\n\n  function removeMaster(address master) public onlyMasters {\n    masters[master] = false;\n  }\n\n  function setThreshold(int threshold) public onlyMasters {\n    require(threshold > 0, \"0 Threshold\");\n    next_validators.threshold = threshold;\n  }\n\n  function receiveHeader(bytes[] memory headers) public onlyMasters {\n    for (uint x = 0; x < headers.length; x++) {\n      (\n        bytes32 parent_hash,\n        int number,\n        uint64 round_number,\n        uint64 prev_round_number,\n        bytes32 signHash,\n        bytes[] memory sigs\n      ) = HeaderReader.getValidationParams(headers[x]);\n    \n      (\n        address[] memory current,\n        address[] memory next\n      ) = HeaderReader.getEpoch(headers[x]);\n      \n      require(number > 0, \"Repeated Genesis\");\n      require(number > int256(uint256(uint64(header_tree[latest_finalized_block].mix >> 129))), \"Old Block\");\n      require(header_tree[parent_hash].mix != 0, \"Parent Missing\");\n      require(int256(uint256(uint64(header_tree[parent_hash].mix >> 129))) + 1 == number, \"Invalid N\");\n      require(uint64(header_tree[parent_hash].mix >> 65) < round_number, \"Invalid RN\");\n      require(uint64(header_tree[parent_hash].mix >> 65) == prev_round_number, \"Invalid PRN\");\n      \n      bytes32 block_hash = keccak256(headers[x]);\n      if (header_tree[block_hash].mix > 0) \n        revert(\"Repeated Header\");\n      if (current.length > 0 && next.length > 0)\n        revert(\"Malformed Block\");\n      else if (current.length > 0) {\n        if (next_validators.set.length != current.length)\n          revert(\"Mismatched Validators\");\n        else {\n          if (prev_round_number < round_number - (round_number % EPOCH)) {\n            int256 gap_number = number - number % int256(uint256(EPOCH)) - int256(uint256(GAP));\n            if (gap_number < 0) {\n              gap_number = 0;\n            }\n            if (gap_number + 1 == next_validators.number) {\n              for (uint i = 0; i < next_validators.set.length; i++) {\n                unique_addr[next_validators.set[i]] = true;\n              }\n              for (uint i = 0; i < next_validators.set.length; i++) {\n                if (!unique_addr[next_validators.set[i]]) \n                  revert(\"Mismatched Validators\");\n                else\n                  unique_addr[next_validators.set[i]] = false;\n              }\n              for (uint i = 0; i < current_validators.set.length; i++) {\n                lookup[current_validators.set[i]] = false;\n              }\n              for (uint i = 0; i < current.length; i++) {\n                lookup[next_validators.set[i]] = true;\n              }\n              current_validators = next_validators;\n              // next_validators = Validators({\n              //   set: new address[](0),\n              //   number: 0,\n              //   threshold: 0\n              // });\n            } else if (gap_number + 1 != current_validators.number) {\n              revert(\"Invalid Current Block\");\n            }\n          } else\n            revert(\"Invalid Current Block\");\n        }\n      } else if (next.length > 0) {\n        if (uint64(uint256(number % int256(uint256(EPOCH)))) == EPOCH - GAP + 1) {\n          next_validators = Validators({\n            set: next,\n            number: number,\n            threshold: int256(next.length * 2 / 3)\n          });\n        } else\n          revert(\"Invalid Next Block\");\n      }\n\n      int unique_counter = 0;\n      address[] memory signer_list = new address[](sigs.length);\n      for (uint i = 0; i < sigs.length; i++) {\n        address signer = recoverSigner(signHash, sigs[i]);\n        if (lookup[signer] != true) {\n          revert(\"Verification Fail\");\n        }\n        if (!unique_addr[signer]) {\n          unique_counter ++;\n          unique_addr[signer]=true;\n        } else {\n          revert(\"Verification Fail\");\n        }\n        signer_list[i] = signer;\n      }\n      for (uint i = 0; i < signer_list.length; i++) {\n        unique_addr[signer_list[i]] = false;\n      }\n      if (unique_counter < current_validators.threshold) {\n        revert(\"Verification Fail\");\n      }\n      header_tree[block_hash] = Header({\n        parent_hash: parent_hash,\n        mix: uint256(number) << 129 | uint256(round_number) << 65 | uint256(block.number) << 1\n      });\n      emit SubnetBlockAccepted(block_hash, number);\n      if (number > int256(uint256(uint64(header_tree[latest_block].mix >> 129)))) {\n        latest_block = block_hash;\n      }\n      // Look for 3 consecutive round\n      bool found_committed_flag = true;\n      bytes32 curr_hash = block_hash;\n      for (uint i = 0; i < 3; i++) {\n        if (header_tree[curr_hash].parent_hash == 0) {\n          found_committed_flag = false;\n          break;\n        }\n        bytes32 prev_hash = header_tree[curr_hash].parent_hash;\n        if (uint64(header_tree[curr_hash].mix >> 65) != uint64(header_tree[prev_hash].mix >> 65)+1) {\n          found_committed_flag = false;\n          break;\n        } else {\n          curr_hash = prev_hash;\n        }\n      }\n      if (found_committed_flag == false) continue;\n      latest_finalized_block = curr_hash;\n      // Confirm all ancestor unconfirmed block\n      while ((header_tree[curr_hash].mix & 1) != 1) {\n        header_tree[curr_hash].mix |= 1;\n        committed_blocks[uint64(header_tree[curr_hash].mix >> 129)] = curr_hash;\n        emit SubnetBlockFinalized(curr_hash, int256(uint256(uint64(header_tree[curr_hash].mix >> 129))));\n        curr_hash = header_tree[curr_hash].parent_hash;\n      }\n    }\n  }\n\n  /// signature methods.\n  function splitSignature(bytes memory sig)\n    internal\n    pure\n    returns (uint8 v, bytes32 r, bytes32 s)\n  {\n    require(sig.length == 65, \"Invalid Signature\");\n    assembly {\n      // first 32 bytes, after the length prefix.\n      r := mload(add(sig, 32))\n      // second 32 bytes.\n      s := mload(add(sig, 64))\n      // final byte (first byte of the next 32 bytes).\n      v := byte(0, mload(add(sig, 96)))\n    }\n    // TOCHECK: v needs 27 more, may related with EIP1559\n    return (v+27, r, s);\n  }\n\n  function updateLookup(address[] memory initial_validator_set) internal {\n    for (uint i = 0; i < initial_validator_set.length; i++) {\n      lookup[initial_validator_set[i]] = true;\n    }\n  }\n\n  function recoverSigner(bytes32 message, bytes memory sig)\n    internal\n    pure\n    returns (address)\n  {\n    (uint8 v, bytes32 r, bytes32 s) = splitSignature(sig);\n    return ecrecover(message, v, r, s);\n  }\n\n  function getHeader(bytes32 header_hash) public view returns (HeaderInfo memory) {\n    return HeaderInfo({\n      parent_hash: header_tree[header_hash].parent_hash,\n      number: int256(uint256(uint64(header_tree[header_hash].mix >> 129))),\n      round_num: uint64(header_tree[header_hash].mix >> 65),\n      mainnet_num: int256(uint256(uint64(header_tree[header_hash].mix >> 1))),\n      finalized: (header_tree[header_hash].mix & 1) == 1\n    });\n  }\n\n\n  function getHeaderByNumber(int number) public view returns (BlockLite memory) {\n    if (committed_blocks[number] == 0) {\n      int block_num = int256(uint256(uint64(header_tree[latest_block].mix >> 129)));\n      if (number > block_num) {\n        return BlockLite({\n          hash: bytes32(0),\n          number: 0\n        });\n      }\n      int num_gap =  block_num - number;\n      bytes32 curr_hash = latest_block;\n      for (int i = 0; i < num_gap; i++) {\n        curr_hash = header_tree[curr_hash].parent_hash;\n      }\n      return BlockLite({\n        hash: curr_hash,\n        number: int256(uint256(uint64(header_tree[curr_hash].mix >> 129)))\n      });\n    } else {\n      return BlockLite({\n        hash: committed_blocks[number],\n        number: int256(uint256(uint64(header_tree[committed_blocks[number]].mix >> 129)))\n      });\n    }\n    \n  }\n  \n  function getHeaderConfirmationStatus(bytes32 header_hash) public view returns (bool) {\n    return (header_tree[header_hash].mix & 1 == 1);\n  }\n\n  function getMainnetBlockNumber(bytes32 header_hash) public view returns (uint) {\n    return uint256(uint64(header_tree[header_hash].mix >> 1));\n  }\n\n  function getLatestBlocks() public view returns (BlockLite memory, BlockLite memory) {\n    return (\n        BlockLite({\n        hash: latest_block,\n        number: int256(uint256(uint64(header_tree[latest_block].mix >> 129)))\n      }),\n        BlockLite({\n        hash: latest_finalized_block,\n        number: int256(uint256(uint64(header_tree[latest_finalized_block].mix >> 129)))\n    }));\n  }\n\n  function getCurrentValidators() public view returns (Validators memory) {\n    return current_validators;\n  }\n}",
  "sourcePath": "/Users/sihengpan/Documents/XinFin/XDC-Subnet/mainnet_contract/contracts/Subnet.sol",
  "compiler": {
    "name": "solc",
    "version": "0.5.16+commit.9c3226ce.Emscripten.clang"
  },
  "schemaVersion": "3.4.1",
  "updatedAt": "2023-04-10T04:42:41.372Z",
  "devdoc": {
    "methods": {}
  },
  "userdoc": {
    "methods": {}
  }
}