{
  "contractName": "Subnet",
  "abi": [
    {
      "inputs": [
        {
          "internalType": "address[]",
          "name": "initial_validator_set",
          "type": "address[]"
        },
        {
          "internalType": "int256",
          "name": "threshold",
          "type": "int256"
        },
        {
          "internalType": "bytes",
          "name": "genesis_header",
          "type": "bytes"
        },
        {
          "internalType": "bytes",
          "name": "block1_header",
          "type": "bytes"
        }
      ],
      "payable": false,
      "stateMutability": "nonpayable",
      "type": "constructor"
    },
    {
      "anonymous": false,
      "inputs": [
        {
          "indexed": false,
          "internalType": "bytes32",
          "name": "block_hash",
          "type": "bytes32"
        },
        {
          "indexed": false,
          "internalType": "int256",
          "name": "number",
          "type": "int256"
        }
      ],
      "name": "SubnetBlockAccepted",
      "type": "event"
    },
    {
      "anonymous": false,
      "inputs": [
        {
          "indexed": false,
          "internalType": "bytes32",
          "name": "block_hash",
          "type": "bytes32"
        },
        {
          "indexed": false,
          "internalType": "int256",
          "name": "number",
          "type": "int256"
        }
      ],
      "name": "SubnetBlockFinalized",
      "type": "event"
    },
    {
      "constant": true,
      "inputs": [
        {
          "internalType": "address",
          "name": "master",
          "type": "address"
        }
      ],
      "name": "isMaster",
      "outputs": [
        {
          "internalType": "bool",
          "name": "",
          "type": "bool"
        }
      ],
      "payable": false,
      "stateMutability": "view",
      "type": "function"
    },
    {
      "constant": false,
      "inputs": [
        {
          "internalType": "address",
          "name": "master",
          "type": "address"
        }
      ],
      "name": "addMaster",
      "outputs": [],
      "payable": false,
      "stateMutability": "nonpayable",
      "type": "function"
    },
    {
      "constant": false,
      "inputs": [
        {
          "internalType": "address",
          "name": "master",
          "type": "address"
        }
      ],
      "name": "removeMaster",
      "outputs": [],
      "payable": false,
      "stateMutability": "nonpayable",
      "type": "function"
    },
    {
      "constant": false,
      "inputs": [
        {
          "internalType": "bytes",
          "name": "header",
          "type": "bytes"
        }
      ],
      "name": "receiveHeader",
      "outputs": [],
      "payable": false,
      "stateMutability": "nonpayable",
      "type": "function"
    },
    {
      "constant": true,
      "inputs": [
        {
          "internalType": "bytes32",
          "name": "header_hash",
          "type": "bytes32"
        }
      ],
      "name": "getHeader",
      "outputs": [
        {
          "internalType": "bytes",
          "name": "",
          "type": "bytes"
        }
      ],
      "payable": false,
      "stateMutability": "view",
      "type": "function"
    },
    {
      "constant": true,
      "inputs": [
        {
          "internalType": "bytes32",
          "name": "header_hash",
          "type": "bytes32"
        }
      ],
      "name": "getHeaderConfirmationStatus",
      "outputs": [
        {
          "internalType": "bool",
          "name": "",
          "type": "bool"
        }
      ],
      "payable": false,
      "stateMutability": "view",
      "type": "function"
    },
    {
      "constant": true,
      "inputs": [
        {
          "internalType": "bytes32",
          "name": "header_hash",
          "type": "bytes32"
        }
      ],
      "name": "getMainnetBlockNumber",
      "outputs": [
        {
          "internalType": "uint256",
          "name": "",
          "type": "uint256"
        }
      ],
      "payable": false,
      "stateMutability": "view",
      "type": "function"
    },
    {
      "constant": true,
      "inputs": [],
      "name": "getLatestBlock",
      "outputs": [
        {
          "components": [
            {
              "internalType": "bytes32",
              "name": "hash",
              "type": "bytes32"
            },
            {
              "internalType": "int256",
              "name": "number",
              "type": "int256"
            }
          ],
          "internalType": "struct Subnet.BlockLite",
          "name": "",
          "type": "tuple"
        }
      ],
      "payable": false,
      "stateMutability": "view",
      "type": "function"
    },
    {
      "constant": true,
      "inputs": [],
      "name": "getCurrentValidators",
      "outputs": [
        {
          "components": [
            {
              "internalType": "address[]",
              "name": "set",
              "type": "address[]"
            },
            {
              "internalType": "int256",
              "name": "threshold",
              "type": "int256"
            }
          ],
          "internalType": "struct Subnet.Validators",
          "name": "",
          "type": "tuple"
        }
      ],
      "payable": false,
      "stateMutability": "view",
      "type": "function"
    }
  ],
  "bytecode": "0x60806040523480156200001157600080fd5b5060405162002b1738038062002b178339818101604052620000379190810190620007eb565b60008451116200007e576040517f08c379a0000000000000000000000000000000000000000000000000000000008152600401620000759062000a22565b60405180910390fd5b60008313620000c4576040517f08c379a0000000000000000000000000000000000000000000000000000000008152600401620000bb9062000a44565b60405180910390fd5b60008280519060200120905060008280519060200120905060008073__HeaderReader__________________________63dc9e408b876040518263ffffffff1660e01b8152600401620001189190620009fe565b604080518083038186803b1580156200013057600080fd5b505af415801562000145573d6000803e3d6000fd5b505050506040513d601f19601f820116820180604052506200016b9190810190620008a2565b91509150600080600073__HeaderReader__________________________63be7558c0896040518263ffffffff1660e01b8152600401620001ad9190620009fe565b60606040518083038186803b158015620001c657600080fd5b505af4158015620001db573d6000803e3d6000fd5b505050506040513d601f19601f82011682018060405250620002019190810190620008e3565b9250925092506040518060e00160405280888152602001858152602001600067ffffffffffffffff1681526020018681526020016001151581526020014381526020018a815250600080898152602001908152602001600020600082015181600001556020820151816001015560408201518160020160006101000a81548167ffffffffffffffff021916908367ffffffffffffffff1602179055506060820151816003015560808201518160040160006101000a81548160ff02191690831515021790555060a0820151816005015560c0820151816006019080519060200190620002ef92919062000522565b509050506040518060e001604052808781526020018381526020018267ffffffffffffffff16815260200184815260200160011515815260200143815260200189815250600080888152602001908152602001600020600082015181600001556020820151816001015560408201518160020160006101000a81548167ffffffffffffffff021916908367ffffffffffffffff1602179055506060820151816003015560808201518160040160006101000a81548160ff02191690831515021790555060a0820151816005015560c0820151816006019080519060200190620003da92919062000522565b5090505060405180604001604052808c81526020018b8152506004600082015181600001908051906020019062000413929190620005a9565b506020820151816001015590505060008090505b8b51811015620004aa5760018060008e84815181106200044357fe5b602002602001015173ffffffffffffffffffffffffffffffffffffffff1673ffffffffffffffffffffffffffffffffffffffff16815260200190815260200160002060006101000a81548160ff021916908315150217905550808060010191505062000427565b506001600360003373ffffffffffffffffffffffffffffffffffffffff1673ffffffffffffffffffffffffffffffffffffffff16815260200190815260200160002060006101000a81548160ff0219169083151502179055508560088190555085600981905550505050505050505050505062000c22565b828054600181600116156101000203166002900490600052602060002090601f016020900481019282601f106200056557805160ff191683800117855562000596565b8280016001018555821562000596579182015b828111156200059557825182559160200191906001019062000578565b5b509050620005a5919062000638565b5090565b82805482825590600052602060002090810192821562000625579160200282015b82811115620006245782518260006101000a81548173ffffffffffffffffffffffffffffffffffffffff021916908373ffffffffffffffffffffffffffffffffffffffff16021790555091602001919060010190620005ca565b5b50905062000634919062000660565b5090565b6200065d91905b80821115620006595760008160009055506001016200063f565b5090565b90565b620006a391905b808211156200069f57600081816101000a81549073ffffffffffffffffffffffffffffffffffffffff02191690555060010162000667565b5090565b90565b600081519050620006b78162000bba565b92915050565b600082601f830112620006cf57600080fd5b8151620006e6620006e08262000a94565b62000a66565b915081818352602084019350602081019050838560208402820111156200070c57600080fd5b60005b83811015620007405781620007258882620006a6565b8452602084019350602083019250506001810190506200070f565b5050505092915050565b6000815190506200075b8162000bd4565b92915050565b600082601f8301126200077357600080fd5b81516200078a620007848262000abd565b62000a66565b91508082526020830160208301858383011115620007a757600080fd5b620007b483828462000b73565b50505092915050565b600081519050620007ce8162000bee565b92915050565b600081519050620007e58162000c08565b92915050565b600080600080608085870312156200080257600080fd5b600085015167ffffffffffffffff8111156200081d57600080fd5b6200082b87828801620006bd565b94505060206200083e87828801620007bd565b935050604085015167ffffffffffffffff8111156200085c57600080fd5b6200086a8782880162000761565b925050606085015167ffffffffffffffff8111156200088857600080fd5b620008968782880162000761565b91505092959194509250565b60008060408385031215620008b657600080fd5b6000620008c6858286016200074a565b9250506020620008d985828601620007bd565b9150509250929050565b600080600060608486031215620008f957600080fd5b600062000909868287016200074a565b93505060206200091c86828701620007bd565b92505060406200092f86828701620007d4565b9150509250925092565b6000620009468262000aea565b62000952818562000af5565b93506200096481856020860162000b73565b6200096f8162000ba9565b840191505092915050565b600062000989600f8362000b06565b91507f56616c696461746f7220456d70747900000000000000000000000000000000006000830152602082019050919050565b6000620009cb60118362000b06565b91507f496e76616c6964205468726573686f6c640000000000000000000000000000006000830152602082019050919050565b6000602082019050818103600083015262000a1a818462000939565b905092915050565b6000602082019050818103600083015262000a3d816200097a565b9050919050565b6000602082019050818103600083015262000a5f81620009bc565b9050919050565b6000604051905081810181811067ffffffffffffffff8211171562000a8a57600080fd5b8060405250919050565b600067ffffffffffffffff82111562000aac57600080fd5b602082029050602081019050919050565b600067ffffffffffffffff82111562000ad557600080fd5b601f19601f8301169050602081019050919050565b600081519050919050565b600082825260208201905092915050565b600082825260208201905092915050565b600062000b248262000b3f565b9050919050565b6000819050919050565b6000819050919050565b600073ffffffffffffffffffffffffffffffffffffffff82169050919050565b600067ffffffffffffffff82169050919050565b60005b8381101562000b9357808201518184015260208101905062000b76565b8381111562000ba3576000848401525b50505050565b6000601f19601f8301169050919050565b62000bc58162000b17565b811462000bd157600080fd5b50565b62000bdf8162000b2b565b811462000beb57600080fd5b50565b62000bf98162000b35565b811462000c0557600080fd5b50565b62000c138162000b5f565b811462000c1f57600080fd5b50565b611ee58062000c326000396000f3fe608060405234801561001057600080fd5b50600436106100935760003560e01c8063884bdd8611610066578063884bdd8614610132578063b96158781461014e578063c5f9dff01461017e578063e2a2f0a31461019c578063f720f80b146101b857610093565b80631097d54a1461009857806361d6f78a146100b45780636c624a5f146100d25780636fed6f8314610102575b600080fd5b6100b260048036036100ad9190810190611439565b6101e8565b005b6100bc6102cf565b6040516100c99190611bd2565b60405180910390f35b6100ec60048036036100e791908101906114ce565b61030a565b6040516100f991906119e5565b60405180910390f35b61011c600480360361011791908101906114ce565b610336565b6040516101299190611c0f565b60405180910390f35b61014c60048036036101479190810190611598565b610355565b005b610168600480360361016391908101906114ce565b610db7565b6040516101759190611a6e565b60405180910390f35b610186610e6e565b6040516101939190611bed565b60405180910390f35b6101b660048036036101b19190810190611439565b610f20565b005b6101d260048036036101cd9190810190611439565b611007565b6040516101df91906119e5565b60405180910390f35b600360003373ffffffffffffffffffffffffffffffffffffffff1673ffffffffffffffffffffffffffffffffffffffff16815260200190815260200160002060009054906101000a900460ff16610274576040517f08c379a000000000000000000000000000000000000000000000000000000000815260040161026b90611b72565b60405180910390fd5b6001600360008373ffffffffffffffffffffffffffffffffffffffff1673ffffffffffffffffffffffffffffffffffffffff16815260200190815260200160002060006101000a81548160ff02191690831515021790555050565b6102d7611140565b60405180604001604052806009548152602001600080600954815260200190815260200160002060010154815250905090565b600080600083815260200190815260200160002060040160009054906101000a900460ff169050919050565b6000806000838152602001908152602001600020600501549050919050565b600360003373ffffffffffffffffffffffffffffffffffffffff1673ffffffffffffffffffffffffffffffffffffffff16815260200190815260200160002060009054906101000a900460ff166103e1576040517f08c379a00000000000000000000000000000000000000000000000000000000081526004016103d890611b72565b60405180910390fd5b6000806000806000606073__HeaderReader__________________________6344e06ed4886040518263ffffffff1660e01b81526004016104229190611a90565b60006040518083038186803b15801561043a57600080fd5b505af415801561044e573d6000803e3d6000fd5b505050506040513d6000823e3d601f19601f8201168201806040525061047791908101906114f7565b95509550955095509550955060608073__HeaderReader__________________________63750a2ae58a6040518263ffffffff1660e01b81526004016104bd9190611a90565b60006040518083038186803b1580156104d557600080fd5b505af41580156104e9573d6000803e3d6000fd5b505050506040513d6000823e3d601f19601f820116820180604052506105129190810190611462565b9150915060008713610559576040517f08c379a000000000000000000000000000000000000000000000000000000000815260040161055090611b92565b60405180910390fd5b6000801b6000808a81526020019081526020016000206000015414156105b4576040517f08c379a00000000000000000000000000000000000000000000000000000000081526004016105ab90611ab2565b60405180910390fd5b8660016000808b815260200190815260200160002060010154011461060e576040517f08c379a000000000000000000000000000000000000000000000000000000000815260040161060590611af2565b60405180910390fd5b8567ffffffffffffffff166000808a815260200190815260200160002060020160009054906101000a900467ffffffffffffffff1667ffffffffffffffff161061068d576040517f08c379a000000000000000000000000000000000000000000000000000000000815260040161068490611bb2565b60405180910390fd5b8467ffffffffffffffff166000808a815260200190815260200160002060020160009054906101000a900467ffffffffffffffff1667ffffffffffffffff161461070c576040517f08c379a000000000000000000000000000000000000000000000000000000000815260040161070390611b32565b60405180910390fd5b6000898051906020012090506000806000838152602001908152602001600020600101541315610771576040517f08c379a000000000000000000000000000000000000000000000000000000000815260040161076890611ad2565b60405180910390fd5b6000809050606085516040519080825280602002602001820160405280156107a85781602001602082028038833980820191505090505b50905060008090505b86518110156109b45760006107d9898984815181106107cc57fe5b602002602001015161105d565b905060011515600160008373ffffffffffffffffffffffffffffffffffffffff1673ffffffffffffffffffffffffffffffffffffffff16815260200190815260200160002060009054906101000a900460ff1615151461086e576040517f08c379a000000000000000000000000000000000000000000000000000000000815260040161086590611b12565b60405180910390fd5b600260008273ffffffffffffffffffffffffffffffffffffffff1673ffffffffffffffffffffffffffffffffffffffff16815260200190815260200160002060009054906101000a900460ff166109245783806001019450506001600260008373ffffffffffffffffffffffffffffffffffffffff1673ffffffffffffffffffffffffffffffffffffffff16815260200190815260200160002060006101000a81548160ff02191690831515021790555061095f565b6040517f08c379a000000000000000000000000000000000000000000000000000000000815260040161095690611b12565b60405180910390fd5b8083838151811061096c57fe5b602002602001019073ffffffffffffffffffffffffffffffffffffffff16908173ffffffffffffffffffffffffffffffffffffffff16815250505080806001019150506107b1565b5060008090505b8151811015610a3c576000600260008484815181106109d657fe5b602002602001015173ffffffffffffffffffffffffffffffffffffffff1673ffffffffffffffffffffffffffffffffffffffff16815260200190815260200160002060006101000a81548160ff02191690831515021790555080806001019150506109bb565b50600460010154821215610a85576040517f08c379a0000000000000000000000000000000000000000000000000000000008152600401610a7c90611b12565b60405180910390fd5b6040518060e001604052808481526020018b81526020018a67ffffffffffffffff1681526020018c81526020016000151581526020014381526020018d815250600080858152602001908152602001600020600082015181600001556020820151816001015560408201518160020160006101000a81548167ffffffffffffffff021916908367ffffffffffffffff1602179055506060820151816003015560808201518160040160006101000a81548160ff02191690831515021790555060a0820151816005015560c0820151816006019080519060200190610b6a92919061115d565b509050507fc92de1e80780c8f239052c833b238f36e1f1f03c09628a198cefab0ed37d2b23838b604051610b9f929190611a00565b60405180910390a1600080600854815260200190815260200160002060010154600080858152602001908152602001600020600101541315610be357826008819055505b600083905060008090505b6003811015610cd7576000801b600080848152602001908152602001600020600301541415610c295750505050505050505050505050610db4565b6000806000848152602001908152602001600020600301549050600160008083815260200190815260200160002060020160009054906101000a900467ffffffffffffffff160167ffffffffffffffff1660008085815260200190815260200160002060020160009054906101000a900467ffffffffffffffff1667ffffffffffffffff1614610cc6575050505050505050505050505050610db4565b809250508080600101915050610bee565b50806009819055505b6001151560008083815260200190815260200160002060040160009054906101000a900460ff16151514610da757600160008083815260200190815260200160002060040160006101000a81548160ff0219169083151502179055507fc87258113ecbd0404f86cc5c0155894cfc47dae8fadab01aa8eefe5b5b40bdbb8160008084815260200190815260200160002060010154604051610d82929190611a00565b60405180910390a1600080828152602001908152602001600020600301549050610ce0565b5050505050505050505050505b50565b60606000808381526020019081526020016000206006018054600181600116156101000203166002900480601f016020809104026020016040519081016040528092919081815260200182805460018160011615610100020316600290048015610e625780601f10610e3757610100808354040283529160200191610e62565b820191906000526020600020905b815481529060010190602001808311610e4557829003601f168201915b50505050509050919050565b610e766111dd565b600460405180604001604052908160008201805480602002602001604051908101604052809291908181526020018280548015610f0857602002820191906000526020600020905b8160009054906101000a900473ffffffffffffffffffffffffffffffffffffffff1673ffffffffffffffffffffffffffffffffffffffff1681526020019060010190808311610ebe575b50505050508152602001600182015481525050905090565b600360003373ffffffffffffffffffffffffffffffffffffffff1673ffffffffffffffffffffffffffffffffffffffff16815260200190815260200160002060009054906101000a900460ff16610fac576040517f08c379a0000000000000000000000000000000000000000000000000000000008152600401610fa390611b72565b60405180910390fd5b6000600360008373ffffffffffffffffffffffffffffffffffffffff1673ffffffffffffffffffffffffffffffffffffffff16815260200190815260200160002060006101000a81548160ff02191690831515021790555050565b6000600360008373ffffffffffffffffffffffffffffffffffffffff1673ffffffffffffffffffffffffffffffffffffffff16815260200190815260200160002060009054906101000a900460ff169050919050565b60008060008061106c856110cc565b925092509250600186848484604051600081526020016040526040516110959493929190611a29565b6020604051602081039080840390855afa1580156110b7573d6000803e3d6000fd5b50505060206040510351935050505092915050565b60008060006041845114611115576040517f08c379a000000000000000000000000000000000000000000000000000000000815260040161110c90611b52565b60405180910390fd5b6020840151915060408401519050606084015160001a9250601b830182829250925092509193909250565b604051806040016040528060008019168152602001600081525090565b828054600181600116156101000203166002900490600052602060002090601f016020900481019282601f1061119e57805160ff19168380011785556111cc565b828001600101855582156111cc579182015b828111156111cb5782518255916020019190600101906111b0565b5b5090506111d991906111f7565b5090565b604051806040016040528060608152602001600081525090565b61121991905b808211156112155760008160009055506001016111fd565b5090565b90565b60008135905061122b81611e46565b92915050565b60008151905061124081611e46565b92915050565b600082601f83011261125757600080fd5b815161126a61126582611c57565b611c2a565b9150818183526020840193506020810190508385602084028201111561128f57600080fd5b60005b838110156112bf57816112a58882611231565b845260208401935060208301925050600181019050611292565b5050505092915050565b600082601f8301126112da57600080fd5b81516112ed6112e882611c7f565b611c2a565b9150818183526020840193506020810190508360005b8381101561133357815186016113198882611367565b845260208401935060208301925050600181019050611303565b5050505092915050565b60008135905061134c81611e5d565b92915050565b60008151905061136181611e5d565b92915050565b600082601f83011261137857600080fd5b815161138b61138682611ca7565b611c2a565b915080825260208301602083018583830111156113a757600080fd5b6113b2838284611e02565b50505092915050565b600082601f8301126113cc57600080fd5b81356113df6113da82611cd3565b611c2a565b915080825260208301602083018583830111156113fb57600080fd5b611406838284611df3565b50505092915050565b60008151905061141e81611e74565b92915050565b60008151905061143381611e8b565b92915050565b60006020828403121561144b57600080fd5b60006114598482850161121c565b91505092915050565b6000806040838503121561147557600080fd5b600083015167ffffffffffffffff81111561148f57600080fd5b61149b85828601611246565b925050602083015167ffffffffffffffff8111156114b857600080fd5b6114c485828601611246565b9150509250929050565b6000602082840312156114e057600080fd5b60006114ee8482850161133d565b91505092915050565b60008060008060008060c0878903121561151057600080fd5b600061151e89828a01611352565b965050602061152f89828a0161140f565b955050604061154089828a01611424565b945050606061155189828a01611424565b935050608061156289828a01611352565b92505060a087015167ffffffffffffffff81111561157f57600080fd5b61158b89828a016112c9565b9150509295509295509295565b6000602082840312156115aa57600080fd5b600082013567ffffffffffffffff8111156115c457600080fd5b6115d0848285016113bb565b91505092915050565b60006115e583836115f1565b60208301905092915050565b6115fa81611d76565b82525050565b600061160b82611d0f565b6116158185611d32565b935061162083611cff565b8060005b8381101561165157815161163888826115d9565b975061164383611d25565b925050600181019050611624565b5085935050505092915050565b61166781611d88565b82525050565b61167681611d94565b82525050565b61168581611d94565b82525050565b600061169682611d1a565b6116a08185611d43565b93506116b0818560208601611e02565b6116b981611e35565b840191505092915050565b60006116cf82611d1a565b6116d98185611d54565b93506116e9818560208601611e02565b6116f281611e35565b840191505092915050565b61170681611d9e565b82525050565b61171581611d9e565b82525050565b6000611728600e83611d65565b91507f506172656e74204d697373696e670000000000000000000000000000000000006000830152602082019050919050565b6000611768600f83611d65565b91507f52657065617465642048656164657200000000000000000000000000000000006000830152602082019050919050565b60006117a8600983611d65565b91507f496e76616c6964204e00000000000000000000000000000000000000000000006000830152602082019050919050565b60006117e8601183611d65565b91507f566572696669636174696f6e204661696c0000000000000000000000000000006000830152602082019050919050565b6000611828600b83611d65565b91507f496e76616c69642050524e0000000000000000000000000000000000000000006000830152602082019050919050565b6000611868601183611d65565b91507f496e76616c6964205369676e61747572650000000000000000000000000000006000830152602082019050919050565b60006118a8600c83611d65565b91507f4d617374657273204f6e6c7900000000000000000000000000000000000000006000830152602082019050919050565b60006118e8601083611d65565b91507f52657065617465642047656e65736973000000000000000000000000000000006000830152602082019050919050565b6000611928600a83611d65565b91507f496e76616c696420524e000000000000000000000000000000000000000000006000830152602082019050919050565b604082016000820151611971600085018261166d565b50602082015161198460208501826116fd565b50505050565b600060408301600083015184820360008601526119a78282611600565b91505060208301516119bc60208601826116fd565b508091505092915050565b6119d081611dc8565b82525050565b6119df81611de6565b82525050565b60006020820190506119fa600083018461165e565b92915050565b6000604082019050611a15600083018561167c565b611a22602083018461170c565b9392505050565b6000608082019050611a3e600083018761167c565b611a4b60208301866119d6565b611a58604083018561167c565b611a65606083018461167c565b95945050505050565b60006020820190508181036000830152611a88818461168b565b905092915050565b60006020820190508181036000830152611aaa81846116c4565b905092915050565b60006020820190508181036000830152611acb8161171b565b9050919050565b60006020820190508181036000830152611aeb8161175b565b9050919050565b60006020820190508181036000830152611b0b8161179b565b9050919050565b60006020820190508181036000830152611b2b816117db565b9050919050565b60006020820190508181036000830152611b4b8161181b565b9050919050565b60006020820190508181036000830152611b6b8161185b565b9050919050565b60006020820190508181036000830152611b8b8161189b565b9050919050565b60006020820190508181036000830152611bab816118db565b9050919050565b60006020820190508181036000830152611bcb8161191b565b9050919050565b6000604082019050611be7600083018461195b565b92915050565b60006020820190508181036000830152611c07818461198a565b905092915050565b6000602082019050611c2460008301846119c7565b92915050565b6000604051905081810181811067ffffffffffffffff82111715611c4d57600080fd5b8060405250919050565b600067ffffffffffffffff821115611c6e57600080fd5b602082029050602081019050919050565b600067ffffffffffffffff821115611c9657600080fd5b602082029050602081019050919050565b600067ffffffffffffffff821115611cbe57600080fd5b601f19601f8301169050602081019050919050565b600067ffffffffffffffff821115611cea57600080fd5b601f19601f8301169050602081019050919050565b6000819050602082019050919050565b600081519050919050565b600081519050919050565b6000602082019050919050565b600082825260208201905092915050565b600082825260208201905092915050565b600082825260208201905092915050565b600082825260208201905092915050565b6000611d8182611da8565b9050919050565b60008115159050919050565b6000819050919050565b6000819050919050565b600073ffffffffffffffffffffffffffffffffffffffff82169050919050565b6000819050919050565b600067ffffffffffffffff82169050919050565b600060ff82169050919050565b82818337600083830152505050565b60005b83811015611e20578082015181840152602081019050611e05565b83811115611e2f576000848401525b50505050565b6000601f19601f8301169050919050565b611e4f81611d76565b8114611e5a57600080fd5b50565b611e6681611d94565b8114611e7157600080fd5b50565b611e7d81611d9e565b8114611e8857600080fd5b50565b611e9481611dd2565b8114611e9f57600080fd5b5056fea365627a7a723158206541c5da1f81494f3aad1bf1c1a46a8cb04e87c076a4cbbfc4ab40e742a4f7306c6578706572696d656e74616cf564736f6c63430005100040",
  "source": "// SPDX-License-Identifier: MIT\npragma solidity >=0.4.21 <0.9.0;\npragma experimental ABIEncoderV2;\n\nimport \"./HeaderReader.sol\";\n\ncontract Subnet {\n\n  struct Header {\n    bytes32 hash;\n    int number;\n    uint64 round_num;\n    bytes32 parent_hash;\n    bool finalized;\n    uint mainnet_num;\n    bytes src;\n  }\n\n  struct Validators {\n    address[] set;\n    int threshold;\n  }\n\n  struct BlockLite {\n    bytes32 hash;\n    int number;\n  }\n\n  mapping(bytes32 => Header) header_tree;\n  mapping(address => bool) lookup;\n  mapping(address => bool) unique_addr;\n  mapping(address => bool) masters;\n  Validators current_validators;\n  Validators next_validators;\n  bytes32 latest_block;\n  bytes32 latest_finalized_block;\n\n  // Event types\n  event SubnetBlockAccepted(bytes32 block_hash, int number);\n  event SubnetBlockFinalized(bytes32 block_hash, int number);\n\n  // Modifier\n  modifier onlyMasters() {\n    if (!masters[msg.sender]) revert(\"Masters Only\");\n    _;\n  }\n\n  constructor(\n    address[] memory initial_validator_set,\n    int threshold,\n    bytes memory genesis_header,\n    bytes memory block1_header\n  ) public {\n    require(initial_validator_set.length > 0, \"Validator Empty\");\n    require(threshold > 0, \"Invalid Threshold\");\n    bytes32 genesis_header_hash = keccak256(genesis_header);\n    bytes32 block1_header_hash = keccak256(block1_header);\n    (bytes32 ph, int n) = HeaderReader.getParentHashAndNumber(genesis_header);\n    (bytes32 ph1, int n1, uint64 rn) = HeaderReader.getBlock1Params(block1_header);\n    header_tree[genesis_header_hash] = Header({\n      hash: genesis_header_hash,\n      number: n,\n      round_num: 0, \n      parent_hash: ph,\n      finalized: true,\n      mainnet_num: block.number,\n      src: genesis_header\n    });\n    header_tree[block1_header_hash] = Header({\n      hash: block1_header_hash,\n      number: n1,\n      round_num: rn, \n      parent_hash: ph1,\n      finalized: true,\n      mainnet_num: block.number,\n      src: block1_header\n    });\n    current_validators = Validators({\n      set: initial_validator_set,\n      threshold: threshold\n    });\n    for (uint i = 0; i < initial_validator_set.length; i++) {\n      lookup[initial_validator_set[i]] = true;\n    }\n    masters[msg.sender] = true;\n    latest_block = block1_header_hash;\n    latest_finalized_block = block1_header_hash;\n  }\n\n  function isMaster(address master) public view returns (bool) {\n    return masters[master];\n  }\n\n  function addMaster(address master) public onlyMasters {\n    masters[master] = true;\n  }\n\n  function removeMaster(address master) public onlyMasters {\n    masters[master] = false;\n  }\n\n  function receiveHeader(bytes memory header) public onlyMasters { \n    (\n      bytes32 parent_hash,\n      int number,\n      uint64 round_number,\n      uint64 prev_round_number,\n      bytes32 signHash,\n      bytes[] memory sigs\n    ) = HeaderReader.getValidationParams(header);\n    (\n      address[] memory current,\n      address[] memory next\n    ) = HeaderReader.getEpoch(header);\n\n    require(number > 0, \"Repeated Genesis\");\n    require(header_tree[parent_hash].hash != 0, \"Parent Missing\");\n    require(header_tree[parent_hash].number + 1 == number, \"Invalid N\");\n    require(header_tree[parent_hash].round_num < round_number, \"Invalid RN\");\n    require(header_tree[parent_hash].round_num == prev_round_number, \"Invalid PRN\");\n    bytes32 block_hash = keccak256(header);\n    if (header_tree[block_hash].number > 0) \n      revert(\"Repeated Header\");\n    // if (validator_sets[number].set.length > 0) {\n    //   for (uint i = 0; i < validator_sets[current_validator_set_pointer].set.length; i++) {\n    //     lookup[validator_sets[current_validator_set_pointer].set[i]] = false;\n    //   }\n    //   for (uint i = 0; i < validator_sets[number].set.length; i++) {\n    //     lookup[validator_sets[number].set[i]] = true;\n    //   }\n    //   current_validator_set_pointer = number;\n    // }\n\n    int unique_counter = 0;\n    address[] memory signer_list = new address[](sigs.length);\n    for (uint i = 0; i < sigs.length; i++) {\n      address signer = recoverSigner(signHash, sigs[i]);\n      if (lookup[signer] != true) {\n        revert(\"Verification Fail\");\n      }\n      if (!unique_addr[signer]) {\n        unique_counter ++;\n        unique_addr[signer]=true;\n      } else {\n        revert(\"Verification Fail\");\n      }\n      signer_list[i] = signer;\n    }\n    for (uint i = 0; i < signer_list.length; i++) {\n      unique_addr[signer_list[i]] = false;\n    }\n    if (unique_counter < current_validators.threshold) {\n      revert(\"Verification Fail\");\n    }\n    header_tree[block_hash] = Header({\n      hash: block_hash,\n      number: number,\n      round_num: round_number,\n      parent_hash: parent_hash,\n      finalized: false,\n      mainnet_num: block.number,\n      src: header\n    });\n    emit SubnetBlockAccepted(block_hash, number);\n    if (header_tree[block_hash].number > header_tree[latest_block].number) {\n      latest_block = block_hash;\n    }\n    // Look for 3 consecutive round\n    bytes32 curr_hash = block_hash;\n    for (uint i = 0; i < 3; i++) {\n      if (header_tree[curr_hash].parent_hash == 0) return;\n      bytes32 prev_hash = header_tree[curr_hash].parent_hash;\n      if (header_tree[curr_hash].round_num != header_tree[prev_hash].round_num+1) return;\n      curr_hash = prev_hash;\n    }\n    latest_finalized_block = curr_hash;\n    // Confirm all ancestor unconfirmed block\n    while (header_tree[curr_hash].finalized != true) {\n      header_tree[curr_hash].finalized = true;\n      emit SubnetBlockFinalized(curr_hash, header_tree[curr_hash].number);\n      curr_hash = header_tree[curr_hash].parent_hash;\n    }\n  }\n\n  /// signature methods.\n  function splitSignature(bytes memory sig)\n    internal\n    pure\n    returns (uint8 v, bytes32 r, bytes32 s)\n  {\n    require(sig.length == 65, \"Invalid Signature\");\n    assembly {\n      // first 32 bytes, after the length prefix.\n      r := mload(add(sig, 32))\n      // second 32 bytes.\n      s := mload(add(sig, 64))\n      // final byte (first byte of the next 32 bytes).\n      v := byte(0, mload(add(sig, 96)))\n    }\n    // TOCHECK: v needs 27 more, may related with EIP1559\n    return (v+27, r, s);\n  }\n\n  function recoverSigner(bytes32 message, bytes memory sig)\n    internal\n    pure\n    returns (address)\n  {\n    (uint8 v, bytes32 r, bytes32 s) = splitSignature(sig);\n    return ecrecover(message, v, r, s);\n  }\n\n  function getHeader(bytes32 header_hash) public view returns (bytes memory) {\n    return header_tree[header_hash].src;\n  }\n  \n  function getHeaderConfirmationStatus(bytes32 header_hash) public view returns (bool) {\n    return header_tree[header_hash].finalized;\n  }\n\n  function getMainnetBlockNumber(bytes32 header_hash) public view returns (uint) {\n    return header_tree[header_hash].mainnet_num;\n  }\n\n  function getLatestBlock() public view returns (BlockLite memory) {\n    return BlockLite({\n      hash: latest_finalized_block,\n      number: header_tree[latest_finalized_block].number\n    });\n  }\n\n  function getCurrentValidators() public view returns (Validators memory) {\n    return current_validators;\n  }\n}",
  "sourcePath": "/Users/sihengpan/Documents/XinFin/XDC-Subnet/mainnet_contract/contracts/Subnet.sol",
  "compiler": {
    "name": "solc",
    "version": "0.5.16+commit.9c3226ce.Emscripten.clang"
  },
  "schemaVersion": "3.4.1",
  "updatedAt": "2023-02-27T04:23:20.600Z",
  "devdoc": {
    "methods": {}
  },
  "userdoc": {
    "methods": {}
  }
}