{
  "contractName": "Subnet",
  "abi": [
    {
      "inputs": [
        {
          "internalType": "address[]",
          "name": "initial_validator_set",
          "type": "address[]"
        },
        {
          "internalType": "int256",
          "name": "threshold",
          "type": "int256"
        },
        {
          "internalType": "bytes",
          "name": "genesis_header",
          "type": "bytes"
        },
        {
          "internalType": "bytes",
          "name": "block1_header",
          "type": "bytes"
        }
      ],
      "payable": false,
      "stateMutability": "nonpayable",
      "type": "constructor"
    },
    {
      "anonymous": false,
      "inputs": [
        {
          "indexed": false,
          "internalType": "bytes32",
          "name": "block_hash",
          "type": "bytes32"
        },
        {
          "indexed": false,
          "internalType": "int256",
          "name": "number",
          "type": "int256"
        }
      ],
      "name": "SubnetBlockAccepted",
      "type": "event"
    },
    {
      "anonymous": false,
      "inputs": [
        {
          "indexed": false,
          "internalType": "bytes32",
          "name": "block_hash",
          "type": "bytes32"
        },
        {
          "indexed": false,
          "internalType": "int256",
          "name": "number",
          "type": "int256"
        }
      ],
      "name": "SubnetBlockFinalized",
      "type": "event"
    },
    {
      "constant": true,
      "inputs": [
        {
          "internalType": "address",
          "name": "master",
          "type": "address"
        }
      ],
      "name": "isMaster",
      "outputs": [
        {
          "internalType": "bool",
          "name": "",
          "type": "bool"
        }
      ],
      "payable": false,
      "stateMutability": "view",
      "type": "function"
    },
    {
      "constant": false,
      "inputs": [
        {
          "internalType": "address",
          "name": "master",
          "type": "address"
        }
      ],
      "name": "addMaster",
      "outputs": [],
      "payable": false,
      "stateMutability": "nonpayable",
      "type": "function"
    },
    {
      "constant": false,
      "inputs": [
        {
          "internalType": "address",
          "name": "master",
          "type": "address"
        }
      ],
      "name": "removeMaster",
      "outputs": [],
      "payable": false,
      "stateMutability": "nonpayable",
      "type": "function"
    },
    {
      "constant": false,
      "inputs": [
        {
          "internalType": "address[]",
          "name": "new_validator_set",
          "type": "address[]"
        },
        {
          "internalType": "int256",
          "name": "threshold",
          "type": "int256"
        },
        {
          "internalType": "int256",
          "name": "subnet_block_height",
          "type": "int256"
        }
      ],
      "name": "reviseValidatorSet",
      "outputs": [],
      "payable": false,
      "stateMutability": "nonpayable",
      "type": "function"
    },
    {
      "constant": false,
      "inputs": [
        {
          "internalType": "bytes",
          "name": "header",
          "type": "bytes"
        }
      ],
      "name": "receiveHeader",
      "outputs": [],
      "payable": false,
      "stateMutability": "nonpayable",
      "type": "function"
    },
    {
      "constant": true,
      "inputs": [
        {
          "internalType": "bytes32",
          "name": "header_hash",
          "type": "bytes32"
        }
      ],
      "name": "getHeader",
      "outputs": [
        {
          "internalType": "bytes",
          "name": "",
          "type": "bytes"
        }
      ],
      "payable": false,
      "stateMutability": "view",
      "type": "function"
    },
    {
      "constant": true,
      "inputs": [
        {
          "internalType": "bytes32",
          "name": "header_hash",
          "type": "bytes32"
        }
      ],
      "name": "getHeaderConfirmationStatus",
      "outputs": [
        {
          "internalType": "bool",
          "name": "",
          "type": "bool"
        }
      ],
      "payable": false,
      "stateMutability": "view",
      "type": "function"
    },
    {
      "constant": true,
      "inputs": [
        {
          "internalType": "bytes32",
          "name": "header_hash",
          "type": "bytes32"
        }
      ],
      "name": "getMainnetBlockNumber",
      "outputs": [
        {
          "internalType": "uint256",
          "name": "",
          "type": "uint256"
        }
      ],
      "payable": false,
      "stateMutability": "view",
      "type": "function"
    },
    {
      "constant": true,
      "inputs": [],
      "name": "getLatestFinalizedBlock",
      "outputs": [
        {
          "internalType": "bytes32",
          "name": "",
          "type": "bytes32"
        }
      ],
      "payable": false,
      "stateMutability": "view",
      "type": "function"
    },
    {
      "constant": true,
      "inputs": [
        {
          "internalType": "int256",
          "name": "height",
          "type": "int256"
        }
      ],
      "name": "getValidatorSet",
      "outputs": [
        {
          "internalType": "address[]",
          "name": "res",
          "type": "address[]"
        }
      ],
      "payable": false,
      "stateMutability": "view",
      "type": "function"
    },
    {
      "constant": true,
      "inputs": [
        {
          "internalType": "int256",
          "name": "height",
          "type": "int256"
        }
      ],
      "name": "getValidatorThreshold",
      "outputs": [
        {
          "internalType": "int256",
          "name": "res",
          "type": "int256"
        }
      ],
      "payable": false,
      "stateMutability": "view",
      "type": "function"
    }
  ],
  "bytecode": "0x608060405260006005553480156200001657600080fd5b50604051620030d5380380620030d583398181016040526200003c9190810190620007fb565b600084511162000083576040517f08c379a00000000000000000000000000000000000000000000000000000000081526004016200007a9062000a32565b60405180910390fd5b60008313620000c9576040517f08c379a0000000000000000000000000000000000000000000000000000000008152600401620000c09062000a54565b60405180910390fd5b60008280519060200120905060008280519060200120905060008073__HeaderReader__________________________63dc9e408b876040518263ffffffff1660e01b81526004016200011d919062000a0e565b604080518083038186803b1580156200013557600080fd5b505af41580156200014a573d6000803e3d6000fd5b505050506040513d601f19601f82011682018060405250620001709190810190620008b2565b91509150600080600073__HeaderReader__________________________63be7558c0896040518263ffffffff1660e01b8152600401620001b2919062000a0e565b60606040518083038186803b158015620001cb57600080fd5b505af4158015620001e0573d6000803e3d6000fd5b505050506040513d601f19601f82011682018060405250620002069190810190620008f3565b9250925092506040518060e00160405280888152602001858152602001600067ffffffffffffffff1681526020018681526020016001151581526020014381526020018a815250600080898152602001908152602001600020600082015181600001556020820151816001015560408201518160020160006101000a81548167ffffffffffffffff021916908367ffffffffffffffff1602179055506060820151816003015560808201518160040160006101000a81548160ff02191690831515021790555060a0820151816005015560c0820151816006019080519060200190620002f492919062000532565b509050506040518060e001604052808781526020018381526020018267ffffffffffffffff16815260200184815260200160011515815260200143815260200189815250600080888152602001908152602001600020600082015181600001556020820151816001015560408201518160020160006101000a81548167ffffffffffffffff021916908367ffffffffffffffff1602179055506060820151816003015560808201518160040160006101000a81548160ff02191690831515021790555060a0820151816005015560c0820151816006019080519060200190620003df92919062000532565b5090505060405180604001604052808c81526020018b81525060016000808152602001908152602001600020600082015181600001908051906020019062000429929190620005b9565b506020820151816001015590505060008090505b8b51811015620004c1576001600260008e84815181106200045a57fe5b602002602001015173ffffffffffffffffffffffffffffffffffffffff1673ffffffffffffffffffffffffffffffffffffffff16815260200190815260200160002060006101000a81548160ff02191690831515021790555080806001019150506200043d565b506001600460003373ffffffffffffffffffffffffffffffffffffffff1673ffffffffffffffffffffffffffffffffffffffff16815260200190815260200160002060006101000a81548160ff02191690831515021790555085600781905550505050505050505050505062000c32565b828054600181600116156101000203166002900490600052602060002090601f016020900481019282601f106200057557805160ff1916838001178555620005a6565b82800160010185558215620005a6579182015b82811115620005a557825182559160200191906001019062000588565b5b509050620005b5919062000648565b5090565b82805482825590600052602060002090810192821562000635579160200282015b82811115620006345782518260006101000a81548173ffffffffffffffffffffffffffffffffffffffff021916908373ffffffffffffffffffffffffffffffffffffffff16021790555091602001919060010190620005da565b5b50905062000644919062000670565b5090565b6200066d91905b80821115620006695760008160009055506001016200064f565b5090565b90565b620006b391905b80821115620006af57600081816101000a81549073ffffffffffffffffffffffffffffffffffffffff02191690555060010162000677565b5090565b90565b600081519050620006c78162000bca565b92915050565b600082601f830112620006df57600080fd5b8151620006f6620006f08262000aa4565b62000a76565b915081818352602084019350602081019050838560208402820111156200071c57600080fd5b60005b83811015620007505781620007358882620006b6565b8452602084019350602083019250506001810190506200071f565b5050505092915050565b6000815190506200076b8162000be4565b92915050565b600082601f8301126200078357600080fd5b81516200079a620007948262000acd565b62000a76565b91508082526020830160208301858383011115620007b757600080fd5b620007c483828462000b83565b50505092915050565b600081519050620007de8162000bfe565b92915050565b600081519050620007f58162000c18565b92915050565b600080600080608085870312156200081257600080fd5b600085015167ffffffffffffffff8111156200082d57600080fd5b6200083b87828801620006cd565b94505060206200084e87828801620007cd565b935050604085015167ffffffffffffffff8111156200086c57600080fd5b6200087a8782880162000771565b925050606085015167ffffffffffffffff8111156200089857600080fd5b620008a68782880162000771565b91505092959194509250565b60008060408385031215620008c657600080fd5b6000620008d6858286016200075a565b9250506020620008e985828601620007cd565b9150509250929050565b6000806000606084860312156200090957600080fd5b600062000919868287016200075a565b93505060206200092c86828701620007cd565b92505060406200093f86828701620007e4565b9150509250925092565b6000620009568262000afa565b62000962818562000b05565b93506200097481856020860162000b83565b6200097f8162000bb9565b840191505092915050565b600062000999600f8362000b16565b91507f56616c696461746f7220456d70747900000000000000000000000000000000006000830152602082019050919050565b6000620009db60118362000b16565b91507f496e76616c6964205468726573686f6c640000000000000000000000000000006000830152602082019050919050565b6000602082019050818103600083015262000a2a818462000949565b905092915050565b6000602082019050818103600083015262000a4d816200098a565b9050919050565b6000602082019050818103600083015262000a6f81620009cc565b9050919050565b6000604051905081810181811067ffffffffffffffff8211171562000a9a57600080fd5b8060405250919050565b600067ffffffffffffffff82111562000abc57600080fd5b602082029050602081019050919050565b600067ffffffffffffffff82111562000ae557600080fd5b601f19601f8301169050602081019050919050565b600081519050919050565b600082825260208201905092915050565b600082825260208201905092915050565b600062000b348262000b4f565b9050919050565b6000819050919050565b6000819050919050565b600073ffffffffffffffffffffffffffffffffffffffff82169050919050565b600067ffffffffffffffff82169050919050565b60005b8381101562000ba357808201518184015260208101905062000b86565b8381111562000bb3576000848401525b50505050565b6000601f19601f8301169050919050565b62000bd58162000b27565b811462000be157600080fd5b50565b62000bef8162000b3b565b811462000bfb57600080fd5b50565b62000c098162000b45565b811462000c1557600080fd5b50565b62000c238162000b6f565b811462000c2f57600080fd5b50565b6124938062000c426000396000f3fe608060405234801561001057600080fd5b50600436106100a95760003560e01c80636c624a5f116100715780636c624a5f146101645780636fed6f8314610194578063884bdd86146101c4578063b9615878146101e0578063e2a2f0a314610210578063f720f80b1461022c576100a9565b80630247dd65146100ae5780630a89ed4a146100ca5780631097d54a146100e857806322b8f46e146101045780633756804914610134575b600080fd5b6100c860048036036100c391908101906118db565b61025c565b005b6100d261044e565b6040516100df9190611f35565b60405180910390f35b61010260048036036100fd91908101906118b2565b610458565b005b61011e60048036036101199190810190611a4d565b61053f565b60405161012b9190611ef8565b60405180910390f35b61014e60048036036101499190810190611a4d565b61063b565b60405161015b9190612002565b60405180910390f35b61017e60048036036101799190810190611942565b610683565b60405161018b9190611f1a565b60405180910390f35b6101ae60048036036101a99190810190611942565b6106af565b6040516101bb91906121bd565b60405180910390f35b6101de60048036036101d99190810190611a0c565b6106ce565b005b6101fa60048036036101f59190810190611942565b61124c565b6040516102079190611fbe565b60405180910390f35b61022a600480360361022591908101906118b2565b611303565b005b610246600480360361024191908101906118b2565b6113ea565b6040516102539190611f1a565b60405180910390f35b600460003373ffffffffffffffffffffffffffffffffffffffff1673ffffffffffffffffffffffffffffffffffffffff16815260200190815260200160002060009054906101000a900460ff166102e8576040517f08c379a00000000000000000000000000000000000000000000000000000000081526004016102df9061213d565b60405180910390fd5b600083511161032c576040517f08c379a00000000000000000000000000000000000000000000000000000000081526004016103239061203d565b60405180910390fd5b6000821361036f576040517f08c379a0000000000000000000000000000000000000000000000000000000008152600401610366906120bd565b60405180910390fd5b600181136103b2576040517f08c379a00000000000000000000000000000000000000000000000000000000081526004016103a99061219d565b60405180910390fd5b6005548112156103f7576040517f08c379a00000000000000000000000000000000000000000000000000000000081526004016103ee906120dd565b60405180910390fd5b60405180604001604052808481526020018381525060016000838152602001908152602001600020600082015181600001908051906020019061043b929190611523565b5060208201518160010155905050505050565b6000600754905090565b600460003373ffffffffffffffffffffffffffffffffffffffff1673ffffffffffffffffffffffffffffffffffffffff16815260200190815260200160002060009054906101000a900460ff166104e4576040517f08c379a00000000000000000000000000000000000000000000000000000000081526004016104db9061213d565b60405180910390fd5b6001600460008373ffffffffffffffffffffffffffffffffffffffff1673ffffffffffffffffffffffffffffffffffffffff16815260200190815260200160002060006101000a81548160ff02191690831515021790555050565b60606000600160008481526020019081526020016000206001015414156105985760006040519080825280602002602001820160405280156105905781602001602082028038833980820191505090505b509050610636565b6001600083815260200190815260200160002060000180548060200260200160405190810160405280929190818152602001828054801561062e57602002820191906000526020600020905b8160009054906101000a900473ffffffffffffffffffffffffffffffffffffffff1673ffffffffffffffffffffffffffffffffffffffff16815260200190600101908083116105e4575b505050505090505b919050565b60008060016000848152602001908152602001600020600101541415610664576000905061067e565b600160008381526020019081526020016000206001015490505b919050565b600080600083815260200190815260200160002060040160009054906101000a900460ff169050919050565b6000806000838152602001908152602001600020600501549050919050565b600460003373ffffffffffffffffffffffffffffffffffffffff1673ffffffffffffffffffffffffffffffffffffffff16815260200190815260200160002060009054906101000a900460ff1661075a576040517f08c379a00000000000000000000000000000000000000000000000000000000081526004016107519061213d565b60405180910390fd5b6000806000806000606073__HeaderReader__________________________6344e06ed4886040518263ffffffff1660e01b815260040161079b9190611fe0565b60006040518083038186803b1580156107b357600080fd5b505af41580156107c7573d6000803e3d6000fd5b505050506040513d6000823e3d601f19601f820116820180604052506107f0919081019061196b565b9550955095509550955095506000851361083f576040517f08c379a00000000000000000000000000000000000000000000000000000000081526004016108369061215d565b60405180910390fd5b6000801b60008088815260200190815260200160002060000154141561089a576040517f08c379a00000000000000000000000000000000000000000000000000000000081526004016108919061201d565b60405180910390fd5b8460016000808981526020019081526020016000206001015401146108f4576040517f08c379a00000000000000000000000000000000000000000000000000000000081526004016108eb9061207d565b60405180910390fd5b8367ffffffffffffffff1660008088815260200190815260200160002060020160009054906101000a900467ffffffffffffffff1667ffffffffffffffff1610610973576040517f08c379a000000000000000000000000000000000000000000000000000000000815260040161096a9061217d565b60405180910390fd5b8267ffffffffffffffff1660008088815260200190815260200160002060020160009054906101000a900467ffffffffffffffff1667ffffffffffffffff16146109f2576040517f08c379a00000000000000000000000000000000000000000000000000000000081526004016109e9906120fd565b60405180910390fd5b6000878051906020012090506000806000838152602001908152602001600020600101541315610a57576040517f08c379a0000000000000000000000000000000000000000000000000000000008152600401610a4e9061205d565b60405180910390fd5b600060016000888152602001908152602001600020600001805490501115610c355760008090505b60016000600554815260200190815260200160002060000180549050811015610b54576000600260006001600060055481526020019081526020016000206000018481548110610acb57fe5b9060005260206000200160009054906101000a900473ffffffffffffffffffffffffffffffffffffffff1673ffffffffffffffffffffffffffffffffffffffff1673ffffffffffffffffffffffffffffffffffffffff16815260200190815260200160002060006101000a81548160ff0219169083151502179055508080600101915050610a7f565b5060008090505b6001600088815260200190815260200160002060000180549050811015610c2c57600160026000600160008b81526020019081526020016000206000018481548110610ba357fe5b9060005260206000200160009054906101000a900473ffffffffffffffffffffffffffffffffffffffff1673ffffffffffffffffffffffffffffffffffffffff1673ffffffffffffffffffffffffffffffffffffffff16815260200190815260200160002060006101000a81548160ff0219169083151502179055508080600101915050610b5b565b50856005819055505b600080905060608351604051908082528060200260200182016040528015610c6c5781602001602082028038833980820191505090505b50905060008090505b8451811015610e78576000610c9d87878481518110610c9057fe5b6020026020010151611440565b905060011515600260008373ffffffffffffffffffffffffffffffffffffffff1673ffffffffffffffffffffffffffffffffffffffff16815260200190815260200160002060009054906101000a900460ff16151514610d32576040517f08c379a0000000000000000000000000000000000000000000000000000000008152600401610d299061209d565b60405180910390fd5b600360008273ffffffffffffffffffffffffffffffffffffffff1673ffffffffffffffffffffffffffffffffffffffff16815260200190815260200160002060009054906101000a900460ff16610de85783806001019450506001600360008373ffffffffffffffffffffffffffffffffffffffff1673ffffffffffffffffffffffffffffffffffffffff16815260200190815260200160002060006101000a81548160ff021916908315150217905550610e23565b6040517f08c379a0000000000000000000000000000000000000000000000000000000008152600401610e1a9061209d565b60405180910390fd5b80838381518110610e3057fe5b602002602001019073ffffffffffffffffffffffffffffffffffffffff16908173ffffffffffffffffffffffffffffffffffffffff1681525050508080600101915050610c75565b5060008090505b8151811015610f0057600060036000848481518110610e9a57fe5b602002602001015173ffffffffffffffffffffffffffffffffffffffff1673ffffffffffffffffffffffffffffffffffffffff16815260200190815260200160002060006101000a81548160ff0219169083151502179055508080600101915050610e7f565b5060016000600554815260200190815260200160002060010154821215610f5c576040517f08c379a0000000000000000000000000000000000000000000000000000000008152600401610f539061209d565b60405180910390fd5b6040518060e001604052808481526020018981526020018867ffffffffffffffff1681526020018a81526020016000151581526020014381526020018b815250600080858152602001908152602001600020600082015181600001556020820151816001015560408201518160020160006101000a81548167ffffffffffffffff021916908367ffffffffffffffff1602179055506060820151816003015560808201518160040160006101000a81548160ff02191690831515021790555060a0820151816005015560c08201518160060190805190602001906110419291906115ad565b509050507fc92de1e80780c8f239052c833b238f36e1f1f03c09628a198cefab0ed37d2b238389604051611076929190611f50565b60405180910390a1600083905060008090505b600381101561116e576000801b6000808481526020019081526020016000206003015414156110c2575050505050505050505050611249565b6000806000848152602001908152602001600020600301549050600160008083815260200190815260200160002060020160009054906101000a900467ffffffffffffffff160167ffffffffffffffff1660008085815260200190815260200160002060020160009054906101000a900467ffffffffffffffff1667ffffffffffffffff161461115d57505050505050505050505050611249565b809250508080600101915050611089565b50806007819055505b6001151560008083815260200190815260200160002060040160009054906101000a900460ff1615151461123e57600160008083815260200190815260200160002060040160006101000a81548160ff0219169083151502179055507fc87258113ecbd0404f86cc5c0155894cfc47dae8fadab01aa8eefe5b5b40bdbb8160008084815260200190815260200160002060010154604051611219929190611f50565b60405180910390a1600080828152602001908152602001600020600301549050611177565b505050505050505050505b50565b60606000808381526020019081526020016000206006018054600181600116156101000203166002900480601f0160208091040260200160405190810160405280929190818152602001828054600181600116156101000203166002900480156112f75780601f106112cc576101008083540402835291602001916112f7565b820191906000526020600020905b8154815290600101906020018083116112da57829003601f168201915b50505050509050919050565b600460003373ffffffffffffffffffffffffffffffffffffffff1673ffffffffffffffffffffffffffffffffffffffff16815260200190815260200160002060009054906101000a900460ff1661138f576040517f08c379a00000000000000000000000000000000000000000000000000000000081526004016113869061213d565b60405180910390fd5b6000600460008373ffffffffffffffffffffffffffffffffffffffff1673ffffffffffffffffffffffffffffffffffffffff16815260200190815260200160002060006101000a81548160ff02191690831515021790555050565b6000600460008373ffffffffffffffffffffffffffffffffffffffff1673ffffffffffffffffffffffffffffffffffffffff16815260200190815260200160002060009054906101000a900460ff169050919050565b60008060008061144f856114af565b925092509250600186848484604051600081526020016040526040516114789493929190611f79565b6020604051602081039080840390855afa15801561149a573d6000803e3d6000fd5b50505060206040510351935050505092915050565b600080600060418451146114f8576040517f08c379a00000000000000000000000000000000000000000000000000000000081526004016114ef9061211d565b60405180910390fd5b6020840151915060408401519050606084015160001a9250601b830182829250925092509193909250565b82805482825590600052602060002090810192821561159c579160200282015b8281111561159b5782518260006101000a81548173ffffffffffffffffffffffffffffffffffffffff021916908373ffffffffffffffffffffffffffffffffffffffff16021790555091602001919060010190611543565b5b5090506115a9919061162d565b5090565b828054600181600116156101000203166002900490600052602060002090601f016020900481019282601f106115ee57805160ff191683800117855561161c565b8280016001018555821561161c579182015b8281111561161b578251825591602001919060010190611600565b5b5090506116299190611670565b5090565b61166d91905b8082111561166957600081816101000a81549073ffffffffffffffffffffffffffffffffffffffff021916905550600101611633565b5090565b90565b61169291905b8082111561168e576000816000905550600101611676565b5090565b90565b6000813590506116a4816123f4565b92915050565b600082601f8301126116bb57600080fd5b81356116ce6116c982612205565b6121d8565b915081818352602084019350602081019050838560208402820111156116f357600080fd5b60005b8381101561172357816117098882611695565b8452602084019350602083019250506001810190506116f6565b5050505092915050565b600082601f83011261173e57600080fd5b815161175161174c8261222d565b6121d8565b9150818183526020840193506020810190508360005b83811015611797578151860161177d88826117cb565b845260208401935060208301925050600181019050611767565b5050505092915050565b6000813590506117b08161240b565b92915050565b6000815190506117c58161240b565b92915050565b600082601f8301126117dc57600080fd5b81516117ef6117ea82612255565b6121d8565b9150808252602083016020830185838301111561180b57600080fd5b6118168382846123b0565b50505092915050565b600082601f83011261183057600080fd5b813561184361183e82612281565b6121d8565b9150808252602083016020830185838301111561185f57600080fd5b61186a8382846123a1565b50505092915050565b60008135905061188281612422565b92915050565b60008151905061189781612422565b92915050565b6000815190506118ac81612439565b92915050565b6000602082840312156118c457600080fd5b60006118d284828501611695565b91505092915050565b6000806000606084860312156118f057600080fd5b600084013567ffffffffffffffff81111561190a57600080fd5b611916868287016116aa565b935050602061192786828701611873565b925050604061193886828701611873565b9150509250925092565b60006020828403121561195457600080fd5b6000611962848285016117a1565b91505092915050565b60008060008060008060c0878903121561198457600080fd5b600061199289828a016117b6565b96505060206119a389828a01611888565b95505060406119b489828a0161189d565b94505060606119c589828a0161189d565b93505060806119d689828a016117b6565b92505060a087015167ffffffffffffffff8111156119f357600080fd5b6119ff89828a0161172d565b9150509295509295509295565b600060208284031215611a1e57600080fd5b600082013567ffffffffffffffff811115611a3857600080fd5b611a448482850161181f565b91505092915050565b600060208284031215611a5f57600080fd5b6000611a6d84828501611873565b91505092915050565b6000611a828383611a8e565b60208301905092915050565b611a9781612324565b82525050565b6000611aa8826122bd565b611ab281856122e0565b9350611abd836122ad565b8060005b83811015611aee578151611ad58882611a76565b9750611ae0836122d3565b925050600181019050611ac1565b5085935050505092915050565b611b0481612336565b82525050565b611b1381612342565b82525050565b6000611b24826122c8565b611b2e81856122f1565b9350611b3e8185602086016123b0565b611b47816123e3565b840191505092915050565b6000611b5d826122c8565b611b678185612302565b9350611b778185602086016123b0565b611b80816123e3565b840191505092915050565b611b948161234c565b82525050565b6000611ba7600e83612313565b91507f506172656e74204d697373696e670000000000000000000000000000000000006000830152602082019050919050565b6000611be7600f83612313565b91507f56616c696461746f7220456d70747900000000000000000000000000000000006000830152602082019050919050565b6000611c27600f83612313565b91507f52657065617465642048656164657200000000000000000000000000000000006000830152602082019050919050565b6000611c67600983612313565b91507f496e76616c6964204e00000000000000000000000000000000000000000000006000830152602082019050919050565b6000611ca7601183612313565b91507f566572696669636174696f6e204661696c0000000000000000000000000000006000830152602082019050919050565b6000611ce7601183612313565b91507f496e76616c6964205468726573686f6c640000000000000000000000000000006000830152602082019050919050565b6000611d27601583612313565b91507f4d6f6469667920506173742056616c696461746f7200000000000000000000006000830152602082019050919050565b6000611d67600b83612313565b91507f496e76616c69642050524e0000000000000000000000000000000000000000006000830152602082019050919050565b6000611da7601183612313565b91507f496e76616c6964205369676e61747572650000000000000000000000000000006000830152602082019050919050565b6000611de7600c83612313565b91507f4d617374657273204f6e6c7900000000000000000000000000000000000000006000830152602082019050919050565b6000611e27601083612313565b91507f52657065617465642047656e65736973000000000000000000000000000000006000830152602082019050919050565b6000611e67600a83612313565b91507f496e76616c696420524e000000000000000000000000000000000000000000006000830152602082019050919050565b6000611ea7601583612313565b91507f496e76616c6964205461726765742048656967687400000000000000000000006000830152602082019050919050565b611ee381612376565b82525050565b611ef281612394565b82525050565b60006020820190508181036000830152611f128184611a9d565b905092915050565b6000602082019050611f2f6000830184611afb565b92915050565b6000602082019050611f4a6000830184611b0a565b92915050565b6000604082019050611f656000830185611b0a565b611f726020830184611b8b565b9392505050565b6000608082019050611f8e6000830187611b0a565b611f9b6020830186611ee9565b611fa86040830185611b0a565b611fb56060830184611b0a565b95945050505050565b60006020820190508181036000830152611fd88184611b19565b905092915050565b60006020820190508181036000830152611ffa8184611b52565b905092915050565b60006020820190506120176000830184611b8b565b92915050565b6000602082019050818103600083015261203681611b9a565b9050919050565b6000602082019050818103600083015261205681611bda565b9050919050565b6000602082019050818103600083015261207681611c1a565b9050919050565b6000602082019050818103600083015261209681611c5a565b9050919050565b600060208201905081810360008301526120b681611c9a565b9050919050565b600060208201905081810360008301526120d681611cda565b9050919050565b600060208201905081810360008301526120f681611d1a565b9050919050565b6000602082019050818103600083015261211681611d5a565b9050919050565b6000602082019050818103600083015261213681611d9a565b9050919050565b6000602082019050818103600083015261215681611dda565b9050919050565b6000602082019050818103600083015261217681611e1a565b9050919050565b6000602082019050818103600083015261219681611e5a565b9050919050565b600060208201905081810360008301526121b681611e9a565b9050919050565b60006020820190506121d26000830184611eda565b92915050565b6000604051905081810181811067ffffffffffffffff821117156121fb57600080fd5b8060405250919050565b600067ffffffffffffffff82111561221c57600080fd5b602082029050602081019050919050565b600067ffffffffffffffff82111561224457600080fd5b602082029050602081019050919050565b600067ffffffffffffffff82111561226c57600080fd5b601f19601f8301169050602081019050919050565b600067ffffffffffffffff82111561229857600080fd5b601f19601f8301169050602081019050919050565b6000819050602082019050919050565b600081519050919050565b600081519050919050565b6000602082019050919050565b600082825260208201905092915050565b600082825260208201905092915050565b600082825260208201905092915050565b600082825260208201905092915050565b600061232f82612356565b9050919050565b60008115159050919050565b6000819050919050565b6000819050919050565b600073ffffffffffffffffffffffffffffffffffffffff82169050919050565b6000819050919050565b600067ffffffffffffffff82169050919050565b600060ff82169050919050565b82818337600083830152505050565b60005b838110156123ce5780820151818401526020810190506123b3565b838111156123dd576000848401525b50505050565b6000601f19601f8301169050919050565b6123fd81612324565b811461240857600080fd5b50565b61241481612342565b811461241f57600080fd5b50565b61242b8161234c565b811461243657600080fd5b50565b61244281612380565b811461244d57600080fd5b5056fea365627a7a72315820dc21b7c2a6d0e2a6717a8ec4fc8eae0ee902eb4d9394f2f3b54136c0f4ff98796c6578706572696d656e74616cf564736f6c63430005100040",
  "source": "// SPDX-License-Identifier: MIT\npragma solidity >=0.4.21 <0.9.0;\npragma experimental ABIEncoderV2;\n\nimport \"./HeaderReader.sol\";\n\ncontract Subnet {\n\n  struct Header {\n    bytes32 hash;\n    int number;\n    uint64 round_num;\n    bytes32 parent_hash;\n    bool finalized;\n    uint mainnet_num;\n    bytes src;\n  }\n\n  struct Validators {\n    address[] set;\n    int threshold;\n  }\n\n  mapping(bytes32 => Header) header_tree;\n  mapping(int => Validators) validator_sets;\n  mapping(address => bool) lookup;\n  mapping(address => bool) unique_addr;\n  mapping(address => bool) masters;\n  int current_validator_set_pointer = 0;\n  int current_subnet_height;\n  bytes32 latest_finalized_block;\n\n  // Event types\n  event SubnetBlockAccepted(bytes32 block_hash, int number);\n  event SubnetBlockFinalized(bytes32 block_hash, int number);\n\n  // Modifier\n  modifier onlyMasters() {\n    if (!masters[msg.sender]) revert(\"Masters Only\");\n    _;\n  }\n\n  constructor(\n    address[] memory initial_validator_set,\n    int threshold,\n    bytes memory genesis_header,\n    bytes memory block1_header\n  ) public {\n    require(initial_validator_set.length > 0, \"Validator Empty\");\n    require(threshold > 0, \"Invalid Threshold\");\n    bytes32 genesis_header_hash = keccak256(genesis_header);\n    bytes32 block1_header_hash = keccak256(block1_header);\n    (bytes32 ph, int n) = HeaderReader.getParentHashAndNumber(genesis_header);\n    (bytes32 ph1, int n1, uint64 rn) = HeaderReader.getBlock1Params(block1_header);\n    header_tree[genesis_header_hash] = Header({\n      hash: genesis_header_hash,\n      number: n,\n      round_num: 0, \n      parent_hash: ph,\n      finalized: true,\n      mainnet_num: block.number,\n      src: genesis_header\n    });\n    header_tree[block1_header_hash] = Header({\n      hash: block1_header_hash,\n      number: n1,\n      round_num: rn, \n      parent_hash: ph1,\n      finalized: true,\n      mainnet_num: block.number,\n      src: block1_header\n    });\n    validator_sets[0] = Validators({\n      set: initial_validator_set,\n      threshold: threshold\n    });\n    for (uint i = 0; i < initial_validator_set.length; i++) {\n      lookup[initial_validator_set[i]] = true;\n    }\n    masters[msg.sender] = true;\n    latest_finalized_block = block1_header_hash;\n  }\n\n  function isMaster(address master) public view returns (bool) {\n    return masters[master];\n  }\n\n  function addMaster(address master) public onlyMasters {\n    masters[master] = true;\n  }\n\n  function removeMaster(address master) public onlyMasters {\n    masters[master] = false;\n  }\n\n  function reviseValidatorSet(address[] memory new_validator_set, int threshold, int subnet_block_height) public onlyMasters  {\n    require(new_validator_set.length > 0, \"Validator Empty\");\n    require(threshold > 0, \"Invalid Threshold\");\n    require(subnet_block_height > 1, \"Invalid Target Height\");\n    require(subnet_block_height >= current_validator_set_pointer, \"Modify Past Validator\");\n    validator_sets[subnet_block_height] = Validators({\n      set: new_validator_set,\n      threshold: threshold\n    });\n  }\n\n  function receiveHeader(bytes memory header) public onlyMasters { \n    (\n      bytes32 parent_hash,\n      int number,\n      uint64 round_number,\n      uint64 prev_round_number,\n      bytes32 signHash,\n      bytes[] memory sigs\n    ) = HeaderReader.getValidationParams(header);\n    require(number > 0, \"Repeated Genesis\");\n    require(header_tree[parent_hash].hash != 0, \"Parent Missing\");\n    require(header_tree[parent_hash].number + 1 == number, \"Invalid N\");\n    require(header_tree[parent_hash].round_num < round_number, \"Invalid RN\");\n    require(header_tree[parent_hash].round_num == prev_round_number, \"Invalid PRN\");\n    bytes32 block_hash = keccak256(header);\n    if (header_tree[block_hash].number > 0) \n      revert(\"Repeated Header\");\n    if (validator_sets[number].set.length > 0) {\n      for (uint i = 0; i < validator_sets[current_validator_set_pointer].set.length; i++) {\n        lookup[validator_sets[current_validator_set_pointer].set[i]] = false;\n      }\n      for (uint i = 0; i < validator_sets[number].set.length; i++) {\n        lookup[validator_sets[number].set[i]] = true;\n      }\n      current_validator_set_pointer = number;\n    }\n\n    int unique_counter = 0;\n    address[] memory signer_list = new address[](sigs.length);\n    for (uint i = 0; i < sigs.length; i++) {\n      address signer = recoverSigner(signHash, sigs[i]);\n      if (lookup[signer] != true) {\n        revert(\"Verification Fail\");\n      }\n      if (!unique_addr[signer]) {\n        unique_counter ++;\n        unique_addr[signer]=true;\n      } else {\n        revert(\"Verification Fail\");\n      }\n      signer_list[i] = signer;\n    }\n    for (uint i = 0; i < signer_list.length; i++) {\n      unique_addr[signer_list[i]] = false;\n    }\n    if (unique_counter < validator_sets[current_validator_set_pointer].threshold) {\n      revert(\"Verification Fail\");\n    }\n    header_tree[block_hash] = Header({\n      hash: block_hash,\n      number: number,\n      round_num: round_number,\n      parent_hash: parent_hash,\n      finalized: false,\n      mainnet_num: block.number,\n      src: header\n    });\n    emit SubnetBlockAccepted(block_hash, number);\n\n    // Look for 3 consecutive round\n    bytes32 curr_hash = block_hash;\n    for (uint i = 0; i < 3; i++) {\n      if (header_tree[curr_hash].parent_hash == 0) return;\n      bytes32 prev_hash = header_tree[curr_hash].parent_hash;\n      if (header_tree[curr_hash].round_num != header_tree[prev_hash].round_num+1) return;\n      curr_hash = prev_hash;\n    }\n    latest_finalized_block = curr_hash;\n    // Confirm all ancestor unconfirmed block\n    while (header_tree[curr_hash].finalized != true) {\n      header_tree[curr_hash].finalized = true;\n      emit SubnetBlockFinalized(curr_hash, header_tree[curr_hash].number);\n      curr_hash = header_tree[curr_hash].parent_hash;\n    }\n  }\n\n  /// signature methods.\n  function splitSignature(bytes memory sig)\n    internal\n    pure\n    returns (uint8 v, bytes32 r, bytes32 s)\n  {\n    require(sig.length == 65, \"Invalid Signature\");\n    assembly {\n      // first 32 bytes, after the length prefix.\n      r := mload(add(sig, 32))\n      // second 32 bytes.\n      s := mload(add(sig, 64))\n      // final byte (first byte of the next 32 bytes).\n      v := byte(0, mload(add(sig, 96)))\n    }\n    // TOCHECK: v needs 27 more, may related with EIP1559\n    return (v+27, r, s);\n  }\n\n  function recoverSigner(bytes32 message, bytes memory sig)\n    internal\n    pure\n    returns (address)\n  {\n    (uint8 v, bytes32 r, bytes32 s) = splitSignature(sig);\n    return ecrecover(message, v, r, s);\n  }\n\n  function getHeader(bytes32 header_hash) public view returns (bytes memory) {\n    return header_tree[header_hash].src;\n  }\n  \n  function getHeaderConfirmationStatus(bytes32 header_hash) public view returns (bool) {\n    return header_tree[header_hash].finalized;\n  }\n\n  function getMainnetBlockNumber(bytes32 header_hash) public view returns (uint) {\n    return header_tree[header_hash].mainnet_num;\n  }\n\n  function getLatestFinalizedBlock() public view returns (bytes32) {\n    return latest_finalized_block;\n  }\n\n  function getValidatorSet(int height) public view returns (address[] memory res) {\n    if (validator_sets[height].threshold == 0) {\n      res = new address[](0);\n    } else {\n      res = validator_sets[height].set;\n    }\n  }\n\n  function getValidatorThreshold(int height) public view returns (int res) {\n    if (validator_sets[height].threshold == 0) {\n      res = 0;\n    } else {\n      res = validator_sets[height].threshold;\n    }\n  }\n}",
  "sourcePath": "/Users/sihengpan/Documents/XinFin/XDC-Subnet/mainnet_contract/contracts/Subnet.sol",
  "compiler": {
    "name": "solc",
    "version": "0.5.16+commit.9c3226ce.Emscripten.clang"
  },
  "schemaVersion": "3.4.1",
  "updatedAt": "2023-02-21T20:24:03.727Z",
  "devdoc": {
    "methods": {}
  },
  "userdoc": {
    "methods": {}
  }
}