{
  "contractName": "Subnet",
  "abi": [
    {
      "inputs": [
        {
          "internalType": "address[]",
          "name": "initial_validator_set",
          "type": "address[]"
        },
        {
          "internalType": "bytes",
          "name": "genesis_header",
          "type": "bytes"
        },
        {
          "internalType": "bytes",
          "name": "block1_header",
          "type": "bytes"
        },
        {
          "internalType": "uint64",
          "name": "gap",
          "type": "uint64"
        },
        {
          "internalType": "uint64",
          "name": "epoch",
          "type": "uint64"
        }
      ],
      "payable": false,
      "stateMutability": "nonpayable",
      "type": "constructor"
    },
    {
      "anonymous": false,
      "inputs": [
        {
          "indexed": false,
          "internalType": "bytes32",
          "name": "block_hash",
          "type": "bytes32"
        },
        {
          "indexed": false,
          "internalType": "int256",
          "name": "number",
          "type": "int256"
        }
      ],
      "name": "SubnetBlockAccepted",
      "type": "event"
    },
    {
      "anonymous": false,
      "inputs": [
        {
          "indexed": false,
          "internalType": "bytes32",
          "name": "block_hash",
          "type": "bytes32"
        },
        {
          "indexed": false,
          "internalType": "int256",
          "name": "number",
          "type": "int256"
        }
      ],
      "name": "SubnetBlockFinalized",
      "type": "event"
    },
    {
      "constant": true,
      "inputs": [
        {
          "internalType": "address",
          "name": "master",
          "type": "address"
        }
      ],
      "name": "isMaster",
      "outputs": [
        {
          "internalType": "bool",
          "name": "",
          "type": "bool"
        }
      ],
      "payable": false,
      "stateMutability": "view",
      "type": "function"
    },
    {
      "constant": false,
      "inputs": [
        {
          "internalType": "address",
          "name": "master",
          "type": "address"
        }
      ],
      "name": "addMaster",
      "outputs": [],
      "payable": false,
      "stateMutability": "nonpayable",
      "type": "function"
    },
    {
      "constant": false,
      "inputs": [
        {
          "internalType": "address",
          "name": "master",
          "type": "address"
        }
      ],
      "name": "removeMaster",
      "outputs": [],
      "payable": false,
      "stateMutability": "nonpayable",
      "type": "function"
    },
    {
      "constant": false,
      "inputs": [
        {
          "internalType": "bytes[]",
          "name": "headers",
          "type": "bytes[]"
        }
      ],
      "name": "receiveHeader",
      "outputs": [],
      "payable": false,
      "stateMutability": "nonpayable",
      "type": "function"
    },
    {
      "constant": true,
      "inputs": [
        {
          "internalType": "bytes32",
          "name": "header_hash",
          "type": "bytes32"
        }
      ],
      "name": "getHeader",
      "outputs": [
        {
          "components": [
            {
              "internalType": "bytes32",
              "name": "parent_hash",
              "type": "bytes32"
            },
            {
              "internalType": "int256",
              "name": "number",
              "type": "int256"
            },
            {
              "internalType": "uint64",
              "name": "round_num",
              "type": "uint64"
            },
            {
              "internalType": "int256",
              "name": "mainnet_num",
              "type": "int256"
            },
            {
              "internalType": "bool",
              "name": "finalized",
              "type": "bool"
            }
          ],
          "internalType": "struct Subnet.HeaderInfo",
          "name": "",
          "type": "tuple"
        }
      ],
      "payable": false,
      "stateMutability": "view",
      "type": "function"
    },
    {
      "constant": true,
      "inputs": [
        {
          "internalType": "int256",
          "name": "number",
          "type": "int256"
        }
      ],
      "name": "getHeaderByNumber",
      "outputs": [
        {
          "components": [
            {
              "internalType": "bytes32",
              "name": "hash",
              "type": "bytes32"
            },
            {
              "internalType": "int256",
              "name": "number",
              "type": "int256"
            }
          ],
          "internalType": "struct Subnet.BlockLite",
          "name": "",
          "type": "tuple"
        }
      ],
      "payable": false,
      "stateMutability": "view",
      "type": "function"
    },
    {
      "constant": true,
      "inputs": [
        {
          "internalType": "bytes32",
          "name": "header_hash",
          "type": "bytes32"
        }
      ],
      "name": "getHeaderConfirmationStatus",
      "outputs": [
        {
          "internalType": "bool",
          "name": "",
          "type": "bool"
        }
      ],
      "payable": false,
      "stateMutability": "view",
      "type": "function"
    },
    {
      "constant": true,
      "inputs": [
        {
          "internalType": "bytes32",
          "name": "header_hash",
          "type": "bytes32"
        }
      ],
      "name": "getMainnetBlockNumber",
      "outputs": [
        {
          "internalType": "uint256",
          "name": "",
          "type": "uint256"
        }
      ],
      "payable": false,
      "stateMutability": "view",
      "type": "function"
    },
    {
      "constant": true,
      "inputs": [],
      "name": "getLatestBlocks",
      "outputs": [
        {
          "components": [
            {
              "internalType": "bytes32",
              "name": "hash",
              "type": "bytes32"
            },
            {
              "internalType": "int256",
              "name": "number",
              "type": "int256"
            }
          ],
          "internalType": "struct Subnet.BlockLite",
          "name": "",
          "type": "tuple"
        },
        {
          "components": [
            {
              "internalType": "bytes32",
              "name": "hash",
              "type": "bytes32"
            },
            {
              "internalType": "int256",
              "name": "number",
              "type": "int256"
            }
          ],
          "internalType": "struct Subnet.BlockLite",
          "name": "",
          "type": "tuple"
        }
      ],
      "payable": false,
      "stateMutability": "view",
      "type": "function"
    },
    {
      "constant": true,
      "inputs": [],
      "name": "getCurrentValidators",
      "outputs": [
        {
          "components": [
            {
              "internalType": "address[]",
              "name": "set",
              "type": "address[]"
            },
            {
              "internalType": "int256",
              "name": "number",
              "type": "int256"
            },
            {
              "internalType": "int256",
              "name": "threshold",
              "type": "int256"
            }
          ],
          "internalType": "struct Subnet.Validators",
          "name": "",
          "type": "tuple"
        }
      ],
      "payable": false,
      "stateMutability": "view",
      "type": "function"
    }
  ],
  "bytecode": "0x60806040523480156200001157600080fd5b5060405162003748380380620037488339818101604052620000379190810190620006cf565b60008551116200007e576040517f08c379a000000000000000000000000000000000000000000000000000000000815260040162000075906200091c565b60405180910390fd5b60008480519060200120905060008480519060200120905060008073__HeaderReader__________________________63dc9e408b896040518263ffffffff1660e01b8152600401620000d29190620008f8565b604080518083038186803b158015620000ea57600080fd5b505af4158015620000ff573d6000803e3d6000fd5b505050506040513d601f19601f820116820180604052506200012591908101906200079c565b91509150600080600073__HeaderReader__________________________63be7558c08b6040518263ffffffff1660e01b8152600401620001679190620008f8565b60606040518083038186803b1580156200018057600080fd5b505af415801562000195573d6000803e3d6000fd5b505050506040513d601f19601f82011682018060405250620001bb9190810190620007dd565b925092509250600084148015620001d25750600182145b62000214576040517f08c379a00000000000000000000000000000000000000000000000000000000081526004016200020b906200093e565b60405180910390fd5b604051806040016040528086815260200160018043901b608188901b17178152506000808981526020019081526020016000206000820151816000015560208201518160010155905050604051806040016040528084815260200160018043901b60418567ffffffffffffffff16901b608187901b171717815250600080888152602001908152602001600020600082015181600001556020820151816001015590505060405180606001604052808d815260200160018152602001600360028f510281620002df57fe5b048152506005600082015181600001908051906020019062000303929190620004b5565b5060208201518160010155604082015181600201559050506200032c8c6200042760201b60201c565b6001600460003373ffffffffffffffffffffffffffffffffffffffff1673ffffffffffffffffffffffffffffffffffffffff16815260200190815260200160002060006101000a81548160ff02191690831515021790555085600b8190555085600c819055508660016000808152602001908152602001600020819055508560016000600181526020019081526020016000208190555088600d60006101000a81548167ffffffffffffffff021916908367ffffffffffffffff16021790555087600d60086101000a81548167ffffffffffffffff021916908367ffffffffffffffff16021790555050505050505050505050505062000b1c565b60008090505b8151811015620004b1576001600260008484815181106200044a57fe5b602002602001015173ffffffffffffffffffffffffffffffffffffffff1673ffffffffffffffffffffffffffffffffffffffff16815260200190815260200160002060006101000a81548160ff02191690831515021790555080806001019150506200042d565b5050565b82805482825590600052602060002090810192821562000531579160200282015b82811115620005305782518260006101000a81548173ffffffffffffffffffffffffffffffffffffffff021916908373ffffffffffffffffffffffffffffffffffffffff16021790555091602001919060010190620004d6565b5b50905062000540919062000544565b5090565b6200058791905b808211156200058357600081816101000a81549073ffffffffffffffffffffffffffffffffffffffff0219169055506001016200054b565b5090565b90565b6000815190506200059b8162000ab4565b92915050565b600082601f830112620005b357600080fd5b8151620005ca620005c4826200098e565b62000960565b91508181835260208401935060208101905083856020840282011115620005f057600080fd5b60005b838110156200062457816200060988826200058a565b845260208401935060208301925050600181019050620005f3565b5050505092915050565b6000815190506200063f8162000ace565b92915050565b600082601f8301126200065757600080fd5b81516200066e6200066882620009b7565b62000960565b915080825260208301602083018583830111156200068b57600080fd5b6200069883828462000a6d565b50505092915050565b600081519050620006b28162000ae8565b92915050565b600081519050620006c98162000b02565b92915050565b600080600080600060a08688031215620006e857600080fd5b600086015167ffffffffffffffff8111156200070357600080fd5b6200071188828901620005a1565b955050602086015167ffffffffffffffff8111156200072f57600080fd5b6200073d8882890162000645565b945050604086015167ffffffffffffffff8111156200075b57600080fd5b620007698882890162000645565b93505060606200077c88828901620006b8565b92505060806200078f88828901620006b8565b9150509295509295909350565b60008060408385031215620007b057600080fd5b6000620007c0858286016200062e565b9250506020620007d385828601620006a1565b9150509250929050565b600080600060608486031215620007f357600080fd5b600062000803868287016200062e565b93505060206200081686828701620006a1565b92505060406200082986828701620006b8565b9150509250925092565b60006200084082620009e4565b6200084c8185620009ef565b93506200085e81856020860162000a6d565b620008698162000aa3565b840191505092915050565b600062000883600f8362000a00565b91507f56616c696461746f7220456d70747900000000000000000000000000000000006000830152602082019050919050565b6000620008c560128362000a00565b91507f496e76616c696420496e697420426c6f636b00000000000000000000000000006000830152602082019050919050565b6000602082019050818103600083015262000914818462000833565b905092915050565b60006020820190508181036000830152620009378162000874565b9050919050565b600060208201905081810360008301526200095981620008b6565b9050919050565b6000604051905081810181811067ffffffffffffffff821117156200098457600080fd5b8060405250919050565b600067ffffffffffffffff821115620009a657600080fd5b602082029050602081019050919050565b600067ffffffffffffffff821115620009cf57600080fd5b601f19601f8301169050602081019050919050565b600081519050919050565b600082825260208201905092915050565b600082825260208201905092915050565b600062000a1e8262000a39565b9050919050565b6000819050919050565b6000819050919050565b600073ffffffffffffffffffffffffffffffffffffffff82169050919050565b600067ffffffffffffffff82169050919050565b60005b8381101562000a8d57808201518184015260208101905062000a70565b8381111562000a9d576000848401525b50505050565b6000601f19601f8301169050919050565b62000abf8162000a11565b811462000acb57600080fd5b50565b62000ad98162000a25565b811462000ae557600080fd5b50565b62000af38162000a2f565b811462000aff57600080fd5b50565b62000b0d8162000a59565b811462000b1957600080fd5b50565b612c1c8062000b2c6000396000f3fe608060405234801561001057600080fd5b506004361061009e5760003560e01c8063b961587811610066578063b96158781461015a578063c5f9dff01461018a578063e2a2f0a3146101a8578063eb71f0f8146101c4578063f720f80b146101f45761009e565b80631097d54a146100a357806366dcb0ba146100bf5780636c624a5f146100de5780636fed6f831461010e578063a20140c31461013e575b600080fd5b6100bd60048036036100b89190810190611ecf565b610224565b005b6100c761030b565b6040516100d5929190612912565b60405180910390f35b6100f860048036036100f39190810190611fa5565b6103a1565b604051610105919061268c565b60405180910390f35b61012860048036036101239190810190611fa5565b6103c5565b6040516101359190612978565b60405180910390f35b61015860048036036101539190810190611f64565b6103f2565b005b610174600480360361016f9190810190611fa5565b61157f565b604051610181919061293b565b60405180910390f35b61019261164f565b60405161019f9190612956565b60405180910390f35b6101c260048036036101bd9190810190611ecf565b61170b565b005b6101de60048036036101d9919081019061206f565b6117f2565b6040516101eb91906128f7565b60405180910390f35b61020e60048036036102099190810190611ecf565b611955565b60405161021b919061268c565b60405180910390f35b600460003373ffffffffffffffffffffffffffffffffffffffff1673ffffffffffffffffffffffffffffffffffffffff16815260200190815260200160002060009054906101000a900460ff166102b0576040517f08c379a00000000000000000000000000000000000000000000000000000000081526004016102a790612877565b60405180910390fd5b6001600460008373ffffffffffffffffffffffffffffffffffffffff1673ffffffffffffffffffffffffffffffffffffffff16815260200190815260200160002060006101000a81548160ff02191690831515021790555050565b610313611a8e565b61031b611a8e565b6040518060400160405280600b5481526020016081600080600b54815260200190815260200160002060010154901c67ffffffffffffffff168152506040518060400160405280600c5481526020016081600080600c54815260200190815260200160002060010154901c67ffffffffffffffff16815250819150809050915091509091565b60006001806000808581526020019081526020016000206001015416149050919050565b6000600160008084815260200190815260200160002060010154901c67ffffffffffffffff169050919050565b600460003373ffffffffffffffffffffffffffffffffffffffff1673ffffffffffffffffffffffffffffffffffffffff16815260200190815260200160002060009054906101000a900460ff1661047e576040517f08c379a000000000000000000000000000000000000000000000000000000000815260040161047590612877565b60405180910390fd5b60008090505b815181101561157b576000806000806000606073__HeaderReader__________________________6344e06ed48989815181106104bd57fe5b60200260200101516040518263ffffffff1660e01b81526004016104e19190612715565b60006040518083038186803b1580156104f957600080fd5b505af415801561050d573d6000803e3d6000fd5b505050506040513d6000823e3d601f19601f820116820180604052506105369190810190611fce565b95509550955095509550955060608073__HeaderReader__________________________63750a2ae58b8b8151811061056b57fe5b60200260200101516040518263ffffffff1660e01b815260040161058f9190612715565b60006040518083038186803b1580156105a757600080fd5b505af41580156105bb573d6000803e3d6000fd5b505050506040513d6000823e3d601f19601f820116820180604052506105e49190810190611ef8565b915091506000871361062b576040517f08c379a000000000000000000000000000000000000000000000000000000000815260040161062290612897565b60405180910390fd5b6081600080600c54815260200190815260200160002060010154901c67ffffffffffffffff168713610692576040517f08c379a0000000000000000000000000000000000000000000000000000000008152600401610689906128d7565b60405180910390fd5b60008060008a81526020019081526020016000206001015414156106eb576040517f08c379a00000000000000000000000000000000000000000000000000000000081526004016106e290612737565b60405180910390fd5b86600160816000808c815260200190815260200160002060010154901c67ffffffffffffffff160114610753576040517f08c379a000000000000000000000000000000000000000000000000000000000815260040161074a90612797565b60405180910390fd5b8567ffffffffffffffff1660416000808b815260200190815260200160002060010154901c67ffffffffffffffff16106107c2576040517f08c379a00000000000000000000000000000000000000000000000000000000081526004016107b9906128b7565b60405180910390fd5b8467ffffffffffffffff1660416000808b815260200190815260200160002060010154901c67ffffffffffffffff1614610831576040517f08c379a0000000000000000000000000000000000000000000000000000000008152600401610828906127f7565b60405180910390fd5b60008a8a8151811061083f57fe5b60200260200101516040516108549190612675565b6040518091039020905060008060008381526020019081526020016000206001015411156108b7576040517f08c379a00000000000000000000000000000000000000000000000000000000081526004016108ae90612757565b60405180910390fd5b600083511180156108c9575060008251115b15610909576040517f08c379a000000000000000000000000000000000000000000000000000000000815260040161090090612817565b60405180910390fd5b600083511115610e7e5782516008600001805490501461095e576040517f08c379a000000000000000000000000000000000000000000000000000000000815260040161095590612857565b60405180910390fd5b600d60089054906101000a900467ffffffffffffffff1667ffffffffffffffff168767ffffffffffffffff168161099157fe5b06870367ffffffffffffffff168667ffffffffffffffff161015610e3e576000600d60009054906101000a900467ffffffffffffffff1667ffffffffffffffff16600d60089054906101000a900467ffffffffffffffff1667ffffffffffffffff168a816109fb57fe5b078a030390506000811215610a0f57600090505b600860010154600182011415610ded5760008090505b600860000180549050811015610ad45760016003600060086000018481548110610a4b57fe5b9060005260206000200160009054906101000a900473ffffffffffffffffffffffffffffffffffffffff1673ffffffffffffffffffffffffffffffffffffffff1673ffffffffffffffffffffffffffffffffffffffff16815260200190815260200160002060006101000a81548160ff0219169083151502179055508080600101915050610a25565b5060008090505b600860000180549050811015610c50576003600060086000018381548110610aff57fe5b9060005260206000200160009054906101000a900473ffffffffffffffffffffffffffffffffffffffff1673ffffffffffffffffffffffffffffffffffffffff1673ffffffffffffffffffffffffffffffffffffffff16815260200190815260200160002060009054906101000a900460ff16610bb1576040517f08c379a0000000000000000000000000000000000000000000000000000000008152600401610ba890612857565b60405180910390fd5b60006003600060086000018481548110610bc757fe5b9060005260206000200160009054906101000a900473ffffffffffffffffffffffffffffffffffffffff1673ffffffffffffffffffffffffffffffffffffffff1673ffffffffffffffffffffffffffffffffffffffff16815260200190815260200160002060006101000a81548160ff0219169083151502179055508080600101915050610adb565b5060008090505b600560000180549050811015610d065760006002600060056000018481548110610c7d57fe5b9060005260206000200160009054906101000a900473ffffffffffffffffffffffffffffffffffffffff1673ffffffffffffffffffffffffffffffffffffffff1673ffffffffffffffffffffffffffffffffffffffff16815260200190815260200160002060006101000a81548160ff0219169083151502179055508080600101915050610c57565b5060008090505b8451811015610db55760016002600060086000018481548110610d2c57fe5b9060005260206000200160009054906101000a900473ffffffffffffffffffffffffffffffffffffffff1673ffffffffffffffffffffffffffffffffffffffff1673ffffffffffffffffffffffffffffffffffffffff16815260200190815260200160002060006101000a81548160ff0219169083151502179055508080600101915050610d0d565b50600860056000820181600001908054610dd0929190611aab565b506001820154816001015560028201548160020155905050610e38565b6005600101546001820114610e37576040517f08c379a0000000000000000000000000000000000000000000000000000000008152600401610e2e906127d7565b60405180910390fd5b5b50610e79565b6040517f08c379a0000000000000000000000000000000000000000000000000000000008152600401610e70906127d7565b60405180910390fd5b610f9f565b600082511115610f9e576001600d60009054906101000a900467ffffffffffffffff16600d60089054906101000a900467ffffffffffffffff16030167ffffffffffffffff16600d60089054906101000a900467ffffffffffffffff1667ffffffffffffffff168981610eed57fe5b0767ffffffffffffffff161415610f625760405180606001604052808381526020018981526020016003600285510281610f2357fe5b0481525060086000820151816000019080519060200190610f45929190611afd565b506020820151816001015560408201518160020155905050610f9d565b6040517f08c379a0000000000000000000000000000000000000000000000000000000008152600401610f9490612777565b60405180910390fd5b5b5b600080905060608551604051908082528060200260200182016040528015610fd65781602001602082028038833980820191505090505b50905060008090505b86518110156111e257600061100789898481518110610ffa57fe5b60200260200101516119ab565b905060011515600260008373ffffffffffffffffffffffffffffffffffffffff1673ffffffffffffffffffffffffffffffffffffffff16815260200190815260200160002060009054906101000a900460ff1615151461109c576040517f08c379a0000000000000000000000000000000000000000000000000000000008152600401611093906127b7565b60405180910390fd5b600360008273ffffffffffffffffffffffffffffffffffffffff1673ffffffffffffffffffffffffffffffffffffffff16815260200190815260200160002060009054906101000a900460ff166111525783806001019450506001600360008373ffffffffffffffffffffffffffffffffffffffff1673ffffffffffffffffffffffffffffffffffffffff16815260200190815260200160002060006101000a81548160ff02191690831515021790555061118d565b6040517f08c379a0000000000000000000000000000000000000000000000000000000008152600401611184906127b7565b60405180910390fd5b8083838151811061119a57fe5b602002602001019073ffffffffffffffffffffffffffffffffffffffff16908173ffffffffffffffffffffffffffffffffffffffff1681525050508080600101915050610fdf565b5060008090505b815181101561126a5760006003600084848151811061120457fe5b602002602001015173ffffffffffffffffffffffffffffffffffffffff1673ffffffffffffffffffffffffffffffffffffffff16815260200190815260200160002060006101000a81548160ff02191690831515021790555080806001019150506111e9565b506005600201548212156112b3576040517f08c379a00000000000000000000000000000000000000000000000000000000081526004016112aa906127b7565b60405180910390fd5b60405180604001604052808c8152602001600143901b60418c67ffffffffffffffff16901b60818e901b171781525060008085815260200190815260200160002060008201518160000155602082015181600101559050507fc92de1e80780c8f239052c833b238f36e1f1f03c09628a198cefab0ed37d2b23838b60405161133c9291906126a7565b60405180910390a16081600080600b54815260200190815260200160002060010154901c67ffffffffffffffff168a13156113795782600b819055505b600060019050600084905060008090505b6003811015611441576000801b6000808481526020019081526020016000206000015414156113bc5760009250611441565b60008060008481526020019081526020016000206000015490506001604160008084815260200190815260200160002060010154901c0167ffffffffffffffff16604160008086815260200190815260200160002060010154901c67ffffffffffffffff1614611430576000935050611441565b80925050808060010191505061138a565b50600015158215151415611461575050505050505050505050505061156e565b80600c819055505b600180600080848152602001908152602001600020600101541614611560576001600080838152602001908152602001600020600101600082825417925050819055508060016000608160008086815260200190815260200160002060010154901c67ffffffffffffffff168152602001908152602001600020819055507fc87258113ecbd0404f86cc5c0155894cfc47dae8fadab01aa8eefe5b5b40bdbb81608160008085815260200190815260200160002060010154901c67ffffffffffffffff1660405161153b9291906126a7565b60405180910390a1600080828152602001908152602001600020600001549050611469565b505050505050505050505050505b8080600101915050610484565b5050565b611587611b87565b6040518060a00160405280600080858152602001908152602001600020600001548152602001608160008086815260200190815260200160002060010154901c67ffffffffffffffff168152602001604160008086815260200190815260200160002060010154901c67ffffffffffffffff168152602001600160008086815260200190815260200160002060010154901c67ffffffffffffffff16815260200160018060008087815260200190815260200160002060010154161415158152509050919050565b611657611bc5565b6005604051806060016040529081600082018054806020026020016040519081016040528092919081815260200182805480156116e957602002820191906000526020600020905b8160009054906101000a900473ffffffffffffffffffffffffffffffffffffffff1673ffffffffffffffffffffffffffffffffffffffff168152602001906001019080831161169f575b5050505050815260200160018201548152602001600282015481525050905090565b600460003373ffffffffffffffffffffffffffffffffffffffff1673ffffffffffffffffffffffffffffffffffffffff16815260200190815260200160002060009054906101000a900460ff16611797576040517f08c379a000000000000000000000000000000000000000000000000000000000815260040161178e90612877565b60405180910390fd5b6000600460008373ffffffffffffffffffffffffffffffffffffffff1673ffffffffffffffffffffffffffffffffffffffff16815260200190815260200160002060006101000a81548160ff02191690831515021790555050565b6117fa611a8e565b6000801b600160008481526020019081526020016000205414156118ef5760006081600080600b54815260200190815260200160002060010154901c67ffffffffffffffff1690508083131561186b5760405180604001604052806000801b81526020016000815250915050611950565b600083820390506000600b54905060008090505b828112156118ac57600080838152602001908152602001600020600001549150808060010191505061187f565b506040518060400160405280828152602001608160008085815260200190815260200160002060010154901c67ffffffffffffffff168152509350505050611950565b60405180604001604052806001600085815260200190815260200160002054815260200160816000806001600088815260200190815260200160002054815260200190815260200160002060010154901c67ffffffffffffffff1681525090505b919050565b6000600460008373ffffffffffffffffffffffffffffffffffffffff1673ffffffffffffffffffffffffffffffffffffffff16815260200190815260200160002060009054906101000a900460ff169050919050565b6000806000806119ba85611a1a565b925092509250600186848484604051600081526020016040526040516119e394939291906126d0565b6020604051602081039080840390855afa158015611a05573d6000803e3d6000fd5b50505060206040510351935050505092915050565b60008060006041845114611a63576040517f08c379a0000000000000000000000000000000000000000000000000000000008152600401611a5a90612837565b60405180910390fd5b6020840151915060408401519050606084015160001a9250601b830182829250925092509193909250565b604051806040016040528060008019168152602001600081525090565b828054828255906000526020600020908101928215611aec5760005260206000209182015b82811115611aeb578254825591600101919060010190611ad0565b5b509050611af99190611be6565b5090565b828054828255906000526020600020908101928215611b76579160200282015b82811115611b755782518260006101000a81548173ffffffffffffffffffffffffffffffffffffffff021916908373ffffffffffffffffffffffffffffffffffffffff16021790555091602001919060010190611b1d565b5b509050611b839190611be6565b5090565b6040518060a001604052806000801916815260200160008152602001600067ffffffffffffffff168152602001600081526020016000151581525090565b60405180606001604052806060815260200160008152602001600081525090565b611c2691905b80821115611c2257600081816101000a81549073ffffffffffffffffffffffffffffffffffffffff021916905550600101611bec565b5090565b90565b600081359050611c3881612b7d565b92915050565b600081519050611c4d81612b7d565b92915050565b600082601f830112611c6457600080fd5b8151611c77611c72826129c0565b612993565b91508181835260208401935060208101905083856020840282011115611c9c57600080fd5b60005b83811015611ccc5781611cb28882611c3e565b845260208401935060208301925050600181019050611c9f565b5050505092915050565b600082601f830112611ce757600080fd5b8135611cfa611cf5826129e8565b612993565b9150818183526020840193506020810190508360005b83811015611d405781358601611d268882611de8565b845260208401935060208301925050600181019050611d10565b5050505092915050565b600082601f830112611d5b57600080fd5b8151611d6e611d69826129e8565b612993565b9150818183526020840193506020810190508360005b83811015611db45781518601611d9a8882611e3c565b845260208401935060208301925050600181019050611d84565b5050505092915050565b600081359050611dcd81612b94565b92915050565b600081519050611de281612b94565b92915050565b600082601f830112611df957600080fd5b8135611e0c611e0782612a10565b612993565b91508082526020830160208301858383011115611e2857600080fd5b611e33838284612b2a565b50505092915050565b600082601f830112611e4d57600080fd5b8151611e60611e5b82612a10565b612993565b91508082526020830160208301858383011115611e7c57600080fd5b611e87838284612b39565b50505092915050565b600081359050611e9f81612bab565b92915050565b600081519050611eb481612bab565b92915050565b600081519050611ec981612bc2565b92915050565b600060208284031215611ee157600080fd5b6000611eef84828501611c29565b91505092915050565b60008060408385031215611f0b57600080fd5b600083015167ffffffffffffffff811115611f2557600080fd5b611f3185828601611c53565b925050602083015167ffffffffffffffff811115611f4e57600080fd5b611f5a85828601611c53565b9150509250929050565b600060208284031215611f7657600080fd5b600082013567ffffffffffffffff811115611f9057600080fd5b611f9c84828501611cd6565b91505092915050565b600060208284031215611fb757600080fd5b6000611fc584828501611dbe565b91505092915050565b60008060008060008060c08789031215611fe757600080fd5b6000611ff589828a01611dd3565b965050602061200689828a01611ea5565b955050604061201789828a01611eba565b945050606061202889828a01611eba565b935050608061203989828a01611dd3565b92505060a087015167ffffffffffffffff81111561205657600080fd5b61206289828a01611d4a565b9150509295509295509295565b60006020828403121561208157600080fd5b600061208f84828501611e90565b91505092915050565b60006120a483836120b0565b60208301905092915050565b6120b981612aad565b82525050565b60006120ca82612a4c565b6120d48185612a6f565b93506120df83612a3c565b8060005b838110156121105781516120f78882612098565b975061210283612a62565b9250506001810190506120e3565b5085935050505092915050565b61212681612abf565b82525050565b61213581612abf565b82525050565b61214481612acb565b82525050565b61215381612acb565b82525050565b600061216482612a57565b61216e8185612a80565b935061217e818560208601612b39565b61218781612b6c565b840191505092915050565b600061219d82612a57565b6121a78185612a91565b93506121b7818560208601612b39565b80840191505092915050565b6121cc81612ad5565b82525050565b6121db81612ad5565b82525050565b60006121ee600e83612a9c565b91507f506172656e74204d697373696e670000000000000000000000000000000000006000830152602082019050919050565b600061222e600f83612a9c565b91507f52657065617465642048656164657200000000000000000000000000000000006000830152602082019050919050565b600061226e601283612a9c565b91507f496e76616c6964204e65787420426c6f636b00000000000000000000000000006000830152602082019050919050565b60006122ae600983612a9c565b91507f496e76616c6964204e00000000000000000000000000000000000000000000006000830152602082019050919050565b60006122ee601183612a9c565b91507f566572696669636174696f6e204661696c0000000000000000000000000000006000830152602082019050919050565b600061232e601583612a9c565b91507f496e76616c69642043757272656e7420426c6f636b00000000000000000000006000830152602082019050919050565b600061236e600b83612a9c565b91507f496e76616c69642050524e0000000000000000000000000000000000000000006000830152602082019050919050565b60006123ae600f83612a9c565b91507f4d616c666f726d656420426c6f636b00000000000000000000000000000000006000830152602082019050919050565b60006123ee601183612a9c565b91507f496e76616c6964205369676e61747572650000000000000000000000000000006000830152602082019050919050565b600061242e601583612a9c565b91507f4d69736d6174636865642056616c696461746f727300000000000000000000006000830152602082019050919050565b600061246e600c83612a9c565b91507f4d617374657273204f6e6c7900000000000000000000000000000000000000006000830152602082019050919050565b60006124ae601083612a9c565b91507f52657065617465642047656e65736973000000000000000000000000000000006000830152602082019050919050565b60006124ee600a83612a9c565b91507f496e76616c696420524e000000000000000000000000000000000000000000006000830152602082019050919050565b600061252e600983612a9c565b91507f4f6c6420426c6f636b00000000000000000000000000000000000000000000006000830152602082019050919050565b604082016000820151612577600085018261213b565b50602082015161258a60208501826121c3565b50505050565b60a0820160008201516125a6600085018261213b565b5060208201516125b960208501826121c3565b5060408201516125cc6040850182612657565b5060608201516125df60608501826121c3565b5060808201516125f2608085018261211d565b50505050565b6000606083016000830151848203600086015261261582826120bf565b915050602083015161262a60208601826121c3565b50604083015161263d60408601826121c3565b508091505092915050565b61265181612aff565b82525050565b61266081612b09565b82525050565b61266f81612b1d565b82525050565b60006126818284612192565b915081905092915050565b60006020820190506126a1600083018461212c565b92915050565b60006040820190506126bc600083018561214a565b6126c960208301846121d2565b9392505050565b60006080820190506126e5600083018761214a565b6126f26020830186612666565b6126ff604083018561214a565b61270c606083018461214a565b95945050505050565b6000602082019050818103600083015261272f8184612159565b905092915050565b60006020820190508181036000830152612750816121e1565b9050919050565b6000602082019050818103600083015261277081612221565b9050919050565b6000602082019050818103600083015261279081612261565b9050919050565b600060208201905081810360008301526127b0816122a1565b9050919050565b600060208201905081810360008301526127d0816122e1565b9050919050565b600060208201905081810360008301526127f081612321565b9050919050565b6000602082019050818103600083015261281081612361565b9050919050565b60006020820190508181036000830152612830816123a1565b9050919050565b60006020820190508181036000830152612850816123e1565b9050919050565b6000602082019050818103600083015261287081612421565b9050919050565b6000602082019050818103600083015261289081612461565b9050919050565b600060208201905081810360008301526128b0816124a1565b9050919050565b600060208201905081810360008301526128d0816124e1565b9050919050565b600060208201905081810360008301526128f081612521565b9050919050565b600060408201905061290c6000830184612561565b92915050565b60006080820190506129276000830185612561565b6129346040830184612561565b9392505050565b600060a0820190506129506000830184612590565b92915050565b6000602082019050818103600083015261297081846125f8565b905092915050565b600060208201905061298d6000830184612648565b92915050565b6000604051905081810181811067ffffffffffffffff821117156129b657600080fd5b8060405250919050565b600067ffffffffffffffff8211156129d757600080fd5b602082029050602081019050919050565b600067ffffffffffffffff8211156129ff57600080fd5b602082029050602081019050919050565b600067ffffffffffffffff821115612a2757600080fd5b601f19601f8301169050602081019050919050565b6000819050602082019050919050565b600081519050919050565b600081519050919050565b6000602082019050919050565b600082825260208201905092915050565b600082825260208201905092915050565b600081905092915050565b600082825260208201905092915050565b6000612ab882612adf565b9050919050565b60008115159050919050565b6000819050919050565b6000819050919050565b600073ffffffffffffffffffffffffffffffffffffffff82169050919050565b6000819050919050565b600067ffffffffffffffff82169050919050565b600060ff82169050919050565b82818337600083830152505050565b60005b83811015612b57578082015181840152602081019050612b3c565b83811115612b66576000848401525b50505050565b6000601f19601f8301169050919050565b612b8681612aad565b8114612b9157600080fd5b50565b612b9d81612acb565b8114612ba857600080fd5b50565b612bb481612ad5565b8114612bbf57600080fd5b50565b612bcb81612b09565b8114612bd657600080fd5b5056fea365627a7a72315820b3091213932f03d8000f83718adf9779e188e7703b7e7c650d4b872e7fcee2a96c6578706572696d656e74616cf564736f6c63430005100040",
  "source": "// SPDX-License-Identifier: MIT\npragma solidity >=0.4.21 <0.9.0;\npragma experimental ABIEncoderV2;\n\nimport \"./HeaderReader.sol\";\n\ncontract Subnet {\n\n  struct Header {\n    bytes32 parent_hash;\n    uint256 mix; // padding 63 | uint64 number | uint64 round_num | uint64 mainnet_num | bool finalized \n  }\n\n  struct HeaderInfo {\n    bytes32 parent_hash;\n    int number;\n    uint64 round_num;\n    int mainnet_num;\n    bool finalized;\n  }\n\n  struct Validators {\n    address[] set;\n    int number;\n    int threshold;\n  }\n\n  struct BlockLite {\n    bytes32 hash;\n    int number;\n  }\n\n  mapping(bytes32 => Header) header_tree;\n  mapping(int => bytes32) committed_blocks;\n  mapping(address => bool) lookup;\n  mapping(address => bool) unique_addr;\n  mapping(address => bool) masters;\n  Validators current_validators;\n  Validators next_validators;\n  bytes32 latest_block;\n  bytes32 latest_finalized_block;\n  uint64 GAP;\n  uint64 EPOCH;\n\n  // Event types\n  event SubnetBlockAccepted(bytes32 block_hash, int number);\n  event SubnetBlockFinalized(bytes32 block_hash, int number);\n\n  // Modifier\n  modifier onlyMasters() {\n    if (!masters[msg.sender]) revert(\"Masters Only\");\n    _;\n  }\n\n  constructor(\n    address[] memory initial_validator_set,\n    bytes memory genesis_header,\n    bytes memory block1_header,\n    uint64 gap,\n    uint64 epoch\n  ) public {\n    require(initial_validator_set.length > 0, \"Validator Empty\");\n    bytes32 genesis_header_hash = keccak256(genesis_header);\n    bytes32 block1_header_hash = keccak256(block1_header);\n    (bytes32 ph, int n) = HeaderReader.getParentHashAndNumber(genesis_header);\n    (bytes32 ph1, int n1, uint64 rn) = HeaderReader.getBlock1Params(block1_header);\n    require(n == 0 && n1 == 1, \"Invalid Init Block\");\n    header_tree[genesis_header_hash] = Header({\n      parent_hash: ph,\n      mix: uint256(n) << 129 | uint256(block.number) << 1 | 1\n    });\n    header_tree[block1_header_hash] = Header({\n      parent_hash: ph1,\n      mix: uint256(n1) << 129 | uint256(rn) << 65 | uint256(block.number) << 1 | 1\n    });\n    current_validators = Validators({\n      set: initial_validator_set,\n      number: 1,\n      threshold: int256(initial_validator_set.length * 2 / 3)\n    });\n    updateLookup(initial_validator_set);\n    masters[msg.sender] = true;\n    latest_block = block1_header_hash;\n    latest_finalized_block = block1_header_hash;\n    committed_blocks[0] = genesis_header_hash;\n    committed_blocks[1] = block1_header_hash;\n    GAP = gap;\n    EPOCH = epoch;\n  }\n\n  function isMaster(address master) public view returns (bool) {\n    return masters[master];\n  }\n\n  function addMaster(address master) public onlyMasters {\n    masters[master] = true;\n  }\n\n  function removeMaster(address master) public onlyMasters {\n    masters[master] = false;\n  }\n\n  function receiveHeader(bytes[] memory headers) public onlyMasters {\n    for (uint x = 0; x < headers.length; x++) {\n      (\n        bytes32 parent_hash,\n        int number,\n        uint64 round_number,\n        uint64 prev_round_number,\n        bytes32 signHash,\n        bytes[] memory sigs\n      ) = HeaderReader.getValidationParams(headers[x]);\n    \n      (\n        address[] memory current,\n        address[] memory next\n      ) = HeaderReader.getEpoch(headers[x]);\n      \n      require(number > 0, \"Repeated Genesis\");\n      require(number > int256(uint256(uint64(header_tree[latest_finalized_block].mix >> 129))), \"Old Block\");\n      require(header_tree[parent_hash].mix != 0, \"Parent Missing\");\n      require(int256(uint256(uint64(header_tree[parent_hash].mix >> 129))) + 1 == number, \"Invalid N\");\n      require(uint64(header_tree[parent_hash].mix >> 65) < round_number, \"Invalid RN\");\n      require(uint64(header_tree[parent_hash].mix >> 65) == prev_round_number, \"Invalid PRN\");\n      \n      bytes32 block_hash = keccak256(headers[x]);\n      if (header_tree[block_hash].mix > 0) \n        revert(\"Repeated Header\");\n      if (current.length > 0 && next.length > 0)\n        revert(\"Malformed Block\");\n      else if (current.length > 0) {\n        if (next_validators.set.length != current.length)\n          revert(\"Mismatched Validators\");\n        else {\n          if (prev_round_number < round_number - (round_number % EPOCH)) {\n            int256 gap_number = number - number % int256(uint256(EPOCH)) - int256(uint256(GAP));\n            if (gap_number < 0) {\n              gap_number = 0;\n            }\n            if (gap_number + 1 == next_validators.number) {\n              for (uint i = 0; i < next_validators.set.length; i++) {\n                unique_addr[next_validators.set[i]] = true;\n              }\n              for (uint i = 0; i < next_validators.set.length; i++) {\n                if (!unique_addr[next_validators.set[i]]) \n                  revert(\"Mismatched Validators\");\n                else\n                  unique_addr[next_validators.set[i]] = false;\n              }\n              for (uint i = 0; i < current_validators.set.length; i++) {\n                lookup[current_validators.set[i]] = false;\n              }\n              for (uint i = 0; i < current.length; i++) {\n                lookup[next_validators.set[i]] = true;\n              }\n              current_validators = next_validators;\n              // next_validators = Validators({\n              //   set: new address[](0),\n              //   number: 0,\n              //   threshold: 0\n              // });\n            } else if (gap_number + 1 != current_validators.number) {\n              revert(\"Invalid Current Block\");\n            }\n          } else\n            revert(\"Invalid Current Block\");\n        }\n      } else if (next.length > 0) {\n        if (uint64(uint256(number % int256(uint256(EPOCH)))) == EPOCH - GAP + 1) {\n          next_validators = Validators({\n            set: next,\n            number: number,\n            threshold: int256(next.length * 2 / 3)\n          });\n        } else\n          revert(\"Invalid Next Block\");\n      }\n\n      int unique_counter = 0;\n      address[] memory signer_list = new address[](sigs.length);\n      for (uint i = 0; i < sigs.length; i++) {\n        address signer = recoverSigner(signHash, sigs[i]);\n        if (lookup[signer] != true) {\n          revert(\"Verification Fail\");\n        }\n        if (!unique_addr[signer]) {\n          unique_counter ++;\n          unique_addr[signer]=true;\n        } else {\n          revert(\"Verification Fail\");\n        }\n        signer_list[i] = signer;\n      }\n      for (uint i = 0; i < signer_list.length; i++) {\n        unique_addr[signer_list[i]] = false;\n      }\n      if (unique_counter < current_validators.threshold) {\n        revert(\"Verification Fail\");\n      }\n      header_tree[block_hash] = Header({\n        parent_hash: parent_hash,\n        mix: uint256(number) << 129 | uint256(round_number) << 65 | uint256(block.number) << 1\n      });\n      emit SubnetBlockAccepted(block_hash, number);\n      if (number > int256(uint256(uint64(header_tree[latest_block].mix >> 129)))) {\n        latest_block = block_hash;\n      }\n      // Look for 3 consecutive round\n      bool found_committed_flag = true;\n      bytes32 curr_hash = block_hash;\n      for (uint i = 0; i < 3; i++) {\n        if (header_tree[curr_hash].parent_hash == 0) {\n          found_committed_flag = false;\n          break;\n        }\n        bytes32 prev_hash = header_tree[curr_hash].parent_hash;\n        if (uint64(header_tree[curr_hash].mix >> 65) != uint64(header_tree[prev_hash].mix >> 65)+1) {\n          found_committed_flag = false;\n          break;\n        } else {\n          curr_hash = prev_hash;\n        }\n      }\n      if (found_committed_flag == false) continue;\n      latest_finalized_block = curr_hash;\n      // Confirm all ancestor unconfirmed block\n      while ((header_tree[curr_hash].mix & 1) != 1) {\n        header_tree[curr_hash].mix |= 1;\n        committed_blocks[int256(uint256(uint64(header_tree[curr_hash].mix >> 129)))] = curr_hash;\n        emit SubnetBlockFinalized(curr_hash, int256(uint256(uint64(header_tree[curr_hash].mix >> 129))));\n        curr_hash = header_tree[curr_hash].parent_hash;\n      }\n    }\n  }\n\n  /// signature methods.\n  function splitSignature(bytes memory sig)\n    internal\n    pure\n    returns (uint8 v, bytes32 r, bytes32 s)\n  {\n    require(sig.length == 65, \"Invalid Signature\");\n    assembly {\n      // first 32 bytes, after the length prefix.\n      r := mload(add(sig, 32))\n      // second 32 bytes.\n      s := mload(add(sig, 64))\n      // final byte (first byte of the next 32 bytes).\n      v := byte(0, mload(add(sig, 96)))\n    }\n    // TOCHECK: v needs 27 more, may related with EIP1559\n    return (v+27, r, s);\n  }\n\n  function updateLookup(address[] memory initial_validator_set) internal {\n    for (uint i = 0; i < initial_validator_set.length; i++) {\n      lookup[initial_validator_set[i]] = true;\n    }\n  }\n\n  function recoverSigner(bytes32 message, bytes memory sig)\n    internal\n    pure\n    returns (address)\n  {\n    (uint8 v, bytes32 r, bytes32 s) = splitSignature(sig);\n    return ecrecover(message, v, r, s);\n  }\n\n  function getHeader(bytes32 header_hash) public view returns (HeaderInfo memory) {\n    return HeaderInfo({\n      parent_hash: header_tree[header_hash].parent_hash,\n      number: int256(uint256(uint64(header_tree[header_hash].mix >> 129))),\n      round_num: uint64(header_tree[header_hash].mix >> 65),\n      mainnet_num: int256(uint256(uint64(header_tree[header_hash].mix >> 1))),\n      finalized: (header_tree[header_hash].mix & 1) == 1\n    });\n  }\n\n\n  function getHeaderByNumber(int number) public view returns (BlockLite memory) {\n    if (committed_blocks[number] == 0) {\n      int block_num = int256(uint256(uint64(header_tree[latest_block].mix >> 129)));\n      if (number > block_num) {\n        return BlockLite({\n          hash: bytes32(0),\n          number: 0\n        });\n      }\n      int num_gap =  block_num - number;\n      bytes32 curr_hash = latest_block;\n      for (int i = 0; i < num_gap; i++) {\n        curr_hash = header_tree[curr_hash].parent_hash;\n      }\n      return BlockLite({\n        hash: curr_hash,\n        number: int256(uint256(uint64(header_tree[curr_hash].mix >> 129)))\n      });\n    } else {\n      return BlockLite({\n        hash: committed_blocks[number],\n        number: int256(uint256(uint64(header_tree[committed_blocks[number]].mix >> 129)))\n      });\n    }\n    \n  }\n  \n  function getHeaderConfirmationStatus(bytes32 header_hash) public view returns (bool) {\n    return (header_tree[header_hash].mix & 1 == 1);\n  }\n\n  function getMainnetBlockNumber(bytes32 header_hash) public view returns (uint) {\n    return uint256(uint64(header_tree[header_hash].mix >> 1));\n  }\n\n  function getLatestBlocks() public view returns (BlockLite memory, BlockLite memory) {\n    return (\n        BlockLite({\n        hash: latest_block,\n        number: int256(uint256(uint64(header_tree[latest_block].mix >> 129)))\n      }),\n        BlockLite({\n        hash: latest_finalized_block,\n        number: int256(uint256(uint64(header_tree[latest_finalized_block].mix >> 129)))\n    }));\n  }\n\n  function getCurrentValidators() public view returns (Validators memory) {\n    return current_validators;\n  }\n}",
  "sourcePath": "/Users/sihengpan/Documents/XinFin/XDC-Subnet/mainnet_contract/contracts/Subnet.sol",
  "compiler": {
    "name": "solc",
    "version": "0.5.16+commit.9c3226ce.Emscripten.clang"
  },
  "schemaVersion": "3.4.1",
  "updatedAt": "2023-04-10T20:21:46.558Z",
  "devdoc": {
    "methods": {}
  },
  "userdoc": {
    "methods": {}
  }
}