{
  "contractName": "Subnet",
  "abi": [
    {
      "inputs": [
        {
          "internalType": "address[]",
          "name": "initial_validator_set",
          "type": "address[]"
        },
        {
          "internalType": "int256",
          "name": "threshold",
          "type": "int256"
        },
        {
          "internalType": "bytes",
          "name": "genesis_header",
          "type": "bytes"
        },
        {
          "internalType": "bytes",
          "name": "block1_header",
          "type": "bytes"
        }
      ],
      "payable": false,
      "stateMutability": "nonpayable",
      "type": "constructor"
    },
    {
      "anonymous": false,
      "inputs": [
        {
          "indexed": false,
          "internalType": "bytes32",
          "name": "block_hash",
          "type": "bytes32"
        },
        {
          "indexed": false,
          "internalType": "int256",
          "name": "number",
          "type": "int256"
        }
      ],
      "name": "SubnetBlockAccepted",
      "type": "event"
    },
    {
      "anonymous": false,
      "inputs": [
        {
          "indexed": false,
          "internalType": "bytes32",
          "name": "block_hash",
          "type": "bytes32"
        },
        {
          "indexed": false,
          "internalType": "int256",
          "name": "number",
          "type": "int256"
        }
      ],
      "name": "SubnetBlockFinalized",
      "type": "event"
    },
    {
      "constant": true,
      "inputs": [
        {
          "internalType": "int256",
          "name": "",
          "type": "int256"
        }
      ],
      "name": "committed_blocks",
      "outputs": [
        {
          "internalType": "bytes32",
          "name": "",
          "type": "bytes32"
        }
      ],
      "payable": false,
      "stateMutability": "view",
      "type": "function"
    },
    {
      "constant": true,
      "inputs": [],
      "name": "current_subnet_height",
      "outputs": [
        {
          "internalType": "int256",
          "name": "",
          "type": "int256"
        }
      ],
      "payable": false,
      "stateMutability": "view",
      "type": "function"
    },
    {
      "constant": true,
      "inputs": [],
      "name": "current_validator_set_pointer",
      "outputs": [
        {
          "internalType": "int256",
          "name": "",
          "type": "int256"
        }
      ],
      "payable": false,
      "stateMutability": "view",
      "type": "function"
    },
    {
      "constant": true,
      "inputs": [
        {
          "internalType": "bytes32",
          "name": "",
          "type": "bytes32"
        }
      ],
      "name": "header_tree",
      "outputs": [
        {
          "internalType": "bytes32",
          "name": "hash",
          "type": "bytes32"
        },
        {
          "internalType": "int256",
          "name": "number",
          "type": "int256"
        },
        {
          "internalType": "uint64",
          "name": "round_num",
          "type": "uint64"
        },
        {
          "internalType": "bytes32",
          "name": "parent_hash",
          "type": "bytes32"
        },
        {
          "internalType": "bool",
          "name": "finalized",
          "type": "bool"
        },
        {
          "internalType": "uint256",
          "name": "mainnet_num",
          "type": "uint256"
        },
        {
          "internalType": "bytes",
          "name": "src",
          "type": "bytes"
        }
      ],
      "payable": false,
      "stateMutability": "view",
      "type": "function"
    },
    {
      "constant": true,
      "inputs": [],
      "name": "latest_block",
      "outputs": [
        {
          "internalType": "bytes32",
          "name": "",
          "type": "bytes32"
        }
      ],
      "payable": false,
      "stateMutability": "view",
      "type": "function"
    },
    {
      "constant": true,
      "inputs": [],
      "name": "latest_finalized_block",
      "outputs": [
        {
          "internalType": "bytes32",
          "name": "",
          "type": "bytes32"
        }
      ],
      "payable": false,
      "stateMutability": "view",
      "type": "function"
    },
    {
      "constant": true,
      "inputs": [
        {
          "internalType": "address",
          "name": "",
          "type": "address"
        }
      ],
      "name": "lookup",
      "outputs": [
        {
          "internalType": "bool",
          "name": "",
          "type": "bool"
        }
      ],
      "payable": false,
      "stateMutability": "view",
      "type": "function"
    },
    {
      "constant": true,
      "inputs": [
        {
          "internalType": "address",
          "name": "",
          "type": "address"
        }
      ],
      "name": "masters",
      "outputs": [
        {
          "internalType": "bool",
          "name": "",
          "type": "bool"
        }
      ],
      "payable": false,
      "stateMutability": "view",
      "type": "function"
    },
    {
      "constant": true,
      "inputs": [
        {
          "internalType": "address",
          "name": "",
          "type": "address"
        }
      ],
      "name": "unique_addr",
      "outputs": [
        {
          "internalType": "bool",
          "name": "",
          "type": "bool"
        }
      ],
      "payable": false,
      "stateMutability": "view",
      "type": "function"
    },
    {
      "constant": true,
      "inputs": [
        {
          "internalType": "int256",
          "name": "",
          "type": "int256"
        }
      ],
      "name": "validator_sets",
      "outputs": [
        {
          "internalType": "int256",
          "name": "threshold",
          "type": "int256"
        }
      ],
      "payable": false,
      "stateMutability": "view",
      "type": "function"
    },
    {
      "constant": true,
      "inputs": [
        {
          "internalType": "address",
          "name": "master",
          "type": "address"
        }
      ],
      "name": "isMaster",
      "outputs": [
        {
          "internalType": "bool",
          "name": "",
          "type": "bool"
        }
      ],
      "payable": false,
      "stateMutability": "view",
      "type": "function"
    },
    {
      "constant": false,
      "inputs": [
        {
          "internalType": "address",
          "name": "master",
          "type": "address"
        }
      ],
      "name": "addMaster",
      "outputs": [],
      "payable": false,
      "stateMutability": "nonpayable",
      "type": "function"
    },
    {
      "constant": false,
      "inputs": [
        {
          "internalType": "address",
          "name": "master",
          "type": "address"
        }
      ],
      "name": "removeMaster",
      "outputs": [],
      "payable": false,
      "stateMutability": "nonpayable",
      "type": "function"
    },
    {
      "constant": false,
      "inputs": [
        {
          "internalType": "address[]",
          "name": "new_validator_set",
          "type": "address[]"
        },
        {
          "internalType": "int256",
          "name": "threshold",
          "type": "int256"
        },
        {
          "internalType": "int256",
          "name": "subnet_block_height",
          "type": "int256"
        }
      ],
      "name": "reviseValidatorSet",
      "outputs": [],
      "payable": false,
      "stateMutability": "nonpayable",
      "type": "function"
    },
    {
      "constant": false,
      "inputs": [
        {
          "internalType": "bytes[]",
          "name": "headers",
          "type": "bytes[]"
        }
      ],
      "name": "receiveHeader",
      "outputs": [],
      "payable": false,
      "stateMutability": "nonpayable",
      "type": "function"
    },
    {
      "constant": true,
      "inputs": [
        {
          "internalType": "bytes32",
          "name": "header_hash",
          "type": "bytes32"
        }
      ],
      "name": "getHeader",
      "outputs": [
        {
          "internalType": "bytes",
          "name": "",
          "type": "bytes"
        }
      ],
      "payable": false,
      "stateMutability": "view",
      "type": "function"
    },
    {
      "constant": true,
      "inputs": [
        {
          "internalType": "int256",
          "name": "number",
          "type": "int256"
        }
      ],
      "name": "getHeaderByNumber",
      "outputs": [
        {
          "components": [
            {
              "internalType": "bytes32",
              "name": "hash",
              "type": "bytes32"
            },
            {
              "internalType": "int256",
              "name": "number",
              "type": "int256"
            }
          ],
          "internalType": "struct Subnet.BlockLite",
          "name": "",
          "type": "tuple"
        }
      ],
      "payable": false,
      "stateMutability": "view",
      "type": "function"
    },
    {
      "constant": true,
      "inputs": [
        {
          "internalType": "bytes32",
          "name": "header_hash",
          "type": "bytes32"
        }
      ],
      "name": "getHeaderConfirmationStatus",
      "outputs": [
        {
          "internalType": "bool",
          "name": "",
          "type": "bool"
        }
      ],
      "payable": false,
      "stateMutability": "view",
      "type": "function"
    },
    {
      "constant": true,
      "inputs": [
        {
          "internalType": "bytes32",
          "name": "header_hash",
          "type": "bytes32"
        }
      ],
      "name": "getMainnetBlockNumber",
      "outputs": [
        {
          "internalType": "uint256",
          "name": "",
          "type": "uint256"
        }
      ],
      "payable": false,
      "stateMutability": "view",
      "type": "function"
    },
    {
      "constant": true,
      "inputs": [],
      "name": "getLatestBlocks",
      "outputs": [
        {
          "components": [
            {
              "internalType": "bytes32",
              "name": "hash",
              "type": "bytes32"
            },
            {
              "internalType": "int256",
              "name": "number",
              "type": "int256"
            }
          ],
          "internalType": "struct Subnet.BlockLite",
          "name": "",
          "type": "tuple"
        },
        {
          "components": [
            {
              "internalType": "bytes32",
              "name": "hash",
              "type": "bytes32"
            },
            {
              "internalType": "int256",
              "name": "number",
              "type": "int256"
            }
          ],
          "internalType": "struct Subnet.BlockLite",
          "name": "",
          "type": "tuple"
        }
      ],
      "payable": false,
      "stateMutability": "view",
      "type": "function"
    },
    {
      "constant": true,
      "inputs": [
        {
          "internalType": "int256",
          "name": "height",
          "type": "int256"
        }
      ],
      "name": "getValidatorSet",
      "outputs": [
        {
          "internalType": "address[]",
          "name": "res",
          "type": "address[]"
        }
      ],
      "payable": false,
      "stateMutability": "view",
      "type": "function"
    },
    {
      "constant": true,
      "inputs": [
        {
          "internalType": "int256",
          "name": "height",
          "type": "int256"
        }
      ],
      "name": "getValidatorThreshold",
      "outputs": [
        {
          "internalType": "int256",
          "name": "res",
          "type": "int256"
        }
      ],
      "payable": false,
      "stateMutability": "view",
      "type": "function"
    }
  ],
  "bytecode": "0x6080604052600080553480156200001557600080fd5b5060405162003acb38038062003acb83398181016040526200003b919081019062000834565b600084511162000082576040517f08c379a0000000000000000000000000000000000000000000000000000000008152600401620000799062000a6b565b60405180910390fd5b60008313620000c8576040517f08c379a0000000000000000000000000000000000000000000000000000000008152600401620000bf9062000a8d565b60405180910390fd5b60008280519060200120905060008280519060200120905060008073__HeaderReader__________________________63dc9e408b876040518263ffffffff1660e01b81526004016200011c919062000a47565b604080518083038186803b1580156200013457600080fd5b505af415801562000149573d6000803e3d6000fd5b505050506040513d601f19601f820116820180604052506200016f9190810190620008eb565b91509150600080600073__HeaderReader__________________________63be7558c0896040518263ffffffff1660e01b8152600401620001b1919062000a47565b60606040518083038186803b158015620001ca57600080fd5b505af4158015620001df573d6000803e3d6000fd5b505050506040513d601f19601f820116820180604052506200020591908101906200092c565b9250925092506040518060e00160405280888152602001858152602001600067ffffffffffffffff1681526020018681526020016001151581526020014381526020018a81525060046000898152602001908152602001600020600082015181600001556020820151816001015560408201518160020160006101000a81548167ffffffffffffffff021916908367ffffffffffffffff1602179055506060820151816003015560808201518160040160006101000a81548160ff02191690831515021790555060a0820151816005015560c0820151816006019080519060200190620002f49291906200056b565b509050506040518060e001604052808781526020018381526020018267ffffffffffffffff1681526020018481526020016001151581526020014381526020018981525060046000888152602001908152602001600020600082015181600001556020820151816001015560408201518160020160006101000a81548167ffffffffffffffff021916908367ffffffffffffffff1602179055506060820151816003015560808201518160040160006101000a81548160ff02191690831515021790555060a0820151816005015560c0820151816006019080519060200190620003e09291906200056b565b5090505060405180604001604052808c81526020018b8152506005600080815260200190815260200160002060008201518160000190805190602001906200042a929190620005f2565b506020820151816001015590505060008090505b8b51811015620004c2576001600760008e84815181106200045b57fe5b602002602001015173ffffffffffffffffffffffffffffffffffffffff1673ffffffffffffffffffffffffffffffffffffffff16815260200190815260200160002060006101000a81548160ff02191690831515021790555080806001019150506200043e565b506001600960003373ffffffffffffffffffffffffffffffffffffffff1673ffffffffffffffffffffffffffffffffffffffff16815260200190815260200160002060006101000a81548160ff021916908315150217905550856002819055508560038190555086600660008081526020019081526020016000208190555085600660006001815260200190815260200160002081905550505050505050505050505062000c6b565b828054600181600116156101000203166002900490600052602060002090601f016020900481019282601f10620005ae57805160ff1916838001178555620005df565b82800160010185558215620005df579182015b82811115620005de578251825591602001919060010190620005c1565b5b509050620005ee919062000681565b5090565b8280548282559060005260206000209081019282156200066e579160200282015b828111156200066d5782518260006101000a81548173ffffffffffffffffffffffffffffffffffffffff021916908373ffffffffffffffffffffffffffffffffffffffff1602179055509160200191906001019062000613565b5b5090506200067d9190620006a9565b5090565b620006a691905b80821115620006a257600081600090555060010162000688565b5090565b90565b620006ec91905b80821115620006e857600081816101000a81549073ffffffffffffffffffffffffffffffffffffffff021916905550600101620006b0565b5090565b90565b600081519050620007008162000c03565b92915050565b600082601f8301126200071857600080fd5b81516200072f620007298262000add565b62000aaf565b915081818352602084019350602081019050838560208402820111156200075557600080fd5b60005b838110156200078957816200076e8882620006ef565b84526020840193506020830192505060018101905062000758565b5050505092915050565b600081519050620007a48162000c1d565b92915050565b600082601f830112620007bc57600080fd5b8151620007d3620007cd8262000b06565b62000aaf565b91508082526020830160208301858383011115620007f057600080fd5b620007fd83828462000bbc565b50505092915050565b600081519050620008178162000c37565b92915050565b6000815190506200082e8162000c51565b92915050565b600080600080608085870312156200084b57600080fd5b600085015167ffffffffffffffff8111156200086657600080fd5b620008748782880162000706565b9450506020620008878782880162000806565b935050604085015167ffffffffffffffff811115620008a557600080fd5b620008b387828801620007aa565b925050606085015167ffffffffffffffff811115620008d157600080fd5b620008df87828801620007aa565b91505092959194509250565b60008060408385031215620008ff57600080fd5b60006200090f8582860162000793565b9250506020620009228582860162000806565b9150509250929050565b6000806000606084860312156200094257600080fd5b6000620009528682870162000793565b9350506020620009658682870162000806565b925050604062000978868287016200081d565b9150509250925092565b60006200098f8262000b33565b6200099b818562000b3e565b9350620009ad81856020860162000bbc565b620009b88162000bf2565b840191505092915050565b6000620009d2600f8362000b4f565b91507f56616c696461746f7220456d70747900000000000000000000000000000000006000830152602082019050919050565b600062000a1460118362000b4f565b91507f496e76616c6964205468726573686f6c640000000000000000000000000000006000830152602082019050919050565b6000602082019050818103600083015262000a63818462000982565b905092915050565b6000602082019050818103600083015262000a8681620009c3565b9050919050565b6000602082019050818103600083015262000aa88162000a05565b9050919050565b6000604051905081810181811067ffffffffffffffff8211171562000ad357600080fd5b8060405250919050565b600067ffffffffffffffff82111562000af557600080fd5b602082029050602081019050919050565b600067ffffffffffffffff82111562000b1e57600080fd5b601f19601f8301169050602081019050919050565b600081519050919050565b600082825260208201905092915050565b600082825260208201905092915050565b600062000b6d8262000b88565b9050919050565b6000819050919050565b6000819050919050565b600073ffffffffffffffffffffffffffffffffffffffff82169050919050565b600067ffffffffffffffff82169050919050565b60005b8381101562000bdc57808201518184015260208101905062000bbf565b8381111562000bec576000848401525b50505050565b6000601f19601f8301169050919050565b62000c0e8162000b60565b811462000c1a57600080fd5b50565b62000c288162000b74565b811462000c3457600080fd5b50565b62000c428162000b7e565b811462000c4e57600080fd5b50565b62000c5c8162000ba8565b811462000c6857600080fd5b50565b612e508062000c7b6000396000f3fe608060405234801561001057600080fd5b50600436106101425760003560e01c80637a38a106116100b8578063d4b6b5da1161007c578063d4b6b5da146103ca578063d509c315146103fa578063da1b8d2d14610418578063e2a2f0a314610448578063eb71f0f814610464578063f720f80b1461049457610142565b80637a38a106146103125780637c243f4f1461034257806395825e1014610360578063a20140c31461037e578063b96158781461039a57610142565b8063375680491161010a57806337568049146101fd5780633f02f39e1461022d578063612ffa221461026357806366dcb0ba146102935780636c624a5f146102b25780636fed6f83146102e257610142565b80630247dd65146101475780630b11be11146101635780631097d54a1461019357806321a984d2146101af57806322b8f46e146101cd575b600080fd5b610161600480360361015c91908101906120b7565b6104c4565b005b61017d60048036036101789190810190612229565b6106b6565b60405161018a919061282e565b60405180910390f35b6101ad60048036036101a8919081019061208e565b6106ce565b005b6101b76107b5565b6040516101c4919061282e565b60405180910390f35b6101e760048036036101e29190810190612229565b6107bb565b6040516101f491906127f1565b60405180910390f35b61021760048036036102129190810190612229565b6108b7565b6040516102249190612971565b60405180910390f35b6102476004803603610242919081019061215f565b6108ff565b60405161025a9796959493929190612872565b60405180910390f35b61027d6004803603610278919081019061208e565b6109fa565b60405161028a9190612813565b60405180910390f35b61029b610a1a565b6040516102a9929190612b67565b60405180910390f35b6102cc60048036036102c7919081019061215f565b610a96565b6040516102d99190612813565b60405180910390f35b6102fc60048036036102f7919081019061215f565b610ac3565b6040516103099190612b90565b60405180910390f35b61032c6004803603610327919081019061208e565b610ae3565b6040516103399190612813565b60405180910390f35b61034a610b03565b604051610357919061282e565b60405180910390f35b610368610b09565b6040516103759190612971565b60405180910390f35b6103986004803603610393919081019061211e565b610b0f565b005b6103b460048036036103af919081019061215f565b6117d8565b6040516103c1919061294f565b60405180910390f35b6103e460048036036103df919081019061208e565b611890565b6040516103f19190612813565b60405180910390f35b6104026118b0565b60405161040f9190612971565b60405180910390f35b610432600480360361042d9190810190612229565b6118b6565b60405161043f9190612971565b60405180910390f35b610462600480360361045d919081019061208e565b6118d4565b005b61047e60048036036104799190810190612229565b6119bb565b60405161048b9190612b4c565b60405180910390f35b6104ae60048036036104a9919081019061208e565b611b35565b6040516104bb9190612813565b60405180910390f35b600960003373ffffffffffffffffffffffffffffffffffffffff1673ffffffffffffffffffffffffffffffffffffffff16815260200190815260200160002060009054906101000a900460ff16610550576040517f08c379a000000000000000000000000000000000000000000000000000000000815260040161054790612aac565b60405180910390fd5b6000835111610594576040517f08c379a000000000000000000000000000000000000000000000000000000000815260040161058b906129ac565b60405180910390fd5b600082136105d7576040517f08c379a00000000000000000000000000000000000000000000000000000000081526004016105ce90612a2c565b60405180910390fd5b6001811361061a576040517f08c379a000000000000000000000000000000000000000000000000000000000815260040161061190612b2c565b60405180910390fd5b60005481121561065f576040517f08c379a000000000000000000000000000000000000000000000000000000000815260040161065690612a4c565b60405180910390fd5b6040518060400160405280848152602001838152506005600083815260200190815260200160002060008201518160000190805190602001906106a3929190611c6e565b5060208201518160010155905050505050565b60066020528060005260406000206000915090505481565b600960003373ffffffffffffffffffffffffffffffffffffffff1673ffffffffffffffffffffffffffffffffffffffff16815260200190815260200160002060009054906101000a900460ff1661075a576040517f08c379a000000000000000000000000000000000000000000000000000000000815260040161075190612aac565b60405180910390fd5b6001600960008373ffffffffffffffffffffffffffffffffffffffff1673ffffffffffffffffffffffffffffffffffffffff16815260200190815260200160002060006101000a81548160ff02191690831515021790555050565b60025481565b606060006005600084815260200190815260200160002060010154141561081457600060405190808252806020026020018201604052801561080c5781602001602082028038833980820191505090505b5090506108b2565b600560008381526020019081526020016000206000018054806020026020016040519081016040528092919081815260200182805480156108aa57602002820191906000526020600020905b8160009054906101000a900473ffffffffffffffffffffffffffffffffffffffff1673ffffffffffffffffffffffffffffffffffffffff1681526020019060010190808311610860575b505050505090505b919050565b600080600560008481526020019081526020016000206001015414156108e057600090506108fa565b600560008381526020019081526020016000206001015490505b919050565b60046020528060005260406000206000915090508060000154908060010154908060020160009054906101000a900467ffffffffffffffff16908060030154908060040160009054906101000a900460ff1690806005015490806006018054600181600116156101000203166002900480601f0160208091040260200160405190810160405280929190818152602001828054600181600116156101000203166002900480156109f05780601f106109c5576101008083540402835291602001916109f0565b820191906000526020600020905b8154815290600101906020018083116109d357829003601f168201915b5050505050905087565b60086020528060005260406000206000915054906101000a900460ff1681565b610a22611cf8565b610a2a611cf8565b60405180604001604052806002548152602001600460006002548152602001908152602001600020600101548152506040518060400160405280600354815260200160046000600354815260200190815260200160002060010154815250819150809050915091509091565b60006004600083815260200190815260200160002060040160009054906101000a900460ff169050919050565b600060046000838152602001908152602001600020600501549050919050565b60096020528060005260406000206000915054906101000a900460ff1681565b60035481565b60015481565b600960003373ffffffffffffffffffffffffffffffffffffffff1673ffffffffffffffffffffffffffffffffffffffff16815260200190815260200160002060009054906101000a900460ff16610b9b576040517f08c379a0000000000000000000000000000000000000000000000000000000008152600401610b9290612aac565b60405180910390fd5b60008090505b81518110156117d4576000806000806000606073__HeaderReader__________________________6344e06ed4898981518110610bda57fe5b60200260200101516040518263ffffffff1660e01b8152600401610bfe919061292d565b60006040518083038186803b158015610c1657600080fd5b505af4158015610c2a573d6000803e3d6000fd5b505050506040513d6000823e3d601f19601f82011682018060405250610c539190810190612188565b95509550955095509550955060008513610ca2576040517f08c379a0000000000000000000000000000000000000000000000000000000008152600401610c9990612acc565b60405180910390fd5b600460006003548152602001908152602001600020600101548513610cfc576040517f08c379a0000000000000000000000000000000000000000000000000000000008152600401610cf390612b0c565b60405180910390fd5b6000801b60046000888152602001908152602001600020600001541415610d58576040517f08c379a0000000000000000000000000000000000000000000000000000000008152600401610d4f9061298c565b60405180910390fd5b84600160046000898152602001908152602001600020600101540114610db3576040517f08c379a0000000000000000000000000000000000000000000000000000000008152600401610daa906129ec565b60405180910390fd5b8367ffffffffffffffff166004600088815260200190815260200160002060020160009054906101000a900467ffffffffffffffff1667ffffffffffffffff1610610e33576040517f08c379a0000000000000000000000000000000000000000000000000000000008152600401610e2a90612aec565b60405180910390fd5b8267ffffffffffffffff166004600088815260200190815260200160002060020160009054906101000a900467ffffffffffffffff1667ffffffffffffffff1614610eb3576040517f08c379a0000000000000000000000000000000000000000000000000000000008152600401610eaa90612a6c565b60405180910390fd5b6000888881518110610ec157fe5b6020026020010151604051610ed691906127da565b60405180910390209050600060046000838152602001908152602001600020600101541315610f3a576040517f08c379a0000000000000000000000000000000000000000000000000000000008152600401610f31906129cc565b60405180910390fd5b6000600560008881526020019081526020016000206000018054905011156111165760008090505b6005600080548152602001908152602001600020600001805490508110156110355760006007600060056000805481526020019081526020016000206000018481548110610fac57fe5b9060005260206000200160009054906101000a900473ffffffffffffffffffffffffffffffffffffffff1673ffffffffffffffffffffffffffffffffffffffff1673ffffffffffffffffffffffffffffffffffffffff16815260200190815260200160002060006101000a81548160ff0219169083151502179055508080600101915050610f62565b5060008090505b600560008881526020019081526020016000206000018054905081101561110d57600160076000600560008b8152602001908152602001600020600001848154811061108457fe5b9060005260206000200160009054906101000a900473ffffffffffffffffffffffffffffffffffffffff1673ffffffffffffffffffffffffffffffffffffffff1673ffffffffffffffffffffffffffffffffffffffff16815260200190815260200160002060006101000a81548160ff021916908315150217905550808060010191505061103c565b50856000819055505b60008090506060835160405190808252806020026020018201604052801561114d5781602001602082028038833980820191505090505b50905060008090505b845181101561135957600061117e8787848151811061117157fe5b6020026020010151611b8b565b905060011515600760008373ffffffffffffffffffffffffffffffffffffffff1673ffffffffffffffffffffffffffffffffffffffff16815260200190815260200160002060009054906101000a900460ff16151514611213576040517f08c379a000000000000000000000000000000000000000000000000000000000815260040161120a90612a0c565b60405180910390fd5b600860008273ffffffffffffffffffffffffffffffffffffffff1673ffffffffffffffffffffffffffffffffffffffff16815260200190815260200160002060009054906101000a900460ff166112c95783806001019450506001600860008373ffffffffffffffffffffffffffffffffffffffff1673ffffffffffffffffffffffffffffffffffffffff16815260200190815260200160002060006101000a81548160ff021916908315150217905550611304565b6040517f08c379a00000000000000000000000000000000000000000000000000000000081526004016112fb90612a0c565b60405180910390fd5b8083838151811061131157fe5b602002602001019073ffffffffffffffffffffffffffffffffffffffff16908173ffffffffffffffffffffffffffffffffffffffff1681525050508080600101915050611156565b5060008090505b81518110156113e15760006008600084848151811061137b57fe5b602002602001015173ffffffffffffffffffffffffffffffffffffffff1673ffffffffffffffffffffffffffffffffffffffff16815260200190815260200160002060006101000a81548160ff0219169083151502179055508080600101915050611360565b5060056000805481526020019081526020016000206001015482121561143c576040517f08c379a000000000000000000000000000000000000000000000000000000000815260040161143390612a0c565b60405180910390fd5b6040518060e001604052808481526020018981526020018867ffffffffffffffff1681526020018a81526020016000151581526020014381526020018c8c8151811061148457fe5b602002602001015181525060046000858152602001908152602001600020600082015181600001556020820151816001015560408201518160020160006101000a81548167ffffffffffffffff021916908367ffffffffffffffff1602179055506060820151816003015560808201518160040160006101000a81548160ff02191690831515021790555060a0820151816005015560c0820151816006019080519060200190611535929190611d15565b509050507fc92de1e80780c8f239052c833b238f36e1f1f03c09628a198cefab0ed37d2b23838960405161156a929190612849565b60405180910390a160046000600254815260200190815260200160002060010154600460008581526020019081526020016000206001015413156115b057826002819055505b600060019050600084905060008090505b600381101561169c576000801b600460008481526020019081526020016000206003015414156115f4576000925061169c565b60006004600084815260200190815260200160002060030154905060016004600083815260200190815260200160002060020160009054906101000a900467ffffffffffffffff160167ffffffffffffffff166004600085815260200190815260200160002060020160009054906101000a900467ffffffffffffffff1667ffffffffffffffff161461168b57600093505061169c565b8092505080806001019150506115c1565b506000151582151514156116ba5750505050505050505050506117c7565b806003819055505b600115156004600083815260200190815260200160002060040160009054906101000a900460ff161515146117bb5760016004600083815260200190815260200160002060040160006101000a81548160ff021916908315150217905550806006600060046000858152602001908152602001600020600101548152602001908152602001600020819055507fc87258113ecbd0404f86cc5c0155894cfc47dae8fadab01aa8eefe5b5b40bdbb816004600084815260200190815260200160002060010154604051611795929190612849565b60405180910390a1600460008281526020019081526020016000206003015490506116c2565b50505050505050505050505b8080600101915050610ba1565b5050565b6060600460008381526020019081526020016000206006018054600181600116156101000203166002900480601f0160208091040260200160405190810160405280929190818152602001828054600181600116156101000203166002900480156118845780601f1061185957610100808354040283529160200191611884565b820191906000526020600020905b81548152906001019060200180831161186757829003601f168201915b50505050509050919050565b60076020528060005260406000206000915054906101000a900460ff1681565b60005481565b60056020528060005260406000206000915090508060010154905081565b600960003373ffffffffffffffffffffffffffffffffffffffff1673ffffffffffffffffffffffffffffffffffffffff16815260200190815260200160002060009054906101000a900460ff16611960576040517f08c379a000000000000000000000000000000000000000000000000000000000815260040161195790612aac565b60405180910390fd5b6000600960008373ffffffffffffffffffffffffffffffffffffffff1673ffffffffffffffffffffffffffffffffffffffff16815260200190815260200160002060006101000a81548160ff02191690831515021790555050565b6119c3611cf8565b6000801b60066000848152602001908152602001600020541415611ac65760046000600254815260200190815260200160002060010154821315611a215760405180604001604052806000801b815260200160008152509050611b30565b600082600460006002548152602001908152602001600020600101540390506000600254905060008090505b82811215611a7b57600460008381526020019081526020016000206003015491508080600101915050611a4d565b50604051806040016040528060046000848152602001908152602001600020600001548152602001600460008481526020019081526020016000206001015481525092505050611b30565b6040518060400160405280600460006006600087815260200190815260200160002054815260200190815260200160002060000154815260200160046000600660008781526020019081526020016000205481526020019081526020016000206001015481525090505b919050565b6000600960008373ffffffffffffffffffffffffffffffffffffffff1673ffffffffffffffffffffffffffffffffffffffff16815260200190815260200160002060009054906101000a900460ff169050919050565b600080600080611b9a85611bfa565b92509250925060018684848460405160008152602001604052604051611bc394939291906128e8565b6020604051602081039080840390855afa158015611be5573d6000803e3d6000fd5b50505060206040510351935050505092915050565b60008060006041845114611c43576040517f08c379a0000000000000000000000000000000000000000000000000000000008152600401611c3a90612a8c565b60405180910390fd5b6020840151915060408401519050606084015160001a9250601b830182829250925092509193909250565b828054828255906000526020600020908101928215611ce7579160200282015b82811115611ce65782518260006101000a81548173ffffffffffffffffffffffffffffffffffffffff021916908373ffffffffffffffffffffffffffffffffffffffff16021790555091602001919060010190611c8e565b5b509050611cf49190611d95565b5090565b604051806040016040528060008019168152602001600081525090565b828054600181600116156101000203166002900490600052602060002090601f016020900481019282601f10611d5657805160ff1916838001178555611d84565b82800160010185558215611d84579182015b82811115611d83578251825591602001919060010190611d68565b5b509050611d919190611dd8565b5090565b611dd591905b80821115611dd157600081816101000a81549073ffffffffffffffffffffffffffffffffffffffff021916905550600101611d9b565b5090565b90565b611dfa91905b80821115611df6576000816000905550600101611dde565b5090565b90565b600081359050611e0c81612db1565b92915050565b600082601f830112611e2357600080fd5b8135611e36611e3182612bd8565b612bab565b91508181835260208401935060208101905083856020840282011115611e5b57600080fd5b60005b83811015611e8b5781611e718882611dfd565b845260208401935060208301925050600181019050611e5e565b5050505092915050565b600082601f830112611ea657600080fd5b8135611eb9611eb482612c00565b612bab565b9150818183526020840193506020810190508360005b83811015611eff5781358601611ee58882611fa7565b845260208401935060208301925050600181019050611ecf565b5050505092915050565b600082601f830112611f1a57600080fd5b8151611f2d611f2882612c00565b612bab565b9150818183526020840193506020810190508360005b83811015611f735781518601611f598882611ffb565b845260208401935060208301925050600181019050611f43565b5050505092915050565b600081359050611f8c81612dc8565b92915050565b600081519050611fa181612dc8565b92915050565b600082601f830112611fb857600080fd5b8135611fcb611fc682612c28565b612bab565b91508082526020830160208301858383011115611fe757600080fd5b611ff2838284612d5e565b50505092915050565b600082601f83011261200c57600080fd5b815161201f61201a82612c28565b612bab565b9150808252602083016020830185838301111561203b57600080fd5b612046838284612d6d565b50505092915050565b60008135905061205e81612ddf565b92915050565b60008151905061207381612ddf565b92915050565b60008151905061208881612df6565b92915050565b6000602082840312156120a057600080fd5b60006120ae84828501611dfd565b91505092915050565b6000806000606084860312156120cc57600080fd5b600084013567ffffffffffffffff8111156120e657600080fd5b6120f286828701611e12565b93505060206121038682870161204f565b92505060406121148682870161204f565b9150509250925092565b60006020828403121561213057600080fd5b600082013567ffffffffffffffff81111561214a57600080fd5b61215684828501611e95565b91505092915050565b60006020828403121561217157600080fd5b600061217f84828501611f7d565b91505092915050565b60008060008060008060c087890312156121a157600080fd5b60006121af89828a01611f92565b96505060206121c089828a01612064565b95505060406121d189828a01612079565b94505060606121e289828a01612079565b93505060806121f389828a01611f92565b92505060a087015167ffffffffffffffff81111561221057600080fd5b61221c89828a01611f09565b9150509295509295509295565b60006020828403121561223b57600080fd5b60006122498482850161204f565b91505092915050565b600061225e838361226a565b60208301905092915050565b61227381612ce1565b82525050565b600061228482612c64565b61228e8185612c92565b935061229983612c54565b8060005b838110156122ca5781516122b18882612252565b97506122bc83612c85565b92505060018101905061229d565b5085935050505092915050565b6122e081612cf3565b82525050565b6122ef81612cff565b82525050565b6122fe81612cff565b82525050565b600061230f82612c7a565b6123198185612ca3565b9350612329818560208601612d6d565b61233281612da0565b840191505092915050565b600061234882612c6f565b6123528185612ca3565b9350612362818560208601612d6d565b61236b81612da0565b840191505092915050565b600061238182612c6f565b61238b8185612cb4565b935061239b818560208601612d6d565b6123a481612da0565b840191505092915050565b60006123ba82612c6f565b6123c48185612cc5565b93506123d4818560208601612d6d565b80840191505092915050565b6123e981612d09565b82525050565b6123f881612d09565b82525050565b600061240b600e83612cd0565b91507f506172656e74204d697373696e670000000000000000000000000000000000006000830152602082019050919050565b600061244b600f83612cd0565b91507f56616c696461746f7220456d70747900000000000000000000000000000000006000830152602082019050919050565b600061248b600f83612cd0565b91507f52657065617465642048656164657200000000000000000000000000000000006000830152602082019050919050565b60006124cb600983612cd0565b91507f496e76616c6964204e00000000000000000000000000000000000000000000006000830152602082019050919050565b600061250b601183612cd0565b91507f566572696669636174696f6e204661696c0000000000000000000000000000006000830152602082019050919050565b600061254b601183612cd0565b91507f496e76616c6964205468726573686f6c640000000000000000000000000000006000830152602082019050919050565b600061258b601583612cd0565b91507f4d6f6469667920506173742056616c696461746f7200000000000000000000006000830152602082019050919050565b60006125cb600b83612cd0565b91507f496e76616c69642050524e0000000000000000000000000000000000000000006000830152602082019050919050565b600061260b601183612cd0565b91507f496e76616c6964205369676e61747572650000000000000000000000000000006000830152602082019050919050565b600061264b600c83612cd0565b91507f4d617374657273204f6e6c7900000000000000000000000000000000000000006000830152602082019050919050565b600061268b601083612cd0565b91507f52657065617465642047656e65736973000000000000000000000000000000006000830152602082019050919050565b60006126cb600a83612cd0565b91507f496e76616c696420524e000000000000000000000000000000000000000000006000830152602082019050919050565b600061270b600983612cd0565b91507f4f6c6420426c6f636b00000000000000000000000000000000000000000000006000830152602082019050919050565b600061274b601583612cd0565b91507f496e76616c6964205461726765742048656967687400000000000000000000006000830152602082019050919050565b60408201600082015161279460008501826122e6565b5060208201516127a760208501826123e0565b50505050565b6127b681612d33565b82525050565b6127c581612d3d565b82525050565b6127d481612d51565b82525050565b60006127e682846123af565b915081905092915050565b6000602082019050818103600083015261280b8184612279565b905092915050565b600060208201905061282860008301846122d7565b92915050565b600060208201905061284360008301846122f5565b92915050565b600060408201905061285e60008301856122f5565b61286b60208301846123ef565b9392505050565b600060e082019050612887600083018a6122f5565b61289460208301896123ef565b6128a160408301886127bc565b6128ae60608301876122f5565b6128bb60808301866122d7565b6128c860a08301856127ad565b81810360c08301526128da818461233d565b905098975050505050505050565b60006080820190506128fd60008301876122f5565b61290a60208301866127cb565b61291760408301856122f5565b61292460608301846122f5565b95945050505050565b600060208201905081810360008301526129478184612376565b905092915050565b600060208201905081810360008301526129698184612304565b905092915050565b600060208201905061298660008301846123ef565b92915050565b600060208201905081810360008301526129a5816123fe565b9050919050565b600060208201905081810360008301526129c58161243e565b9050919050565b600060208201905081810360008301526129e58161247e565b9050919050565b60006020820190508181036000830152612a05816124be565b9050919050565b60006020820190508181036000830152612a25816124fe565b9050919050565b60006020820190508181036000830152612a458161253e565b9050919050565b60006020820190508181036000830152612a658161257e565b9050919050565b60006020820190508181036000830152612a85816125be565b9050919050565b60006020820190508181036000830152612aa5816125fe565b9050919050565b60006020820190508181036000830152612ac58161263e565b9050919050565b60006020820190508181036000830152612ae58161267e565b9050919050565b60006020820190508181036000830152612b05816126be565b9050919050565b60006020820190508181036000830152612b25816126fe565b9050919050565b60006020820190508181036000830152612b458161273e565b9050919050565b6000604082019050612b61600083018461277e565b92915050565b6000608082019050612b7c600083018561277e565b612b89604083018461277e565b9392505050565b6000602082019050612ba560008301846127ad565b92915050565b6000604051905081810181811067ffffffffffffffff82111715612bce57600080fd5b8060405250919050565b600067ffffffffffffffff821115612bef57600080fd5b602082029050602081019050919050565b600067ffffffffffffffff821115612c1757600080fd5b602082029050602081019050919050565b600067ffffffffffffffff821115612c3f57600080fd5b601f19601f8301169050602081019050919050565b6000819050602082019050919050565b600081519050919050565b600081519050919050565b600081519050919050565b6000602082019050919050565b600082825260208201905092915050565b600082825260208201905092915050565b600082825260208201905092915050565b600081905092915050565b600082825260208201905092915050565b6000612cec82612d13565b9050919050565b60008115159050919050565b6000819050919050565b6000819050919050565b600073ffffffffffffffffffffffffffffffffffffffff82169050919050565b6000819050919050565b600067ffffffffffffffff82169050919050565b600060ff82169050919050565b82818337600083830152505050565b60005b83811015612d8b578082015181840152602081019050612d70565b83811115612d9a576000848401525b50505050565b6000601f19601f8301169050919050565b612dba81612ce1565b8114612dc557600080fd5b50565b612dd181612cff565b8114612ddc57600080fd5b50565b612de881612d09565b8114612df357600080fd5b50565b612dff81612d3d565b8114612e0a57600080fd5b5056fea365627a7a7231582016a51deedfb13731c5c35b6a2cc2c08c6cdc3cfc1259902f566e9dd1ae19d5676c6578706572696d656e74616cf564736f6c63430005100040",
  "source": "// SPDX-License-Identifier: MIT\npragma solidity >=0.4.21 <0.9.0;\npragma experimental ABIEncoderV2;\n\nimport \"./HeaderReader.sol\";\n\ncontract Subnet {\n\n  struct Header {\n    bytes32 hash;\n    int number;\n    uint64 round_num;\n    bytes32 parent_hash;\n    bool finalized;\n    uint mainnet_num;\n    bytes src;\n  }\n\n  struct Validators {\n    address[] set;\n    int threshold;\n  }\n\n  struct BlockLite {\n    bytes32 hash;\n    int number;\n  }\n\n\n  int public current_validator_set_pointer = 0;\n  int public current_subnet_height;\n  bytes32 public latest_block;\n  bytes32 public latest_finalized_block;\n\n  mapping(bytes32 => Header) public header_tree;\n  mapping(int => Validators) public validator_sets;\n  mapping(int => bytes32) public committed_blocks;\n  mapping(address => bool) public lookup;\n  mapping(address => bool) public unique_addr;\n  mapping(address => bool) public masters;\n\n  // Event types\n  event SubnetBlockAccepted(bytes32 block_hash, int number);\n  event SubnetBlockFinalized(bytes32 block_hash, int number);\n\n  // Modifier\n  modifier onlyMasters() {\n    if (!masters[msg.sender]) revert(\"Masters Only\");\n    _;\n  }\n\n  constructor(\n    address[] memory initial_validator_set,\n    int threshold,\n    bytes memory genesis_header,\n    bytes memory block1_header\n  ) public {\n    require(initial_validator_set.length > 0, \"Validator Empty\");\n    require(threshold > 0, \"Invalid Threshold\");\n    bytes32 genesis_header_hash = keccak256(genesis_header);\n    bytes32 block1_header_hash = keccak256(block1_header);\n    (bytes32 ph, int n) = HeaderReader.getParentHashAndNumber(genesis_header);\n    (bytes32 ph1, int n1, uint64 rn) = HeaderReader.getBlock1Params(block1_header);\n    header_tree[genesis_header_hash] = Header({\n      hash: genesis_header_hash,\n      number: n,\n      round_num: 0, \n      parent_hash: ph,\n      finalized: true,\n      mainnet_num: block.number,\n      src: genesis_header\n    });\n    header_tree[block1_header_hash] = Header({\n      hash: block1_header_hash,\n      number: n1,\n      round_num: rn, \n      parent_hash: ph1,\n      finalized: true,\n      mainnet_num: block.number,\n      src: block1_header\n    });\n    validator_sets[0] = Validators({\n      set: initial_validator_set,\n      threshold: threshold\n    });\n    for (uint i = 0; i < initial_validator_set.length; i++) {\n      lookup[initial_validator_set[i]] = true;\n    }\n    masters[msg.sender] = true;\n    latest_block = block1_header_hash;\n    latest_finalized_block = block1_header_hash;\n    committed_blocks[0] = genesis_header_hash;\n    committed_blocks[1] = block1_header_hash;\n  }\n\n  function isMaster(address master) public view returns (bool) {\n    return masters[master];\n  }\n\n  function addMaster(address master) public onlyMasters {\n    masters[master] = true;\n  }\n\n  function removeMaster(address master) public onlyMasters {\n    masters[master] = false;\n  }\n\n  function reviseValidatorSet(address[] memory new_validator_set, int threshold, int subnet_block_height) public onlyMasters  {\n    require(new_validator_set.length > 0, \"Validator Empty\");\n    require(threshold > 0, \"Invalid Threshold\");\n    require(subnet_block_height > 1, \"Invalid Target Height\");\n    require(subnet_block_height >= current_validator_set_pointer, \"Modify Past Validator\");\n    validator_sets[subnet_block_height] = Validators({\n      set: new_validator_set,\n      threshold: threshold\n    });\n  }\n\n  function receiveHeader(bytes[] memory headers) public onlyMasters { \n    for (uint x = 0; x < headers.length; x++) {\n      (\n        bytes32 parent_hash,\n        int number,\n        uint64 round_number,\n        uint64 prev_round_number,\n        bytes32 signHash,\n        bytes[] memory sigs\n      ) = HeaderReader.getValidationParams(headers[x]);\n      require(number > 0, \"Repeated Genesis\");\n      require(number > header_tree[latest_finalized_block].number, \"Old Block\");\n      require(header_tree[parent_hash].hash != 0, \"Parent Missing\");\n      require(header_tree[parent_hash].number + 1 == number, \"Invalid N\");\n      require(header_tree[parent_hash].round_num < round_number, \"Invalid RN\");\n      require(header_tree[parent_hash].round_num == prev_round_number, \"Invalid PRN\");\n      bytes32 block_hash = keccak256(headers[x]);\n      if (header_tree[block_hash].number > 0) \n        revert(\"Repeated Header\");\n      if (validator_sets[number].set.length > 0) {\n        for (uint i = 0; i < validator_sets[current_validator_set_pointer].set.length; i++) {\n          lookup[validator_sets[current_validator_set_pointer].set[i]] = false;\n        }\n        for (uint i = 0; i < validator_sets[number].set.length; i++) {\n          lookup[validator_sets[number].set[i]] = true;\n        }\n        current_validator_set_pointer = number;\n      }\n      int unique_counter = 0;\n      address[] memory signer_list = new address[](sigs.length);\n      for (uint i = 0; i < sigs.length; i++) {\n        address signer = recoverSigner(signHash, sigs[i]);\n        if (lookup[signer] != true) {\n          revert(\"Verification Fail\");\n        }\n        if (!unique_addr[signer]) {\n          unique_counter ++;\n          unique_addr[signer]=true;\n        } else {\n          revert(\"Verification Fail\");\n        }\n        signer_list[i] = signer;\n      }\n      for (uint i = 0; i < signer_list.length; i++) {\n        unique_addr[signer_list[i]] = false;\n      }\n      if (unique_counter < validator_sets[current_validator_set_pointer].threshold) {\n        revert(\"Verification Fail\");\n      }\n      header_tree[block_hash] = Header({\n        hash: block_hash,\n        number: number,\n        round_num: round_number,\n        parent_hash: parent_hash,\n        finalized: false,\n        mainnet_num: block.number,\n        src: headers[x]\n      });\n      emit SubnetBlockAccepted(block_hash, number);\n      if (header_tree[block_hash].number > header_tree[latest_block].number) {\n        latest_block = block_hash;\n      }\n      // Look for 3 consecutive round\n      bool found_committed_flag = true;\n      bytes32 curr_hash = block_hash;\n      for (uint i = 0; i < 3; i++) {\n        if (header_tree[curr_hash].parent_hash == 0) {\n          found_committed_flag = false;\n          break;\n        }\n        bytes32 prev_hash = header_tree[curr_hash].parent_hash;\n        if (header_tree[curr_hash].round_num != header_tree[prev_hash].round_num+1) {\n          found_committed_flag = false;\n          break;\n        } else {\n          curr_hash = prev_hash;\n        }\n      }\n      if (found_committed_flag == false) continue;\n      latest_finalized_block = curr_hash;\n      // Confirm all ancestor unconfirmed block\n      while (header_tree[curr_hash].finalized != true) {\n        header_tree[curr_hash].finalized = true;\n        committed_blocks[header_tree[curr_hash].number] = curr_hash;\n        emit SubnetBlockFinalized(curr_hash, header_tree[curr_hash].number);\n        curr_hash = header_tree[curr_hash].parent_hash;\n      }\n    }\n  }\n\n  /// signature methods.\n  function splitSignature(bytes memory sig)\n    internal\n    pure\n    returns (uint8 v, bytes32 r, bytes32 s)\n  {\n    require(sig.length == 65, \"Invalid Signature\");\n    assembly {\n      // first 32 bytes, after the length prefix.\n      r := mload(add(sig, 32))\n      // second 32 bytes.\n      s := mload(add(sig, 64))\n      // final byte (first byte of the next 32 bytes).\n      v := byte(0, mload(add(sig, 96)))\n    }\n    // TOCHECK: v needs 27 more, may related with EIP1559\n    return (v+27, r, s);\n  }\n\n  function recoverSigner(bytes32 message, bytes memory sig)\n    internal\n    pure\n    returns (address)\n  {\n    (uint8 v, bytes32 r, bytes32 s) = splitSignature(sig);\n    return ecrecover(message, v, r, s);\n  }\n\n  function getHeader(bytes32 header_hash) public view returns (bytes memory) {\n    return header_tree[header_hash].src;\n  }\n\n  function getHeaderByNumber(int number) public view returns (BlockLite memory) {\n    if (committed_blocks[number] == 0) {\n      if (number > header_tree[latest_block].number) {\n        return BlockLite({\n          hash: bytes32(0),\n          number: 0\n        });\n      }\n      int num_gap = header_tree[latest_block].number - number;\n      bytes32 curr_hash = latest_block;\n      for (int i = 0; i < num_gap; i++) {\n        curr_hash = header_tree[curr_hash].parent_hash;\n      }\n      return BlockLite({\n        hash: header_tree[curr_hash].hash,\n        number: header_tree[curr_hash].number\n      });\n    } else {\n      return BlockLite({\n        hash: header_tree[committed_blocks[number]].hash,\n        number: header_tree[committed_blocks[number]].number\n      });\n    }\n    \n  }\n  \n  function getHeaderConfirmationStatus(bytes32 header_hash) public view returns (bool) {\n    return header_tree[header_hash].finalized;\n  }\n\n  function getMainnetBlockNumber(bytes32 header_hash) public view returns (uint) {\n    return header_tree[header_hash].mainnet_num;\n  }\n\n  function getLatestBlocks() public view returns (BlockLite memory, BlockLite memory) {\n    return (\n      BlockLite({\n        hash: latest_block,\n        number: header_tree[latest_block].number\n      }),\n      BlockLite({\n        hash: latest_finalized_block,\n        number: header_tree[latest_finalized_block].number\n      })\n    );\n  }\n\n  function getValidatorSet(int height) public view returns (address[] memory res) {\n    if (validator_sets[height].threshold == 0) {\n      res = new address[](0);\n    } else {\n      res = validator_sets[height].set;\n    }\n  }\n\n  function getValidatorThreshold(int height) public view returns (int res) {\n    if (validator_sets[height].threshold == 0) {\n      res = 0;\n    } else {\n      res = validator_sets[height].threshold;\n    }\n  }\n}",
  "sourcePath": "/Users/sihengpan/Documents/XinFin/XDC-Subnet/mainnet_contract/contracts/Subnet.sol",
  "compiler": {
    "name": "solc",
    "version": "0.5.16+commit.9c3226ce.Emscripten.clang"
  },
  "schemaVersion": "3.4.1",
  "updatedAt": "2023-04-03T00:03:39.368Z",
  "devdoc": {
    "methods": {}
  },
  "userdoc": {
    "methods": {}
  }
}