{
  "contractName": "Subnet",
  "abi": [
    {
      "inputs": [
        {
          "internalType": "address[]",
          "name": "initial_validator_set",
          "type": "address[]"
        },
        {
          "internalType": "int256",
          "name": "threshold",
          "type": "int256"
        },
        {
          "internalType": "bytes",
          "name": "genesis_header",
          "type": "bytes"
        },
        {
          "internalType": "bytes",
          "name": "block1_header",
          "type": "bytes"
        }
      ],
      "payable": false,
      "stateMutability": "nonpayable",
      "type": "constructor"
    },
    {
      "anonymous": false,
      "inputs": [
        {
          "indexed": false,
          "internalType": "bytes32",
          "name": "block_hash",
          "type": "bytes32"
        },
        {
          "indexed": false,
          "internalType": "int256",
          "name": "number",
          "type": "int256"
        }
      ],
      "name": "SubnetBlockAccepted",
      "type": "event"
    },
    {
      "anonymous": false,
      "inputs": [
        {
          "indexed": false,
          "internalType": "bytes32",
          "name": "block_hash",
          "type": "bytes32"
        },
        {
          "indexed": false,
          "internalType": "int256",
          "name": "number",
          "type": "int256"
        }
      ],
      "name": "SubnetBlockFinalized",
      "type": "event"
    },
    {
      "constant": true,
      "inputs": [
        {
          "internalType": "address",
          "name": "master",
          "type": "address"
        }
      ],
      "name": "isMaster",
      "outputs": [
        {
          "internalType": "bool",
          "name": "",
          "type": "bool"
        }
      ],
      "payable": false,
      "stateMutability": "view",
      "type": "function"
    },
    {
      "constant": false,
      "inputs": [
        {
          "internalType": "address",
          "name": "master",
          "type": "address"
        }
      ],
      "name": "addMaster",
      "outputs": [],
      "payable": false,
      "stateMutability": "nonpayable",
      "type": "function"
    },
    {
      "constant": false,
      "inputs": [
        {
          "internalType": "address",
          "name": "master",
          "type": "address"
        }
      ],
      "name": "removeMaster",
      "outputs": [],
      "payable": false,
      "stateMutability": "nonpayable",
      "type": "function"
    },
    {
      "constant": false,
      "inputs": [
        {
          "internalType": "address[]",
          "name": "new_validator_set",
          "type": "address[]"
        },
        {
          "internalType": "int256",
          "name": "threshold",
          "type": "int256"
        },
        {
          "internalType": "int256",
          "name": "subnet_block_height",
          "type": "int256"
        }
      ],
      "name": "reviseValidatorSet",
      "outputs": [],
      "payable": false,
      "stateMutability": "nonpayable",
      "type": "function"
    },
    {
      "constant": false,
      "inputs": [
        {
          "internalType": "bytes",
          "name": "header",
          "type": "bytes"
        }
      ],
      "name": "receiveHeader",
      "outputs": [],
      "payable": false,
      "stateMutability": "nonpayable",
      "type": "function"
    },
    {
      "constant": true,
      "inputs": [
        {
          "internalType": "bytes32",
          "name": "header_hash",
          "type": "bytes32"
        }
      ],
      "name": "getHeader",
      "outputs": [
        {
          "internalType": "bytes",
          "name": "",
          "type": "bytes"
        }
      ],
      "payable": false,
      "stateMutability": "view",
      "type": "function"
    },
    {
      "constant": true,
      "inputs": [
        {
          "internalType": "int256",
          "name": "number",
          "type": "int256"
        }
      ],
      "name": "getHeaderByNumber",
      "outputs": [
        {
          "components": [
            {
              "internalType": "bytes32",
              "name": "hash",
              "type": "bytes32"
            },
            {
              "internalType": "int256",
              "name": "number",
              "type": "int256"
            }
          ],
          "internalType": "struct Subnet.BlockLite",
          "name": "",
          "type": "tuple"
        }
      ],
      "payable": false,
      "stateMutability": "view",
      "type": "function"
    },
    {
      "constant": true,
      "inputs": [
        {
          "internalType": "bytes32",
          "name": "header_hash",
          "type": "bytes32"
        }
      ],
      "name": "getHeaderConfirmationStatus",
      "outputs": [
        {
          "internalType": "bool",
          "name": "",
          "type": "bool"
        }
      ],
      "payable": false,
      "stateMutability": "view",
      "type": "function"
    },
    {
      "constant": true,
      "inputs": [
        {
          "internalType": "bytes32",
          "name": "header_hash",
          "type": "bytes32"
        }
      ],
      "name": "getMainnetBlockNumber",
      "outputs": [
        {
          "internalType": "uint256",
          "name": "",
          "type": "uint256"
        }
      ],
      "payable": false,
      "stateMutability": "view",
      "type": "function"
    },
    {
      "constant": true,
      "inputs": [],
      "name": "getLatestBlocks",
      "outputs": [
        {
          "components": [
            {
              "internalType": "bytes32",
              "name": "hash",
              "type": "bytes32"
            },
            {
              "internalType": "int256",
              "name": "number",
              "type": "int256"
            }
          ],
          "internalType": "struct Subnet.BlockLite",
          "name": "",
          "type": "tuple"
        },
        {
          "components": [
            {
              "internalType": "bytes32",
              "name": "hash",
              "type": "bytes32"
            },
            {
              "internalType": "int256",
              "name": "number",
              "type": "int256"
            }
          ],
          "internalType": "struct Subnet.BlockLite",
          "name": "",
          "type": "tuple"
        }
      ],
      "payable": false,
      "stateMutability": "view",
      "type": "function"
    },
    {
      "constant": true,
      "inputs": [
        {
          "internalType": "int256",
          "name": "height",
          "type": "int256"
        }
      ],
      "name": "getValidatorSet",
      "outputs": [
        {
          "internalType": "address[]",
          "name": "res",
          "type": "address[]"
        }
      ],
      "payable": false,
      "stateMutability": "view",
      "type": "function"
    },
    {
      "constant": true,
      "inputs": [
        {
          "internalType": "int256",
          "name": "height",
          "type": "int256"
        }
      ],
      "name": "getValidatorThreshold",
      "outputs": [
        {
          "internalType": "int256",
          "name": "res",
          "type": "int256"
        }
      ],
      "payable": false,
      "stateMutability": "view",
      "type": "function"
    }
  ],
  "bytecode": "0x608060405260006006553480156200001657600080fd5b50604051620034e1380380620034e183398181016040526200003c919081019062000833565b600084511162000083576040517f08c379a00000000000000000000000000000000000000000000000000000000081526004016200007a9062000a6a565b60405180910390fd5b60008313620000c9576040517f08c379a0000000000000000000000000000000000000000000000000000000008152600401620000c09062000a8c565b60405180910390fd5b60008280519060200120905060008280519060200120905060008073__HeaderReader__________________________63dc9e408b876040518263ffffffff1660e01b81526004016200011d919062000a46565b604080518083038186803b1580156200013557600080fd5b505af41580156200014a573d6000803e3d6000fd5b505050506040513d601f19601f82011682018060405250620001709190810190620008ea565b91509150600080600073__HeaderReader__________________________63be7558c0896040518263ffffffff1660e01b8152600401620001b2919062000a46565b60606040518083038186803b158015620001cb57600080fd5b505af4158015620001e0573d6000803e3d6000fd5b505050506040513d601f19601f820116820180604052506200020691908101906200092b565b9250925092506040518060e00160405280888152602001858152602001600067ffffffffffffffff1681526020018681526020016001151581526020014381526020018a815250600080898152602001908152602001600020600082015181600001556020820151816001015560408201518160020160006101000a81548167ffffffffffffffff021916908367ffffffffffffffff1602179055506060820151816003015560808201518160040160006101000a81548160ff02191690831515021790555060a0820151816005015560c0820151816006019080519060200190620002f49291906200056a565b509050506040518060e001604052808781526020018381526020018267ffffffffffffffff16815260200184815260200160011515815260200143815260200189815250600080888152602001908152602001600020600082015181600001556020820151816001015560408201518160020160006101000a81548167ffffffffffffffff021916908367ffffffffffffffff1602179055506060820151816003015560808201518160040160006101000a81548160ff02191690831515021790555060a0820151816005015560c0820151816006019080519060200190620003df9291906200056a565b5090505060405180604001604052808c81526020018b81525060016000808152602001908152602001600020600082015181600001908051906020019062000429929190620005f1565b506020820151816001015590505060008090505b8b51811015620004c1576001600360008e84815181106200045a57fe5b602002602001015173ffffffffffffffffffffffffffffffffffffffff1673ffffffffffffffffffffffffffffffffffffffff16815260200190815260200160002060006101000a81548160ff02191690831515021790555080806001019150506200043d565b506001600560003373ffffffffffffffffffffffffffffffffffffffff1673ffffffffffffffffffffffffffffffffffffffff16815260200190815260200160002060006101000a81548160ff021916908315150217905550856008819055508560098190555086600260008081526020019081526020016000208190555085600260006001815260200190815260200160002081905550505050505050505050505062000c6a565b828054600181600116156101000203166002900490600052602060002090601f016020900481019282601f10620005ad57805160ff1916838001178555620005de565b82800160010185558215620005de579182015b82811115620005dd578251825591602001919060010190620005c0565b5b509050620005ed919062000680565b5090565b8280548282559060005260206000209081019282156200066d579160200282015b828111156200066c5782518260006101000a81548173ffffffffffffffffffffffffffffffffffffffff021916908373ffffffffffffffffffffffffffffffffffffffff1602179055509160200191906001019062000612565b5b5090506200067c9190620006a8565b5090565b620006a591905b80821115620006a157600081600090555060010162000687565b5090565b90565b620006eb91905b80821115620006e757600081816101000a81549073ffffffffffffffffffffffffffffffffffffffff021916905550600101620006af565b5090565b90565b600081519050620006ff8162000c02565b92915050565b600082601f8301126200071757600080fd5b81516200072e620007288262000adc565b62000aae565b915081818352602084019350602081019050838560208402820111156200075457600080fd5b60005b838110156200078857816200076d8882620006ee565b84526020840193506020830192505060018101905062000757565b5050505092915050565b600081519050620007a38162000c1c565b92915050565b600082601f830112620007bb57600080fd5b8151620007d2620007cc8262000b05565b62000aae565b91508082526020830160208301858383011115620007ef57600080fd5b620007fc83828462000bbb565b50505092915050565b600081519050620008168162000c36565b92915050565b6000815190506200082d8162000c50565b92915050565b600080600080608085870312156200084a57600080fd5b600085015167ffffffffffffffff8111156200086557600080fd5b620008738782880162000705565b9450506020620008868782880162000805565b935050604085015167ffffffffffffffff811115620008a457600080fd5b620008b287828801620007a9565b925050606085015167ffffffffffffffff811115620008d057600080fd5b620008de87828801620007a9565b91505092959194509250565b60008060408385031215620008fe57600080fd5b60006200090e8582860162000792565b9250506020620009218582860162000805565b9150509250929050565b6000806000606084860312156200094157600080fd5b6000620009518682870162000792565b9350506020620009648682870162000805565b925050604062000977868287016200081c565b9150509250925092565b60006200098e8262000b32565b6200099a818562000b3d565b9350620009ac81856020860162000bbb565b620009b78162000bf1565b840191505092915050565b6000620009d1600f8362000b4e565b91507f56616c696461746f7220456d70747900000000000000000000000000000000006000830152602082019050919050565b600062000a1360118362000b4e565b91507f496e76616c6964205468726573686f6c640000000000000000000000000000006000830152602082019050919050565b6000602082019050818103600083015262000a62818462000981565b905092915050565b6000602082019050818103600083015262000a8581620009c2565b9050919050565b6000602082019050818103600083015262000aa78162000a04565b9050919050565b6000604051905081810181811067ffffffffffffffff8211171562000ad257600080fd5b8060405250919050565b600067ffffffffffffffff82111562000af457600080fd5b602082029050602081019050919050565b600067ffffffffffffffff82111562000b1d57600080fd5b601f19601f8301169050602081019050919050565b600081519050919050565b600082825260208201905092915050565b600082825260208201905092915050565b600062000b6c8262000b87565b9050919050565b6000819050919050565b6000819050919050565b600073ffffffffffffffffffffffffffffffffffffffff82169050919050565b600067ffffffffffffffff82169050919050565b60005b8381101562000bdb57808201518184015260208101905062000bbe565b8381111562000beb576000848401525b50505050565b6000601f19601f8301169050919050565b62000c0d8162000b5f565b811462000c1957600080fd5b50565b62000c278162000b73565b811462000c3357600080fd5b50565b62000c418162000b7d565b811462000c4d57600080fd5b50565b62000c5b8162000ba7565b811462000c6757600080fd5b50565b6128678062000c7a6000396000f3fe608060405234801561001057600080fd5b50600436106100b45760003560e01c80636fed6f83116100715780636fed6f83146101a0578063884bdd86146101d0578063b9615878146101ec578063e2a2f0a31461021c578063eb71f0f814610238578063f720f80b14610268576100b4565b80630247dd65146100b95780631097d54a146100d557806322b8f46e146100f1578063375680491461012157806366dcb0ba146101515780636c624a5f14610170575b600080fd5b6100d360048036036100ce9190810190611bd9565b610298565b005b6100ef60048036036100ea9190810190611bb0565b61048a565b005b61010b60048036036101069190810190611d4b565b610571565b6040516101189190612283565b60405180910390f35b61013b60048036036101369190810190611d4b565b61066d565b6040516101489190612372565b60405180910390f35b6101596106b5565b604051610167929190612568565b60405180910390f35b61018a60048036036101859190810190611c40565b61072f565b60405161019791906122a5565b60405180910390f35b6101ba60048036036101b59190810190611c40565b61075b565b6040516101c79190612591565b60405180910390f35b6101ea60048036036101e59190810190611d0a565b61077a565b005b61020660048036036102019190810190611c40565b6113ba565b604051610213919061232e565b60405180910390f35b61023660048036036102319190810190611bb0565b611471565b005b610252600480360361024d9190810190611d4b565b611558565b60405161025f919061254d565b60405180910390f35b610282600480360361027d9190810190611bb0565b6116cb565b60405161028f91906122a5565b60405180910390f35b600560003373ffffffffffffffffffffffffffffffffffffffff1673ffffffffffffffffffffffffffffffffffffffff16815260200190815260200160002060009054906101000a900460ff16610324576040517f08c379a000000000000000000000000000000000000000000000000000000000815260040161031b906124ad565b60405180910390fd5b6000835111610368576040517f08c379a000000000000000000000000000000000000000000000000000000000815260040161035f906123ad565b60405180910390fd5b600082136103ab576040517f08c379a00000000000000000000000000000000000000000000000000000000081526004016103a29061242d565b60405180910390fd5b600181136103ee576040517f08c379a00000000000000000000000000000000000000000000000000000000081526004016103e59061252d565b60405180910390fd5b600654811215610433576040517f08c379a000000000000000000000000000000000000000000000000000000000815260040161042a9061244d565b60405180910390fd5b604051806040016040528084815260200183815250600160008381526020019081526020016000206000820151816000019080519060200190610477929190611804565b5060208201518160010155905050505050565b600560003373ffffffffffffffffffffffffffffffffffffffff1673ffffffffffffffffffffffffffffffffffffffff16815260200190815260200160002060009054906101000a900460ff16610516576040517f08c379a000000000000000000000000000000000000000000000000000000000815260040161050d906124ad565b60405180910390fd5b6001600560008373ffffffffffffffffffffffffffffffffffffffff1673ffffffffffffffffffffffffffffffffffffffff16815260200190815260200160002060006101000a81548160ff02191690831515021790555050565b60606000600160008481526020019081526020016000206001015414156105ca5760006040519080825280602002602001820160405280156105c25781602001602082028038833980820191505090505b509050610668565b6001600083815260200190815260200160002060000180548060200260200160405190810160405280929190818152602001828054801561066057602002820191906000526020600020905b8160009054906101000a900473ffffffffffffffffffffffffffffffffffffffff1673ffffffffffffffffffffffffffffffffffffffff1681526020019060010190808311610616575b505050505090505b919050565b6000806001600084815260200190815260200160002060010154141561069657600090506106b0565b600160008381526020019081526020016000206001015490505b919050565b6106bd61188e565b6106c561188e565b6040518060400160405280600854815260200160008060085481526020019081526020016000206001015481525060405180604001604052806009548152602001600080600954815260200190815260200160002060010154815250819150809050915091509091565b600080600083815260200190815260200160002060040160009054906101000a900460ff169050919050565b6000806000838152602001908152602001600020600501549050919050565b600560003373ffffffffffffffffffffffffffffffffffffffff1673ffffffffffffffffffffffffffffffffffffffff16815260200190815260200160002060009054906101000a900460ff16610806576040517f08c379a00000000000000000000000000000000000000000000000000000000081526004016107fd906124ad565b60405180910390fd5b6000806000806000606073__HeaderReader__________________________6344e06ed4886040518263ffffffff1660e01b81526004016108479190612350565b60006040518083038186803b15801561085f57600080fd5b505af4158015610873573d6000803e3d6000fd5b505050506040513d6000823e3d601f19601f8201168201806040525061089c9190810190611c69565b955095509550955095509550600085136108eb576040517f08c379a00000000000000000000000000000000000000000000000000000000081526004016108e2906124cd565b60405180910390fd5b6000806009548152602001908152602001600020600101548513610944576040517f08c379a000000000000000000000000000000000000000000000000000000000815260040161093b9061250d565b60405180910390fd5b6000801b60008088815260200190815260200160002060000154141561099f576040517f08c379a00000000000000000000000000000000000000000000000000000000081526004016109969061238d565b60405180910390fd5b8460016000808981526020019081526020016000206001015401146109f9576040517f08c379a00000000000000000000000000000000000000000000000000000000081526004016109f0906123ed565b60405180910390fd5b8367ffffffffffffffff1660008088815260200190815260200160002060020160009054906101000a900467ffffffffffffffff1667ffffffffffffffff1610610a78576040517f08c379a0000000000000000000000000000000000000000000000000000000008152600401610a6f906124ed565b60405180910390fd5b8267ffffffffffffffff1660008088815260200190815260200160002060020160009054906101000a900467ffffffffffffffff1667ffffffffffffffff1614610af7576040517f08c379a0000000000000000000000000000000000000000000000000000000008152600401610aee9061246d565b60405180910390fd5b6000878051906020012090506000806000838152602001908152602001600020600101541315610b5c576040517f08c379a0000000000000000000000000000000000000000000000000000000008152600401610b53906123cd565b60405180910390fd5b600060016000888152602001908152602001600020600001805490501115610d3a5760008090505b60016000600654815260200190815260200160002060000180549050811015610c59576000600360006001600060065481526020019081526020016000206000018481548110610bd057fe5b9060005260206000200160009054906101000a900473ffffffffffffffffffffffffffffffffffffffff1673ffffffffffffffffffffffffffffffffffffffff1673ffffffffffffffffffffffffffffffffffffffff16815260200190815260200160002060006101000a81548160ff0219169083151502179055508080600101915050610b84565b5060008090505b6001600088815260200190815260200160002060000180549050811015610d3157600160036000600160008b81526020019081526020016000206000018481548110610ca857fe5b9060005260206000200160009054906101000a900473ffffffffffffffffffffffffffffffffffffffff1673ffffffffffffffffffffffffffffffffffffffff1673ffffffffffffffffffffffffffffffffffffffff16815260200190815260200160002060006101000a81548160ff0219169083151502179055508080600101915050610c60565b50856006819055505b600080905060608351604051908082528060200260200182016040528015610d715781602001602082028038833980820191505090505b50905060008090505b8451811015610f7d576000610da287878481518110610d9557fe5b6020026020010151611721565b905060011515600360008373ffffffffffffffffffffffffffffffffffffffff1673ffffffffffffffffffffffffffffffffffffffff16815260200190815260200160002060009054906101000a900460ff16151514610e37576040517f08c379a0000000000000000000000000000000000000000000000000000000008152600401610e2e9061240d565b60405180910390fd5b600460008273ffffffffffffffffffffffffffffffffffffffff1673ffffffffffffffffffffffffffffffffffffffff16815260200190815260200160002060009054906101000a900460ff16610eed5783806001019450506001600460008373ffffffffffffffffffffffffffffffffffffffff1673ffffffffffffffffffffffffffffffffffffffff16815260200190815260200160002060006101000a81548160ff021916908315150217905550610f28565b6040517f08c379a0000000000000000000000000000000000000000000000000000000008152600401610f1f9061240d565b60405180910390fd5b80838381518110610f3557fe5b602002602001019073ffffffffffffffffffffffffffffffffffffffff16908173ffffffffffffffffffffffffffffffffffffffff1681525050508080600101915050610d7a565b5060008090505b815181101561100557600060046000848481518110610f9f57fe5b602002602001015173ffffffffffffffffffffffffffffffffffffffff1673ffffffffffffffffffffffffffffffffffffffff16815260200190815260200160002060006101000a81548160ff0219169083151502179055508080600101915050610f84565b5060016000600654815260200190815260200160002060010154821215611061576040517f08c379a00000000000000000000000000000000000000000000000000000000081526004016110589061240d565b60405180910390fd5b6040518060e001604052808481526020018981526020018867ffffffffffffffff1681526020018a81526020016000151581526020014381526020018b815250600080858152602001908152602001600020600082015181600001556020820151816001015560408201518160020160006101000a81548167ffffffffffffffff021916908367ffffffffffffffff1602179055506060820151816003015560808201518160040160006101000a81548160ff02191690831515021790555060a0820151816005015560c08201518160060190805190602001906111469291906118ab565b509050507fc92de1e80780c8f239052c833b238f36e1f1f03c09628a198cefab0ed37d2b23838960405161117b9291906122c0565b60405180910390a16000806008548152602001908152602001600020600101546000808581526020019081526020016000206001015413156111bf57826008819055505b600083905060008090505b60038110156112af576000801b6000808481526020019081526020016000206003015414156112035750505050505050505050506113b7565b6000806000848152602001908152602001600020600301549050600160008083815260200190815260200160002060020160009054906101000a900467ffffffffffffffff160167ffffffffffffffff1660008085815260200190815260200160002060020160009054906101000a900467ffffffffffffffff1667ffffffffffffffff161461129e575050505050505050505050506113b7565b8092505080806001019150506111ca565b50806009819055505b6001151560008083815260200190815260200160002060040160009054906101000a900460ff161515146113ac57600160008083815260200190815260200160002060040160006101000a81548160ff0219169083151502179055508060026000806000858152602001908152602001600020600101548152602001908152602001600020819055507fc87258113ecbd0404f86cc5c0155894cfc47dae8fadab01aa8eefe5b5b40bdbb81600080848152602001908152602001600020600101546040516113879291906122c0565b60405180910390a16000808281526020019081526020016000206003015490506112b8565b505050505050505050505b50565b60606000808381526020019081526020016000206006018054600181600116156101000203166002900480601f0160208091040260200160405190810160405280929190818152602001828054600181600116156101000203166002900480156114655780601f1061143a57610100808354040283529160200191611465565b820191906000526020600020905b81548152906001019060200180831161144857829003601f168201915b50505050509050919050565b600560003373ffffffffffffffffffffffffffffffffffffffff1673ffffffffffffffffffffffffffffffffffffffff16815260200190815260200160002060009054906101000a900460ff166114fd576040517f08c379a00000000000000000000000000000000000000000000000000000000081526004016114f4906124ad565b60405180910390fd5b6000600560008373ffffffffffffffffffffffffffffffffffffffff1673ffffffffffffffffffffffffffffffffffffffff16815260200190815260200160002060006101000a81548160ff02191690831515021790555050565b61156061188e565b6000801b6002600084815260200190815260200160002054141561165e576000806008548152602001908152602001600020600101548213156115bd5760405180604001604052806000801b8152602001600081525090506116c6565b6000826000806008548152602001908152602001600020600101540390506000600854905060008090505b828112156116155760008083815260200190815260200160002060030154915080806001019150506115e8565b50604051806040016040528060008084815260200190815260200160002060000154815260200160008084815260200190815260200160002060010154815250925050506116c6565b604051806040016040528060008060026000878152602001908152602001600020548152602001908152602001600020600001548152602001600080600260008781526020019081526020016000205481526020019081526020016000206001015481525090505b919050565b6000600560008373ffffffffffffffffffffffffffffffffffffffff1673ffffffffffffffffffffffffffffffffffffffff16815260200190815260200160002060009054906101000a900460ff169050919050565b60008060008061173085611790565b9250925092506001868484846040516000815260200160405260405161175994939291906122e9565b6020604051602081039080840390855afa15801561177b573d6000803e3d6000fd5b50505060206040510351935050505092915050565b600080600060418451146117d9576040517f08c379a00000000000000000000000000000000000000000000000000000000081526004016117d09061248d565b60405180910390fd5b6020840151915060408401519050606084015160001a9250601b830182829250925092509193909250565b82805482825590600052602060002090810192821561187d579160200282015b8281111561187c5782518260006101000a81548173ffffffffffffffffffffffffffffffffffffffff021916908373ffffffffffffffffffffffffffffffffffffffff16021790555091602001919060010190611824565b5b50905061188a919061192b565b5090565b604051806040016040528060008019168152602001600081525090565b828054600181600116156101000203166002900490600052602060002090601f016020900481019282601f106118ec57805160ff191683800117855561191a565b8280016001018555821561191a579182015b828111156119195782518255916020019190600101906118fe565b5b509050611927919061196e565b5090565b61196b91905b8082111561196757600081816101000a81549073ffffffffffffffffffffffffffffffffffffffff021916905550600101611931565b5090565b90565b61199091905b8082111561198c576000816000905550600101611974565b5090565b90565b6000813590506119a2816127c8565b92915050565b600082601f8301126119b957600080fd5b81356119cc6119c7826125d9565b6125ac565b915081818352602084019350602081019050838560208402820111156119f157600080fd5b60005b83811015611a215781611a078882611993565b8452602084019350602083019250506001810190506119f4565b5050505092915050565b600082601f830112611a3c57600080fd5b8151611a4f611a4a82612601565b6125ac565b9150818183526020840193506020810190508360005b83811015611a955781518601611a7b8882611ac9565b845260208401935060208301925050600181019050611a65565b5050505092915050565b600081359050611aae816127df565b92915050565b600081519050611ac3816127df565b92915050565b600082601f830112611ada57600080fd5b8151611aed611ae882612629565b6125ac565b91508082526020830160208301858383011115611b0957600080fd5b611b14838284612784565b50505092915050565b600082601f830112611b2e57600080fd5b8135611b41611b3c82612655565b6125ac565b91508082526020830160208301858383011115611b5d57600080fd5b611b68838284612775565b50505092915050565b600081359050611b80816127f6565b92915050565b600081519050611b95816127f6565b92915050565b600081519050611baa8161280d565b92915050565b600060208284031215611bc257600080fd5b6000611bd084828501611993565b91505092915050565b600080600060608486031215611bee57600080fd5b600084013567ffffffffffffffff811115611c0857600080fd5b611c14868287016119a8565b9350506020611c2586828701611b71565b9250506040611c3686828701611b71565b9150509250925092565b600060208284031215611c5257600080fd5b6000611c6084828501611a9f565b91505092915050565b60008060008060008060c08789031215611c8257600080fd5b6000611c9089828a01611ab4565b9650506020611ca189828a01611b86565b9550506040611cb289828a01611b9b565b9450506060611cc389828a01611b9b565b9350506080611cd489828a01611ab4565b92505060a087015167ffffffffffffffff811115611cf157600080fd5b611cfd89828a01611a2b565b9150509295509295509295565b600060208284031215611d1c57600080fd5b600082013567ffffffffffffffff811115611d3657600080fd5b611d4284828501611b1d565b91505092915050565b600060208284031215611d5d57600080fd5b6000611d6b84828501611b71565b91505092915050565b6000611d808383611d8c565b60208301905092915050565b611d95816126f8565b82525050565b6000611da682612691565b611db081856126b4565b9350611dbb83612681565b8060005b83811015611dec578151611dd38882611d74565b9750611dde836126a7565b925050600181019050611dbf565b5085935050505092915050565b611e028161270a565b82525050565b611e1181612716565b82525050565b611e2081612716565b82525050565b6000611e318261269c565b611e3b81856126c5565b9350611e4b818560208601612784565b611e54816127b7565b840191505092915050565b6000611e6a8261269c565b611e7481856126d6565b9350611e84818560208601612784565b611e8d816127b7565b840191505092915050565b611ea181612720565b82525050565b611eb081612720565b82525050565b6000611ec3600e836126e7565b91507f506172656e74204d697373696e670000000000000000000000000000000000006000830152602082019050919050565b6000611f03600f836126e7565b91507f56616c696461746f7220456d70747900000000000000000000000000000000006000830152602082019050919050565b6000611f43600f836126e7565b91507f52657065617465642048656164657200000000000000000000000000000000006000830152602082019050919050565b6000611f836009836126e7565b91507f496e76616c6964204e00000000000000000000000000000000000000000000006000830152602082019050919050565b6000611fc36011836126e7565b91507f566572696669636174696f6e204661696c0000000000000000000000000000006000830152602082019050919050565b60006120036011836126e7565b91507f496e76616c6964205468726573686f6c640000000000000000000000000000006000830152602082019050919050565b60006120436015836126e7565b91507f4d6f6469667920506173742056616c696461746f7200000000000000000000006000830152602082019050919050565b6000612083600b836126e7565b91507f496e76616c69642050524e0000000000000000000000000000000000000000006000830152602082019050919050565b60006120c36011836126e7565b91507f496e76616c6964205369676e61747572650000000000000000000000000000006000830152602082019050919050565b6000612103600c836126e7565b91507f4d617374657273204f6e6c7900000000000000000000000000000000000000006000830152602082019050919050565b60006121436010836126e7565b91507f52657065617465642047656e65736973000000000000000000000000000000006000830152602082019050919050565b6000612183600a836126e7565b91507f496e76616c696420524e000000000000000000000000000000000000000000006000830152602082019050919050565b60006121c36009836126e7565b91507f4f6c6420426c6f636b00000000000000000000000000000000000000000000006000830152602082019050919050565b60006122036015836126e7565b91507f496e76616c6964205461726765742048656967687400000000000000000000006000830152602082019050919050565b60408201600082015161224c6000850182611e08565b50602082015161225f6020850182611e98565b50505050565b61226e8161274a565b82525050565b61227d81612768565b82525050565b6000602082019050818103600083015261229d8184611d9b565b905092915050565b60006020820190506122ba6000830184611df9565b92915050565b60006040820190506122d56000830185611e17565b6122e26020830184611ea7565b9392505050565b60006080820190506122fe6000830187611e17565b61230b6020830186612274565b6123186040830185611e17565b6123256060830184611e17565b95945050505050565b600060208201905081810360008301526123488184611e26565b905092915050565b6000602082019050818103600083015261236a8184611e5f565b905092915050565b60006020820190506123876000830184611ea7565b92915050565b600060208201905081810360008301526123a681611eb6565b9050919050565b600060208201905081810360008301526123c681611ef6565b9050919050565b600060208201905081810360008301526123e681611f36565b9050919050565b6000602082019050818103600083015261240681611f76565b9050919050565b6000602082019050818103600083015261242681611fb6565b9050919050565b6000602082019050818103600083015261244681611ff6565b9050919050565b6000602082019050818103600083015261246681612036565b9050919050565b6000602082019050818103600083015261248681612076565b9050919050565b600060208201905081810360008301526124a6816120b6565b9050919050565b600060208201905081810360008301526124c6816120f6565b9050919050565b600060208201905081810360008301526124e681612136565b9050919050565b6000602082019050818103600083015261250681612176565b9050919050565b60006020820190508181036000830152612526816121b6565b9050919050565b60006020820190508181036000830152612546816121f6565b9050919050565b60006040820190506125626000830184612236565b92915050565b600060808201905061257d6000830185612236565b61258a6040830184612236565b9392505050565b60006020820190506125a66000830184612265565b92915050565b6000604051905081810181811067ffffffffffffffff821117156125cf57600080fd5b8060405250919050565b600067ffffffffffffffff8211156125f057600080fd5b602082029050602081019050919050565b600067ffffffffffffffff82111561261857600080fd5b602082029050602081019050919050565b600067ffffffffffffffff82111561264057600080fd5b601f19601f8301169050602081019050919050565b600067ffffffffffffffff82111561266c57600080fd5b601f19601f8301169050602081019050919050565b6000819050602082019050919050565b600081519050919050565b600081519050919050565b6000602082019050919050565b600082825260208201905092915050565b600082825260208201905092915050565b600082825260208201905092915050565b600082825260208201905092915050565b60006127038261272a565b9050919050565b60008115159050919050565b6000819050919050565b6000819050919050565b600073ffffffffffffffffffffffffffffffffffffffff82169050919050565b6000819050919050565b600067ffffffffffffffff82169050919050565b600060ff82169050919050565b82818337600083830152505050565b60005b838110156127a2578082015181840152602081019050612787565b838111156127b1576000848401525b50505050565b6000601f19601f8301169050919050565b6127d1816126f8565b81146127dc57600080fd5b50565b6127e881612716565b81146127f357600080fd5b50565b6127ff81612720565b811461280a57600080fd5b50565b61281681612754565b811461282157600080fd5b5056fea365627a7a72315820210acef3e32853e339053db55875431efed5db5d61be4dfa06989e1b70cf078c6c6578706572696d656e74616cf564736f6c63430005100040",
  "source": "// SPDX-License-Identifier: MIT\npragma solidity >=0.4.21 <0.9.0;\npragma experimental ABIEncoderV2;\n\nimport \"./HeaderReader.sol\";\n\ncontract Subnet {\n\n  struct Header {\n    bytes32 hash;\n    int number;\n    uint64 round_num;\n    bytes32 parent_hash;\n    bool finalized;\n    uint mainnet_num;\n    bytes src;\n  }\n\n  struct Validators {\n    address[] set;\n    int threshold;\n  }\n\n  struct BlockLite {\n    bytes32 hash;\n    int number;\n  }\n\n  mapping(bytes32 => Header) header_tree;\n  mapping(int => Validators) validator_sets;\n  mapping(int => bytes32) committed_blocks;\n  mapping(address => bool) lookup;\n  mapping(address => bool) unique_addr;\n  mapping(address => bool) masters;\n  int current_validator_set_pointer = 0;\n  int current_subnet_height;\n  bytes32 latest_block;\n  bytes32 latest_finalized_block;\n\n  // Event types\n  event SubnetBlockAccepted(bytes32 block_hash, int number);\n  event SubnetBlockFinalized(bytes32 block_hash, int number);\n\n  // Modifier\n  modifier onlyMasters() {\n    if (!masters[msg.sender]) revert(\"Masters Only\");\n    _;\n  }\n\n  constructor(\n    address[] memory initial_validator_set,\n    int threshold,\n    bytes memory genesis_header,\n    bytes memory block1_header\n  ) public {\n    require(initial_validator_set.length > 0, \"Validator Empty\");\n    require(threshold > 0, \"Invalid Threshold\");\n    bytes32 genesis_header_hash = keccak256(genesis_header);\n    bytes32 block1_header_hash = keccak256(block1_header);\n    (bytes32 ph, int n) = HeaderReader.getParentHashAndNumber(genesis_header);\n    (bytes32 ph1, int n1, uint64 rn) = HeaderReader.getBlock1Params(block1_header);\n    header_tree[genesis_header_hash] = Header({\n      hash: genesis_header_hash,\n      number: n,\n      round_num: 0, \n      parent_hash: ph,\n      finalized: true,\n      mainnet_num: block.number,\n      src: genesis_header\n    });\n    header_tree[block1_header_hash] = Header({\n      hash: block1_header_hash,\n      number: n1,\n      round_num: rn, \n      parent_hash: ph1,\n      finalized: true,\n      mainnet_num: block.number,\n      src: block1_header\n    });\n    validator_sets[0] = Validators({\n      set: initial_validator_set,\n      threshold: threshold\n    });\n    for (uint i = 0; i < initial_validator_set.length; i++) {\n      lookup[initial_validator_set[i]] = true;\n    }\n    masters[msg.sender] = true;\n    latest_block = block1_header_hash;\n    latest_finalized_block = block1_header_hash;\n    committed_blocks[0] = genesis_header_hash;\n    committed_blocks[1] = block1_header_hash;\n  }\n\n  function isMaster(address master) public view returns (bool) {\n    return masters[master];\n  }\n\n  function addMaster(address master) public onlyMasters {\n    masters[master] = true;\n  }\n\n  function removeMaster(address master) public onlyMasters {\n    masters[master] = false;\n  }\n\n  function reviseValidatorSet(address[] memory new_validator_set, int threshold, int subnet_block_height) public onlyMasters  {\n    require(new_validator_set.length > 0, \"Validator Empty\");\n    require(threshold > 0, \"Invalid Threshold\");\n    require(subnet_block_height > 1, \"Invalid Target Height\");\n    require(subnet_block_height >= current_validator_set_pointer, \"Modify Past Validator\");\n    validator_sets[subnet_block_height] = Validators({\n      set: new_validator_set,\n      threshold: threshold\n    });\n  }\n  // 939105\n  function receiveHeader(bytes memory header) public onlyMasters { \n    (\n      bytes32 parent_hash,\n      int number,\n      uint64 round_number,\n      uint64 prev_round_number,\n      bytes32 signHash,\n      bytes[] memory sigs\n    ) = HeaderReader.getValidationParams(header);\n    require(number > 0, \"Repeated Genesis\");\n    require(number > header_tree[latest_finalized_block].number, \"Old Block\");\n    require(header_tree[parent_hash].hash != 0, \"Parent Missing\");\n    require(header_tree[parent_hash].number + 1 == number, \"Invalid N\");\n    require(header_tree[parent_hash].round_num < round_number, \"Invalid RN\");\n    require(header_tree[parent_hash].round_num == prev_round_number, \"Invalid PRN\");\n    bytes32 block_hash = keccak256(header);\n    if (header_tree[block_hash].number > 0) \n      revert(\"Repeated Header\");\n    if (validator_sets[number].set.length > 0) {\n      for (uint i = 0; i < validator_sets[current_validator_set_pointer].set.length; i++) {\n        lookup[validator_sets[current_validator_set_pointer].set[i]] = false;\n      }\n      for (uint i = 0; i < validator_sets[number].set.length; i++) {\n        lookup[validator_sets[number].set[i]] = true;\n      }\n      current_validator_set_pointer = number;\n    }\n    int unique_counter = 0;\n    address[] memory signer_list = new address[](sigs.length);\n    for (uint i = 0; i < sigs.length; i++) {\n      address signer = recoverSigner(signHash, sigs[i]);\n      if (lookup[signer] != true) {\n        revert(\"Verification Fail\");\n      }\n      if (!unique_addr[signer]) {\n        unique_counter ++;\n        unique_addr[signer]=true;\n      } else {\n        revert(\"Verification Fail\");\n      }\n      signer_list[i] = signer;\n    }\n    for (uint i = 0; i < signer_list.length; i++) {\n      unique_addr[signer_list[i]] = false;\n    }\n    if (unique_counter < validator_sets[current_validator_set_pointer].threshold) {\n      revert(\"Verification Fail\");\n    }\n    header_tree[block_hash] = Header({\n      hash: block_hash,\n      number: number,\n      round_num: round_number,\n      parent_hash: parent_hash,\n      finalized: false,\n      mainnet_num: block.number,\n      src: header\n    });\n    emit SubnetBlockAccepted(block_hash, number);\n    if (header_tree[block_hash].number > header_tree[latest_block].number) {\n      latest_block = block_hash;\n    }\n    // 178035\n    // Look for 3 consecutive round\n    bytes32 curr_hash = block_hash;\n    for (uint i = 0; i < 3; i++) {\n      if (header_tree[curr_hash].parent_hash == 0) return;\n      bytes32 prev_hash = header_tree[curr_hash].parent_hash;\n      if (header_tree[curr_hash].round_num != header_tree[prev_hash].round_num+1) return;\n      curr_hash = prev_hash;\n    }\n    latest_finalized_block = curr_hash;\n    // Confirm all ancestor unconfirmed block\n    while (header_tree[curr_hash].finalized != true) {\n      header_tree[curr_hash].finalized = true;\n      committed_blocks[header_tree[curr_hash].number] = curr_hash;\n      emit SubnetBlockFinalized(curr_hash, header_tree[curr_hash].number);\n      curr_hash = header_tree[curr_hash].parent_hash;\n    }\n    // 166189\n  }\n\n  /// signature methods.\n  function splitSignature(bytes memory sig)\n    internal\n    pure\n    returns (uint8 v, bytes32 r, bytes32 s)\n  {\n    require(sig.length == 65, \"Invalid Signature\");\n    assembly {\n      // first 32 bytes, after the length prefix.\n      r := mload(add(sig, 32))\n      // second 32 bytes.\n      s := mload(add(sig, 64))\n      // final byte (first byte of the next 32 bytes).\n      v := byte(0, mload(add(sig, 96)))\n    }\n    // TOCHECK: v needs 27 more, may related with EIP1559\n    return (v+27, r, s);\n  }\n\n  function recoverSigner(bytes32 message, bytes memory sig)\n    internal\n    pure\n    returns (address)\n  {\n    (uint8 v, bytes32 r, bytes32 s) = splitSignature(sig);\n    return ecrecover(message, v, r, s);\n  }\n\n  function getHeader(bytes32 header_hash) public view returns (bytes memory) {\n    return header_tree[header_hash].src;\n  }\n\n  function getHeaderByNumber(int number) public view returns (BlockLite memory) {\n    if (committed_blocks[number] == 0) {\n      if (number > header_tree[latest_block].number) {\n        return BlockLite({\n          hash: bytes32(0),\n          number: 0\n        });\n      }\n      int num_gap = header_tree[latest_block].number - number;\n      bytes32 curr_hash = latest_block;\n      for (int i = 0; i < num_gap; i++) {\n        curr_hash = header_tree[curr_hash].parent_hash;\n      }\n      return BlockLite({\n        hash: header_tree[curr_hash].hash,\n        number: header_tree[curr_hash].number\n      });\n    } else {\n      return BlockLite({\n        hash: header_tree[committed_blocks[number]].hash,\n        number: header_tree[committed_blocks[number]].number\n      });\n    }\n    \n  }\n  \n  function getHeaderConfirmationStatus(bytes32 header_hash) public view returns (bool) {\n    return header_tree[header_hash].finalized;\n  }\n\n  function getMainnetBlockNumber(bytes32 header_hash) public view returns (uint) {\n    return header_tree[header_hash].mainnet_num;\n  }\n\n  function getLatestBlocks() public view returns (BlockLite memory, BlockLite memory) {\n    return (\n      BlockLite({\n        hash: latest_block,\n        number: header_tree[latest_block].number\n      }),\n      BlockLite({\n        hash: latest_finalized_block,\n        number: header_tree[latest_finalized_block].number\n      })\n    );\n  }\n\n  function getValidatorSet(int height) public view returns (address[] memory res) {\n    if (validator_sets[height].threshold == 0) {\n      res = new address[](0);\n    } else {\n      res = validator_sets[height].set;\n    }\n  }\n\n  function getValidatorThreshold(int height) public view returns (int res) {\n    if (validator_sets[height].threshold == 0) {\n      res = 0;\n    } else {\n      res = validator_sets[height].threshold;\n    }\n  }\n}",
  "sourcePath": "/Users/sihengpan/Documents/XinFin/XDC-Subnet/mainnet_contract/contracts/Subnet.sol",
  "compiler": {
    "name": "solc",
    "version": "0.5.16+commit.9c3226ce.Emscripten.clang"
  },
  "schemaVersion": "3.4.1",
  "updatedAt": "2023-03-27T21:38:14.733Z",
  "devdoc": {
    "methods": {}
  },
  "userdoc": {
    "methods": {}
  }
}