{
  "contractName": "Subnet",
  "abi": [
    {
      "inputs": [
        {
          "internalType": "address[]",
          "name": "initial_validator_set",
          "type": "address[]"
        },
        {
          "internalType": "int256",
          "name": "threshold",
          "type": "int256"
        },
        {
          "internalType": "bytes",
          "name": "genesis_header",
          "type": "bytes"
        },
        {
          "internalType": "bytes",
          "name": "block1_header",
          "type": "bytes"
        }
      ],
      "payable": false,
      "stateMutability": "nonpayable",
      "type": "constructor"
    },
    {
      "anonymous": false,
      "inputs": [
        {
          "indexed": false,
          "internalType": "bytes32",
          "name": "block_hash",
          "type": "bytes32"
        },
        {
          "indexed": false,
          "internalType": "int256",
          "name": "number",
          "type": "int256"
        }
      ],
      "name": "SubnetBlockAccepted",
      "type": "event"
    },
    {
      "anonymous": false,
      "inputs": [
        {
          "indexed": false,
          "internalType": "bytes32",
          "name": "block_hash",
          "type": "bytes32"
        },
        {
          "indexed": false,
          "internalType": "int256",
          "name": "number",
          "type": "int256"
        }
      ],
      "name": "SubnetBlockFinalized",
      "type": "event"
    },
    {
      "constant": true,
      "inputs": [
        {
          "internalType": "address",
          "name": "master",
          "type": "address"
        }
      ],
      "name": "isMaster",
      "outputs": [
        {
          "internalType": "bool",
          "name": "",
          "type": "bool"
        }
      ],
      "payable": false,
      "stateMutability": "view",
      "type": "function"
    },
    {
      "constant": false,
      "inputs": [
        {
          "internalType": "address",
          "name": "master",
          "type": "address"
        }
      ],
      "name": "addMaster",
      "outputs": [],
      "payable": false,
      "stateMutability": "nonpayable",
      "type": "function"
    },
    {
      "constant": false,
      "inputs": [
        {
          "internalType": "address",
          "name": "master",
          "type": "address"
        }
      ],
      "name": "removeMaster",
      "outputs": [],
      "payable": false,
      "stateMutability": "nonpayable",
      "type": "function"
    },
    {
      "constant": false,
      "inputs": [
        {
          "internalType": "address[]",
          "name": "new_validator_set",
          "type": "address[]"
        },
        {
          "internalType": "int256",
          "name": "threshold",
          "type": "int256"
        },
        {
          "internalType": "int256",
          "name": "subnet_block_height",
          "type": "int256"
        }
      ],
      "name": "reviseValidatorSet",
      "outputs": [],
      "payable": false,
      "stateMutability": "nonpayable",
      "type": "function"
    },
    {
      "constant": false,
      "inputs": [
        {
          "internalType": "bytes",
          "name": "header",
          "type": "bytes"
        }
      ],
      "name": "receiveHeader",
      "outputs": [],
      "payable": false,
      "stateMutability": "nonpayable",
      "type": "function"
    },
    {
      "constant": true,
      "inputs": [
        {
          "internalType": "bytes32",
          "name": "header_hash",
          "type": "bytes32"
        }
      ],
      "name": "getHeader",
      "outputs": [
        {
          "internalType": "bytes",
          "name": "",
          "type": "bytes"
        }
      ],
      "payable": false,
      "stateMutability": "view",
      "type": "function"
    },
    {
      "constant": true,
      "inputs": [
        {
          "internalType": "bytes32",
          "name": "header_hash",
          "type": "bytes32"
        }
      ],
      "name": "getHeaderConfirmationStatus",
      "outputs": [
        {
          "internalType": "bool",
          "name": "",
          "type": "bool"
        }
      ],
      "payable": false,
      "stateMutability": "view",
      "type": "function"
    },
    {
      "constant": true,
      "inputs": [
        {
          "internalType": "bytes32",
          "name": "header_hash",
          "type": "bytes32"
        }
      ],
      "name": "getMainnetBlockNumber",
      "outputs": [
        {
          "internalType": "uint256",
          "name": "",
          "type": "uint256"
        }
      ],
      "payable": false,
      "stateMutability": "view",
      "type": "function"
    },
    {
      "constant": true,
      "inputs": [],
      "name": "getLatestBlock",
      "outputs": [
        {
          "components": [
            {
              "internalType": "bytes32",
              "name": "hash",
              "type": "bytes32"
            },
            {
              "internalType": "int256",
              "name": "number",
              "type": "int256"
            }
          ],
          "internalType": "struct Subnet.BlockLite",
          "name": "",
          "type": "tuple"
        }
      ],
      "payable": false,
      "stateMutability": "view",
      "type": "function"
    },
    {
      "constant": true,
      "inputs": [
        {
          "internalType": "int256",
          "name": "height",
          "type": "int256"
        }
      ],
      "name": "getValidatorSet",
      "outputs": [
        {
          "internalType": "address[]",
          "name": "res",
          "type": "address[]"
        }
      ],
      "payable": false,
      "stateMutability": "view",
      "type": "function"
    },
    {
      "constant": true,
      "inputs": [
        {
          "internalType": "int256",
          "name": "height",
          "type": "int256"
        }
      ],
      "name": "getValidatorThreshold",
      "outputs": [
        {
          "internalType": "int256",
          "name": "res",
          "type": "int256"
        }
      ],
      "payable": false,
      "stateMutability": "view",
      "type": "function"
    }
  ],
  "bytecode": "0x608060405260006005553480156200001657600080fd5b50604051620031b3380380620031b383398181016040526200003c919081019062000802565b600084511162000083576040517f08c379a00000000000000000000000000000000000000000000000000000000081526004016200007a9062000a39565b60405180910390fd5b60008313620000c9576040517f08c379a0000000000000000000000000000000000000000000000000000000008152600401620000c09062000a5b565b60405180910390fd5b60008280519060200120905060008280519060200120905060008073__HeaderReader__________________________63dc9e408b876040518263ffffffff1660e01b81526004016200011d919062000a15565b604080518083038186803b1580156200013557600080fd5b505af41580156200014a573d6000803e3d6000fd5b505050506040513d601f19601f82011682018060405250620001709190810190620008b9565b91509150600080600073__HeaderReader__________________________63be7558c0896040518263ffffffff1660e01b8152600401620001b2919062000a15565b60606040518083038186803b158015620001cb57600080fd5b505af4158015620001e0573d6000803e3d6000fd5b505050506040513d601f19601f82011682018060405250620002069190810190620008fa565b9250925092506040518060e00160405280888152602001858152602001600067ffffffffffffffff1681526020018681526020016001151581526020014381526020018a815250600080898152602001908152602001600020600082015181600001556020820151816001015560408201518160020160006101000a81548167ffffffffffffffff021916908367ffffffffffffffff1602179055506060820151816003015560808201518160040160006101000a81548160ff02191690831515021790555060a0820151816005015560c0820151816006019080519060200190620002f492919062000539565b509050506040518060e001604052808781526020018381526020018267ffffffffffffffff16815260200184815260200160011515815260200143815260200189815250600080888152602001908152602001600020600082015181600001556020820151816001015560408201518160020160006101000a81548167ffffffffffffffff021916908367ffffffffffffffff1602179055506060820151816003015560808201518160040160006101000a81548160ff02191690831515021790555060a0820151816005015560c0820151816006019080519060200190620003df92919062000539565b5090505060405180604001604052808c81526020018b81525060016000808152602001908152602001600020600082015181600001908051906020019062000429929190620005c0565b506020820151816001015590505060008090505b8b51811015620004c1576001600260008e84815181106200045a57fe5b602002602001015173ffffffffffffffffffffffffffffffffffffffff1673ffffffffffffffffffffffffffffffffffffffff16815260200190815260200160002060006101000a81548160ff02191690831515021790555080806001019150506200043d565b506001600460003373ffffffffffffffffffffffffffffffffffffffff1673ffffffffffffffffffffffffffffffffffffffff16815260200190815260200160002060006101000a81548160ff0219169083151502179055508560078190555085600881905550505050505050505050505062000c39565b828054600181600116156101000203166002900490600052602060002090601f016020900481019282601f106200057c57805160ff1916838001178555620005ad565b82800160010185558215620005ad579182015b82811115620005ac5782518255916020019190600101906200058f565b5b509050620005bc91906200064f565b5090565b8280548282559060005260206000209081019282156200063c579160200282015b828111156200063b5782518260006101000a81548173ffffffffffffffffffffffffffffffffffffffff021916908373ffffffffffffffffffffffffffffffffffffffff16021790555091602001919060010190620005e1565b5b5090506200064b919062000677565b5090565b6200067491905b808211156200067057600081600090555060010162000656565b5090565b90565b620006ba91905b80821115620006b657600081816101000a81549073ffffffffffffffffffffffffffffffffffffffff0219169055506001016200067e565b5090565b90565b600081519050620006ce8162000bd1565b92915050565b600082601f830112620006e657600080fd5b8151620006fd620006f78262000aab565b62000a7d565b915081818352602084019350602081019050838560208402820111156200072357600080fd5b60005b838110156200075757816200073c8882620006bd565b84526020840193506020830192505060018101905062000726565b5050505092915050565b600081519050620007728162000beb565b92915050565b600082601f8301126200078a57600080fd5b8151620007a16200079b8262000ad4565b62000a7d565b91508082526020830160208301858383011115620007be57600080fd5b620007cb83828462000b8a565b50505092915050565b600081519050620007e58162000c05565b92915050565b600081519050620007fc8162000c1f565b92915050565b600080600080608085870312156200081957600080fd5b600085015167ffffffffffffffff8111156200083457600080fd5b6200084287828801620006d4565b94505060206200085587828801620007d4565b935050604085015167ffffffffffffffff8111156200087357600080fd5b620008818782880162000778565b925050606085015167ffffffffffffffff8111156200089f57600080fd5b620008ad8782880162000778565b91505092959194509250565b60008060408385031215620008cd57600080fd5b6000620008dd8582860162000761565b9250506020620008f085828601620007d4565b9150509250929050565b6000806000606084860312156200091057600080fd5b6000620009208682870162000761565b93505060206200093386828701620007d4565b92505060406200094686828701620007eb565b9150509250925092565b60006200095d8262000b01565b62000969818562000b0c565b93506200097b81856020860162000b8a565b620009868162000bc0565b840191505092915050565b6000620009a0600f8362000b1d565b91507f56616c696461746f7220456d70747900000000000000000000000000000000006000830152602082019050919050565b6000620009e260118362000b1d565b91507f496e76616c6964205468726573686f6c640000000000000000000000000000006000830152602082019050919050565b6000602082019050818103600083015262000a31818462000950565b905092915050565b6000602082019050818103600083015262000a548162000991565b9050919050565b6000602082019050818103600083015262000a7681620009d3565b9050919050565b6000604051905081810181811067ffffffffffffffff8211171562000aa157600080fd5b8060405250919050565b600067ffffffffffffffff82111562000ac357600080fd5b602082029050602081019050919050565b600067ffffffffffffffff82111562000aec57600080fd5b601f19601f8301169050602081019050919050565b600081519050919050565b600082825260208201905092915050565b600082825260208201905092915050565b600062000b3b8262000b56565b9050919050565b6000819050919050565b6000819050919050565b600073ffffffffffffffffffffffffffffffffffffffff82169050919050565b600067ffffffffffffffff82169050919050565b60005b8381101562000baa57808201518184015260208101905062000b8d565b8381111562000bba576000848401525b50505050565b6000601f19601f8301169050919050565b62000bdc8162000b2e565b811462000be857600080fd5b50565b62000bf68162000b42565b811462000c0257600080fd5b50565b62000c108162000b4c565b811462000c1c57600080fd5b50565b62000c2a8162000b76565b811462000c3657600080fd5b50565b61256a8062000c496000396000f3fe608060405234801561001057600080fd5b50600436106100a95760003560e01c80636c624a5f116100715780636c624a5f146101645780636fed6f8314610194578063884bdd86146101c4578063b9615878146101e0578063e2a2f0a314610210578063f720f80b1461022c576100a9565b80630247dd65146100ae5780631097d54a146100ca57806322b8f46e146100e6578063375680491461011657806361d6f78a14610146575b600080fd5b6100c860048036036100c39190810190611965565b61025c565b005b6100e460048036036100df919081019061193c565b61044e565b005b61010060048036036100fb9190810190611ad7565b610535565b60405161010d9190611fcf565b60405180910390f35b610130600480360361012b9190810190611ad7565b610631565b60405161013d91906120be565b60405180910390f35b61014e610679565b60405161015b9190612279565b60405180910390f35b61017e600480360361017991908101906119cc565b6106b4565b60405161018b9190611ff1565b60405180910390f35b6101ae60048036036101a991908101906119cc565b6106e0565b6040516101bb9190612294565b60405180910390f35b6101de60048036036101d99190810190611a96565b6106ff565b005b6101fa60048036036101f591908101906119cc565b6112b9565b604051610207919061207a565b60405180910390f35b61022a6004803603610225919081019061193c565b611370565b005b6102466004803603610241919081019061193c565b611457565b6040516102539190611ff1565b60405180910390f35b600460003373ffffffffffffffffffffffffffffffffffffffff1673ffffffffffffffffffffffffffffffffffffffff16815260200190815260200160002060009054906101000a900460ff166102e8576040517f08c379a00000000000000000000000000000000000000000000000000000000081526004016102df906121f9565b60405180910390fd5b600083511161032c576040517f08c379a0000000000000000000000000000000000000000000000000000000008152600401610323906120f9565b60405180910390fd5b6000821361036f576040517f08c379a000000000000000000000000000000000000000000000000000000000815260040161036690612179565b60405180910390fd5b600181136103b2576040517f08c379a00000000000000000000000000000000000000000000000000000000081526004016103a990612259565b60405180910390fd5b6005548112156103f7576040517f08c379a00000000000000000000000000000000000000000000000000000000081526004016103ee90612199565b60405180910390fd5b60405180604001604052808481526020018381525060016000838152602001908152602001600020600082015181600001908051906020019061043b929190611590565b5060208201518160010155905050505050565b600460003373ffffffffffffffffffffffffffffffffffffffff1673ffffffffffffffffffffffffffffffffffffffff16815260200190815260200160002060009054906101000a900460ff166104da576040517f08c379a00000000000000000000000000000000000000000000000000000000081526004016104d1906121f9565b60405180910390fd5b6001600460008373ffffffffffffffffffffffffffffffffffffffff1673ffffffffffffffffffffffffffffffffffffffff16815260200190815260200160002060006101000a81548160ff02191690831515021790555050565b606060006001600084815260200190815260200160002060010154141561058e5760006040519080825280602002602001820160405280156105865781602001602082028038833980820191505090505b50905061062c565b6001600083815260200190815260200160002060000180548060200260200160405190810160405280929190818152602001828054801561062457602002820191906000526020600020905b8160009054906101000a900473ffffffffffffffffffffffffffffffffffffffff1673ffffffffffffffffffffffffffffffffffffffff16815260200190600101908083116105da575b505050505090505b919050565b6000806001600084815260200190815260200160002060010154141561065a5760009050610674565b600160008381526020019081526020016000206001015490505b919050565b61068161161a565b60405180604001604052806008548152602001600080600854815260200190815260200160002060010154815250905090565b600080600083815260200190815260200160002060040160009054906101000a900460ff169050919050565b6000806000838152602001908152602001600020600501549050919050565b600460003373ffffffffffffffffffffffffffffffffffffffff1673ffffffffffffffffffffffffffffffffffffffff16815260200190815260200160002060009054906101000a900460ff1661078b576040517f08c379a0000000000000000000000000000000000000000000000000000000008152600401610782906121f9565b60405180910390fd5b6000806000806000606073__HeaderReader__________________________6344e06ed4886040518263ffffffff1660e01b81526004016107cc919061209c565b60006040518083038186803b1580156107e457600080fd5b505af41580156107f8573d6000803e3d6000fd5b505050506040513d6000823e3d601f19601f8201168201806040525061082191908101906119f5565b95509550955095509550955060008513610870576040517f08c379a000000000000000000000000000000000000000000000000000000000815260040161086790612219565b60405180910390fd5b6000801b6000808881526020019081526020016000206000015414156108cb576040517f08c379a00000000000000000000000000000000000000000000000000000000081526004016108c2906120d9565b60405180910390fd5b846001600080898152602001908152602001600020600101540114610925576040517f08c379a000000000000000000000000000000000000000000000000000000000815260040161091c90612139565b60405180910390fd5b8367ffffffffffffffff1660008088815260200190815260200160002060020160009054906101000a900467ffffffffffffffff1667ffffffffffffffff16106109a4576040517f08c379a000000000000000000000000000000000000000000000000000000000815260040161099b90612239565b60405180910390fd5b8267ffffffffffffffff1660008088815260200190815260200160002060020160009054906101000a900467ffffffffffffffff1667ffffffffffffffff1614610a23576040517f08c379a0000000000000000000000000000000000000000000000000000000008152600401610a1a906121b9565b60405180910390fd5b6000878051906020012090506000806000838152602001908152602001600020600101541315610a88576040517f08c379a0000000000000000000000000000000000000000000000000000000008152600401610a7f90612119565b60405180910390fd5b600060016000888152602001908152602001600020600001805490501115610c665760008090505b60016000600554815260200190815260200160002060000180549050811015610b85576000600260006001600060055481526020019081526020016000206000018481548110610afc57fe5b9060005260206000200160009054906101000a900473ffffffffffffffffffffffffffffffffffffffff1673ffffffffffffffffffffffffffffffffffffffff1673ffffffffffffffffffffffffffffffffffffffff16815260200190815260200160002060006101000a81548160ff0219169083151502179055508080600101915050610ab0565b5060008090505b6001600088815260200190815260200160002060000180549050811015610c5d57600160026000600160008b81526020019081526020016000206000018481548110610bd457fe5b9060005260206000200160009054906101000a900473ffffffffffffffffffffffffffffffffffffffff1673ffffffffffffffffffffffffffffffffffffffff1673ffffffffffffffffffffffffffffffffffffffff16815260200190815260200160002060006101000a81548160ff0219169083151502179055508080600101915050610b8c565b50856005819055505b600080905060608351604051908082528060200260200182016040528015610c9d5781602001602082028038833980820191505090505b50905060008090505b8451811015610ea9576000610cce87878481518110610cc157fe5b60200260200101516114ad565b905060011515600260008373ffffffffffffffffffffffffffffffffffffffff1673ffffffffffffffffffffffffffffffffffffffff16815260200190815260200160002060009054906101000a900460ff16151514610d63576040517f08c379a0000000000000000000000000000000000000000000000000000000008152600401610d5a90612159565b60405180910390fd5b600360008273ffffffffffffffffffffffffffffffffffffffff1673ffffffffffffffffffffffffffffffffffffffff16815260200190815260200160002060009054906101000a900460ff16610e195783806001019450506001600360008373ffffffffffffffffffffffffffffffffffffffff1673ffffffffffffffffffffffffffffffffffffffff16815260200190815260200160002060006101000a81548160ff021916908315150217905550610e54565b6040517f08c379a0000000000000000000000000000000000000000000000000000000008152600401610e4b90612159565b60405180910390fd5b80838381518110610e6157fe5b602002602001019073ffffffffffffffffffffffffffffffffffffffff16908173ffffffffffffffffffffffffffffffffffffffff1681525050508080600101915050610ca6565b5060008090505b8151811015610f3157600060036000848481518110610ecb57fe5b602002602001015173ffffffffffffffffffffffffffffffffffffffff1673ffffffffffffffffffffffffffffffffffffffff16815260200190815260200160002060006101000a81548160ff0219169083151502179055508080600101915050610eb0565b5060016000600554815260200190815260200160002060010154821215610f8d576040517f08c379a0000000000000000000000000000000000000000000000000000000008152600401610f8490612159565b60405180910390fd5b6040518060e001604052808481526020018981526020018867ffffffffffffffff1681526020018a81526020016000151581526020014381526020018b815250600080858152602001908152602001600020600082015181600001556020820151816001015560408201518160020160006101000a81548167ffffffffffffffff021916908367ffffffffffffffff1602179055506060820151816003015560808201518160040160006101000a81548160ff02191690831515021790555060a0820151816005015560c0820151816006019080519060200190611072929190611637565b509050507fc92de1e80780c8f239052c833b238f36e1f1f03c09628a198cefab0ed37d2b2383896040516110a792919061200c565b60405180910390a16000806007548152602001908152602001600020600101546000808581526020019081526020016000206001015413156110eb57826007819055505b600083905060008090505b60038110156111db576000801b60008084815260200190815260200160002060030154141561112f5750505050505050505050506112b6565b6000806000848152602001908152602001600020600301549050600160008083815260200190815260200160002060020160009054906101000a900467ffffffffffffffff160167ffffffffffffffff1660008085815260200190815260200160002060020160009054906101000a900467ffffffffffffffff1667ffffffffffffffff16146111ca575050505050505050505050506112b6565b8092505080806001019150506110f6565b50806008819055505b6001151560008083815260200190815260200160002060040160009054906101000a900460ff161515146112ab57600160008083815260200190815260200160002060040160006101000a81548160ff0219169083151502179055507fc87258113ecbd0404f86cc5c0155894cfc47dae8fadab01aa8eefe5b5b40bdbb816000808481526020019081526020016000206001015460405161128692919061200c565b60405180910390a16000808281526020019081526020016000206003015490506111e4565b505050505050505050505b50565b60606000808381526020019081526020016000206006018054600181600116156101000203166002900480601f0160208091040260200160405190810160405280929190818152602001828054600181600116156101000203166002900480156113645780601f1061133957610100808354040283529160200191611364565b820191906000526020600020905b81548152906001019060200180831161134757829003601f168201915b50505050509050919050565b600460003373ffffffffffffffffffffffffffffffffffffffff1673ffffffffffffffffffffffffffffffffffffffff16815260200190815260200160002060009054906101000a900460ff166113fc576040517f08c379a00000000000000000000000000000000000000000000000000000000081526004016113f3906121f9565b60405180910390fd5b6000600460008373ffffffffffffffffffffffffffffffffffffffff1673ffffffffffffffffffffffffffffffffffffffff16815260200190815260200160002060006101000a81548160ff02191690831515021790555050565b6000600460008373ffffffffffffffffffffffffffffffffffffffff1673ffffffffffffffffffffffffffffffffffffffff16815260200190815260200160002060009054906101000a900460ff169050919050565b6000806000806114bc8561151c565b925092509250600186848484604051600081526020016040526040516114e59493929190612035565b6020604051602081039080840390855afa158015611507573d6000803e3d6000fd5b50505060206040510351935050505092915050565b60008060006041845114611565576040517f08c379a000000000000000000000000000000000000000000000000000000000815260040161155c906121d9565b60405180910390fd5b6020840151915060408401519050606084015160001a9250601b830182829250925092509193909250565b828054828255906000526020600020908101928215611609579160200282015b828111156116085782518260006101000a81548173ffffffffffffffffffffffffffffffffffffffff021916908373ffffffffffffffffffffffffffffffffffffffff160217905550916020019190600101906115b0565b5b50905061161691906116b7565b5090565b604051806040016040528060008019168152602001600081525090565b828054600181600116156101000203166002900490600052602060002090601f016020900481019282601f1061167857805160ff19168380011785556116a6565b828001600101855582156116a6579182015b828111156116a557825182559160200191906001019061168a565b5b5090506116b391906116fa565b5090565b6116f791905b808211156116f357600081816101000a81549073ffffffffffffffffffffffffffffffffffffffff0219169055506001016116bd565b5090565b90565b61171c91905b80821115611718576000816000905550600101611700565b5090565b90565b60008135905061172e816124cb565b92915050565b600082601f83011261174557600080fd5b8135611758611753826122dc565b6122af565b9150818183526020840193506020810190508385602084028201111561177d57600080fd5b60005b838110156117ad5781611793888261171f565b845260208401935060208301925050600181019050611780565b5050505092915050565b600082601f8301126117c857600080fd5b81516117db6117d682612304565b6122af565b9150818183526020840193506020810190508360005b8381101561182157815186016118078882611855565b8452602084019350602083019250506001810190506117f1565b5050505092915050565b60008135905061183a816124e2565b92915050565b60008151905061184f816124e2565b92915050565b600082601f83011261186657600080fd5b81516118796118748261232c565b6122af565b9150808252602083016020830185838301111561189557600080fd5b6118a0838284612487565b50505092915050565b600082601f8301126118ba57600080fd5b81356118cd6118c882612358565b6122af565b915080825260208301602083018583830111156118e957600080fd5b6118f4838284612478565b50505092915050565b60008135905061190c816124f9565b92915050565b600081519050611921816124f9565b92915050565b60008151905061193681612510565b92915050565b60006020828403121561194e57600080fd5b600061195c8482850161171f565b91505092915050565b60008060006060848603121561197a57600080fd5b600084013567ffffffffffffffff81111561199457600080fd5b6119a086828701611734565b93505060206119b1868287016118fd565b92505060406119c2868287016118fd565b9150509250925092565b6000602082840312156119de57600080fd5b60006119ec8482850161182b565b91505092915050565b60008060008060008060c08789031215611a0e57600080fd5b6000611a1c89828a01611840565b9650506020611a2d89828a01611912565b9550506040611a3e89828a01611927565b9450506060611a4f89828a01611927565b9350506080611a6089828a01611840565b92505060a087015167ffffffffffffffff811115611a7d57600080fd5b611a8989828a016117b7565b9150509295509295509295565b600060208284031215611aa857600080fd5b600082013567ffffffffffffffff811115611ac257600080fd5b611ace848285016118a9565b91505092915050565b600060208284031215611ae957600080fd5b6000611af7848285016118fd565b91505092915050565b6000611b0c8383611b18565b60208301905092915050565b611b21816123fb565b82525050565b6000611b3282612394565b611b3c81856123b7565b9350611b4783612384565b8060005b83811015611b78578151611b5f8882611b00565b9750611b6a836123aa565b925050600181019050611b4b565b5085935050505092915050565b611b8e8161240d565b82525050565b611b9d81612419565b82525050565b611bac81612419565b82525050565b6000611bbd8261239f565b611bc781856123c8565b9350611bd7818560208601612487565b611be0816124ba565b840191505092915050565b6000611bf68261239f565b611c0081856123d9565b9350611c10818560208601612487565b611c19816124ba565b840191505092915050565b611c2d81612423565b82525050565b611c3c81612423565b82525050565b6000611c4f600e836123ea565b91507f506172656e74204d697373696e670000000000000000000000000000000000006000830152602082019050919050565b6000611c8f600f836123ea565b91507f56616c696461746f7220456d70747900000000000000000000000000000000006000830152602082019050919050565b6000611ccf600f836123ea565b91507f52657065617465642048656164657200000000000000000000000000000000006000830152602082019050919050565b6000611d0f6009836123ea565b91507f496e76616c6964204e00000000000000000000000000000000000000000000006000830152602082019050919050565b6000611d4f6011836123ea565b91507f566572696669636174696f6e204661696c0000000000000000000000000000006000830152602082019050919050565b6000611d8f6011836123ea565b91507f496e76616c6964205468726573686f6c640000000000000000000000000000006000830152602082019050919050565b6000611dcf6015836123ea565b91507f4d6f6469667920506173742056616c696461746f7200000000000000000000006000830152602082019050919050565b6000611e0f600b836123ea565b91507f496e76616c69642050524e0000000000000000000000000000000000000000006000830152602082019050919050565b6000611e4f6011836123ea565b91507f496e76616c6964205369676e61747572650000000000000000000000000000006000830152602082019050919050565b6000611e8f600c836123ea565b91507f4d617374657273204f6e6c7900000000000000000000000000000000000000006000830152602082019050919050565b6000611ecf6010836123ea565b91507f52657065617465642047656e65736973000000000000000000000000000000006000830152602082019050919050565b6000611f0f600a836123ea565b91507f496e76616c696420524e000000000000000000000000000000000000000000006000830152602082019050919050565b6000611f4f6015836123ea565b91507f496e76616c6964205461726765742048656967687400000000000000000000006000830152602082019050919050565b604082016000820151611f986000850182611b94565b506020820151611fab6020850182611c24565b50505050565b611fba8161244d565b82525050565b611fc98161246b565b82525050565b60006020820190508181036000830152611fe98184611b27565b905092915050565b60006020820190506120066000830184611b85565b92915050565b60006040820190506120216000830185611ba3565b61202e6020830184611c33565b9392505050565b600060808201905061204a6000830187611ba3565b6120576020830186611fc0565b6120646040830185611ba3565b6120716060830184611ba3565b95945050505050565b600060208201905081810360008301526120948184611bb2565b905092915050565b600060208201905081810360008301526120b68184611beb565b905092915050565b60006020820190506120d36000830184611c33565b92915050565b600060208201905081810360008301526120f281611c42565b9050919050565b6000602082019050818103600083015261211281611c82565b9050919050565b6000602082019050818103600083015261213281611cc2565b9050919050565b6000602082019050818103600083015261215281611d02565b9050919050565b6000602082019050818103600083015261217281611d42565b9050919050565b6000602082019050818103600083015261219281611d82565b9050919050565b600060208201905081810360008301526121b281611dc2565b9050919050565b600060208201905081810360008301526121d281611e02565b9050919050565b600060208201905081810360008301526121f281611e42565b9050919050565b6000602082019050818103600083015261221281611e82565b9050919050565b6000602082019050818103600083015261223281611ec2565b9050919050565b6000602082019050818103600083015261225281611f02565b9050919050565b6000602082019050818103600083015261227281611f42565b9050919050565b600060408201905061228e6000830184611f82565b92915050565b60006020820190506122a96000830184611fb1565b92915050565b6000604051905081810181811067ffffffffffffffff821117156122d257600080fd5b8060405250919050565b600067ffffffffffffffff8211156122f357600080fd5b602082029050602081019050919050565b600067ffffffffffffffff82111561231b57600080fd5b602082029050602081019050919050565b600067ffffffffffffffff82111561234357600080fd5b601f19601f8301169050602081019050919050565b600067ffffffffffffffff82111561236f57600080fd5b601f19601f8301169050602081019050919050565b6000819050602082019050919050565b600081519050919050565b600081519050919050565b6000602082019050919050565b600082825260208201905092915050565b600082825260208201905092915050565b600082825260208201905092915050565b600082825260208201905092915050565b60006124068261242d565b9050919050565b60008115159050919050565b6000819050919050565b6000819050919050565b600073ffffffffffffffffffffffffffffffffffffffff82169050919050565b6000819050919050565b600067ffffffffffffffff82169050919050565b600060ff82169050919050565b82818337600083830152505050565b60005b838110156124a557808201518184015260208101905061248a565b838111156124b4576000848401525b50505050565b6000601f19601f8301169050919050565b6124d4816123fb565b81146124df57600080fd5b50565b6124eb81612419565b81146124f657600080fd5b50565b61250281612423565b811461250d57600080fd5b50565b61251981612457565b811461252457600080fd5b5056fea365627a7a72315820ed4467f3d6cc662052a4515ea23700f1aab580e88bc8d83eb63e4a1b8951534b6c6578706572696d656e74616cf564736f6c63430005100040",
  "source": "// SPDX-License-Identifier: MIT\npragma solidity >=0.4.21 <0.9.0;\npragma experimental ABIEncoderV2;\n\nimport \"./HeaderReader.sol\";\n\ncontract Subnet {\n\n  struct Header {\n    bytes32 hash;\n    int number;\n    uint64 round_num;\n    bytes32 parent_hash;\n    bool finalized;\n    uint mainnet_num;\n    bytes src;\n  }\n\n  struct Validators {\n    address[] set;\n    int threshold;\n  }\n\n  struct BlockLite {\n    bytes32 hash;\n    int number;\n  }\n\n  mapping(bytes32 => Header) header_tree;\n  mapping(int => Validators) validator_sets;\n  mapping(address => bool) lookup;\n  mapping(address => bool) unique_addr;\n  mapping(address => bool) masters;\n  int current_validator_set_pointer = 0;\n  int current_subnet_height;\n  bytes32 latest_block;\n  bytes32 latest_finalized_block;\n\n  // Event types\n  event SubnetBlockAccepted(bytes32 block_hash, int number);\n  event SubnetBlockFinalized(bytes32 block_hash, int number);\n\n  // Modifier\n  modifier onlyMasters() {\n    if (!masters[msg.sender]) revert(\"Masters Only\");\n    _;\n  }\n\n  constructor(\n    address[] memory initial_validator_set,\n    int threshold,\n    bytes memory genesis_header,\n    bytes memory block1_header\n  ) public {\n    require(initial_validator_set.length > 0, \"Validator Empty\");\n    require(threshold > 0, \"Invalid Threshold\");\n    bytes32 genesis_header_hash = keccak256(genesis_header);\n    bytes32 block1_header_hash = keccak256(block1_header);\n    (bytes32 ph, int n) = HeaderReader.getParentHashAndNumber(genesis_header);\n    (bytes32 ph1, int n1, uint64 rn) = HeaderReader.getBlock1Params(block1_header);\n    header_tree[genesis_header_hash] = Header({\n      hash: genesis_header_hash,\n      number: n,\n      round_num: 0, \n      parent_hash: ph,\n      finalized: true,\n      mainnet_num: block.number,\n      src: genesis_header\n    });\n    header_tree[block1_header_hash] = Header({\n      hash: block1_header_hash,\n      number: n1,\n      round_num: rn, \n      parent_hash: ph1,\n      finalized: true,\n      mainnet_num: block.number,\n      src: block1_header\n    });\n    validator_sets[0] = Validators({\n      set: initial_validator_set,\n      threshold: threshold\n    });\n    for (uint i = 0; i < initial_validator_set.length; i++) {\n      lookup[initial_validator_set[i]] = true;\n    }\n    masters[msg.sender] = true;\n    latest_block = block1_header_hash;\n    latest_finalized_block = block1_header_hash;\n  }\n\n  function isMaster(address master) public view returns (bool) {\n    return masters[master];\n  }\n\n  function addMaster(address master) public onlyMasters {\n    masters[master] = true;\n  }\n\n  function removeMaster(address master) public onlyMasters {\n    masters[master] = false;\n  }\n\n  function reviseValidatorSet(address[] memory new_validator_set, int threshold, int subnet_block_height) public onlyMasters  {\n    require(new_validator_set.length > 0, \"Validator Empty\");\n    require(threshold > 0, \"Invalid Threshold\");\n    require(subnet_block_height > 1, \"Invalid Target Height\");\n    require(subnet_block_height >= current_validator_set_pointer, \"Modify Past Validator\");\n    validator_sets[subnet_block_height] = Validators({\n      set: new_validator_set,\n      threshold: threshold\n    });\n  }\n\n  function receiveHeader(bytes memory header) public onlyMasters { \n    (\n      bytes32 parent_hash,\n      int number,\n      uint64 round_number,\n      uint64 prev_round_number,\n      bytes32 signHash,\n      bytes[] memory sigs\n    ) = HeaderReader.getValidationParams(header);\n    require(number > 0, \"Repeated Genesis\");\n    require(header_tree[parent_hash].hash != 0, \"Parent Missing\");\n    require(header_tree[parent_hash].number + 1 == number, \"Invalid N\");\n    require(header_tree[parent_hash].round_num < round_number, \"Invalid RN\");\n    require(header_tree[parent_hash].round_num == prev_round_number, \"Invalid PRN\");\n    bytes32 block_hash = keccak256(header);\n    if (header_tree[block_hash].number > 0) \n      revert(\"Repeated Header\");\n    if (validator_sets[number].set.length > 0) {\n      for (uint i = 0; i < validator_sets[current_validator_set_pointer].set.length; i++) {\n        lookup[validator_sets[current_validator_set_pointer].set[i]] = false;\n      }\n      for (uint i = 0; i < validator_sets[number].set.length; i++) {\n        lookup[validator_sets[number].set[i]] = true;\n      }\n      current_validator_set_pointer = number;\n    }\n\n    int unique_counter = 0;\n    address[] memory signer_list = new address[](sigs.length);\n    for (uint i = 0; i < sigs.length; i++) {\n      address signer = recoverSigner(signHash, sigs[i]);\n      if (lookup[signer] != true) {\n        revert(\"Verification Fail\");\n      }\n      if (!unique_addr[signer]) {\n        unique_counter ++;\n        unique_addr[signer]=true;\n      } else {\n        revert(\"Verification Fail\");\n      }\n      signer_list[i] = signer;\n    }\n    for (uint i = 0; i < signer_list.length; i++) {\n      unique_addr[signer_list[i]] = false;\n    }\n    if (unique_counter < validator_sets[current_validator_set_pointer].threshold) {\n      revert(\"Verification Fail\");\n    }\n    header_tree[block_hash] = Header({\n      hash: block_hash,\n      number: number,\n      round_num: round_number,\n      parent_hash: parent_hash,\n      finalized: false,\n      mainnet_num: block.number,\n      src: header\n    });\n    emit SubnetBlockAccepted(block_hash, number);\n    if (header_tree[block_hash].number > header_tree[latest_block].number) {\n      latest_block = block_hash;\n    }\n    // Look for 3 consecutive round\n    bytes32 curr_hash = block_hash;\n    for (uint i = 0; i < 3; i++) {\n      if (header_tree[curr_hash].parent_hash == 0) return;\n      bytes32 prev_hash = header_tree[curr_hash].parent_hash;\n      if (header_tree[curr_hash].round_num != header_tree[prev_hash].round_num+1) return;\n      curr_hash = prev_hash;\n    }\n    latest_finalized_block = curr_hash;\n    // Confirm all ancestor unconfirmed block\n    while (header_tree[curr_hash].finalized != true) {\n      header_tree[curr_hash].finalized = true;\n      emit SubnetBlockFinalized(curr_hash, header_tree[curr_hash].number);\n      curr_hash = header_tree[curr_hash].parent_hash;\n    }\n  }\n\n  /// signature methods.\n  function splitSignature(bytes memory sig)\n    internal\n    pure\n    returns (uint8 v, bytes32 r, bytes32 s)\n  {\n    require(sig.length == 65, \"Invalid Signature\");\n    assembly {\n      // first 32 bytes, after the length prefix.\n      r := mload(add(sig, 32))\n      // second 32 bytes.\n      s := mload(add(sig, 64))\n      // final byte (first byte of the next 32 bytes).\n      v := byte(0, mload(add(sig, 96)))\n    }\n    // TOCHECK: v needs 27 more, may related with EIP1559\n    return (v+27, r, s);\n  }\n\n  function recoverSigner(bytes32 message, bytes memory sig)\n    internal\n    pure\n    returns (address)\n  {\n    (uint8 v, bytes32 r, bytes32 s) = splitSignature(sig);\n    return ecrecover(message, v, r, s);\n  }\n\n  function getHeader(bytes32 header_hash) public view returns (bytes memory) {\n    return header_tree[header_hash].src;\n  }\n  \n  function getHeaderConfirmationStatus(bytes32 header_hash) public view returns (bool) {\n    return header_tree[header_hash].finalized;\n  }\n\n  function getMainnetBlockNumber(bytes32 header_hash) public view returns (uint) {\n    return header_tree[header_hash].mainnet_num;\n  }\n\n  function getLatestBlock() public view returns (BlockLite memory) {\n    return BlockLite({\n      hash: latest_finalized_block,\n      number: header_tree[latest_finalized_block].number\n    });\n  }\n\n  function getValidatorSet(int height) public view returns (address[] memory res) {\n    if (validator_sets[height].threshold == 0) {\n      res = new address[](0);\n    } else {\n      res = validator_sets[height].set;\n    }\n  }\n\n  function getValidatorThreshold(int height) public view returns (int res) {\n    if (validator_sets[height].threshold == 0) {\n      res = 0;\n    } else {\n      res = validator_sets[height].threshold;\n    }\n  }\n}",
  "sourcePath": "/Users/sihengpan/Documents/XinFin/XDC-Subnet/mainnet_contract/contracts/Subnet.sol",
  "compiler": {
    "name": "solc",
    "version": "0.5.16+commit.9c3226ce.Emscripten.clang"
  },
  "schemaVersion": "3.4.1",
  "updatedAt": "2023-02-26T14:00:49.598Z",
  "devdoc": {
    "methods": {}
  },
  "userdoc": {
    "methods": {}
  }
}