{
  "contractName": "Subnet",
  "abi": [
    {
      "inputs": [
        {
          "internalType": "address[]",
          "name": "initial_validator_set",
          "type": "address[]"
        },
        {
          "internalType": "bytes",
          "name": "genesis_header",
          "type": "bytes"
        },
        {
          "internalType": "bytes",
          "name": "block1_header",
          "type": "bytes"
        },
        {
          "internalType": "uint64",
          "name": "gap",
          "type": "uint64"
        },
        {
          "internalType": "uint64",
          "name": "epoch",
          "type": "uint64"
        }
      ],
      "payable": false,
      "stateMutability": "nonpayable",
      "type": "constructor"
    },
    {
      "anonymous": false,
      "inputs": [
        {
          "indexed": false,
          "internalType": "bytes32",
          "name": "block_hash",
          "type": "bytes32"
        },
        {
          "indexed": false,
          "internalType": "int256",
          "name": "number",
          "type": "int256"
        }
      ],
      "name": "SubnetBlockAccepted",
      "type": "event"
    },
    {
      "anonymous": false,
      "inputs": [
        {
          "indexed": false,
          "internalType": "bytes32",
          "name": "block_hash",
          "type": "bytes32"
        },
        {
          "indexed": false,
          "internalType": "int256",
          "name": "number",
          "type": "int256"
        }
      ],
      "name": "SubnetBlockFinalized",
      "type": "event"
    },
    {
      "constant": true,
      "inputs": [
        {
          "internalType": "address",
          "name": "master",
          "type": "address"
        }
      ],
      "name": "isMaster",
      "outputs": [
        {
          "internalType": "bool",
          "name": "",
          "type": "bool"
        }
      ],
      "payable": false,
      "stateMutability": "view",
      "type": "function"
    },
    {
      "constant": false,
      "inputs": [
        {
          "internalType": "address",
          "name": "master",
          "type": "address"
        }
      ],
      "name": "addMaster",
      "outputs": [],
      "payable": false,
      "stateMutability": "nonpayable",
      "type": "function"
    },
    {
      "constant": false,
      "inputs": [
        {
          "internalType": "address",
          "name": "master",
          "type": "address"
        }
      ],
      "name": "removeMaster",
      "outputs": [],
      "payable": false,
      "stateMutability": "nonpayable",
      "type": "function"
    },
    {
      "constant": false,
      "inputs": [
        {
          "internalType": "bytes[]",
          "name": "headers",
          "type": "bytes[]"
        }
      ],
      "name": "receiveHeader",
      "outputs": [],
      "payable": false,
      "stateMutability": "nonpayable",
      "type": "function"
    },
    {
      "constant": true,
      "inputs": [
        {
          "internalType": "bytes32",
          "name": "header_hash",
          "type": "bytes32"
        }
      ],
      "name": "getHeader",
      "outputs": [
        {
          "components": [
            {
              "internalType": "bytes32",
              "name": "parent_hash",
              "type": "bytes32"
            },
            {
              "internalType": "int256",
              "name": "number",
              "type": "int256"
            },
            {
              "internalType": "uint64",
              "name": "round_num",
              "type": "uint64"
            },
            {
              "internalType": "int256",
              "name": "mainnet_num",
              "type": "int256"
            },
            {
              "internalType": "bool",
              "name": "finalized",
              "type": "bool"
            }
          ],
          "internalType": "struct Subnet.HeaderInfo",
          "name": "",
          "type": "tuple"
        }
      ],
      "payable": false,
      "stateMutability": "view",
      "type": "function"
    },
    {
      "constant": true,
      "inputs": [
        {
          "internalType": "int256",
          "name": "number",
          "type": "int256"
        }
      ],
      "name": "getHeaderByNumber",
      "outputs": [
        {
          "components": [
            {
              "internalType": "bytes32",
              "name": "hash",
              "type": "bytes32"
            },
            {
              "internalType": "int256",
              "name": "number",
              "type": "int256"
            }
          ],
          "internalType": "struct Subnet.BlockLite",
          "name": "",
          "type": "tuple"
        }
      ],
      "payable": false,
      "stateMutability": "view",
      "type": "function"
    },
    {
      "constant": true,
      "inputs": [
        {
          "internalType": "bytes32",
          "name": "header_hash",
          "type": "bytes32"
        }
      ],
      "name": "getHeaderConfirmationStatus",
      "outputs": [
        {
          "internalType": "bool",
          "name": "",
          "type": "bool"
        }
      ],
      "payable": false,
      "stateMutability": "view",
      "type": "function"
    },
    {
      "constant": true,
      "inputs": [
        {
          "internalType": "bytes32",
          "name": "header_hash",
          "type": "bytes32"
        }
      ],
      "name": "getMainnetBlockNumber",
      "outputs": [
        {
          "internalType": "uint256",
          "name": "",
          "type": "uint256"
        }
      ],
      "payable": false,
      "stateMutability": "view",
      "type": "function"
    },
    {
      "constant": true,
      "inputs": [],
      "name": "getLatestBlocks",
      "outputs": [
        {
          "components": [
            {
              "internalType": "bytes32",
              "name": "hash",
              "type": "bytes32"
            },
            {
              "internalType": "int256",
              "name": "number",
              "type": "int256"
            }
          ],
          "internalType": "struct Subnet.BlockLite",
          "name": "",
          "type": "tuple"
        },
        {
          "components": [
            {
              "internalType": "bytes32",
              "name": "hash",
              "type": "bytes32"
            },
            {
              "internalType": "int256",
              "name": "number",
              "type": "int256"
            }
          ],
          "internalType": "struct Subnet.BlockLite",
          "name": "",
          "type": "tuple"
        }
      ],
      "payable": false,
      "stateMutability": "view",
      "type": "function"
    },
    {
      "constant": true,
      "inputs": [],
      "name": "getCurrentValidators",
      "outputs": [
        {
          "components": [
            {
              "internalType": "address[]",
              "name": "set",
              "type": "address[]"
            },
            {
              "internalType": "int256",
              "name": "threshold",
              "type": "int256"
            }
          ],
          "internalType": "struct Subnet.Validators",
          "name": "",
          "type": "tuple"
        }
      ],
      "payable": false,
      "stateMutability": "view",
      "type": "function"
    }
  ],
  "bytecode": "0x60806040523480156200001157600080fd5b50604051620037c4380380620037c4833981810160405262000037919081019062000763565b60008551116200007e576040517f08c379a00000000000000000000000000000000000000000000000000000000081526004016200007590620009b0565b60405180910390fd5b60008480519060200120905060008480519060200120905060008073__HeaderReader__________________________63dc9e408b896040518263ffffffff1660e01b8152600401620000d291906200098c565b604080518083038186803b158015620000ea57600080fd5b505af4158015620000ff573d6000803e3d6000fd5b505050506040513d601f19601f8201168201806040525062000125919081019062000830565b91509150600080600073__HeaderReader__________________________63be7558c08b6040518263ffffffff1660e01b81526004016200016791906200098c565b60606040518083038186803b1580156200018057600080fd5b505af415801562000195573d6000803e3d6000fd5b505050506040513d601f19601f82011682018060405250620001bb919081019062000871565b925092509250600084148015620001d25750600182145b62000214576040517f08c379a00000000000000000000000000000000000000000000000000000000081526004016200020b90620009d2565b60405180910390fd5b604051806040016040528086815260200160018043901b608188901b17178152506000808981526020019081526020016000206000820151816000015560208201518160010155905050604051806040016040528084815260200160018043901b60418567ffffffffffffffff16901b608187901b171717815250600080888152602001908152602001600020600082015181600001556020820151816001015590505060405180604001604052808d8152602001600360028f510281620002d857fe5b04815250600560006001815260200190815260200160002060008201518160000190805190602001906200030e929190620004f2565b50602082015181600101559050506005600060018152602001908152602001600020600660008201816000019080546200034a92919062000581565b5060018201548160010155905050620003698c6200046460201b60201c565b6001600460003373ffffffffffffffffffffffffffffffffffffffff1673ffffffffffffffffffffffffffffffffffffffff16815260200190815260200160002060006101000a81548160ff02191690831515021790555085600881905550856009819055508660016000808152602001908152602001600020819055508560016000600181526020019081526020016000208190555088600a60006101000a81548167ffffffffffffffff021916908367ffffffffffffffff16021790555087600a60086101000a81548167ffffffffffffffff021916908367ffffffffffffffff16021790555050505050505050505050505062000bb0565b60008090505b8151811015620004ee576001600260008484815181106200048757fe5b602002602001015173ffffffffffffffffffffffffffffffffffffffff1673ffffffffffffffffffffffffffffffffffffffff16815260200190815260200160002060006101000a81548160ff02191690831515021790555080806001019150506200046a565b5050565b8280548282559060005260206000209081019282156200056e579160200282015b828111156200056d5782518260006101000a81548173ffffffffffffffffffffffffffffffffffffffff021916908373ffffffffffffffffffffffffffffffffffffffff1602179055509160200191906001019062000513565b5b5090506200057d9190620005d8565b5090565b828054828255906000526020600020908101928215620005c55760005260206000209182015b82811115620005c4578254825591600101919060010190620005a7565b5b509050620005d49190620005d8565b5090565b6200061b91905b808211156200061757600081816101000a81549073ffffffffffffffffffffffffffffffffffffffff021916905550600101620005df565b5090565b90565b6000815190506200062f8162000b48565b92915050565b600082601f8301126200064757600080fd5b81516200065e620006588262000a22565b620009f4565b915081818352602084019350602081019050838560208402820111156200068457600080fd5b60005b83811015620006b857816200069d88826200061e565b84526020840193506020830192505060018101905062000687565b5050505092915050565b600081519050620006d38162000b62565b92915050565b600082601f830112620006eb57600080fd5b815162000702620006fc8262000a4b565b620009f4565b915080825260208301602083018583830111156200071f57600080fd5b6200072c83828462000b01565b50505092915050565b600081519050620007468162000b7c565b92915050565b6000815190506200075d8162000b96565b92915050565b600080600080600060a086880312156200077c57600080fd5b600086015167ffffffffffffffff8111156200079757600080fd5b620007a58882890162000635565b955050602086015167ffffffffffffffff811115620007c357600080fd5b620007d188828901620006d9565b945050604086015167ffffffffffffffff811115620007ef57600080fd5b620007fd88828901620006d9565b935050606062000810888289016200074c565b925050608062000823888289016200074c565b9150509295509295909350565b600080604083850312156200084457600080fd5b60006200085485828601620006c2565b9250506020620008678582860162000735565b9150509250929050565b6000806000606084860312156200088757600080fd5b60006200089786828701620006c2565b9350506020620008aa8682870162000735565b9250506040620008bd868287016200074c565b9150509250925092565b6000620008d48262000a78565b620008e0818562000a83565b9350620008f281856020860162000b01565b620008fd8162000b37565b840191505092915050565b600062000917600f8362000a94565b91507f56616c696461746f7220456d70747900000000000000000000000000000000006000830152602082019050919050565b60006200095960128362000a94565b91507f496e76616c696420496e697420426c6f636b00000000000000000000000000006000830152602082019050919050565b60006020820190508181036000830152620009a88184620008c7565b905092915050565b60006020820190508181036000830152620009cb8162000908565b9050919050565b60006020820190508181036000830152620009ed816200094a565b9050919050565b6000604051905081810181811067ffffffffffffffff8211171562000a1857600080fd5b8060405250919050565b600067ffffffffffffffff82111562000a3a57600080fd5b602082029050602081019050919050565b600067ffffffffffffffff82111562000a6357600080fd5b601f19601f8301169050602081019050919050565b600081519050919050565b600082825260208201905092915050565b600082825260208201905092915050565b600062000ab28262000acd565b9050919050565b6000819050919050565b6000819050919050565b600073ffffffffffffffffffffffffffffffffffffffff82169050919050565b600067ffffffffffffffff82169050919050565b60005b8381101562000b2157808201518184015260208101905062000b04565b8381111562000b31576000848401525b50505050565b6000601f19601f8301169050919050565b62000b538162000aa5565b811462000b5f57600080fd5b50565b62000b6d8162000ab9565b811462000b7957600080fd5b50565b62000b878162000ac3565b811462000b9357600080fd5b50565b62000ba18162000aed565b811462000bad57600080fd5b50565b612c048062000bc06000396000f3fe608060405234801561001057600080fd5b506004361061009e5760003560e01c8063b961587811610066578063b96158781461015a578063c5f9dff01461018a578063e2a2f0a3146101a8578063eb71f0f8146101c4578063f720f80b146101f45761009e565b80631097d54a146100a357806366dcb0ba146100bf5780636c624a5f146100de5780636fed6f831461010e578063a20140c31461013e575b600080fd5b6100bd60048036036100b89190810190611e6a565b610224565b005b6100c761030b565b6040516100d59291906128fa565b60405180910390f35b6100f860048036036100f39190810190611f40565b6103a1565b6040516101059190612654565b60405180910390f35b61012860048036036101239190810190611f40565b6103c5565b6040516101359190612960565b60405180910390f35b61015860048036036101539190810190611eff565b6103f2565b005b610174600480360361016f9190810190611f40565b61152b565b6040516101819190612923565b60405180910390f35b6101926115fb565b60405161019f919061293e565b60405180910390f35b6101c260048036036101bd9190810190611e6a565b6116ad565b005b6101de60048036036101d9919081019061200a565b611794565b6040516101eb91906128df565b60405180910390f35b61020e60048036036102099190810190611e6a565b6118f7565b60405161021b9190612654565b60405180910390f35b600460003373ffffffffffffffffffffffffffffffffffffffff1673ffffffffffffffffffffffffffffffffffffffff16815260200190815260200160002060009054906101000a900460ff166102b0576040517f08c379a00000000000000000000000000000000000000000000000000000000081526004016102a79061285f565b60405180910390fd5b6001600460008373ffffffffffffffffffffffffffffffffffffffff1673ffffffffffffffffffffffffffffffffffffffff16815260200190815260200160002060006101000a81548160ff02191690831515021790555050565b610313611a30565b61031b611a30565b604051806040016040528060085481526020016081600080600854815260200190815260200160002060010154901c67ffffffffffffffff16815250604051806040016040528060095481526020016081600080600954815260200190815260200160002060010154901c67ffffffffffffffff16815250819150809050915091509091565b60006001806000808581526020019081526020016000206001015416149050919050565b6000600160008084815260200190815260200160002060010154901c67ffffffffffffffff169050919050565b600460003373ffffffffffffffffffffffffffffffffffffffff1673ffffffffffffffffffffffffffffffffffffffff16815260200190815260200160002060009054906101000a900460ff1661047e576040517f08c379a00000000000000000000000000000000000000000000000000000000081526004016104759061285f565b60405180910390fd5b60008090505b8151811015611527576000806000806000606073__HeaderReader__________________________6344e06ed48989815181106104bd57fe5b60200260200101516040518263ffffffff1660e01b81526004016104e191906126dd565b60006040518083038186803b1580156104f957600080fd5b505af415801561050d573d6000803e3d6000fd5b505050506040513d6000823e3d601f19601f820116820180604052506105369190810190611f69565b95509550955095509550955060608073__HeaderReader__________________________63750a2ae58b8b8151811061056b57fe5b60200260200101516040518263ffffffff1660e01b815260040161058f91906126dd565b60006040518083038186803b1580156105a757600080fd5b505af41580156105bb573d6000803e3d6000fd5b505050506040513d6000823e3d601f19601f820116820180604052506105e49190810190611e93565b915091506000871361062b576040517f08c379a00000000000000000000000000000000000000000000000000000000081526004016106229061287f565b60405180910390fd5b6081600080600954815260200190815260200160002060010154901c67ffffffffffffffff168713610692576040517f08c379a0000000000000000000000000000000000000000000000000000000008152600401610689906128bf565b60405180910390fd5b60008060008a81526020019081526020016000206001015414156106eb576040517f08c379a00000000000000000000000000000000000000000000000000000000081526004016106e2906126ff565b60405180910390fd5b86600160816000808c815260200190815260200160002060010154901c67ffffffffffffffff160114610753576040517f08c379a000000000000000000000000000000000000000000000000000000000815260040161074a9061275f565b60405180910390fd5b8567ffffffffffffffff1660416000808b815260200190815260200160002060010154901c67ffffffffffffffff16106107c2576040517f08c379a00000000000000000000000000000000000000000000000000000000081526004016107b99061289f565b60405180910390fd5b8467ffffffffffffffff1660416000808b815260200190815260200160002060010154901c67ffffffffffffffff1614610831576040517f08c379a0000000000000000000000000000000000000000000000000000000008152600401610828906127bf565b60405180910390fd5b60008a8a8151811061083f57fe5b6020026020010151604051610854919061263d565b6040518091039020905060008060008381526020019081526020016000206001015411156108b7576040517f08c379a00000000000000000000000000000000000000000000000000000000081526004016108ae9061271f565b60405180910390fd5b600083511180156108c9575060008251115b15610909576040517f08c379a0000000000000000000000000000000000000000000000000000000008152600401610900906127df565b60405180910390fd5b600083511115610c7a57600a60089054906101000a900467ffffffffffffffff1667ffffffffffffffff168767ffffffffffffffff168161094657fe5b06870367ffffffffffffffff168667ffffffffffffffff161015610c3a576000600a60009054906101000a900467ffffffffffffffff1667ffffffffffffffff16600a60089054906101000a900467ffffffffffffffff1667ffffffffffffffff168a816109b057fe5b078a0303905060008112156109c457600090505b600181019050600060056000838152602001908152602001600020600101541315610bf9578351600560008381526020019081526020016000206000018054905014610a45576040517f08c379a0000000000000000000000000000000000000000000000000000000008152600401610a3c9061283f565b60405180910390fd5b60008090505b600660000180549050811015610afa5760006002600060066000018481548110610a7157fe5b9060005260206000200160009054906101000a900473ffffffffffffffffffffffffffffffffffffffff1673ffffffffffffffffffffffffffffffffffffffff1673ffffffffffffffffffffffffffffffffffffffff16815260200190815260200160002060006101000a81548160ff0219169083151502179055508080600101915050610a4b565b5060008090505b8451811015610bba57600160026000600560008681526020019081526020016000206000018481548110610b3157fe5b9060005260206000200160009054906101000a900473ffffffffffffffffffffffffffffffffffffffff1673ffffffffffffffffffffffffffffffffffffffff1673ffffffffffffffffffffffffffffffffffffffff16815260200190815260200160002060006101000a81548160ff0219169083151502179055508080600101915050610b01565b506005600082815260200190815260200160002060066000820181600001908054610be6929190611a4d565b5060018201548160010155905050610c34565b6040517f08c379a0000000000000000000000000000000000000000000000000000000008152600401610c2b9061279f565b60405180910390fd5b50610c75565b6040517f08c379a0000000000000000000000000000000000000000000000000000000008152600401610c6c9061279f565b60405180910390fd5b610f4b565b600082511115610f4a576001600a60009054906101000a900467ffffffffffffffff16600a60089054906101000a900467ffffffffffffffff16030167ffffffffffffffff16600a60089054906101000a900467ffffffffffffffff1667ffffffffffffffff168981610ce957fe5b0767ffffffffffffffff161415610f0e5760008090505b8251811015610d8157600160036000858481518110610d1b57fe5b602002602001015173ffffffffffffffffffffffffffffffffffffffff1673ffffffffffffffffffffffffffffffffffffffff16815260200190815260200160002060006101000a81548160ff0219169083151502179055508080600101915050610d00565b5060008090505b8251811015610ea85760036000848381518110610da157fe5b602002602001015173ffffffffffffffffffffffffffffffffffffffff1673ffffffffffffffffffffffffffffffffffffffff16815260200190815260200160002060009054906101000a900460ff16610e30576040517f08c379a0000000000000000000000000000000000000000000000000000000008152600401610e279061281f565b60405180910390fd5b600060036000858481518110610e4257fe5b602002602001015173ffffffffffffffffffffffffffffffffffffffff1673ffffffffffffffffffffffffffffffffffffffff16815260200190815260200160002060006101000a81548160ff0219169083151502179055508080600101915050610d88565b5060405180604001604052808381526020016003600285510281610ec857fe5b04815250600560008a81526020019081526020016000206000820151816000019080519060200190610efb929190611a9f565b5060208201518160010155905050610f49565b6040517f08c379a0000000000000000000000000000000000000000000000000000000008152600401610f409061273f565b60405180910390fd5b5b5b600080905060608551604051908082528060200260200182016040528015610f825781602001602082028038833980820191505090505b50905060008090505b865181101561118e576000610fb389898481518110610fa657fe5b602002602001015161194d565b905060011515600260008373ffffffffffffffffffffffffffffffffffffffff1673ffffffffffffffffffffffffffffffffffffffff16815260200190815260200160002060009054906101000a900460ff16151514611048576040517f08c379a000000000000000000000000000000000000000000000000000000000815260040161103f9061277f565b60405180910390fd5b600360008273ffffffffffffffffffffffffffffffffffffffff1673ffffffffffffffffffffffffffffffffffffffff16815260200190815260200160002060009054906101000a900460ff166110fe5783806001019450506001600360008373ffffffffffffffffffffffffffffffffffffffff1673ffffffffffffffffffffffffffffffffffffffff16815260200190815260200160002060006101000a81548160ff021916908315150217905550611139565b6040517f08c379a00000000000000000000000000000000000000000000000000000000081526004016111309061277f565b60405180910390fd5b8083838151811061114657fe5b602002602001019073ffffffffffffffffffffffffffffffffffffffff16908173ffffffffffffffffffffffffffffffffffffffff1681525050508080600101915050610f8b565b5060008090505b8151811015611216576000600360008484815181106111b057fe5b602002602001015173ffffffffffffffffffffffffffffffffffffffff1673ffffffffffffffffffffffffffffffffffffffff16815260200190815260200160002060006101000a81548160ff0219169083151502179055508080600101915050611195565b5060066001015482121561125f576040517f08c379a00000000000000000000000000000000000000000000000000000000081526004016112569061277f565b60405180910390fd5b60405180604001604052808c8152602001600143901b60418c67ffffffffffffffff16901b60818e901b171781525060008085815260200190815260200160002060008201518160000155602082015181600101559050507fc92de1e80780c8f239052c833b238f36e1f1f03c09628a198cefab0ed37d2b23838b6040516112e892919061266f565b60405180910390a16081600080600854815260200190815260200160002060010154901c67ffffffffffffffff168a131561132557826008819055505b600060019050600084905060008090505b60038110156113ed576000801b60008084815260200190815260200160002060000154141561136857600092506113ed565b60008060008481526020019081526020016000206000015490506001604160008084815260200190815260200160002060010154901c0167ffffffffffffffff16604160008086815260200190815260200160002060010154901c67ffffffffffffffff16146113dc5760009350506113ed565b809250508080600101915050611336565b5060001515821515141561140d575050505050505050505050505061151a565b806009819055505b60018060008084815260200190815260200160002060010154161461150c576001600080838152602001908152602001600020600101600082825417925050819055508060016000608160008086815260200190815260200160002060010154901c67ffffffffffffffff168152602001908152602001600020819055507fc87258113ecbd0404f86cc5c0155894cfc47dae8fadab01aa8eefe5b5b40bdbb81608160008085815260200190815260200160002060010154901c67ffffffffffffffff166040516114e792919061266f565b60405180910390a1600080828152602001908152602001600020600001549050611415565b505050505050505050505050505b8080600101915050610484565b5050565b611533611b29565b6040518060a00160405280600080858152602001908152602001600020600001548152602001608160008086815260200190815260200160002060010154901c67ffffffffffffffff168152602001604160008086815260200190815260200160002060010154901c67ffffffffffffffff168152602001600160008086815260200190815260200160002060010154901c67ffffffffffffffff16815260200160018060008087815260200190815260200160002060010154161415158152509050919050565b611603611b67565b60066040518060400160405290816000820180548060200260200160405190810160405280929190818152602001828054801561169557602002820191906000526020600020905b8160009054906101000a900473ffffffffffffffffffffffffffffffffffffffff1673ffffffffffffffffffffffffffffffffffffffff168152602001906001019080831161164b575b50505050508152602001600182015481525050905090565b600460003373ffffffffffffffffffffffffffffffffffffffff1673ffffffffffffffffffffffffffffffffffffffff16815260200190815260200160002060009054906101000a900460ff16611739576040517f08c379a00000000000000000000000000000000000000000000000000000000081526004016117309061285f565b60405180910390fd5b6000600460008373ffffffffffffffffffffffffffffffffffffffff1673ffffffffffffffffffffffffffffffffffffffff16815260200190815260200160002060006101000a81548160ff02191690831515021790555050565b61179c611a30565b6000801b600160008481526020019081526020016000205414156118915760006081600080600854815260200190815260200160002060010154901c67ffffffffffffffff1690508083131561180d5760405180604001604052806000801b815260200160008152509150506118f2565b600083820390506000600854905060008090505b8281121561184e576000808381526020019081526020016000206000015491508080600101915050611821565b506040518060400160405280828152602001608160008085815260200190815260200160002060010154901c67ffffffffffffffff1681525093505050506118f2565b60405180604001604052806001600085815260200190815260200160002054815260200160816000806001600088815260200190815260200160002054815260200190815260200160002060010154901c67ffffffffffffffff1681525090505b919050565b6000600460008373ffffffffffffffffffffffffffffffffffffffff1673ffffffffffffffffffffffffffffffffffffffff16815260200190815260200160002060009054906101000a900460ff169050919050565b60008060008061195c856119bc565b925092509250600186848484604051600081526020016040526040516119859493929190612698565b6020604051602081039080840390855afa1580156119a7573d6000803e3d6000fd5b50505060206040510351935050505092915050565b60008060006041845114611a05576040517f08c379a00000000000000000000000000000000000000000000000000000000081526004016119fc906127ff565b60405180910390fd5b6020840151915060408401519050606084015160001a9250601b830182829250925092509193909250565b604051806040016040528060008019168152602001600081525090565b828054828255906000526020600020908101928215611a8e5760005260206000209182015b82811115611a8d578254825591600101919060010190611a72565b5b509050611a9b9190611b81565b5090565b828054828255906000526020600020908101928215611b18579160200282015b82811115611b175782518260006101000a81548173ffffffffffffffffffffffffffffffffffffffff021916908373ffffffffffffffffffffffffffffffffffffffff16021790555091602001919060010190611abf565b5b509050611b259190611b81565b5090565b6040518060a001604052806000801916815260200160008152602001600067ffffffffffffffff168152602001600081526020016000151581525090565b604051806040016040528060608152602001600081525090565b611bc191905b80821115611bbd57600081816101000a81549073ffffffffffffffffffffffffffffffffffffffff021916905550600101611b87565b5090565b90565b600081359050611bd381612b65565b92915050565b600081519050611be881612b65565b92915050565b600082601f830112611bff57600080fd5b8151611c12611c0d826129a8565b61297b565b91508181835260208401935060208101905083856020840282011115611c3757600080fd5b60005b83811015611c675781611c4d8882611bd9565b845260208401935060208301925050600181019050611c3a565b5050505092915050565b600082601f830112611c8257600080fd5b8135611c95611c90826129d0565b61297b565b9150818183526020840193506020810190508360005b83811015611cdb5781358601611cc18882611d83565b845260208401935060208301925050600181019050611cab565b5050505092915050565b600082601f830112611cf657600080fd5b8151611d09611d04826129d0565b61297b565b9150818183526020840193506020810190508360005b83811015611d4f5781518601611d358882611dd7565b845260208401935060208301925050600181019050611d1f565b5050505092915050565b600081359050611d6881612b7c565b92915050565b600081519050611d7d81612b7c565b92915050565b600082601f830112611d9457600080fd5b8135611da7611da2826129f8565b61297b565b91508082526020830160208301858383011115611dc357600080fd5b611dce838284612b12565b50505092915050565b600082601f830112611de857600080fd5b8151611dfb611df6826129f8565b61297b565b91508082526020830160208301858383011115611e1757600080fd5b611e22838284612b21565b50505092915050565b600081359050611e3a81612b93565b92915050565b600081519050611e4f81612b93565b92915050565b600081519050611e6481612baa565b92915050565b600060208284031215611e7c57600080fd5b6000611e8a84828501611bc4565b91505092915050565b60008060408385031215611ea657600080fd5b600083015167ffffffffffffffff811115611ec057600080fd5b611ecc85828601611bee565b925050602083015167ffffffffffffffff811115611ee957600080fd5b611ef585828601611bee565b9150509250929050565b600060208284031215611f1157600080fd5b600082013567ffffffffffffffff811115611f2b57600080fd5b611f3784828501611c71565b91505092915050565b600060208284031215611f5257600080fd5b6000611f6084828501611d59565b91505092915050565b60008060008060008060c08789031215611f8257600080fd5b6000611f9089828a01611d6e565b9650506020611fa189828a01611e40565b9550506040611fb289828a01611e55565b9450506060611fc389828a01611e55565b9350506080611fd489828a01611d6e565b92505060a087015167ffffffffffffffff811115611ff157600080fd5b611ffd89828a01611ce5565b9150509295509295509295565b60006020828403121561201c57600080fd5b600061202a84828501611e2b565b91505092915050565b600061203f838361204b565b60208301905092915050565b61205481612a95565b82525050565b600061206582612a34565b61206f8185612a57565b935061207a83612a24565b8060005b838110156120ab5781516120928882612033565b975061209d83612a4a565b92505060018101905061207e565b5085935050505092915050565b6120c181612aa7565b82525050565b6120d081612aa7565b82525050565b6120df81612ab3565b82525050565b6120ee81612ab3565b82525050565b60006120ff82612a3f565b6121098185612a68565b9350612119818560208601612b21565b61212281612b54565b840191505092915050565b600061213882612a3f565b6121428185612a79565b9350612152818560208601612b21565b80840191505092915050565b61216781612abd565b82525050565b61217681612abd565b82525050565b6000612189600e83612a84565b91507f506172656e74204d697373696e670000000000000000000000000000000000006000830152602082019050919050565b60006121c9600f83612a84565b91507f52657065617465642048656164657200000000000000000000000000000000006000830152602082019050919050565b6000612209601283612a84565b91507f496e76616c6964204e65787420426c6f636b00000000000000000000000000006000830152602082019050919050565b6000612249600983612a84565b91507f496e76616c6964204e00000000000000000000000000000000000000000000006000830152602082019050919050565b6000612289601183612a84565b91507f566572696669636174696f6e204661696c0000000000000000000000000000006000830152602082019050919050565b60006122c9601583612a84565b91507f496e76616c69642043757272656e7420426c6f636b00000000000000000000006000830152602082019050919050565b6000612309600b83612a84565b91507f496e76616c69642050524e0000000000000000000000000000000000000000006000830152602082019050919050565b6000612349600f83612a84565b91507f4d616c666f726d656420426c6f636b00000000000000000000000000000000006000830152602082019050919050565b6000612389601183612a84565b91507f496e76616c6964205369676e61747572650000000000000000000000000000006000830152602082019050919050565b60006123c9601283612a84565b91507f52657065617465642056616c696461746f7200000000000000000000000000006000830152602082019050919050565b6000612409601583612a84565b91507f4d69736d6174636865642056616c696461746f727300000000000000000000006000830152602082019050919050565b6000612449600c83612a84565b91507f4d617374657273204f6e6c7900000000000000000000000000000000000000006000830152602082019050919050565b6000612489601083612a84565b91507f52657065617465642047656e65736973000000000000000000000000000000006000830152602082019050919050565b60006124c9600a83612a84565b91507f496e76616c696420524e000000000000000000000000000000000000000000006000830152602082019050919050565b6000612509600983612a84565b91507f4f6c6420426c6f636b00000000000000000000000000000000000000000000006000830152602082019050919050565b60408201600082015161255260008501826120d6565b506020820151612565602085018261215e565b50505050565b60a08201600082015161258160008501826120d6565b506020820151612594602085018261215e565b5060408201516125a7604085018261261f565b5060608201516125ba606085018261215e565b5060808201516125cd60808501826120b8565b50505050565b600060408301600083015184820360008601526125f0828261205a565b9150506020830151612605602086018261215e565b508091505092915050565b61261981612ae7565b82525050565b61262881612af1565b82525050565b61263781612b05565b82525050565b6000612649828461212d565b915081905092915050565b600060208201905061266960008301846120c7565b92915050565b600060408201905061268460008301856120e5565b612691602083018461216d565b9392505050565b60006080820190506126ad60008301876120e5565b6126ba602083018661262e565b6126c760408301856120e5565b6126d460608301846120e5565b95945050505050565b600060208201905081810360008301526126f781846120f4565b905092915050565b600060208201905081810360008301526127188161217c565b9050919050565b60006020820190508181036000830152612738816121bc565b9050919050565b60006020820190508181036000830152612758816121fc565b9050919050565b600060208201905081810360008301526127788161223c565b9050919050565b600060208201905081810360008301526127988161227c565b9050919050565b600060208201905081810360008301526127b8816122bc565b9050919050565b600060208201905081810360008301526127d8816122fc565b9050919050565b600060208201905081810360008301526127f88161233c565b9050919050565b600060208201905081810360008301526128188161237c565b9050919050565b60006020820190508181036000830152612838816123bc565b9050919050565b60006020820190508181036000830152612858816123fc565b9050919050565b600060208201905081810360008301526128788161243c565b9050919050565b600060208201905081810360008301526128988161247c565b9050919050565b600060208201905081810360008301526128b8816124bc565b9050919050565b600060208201905081810360008301526128d8816124fc565b9050919050565b60006040820190506128f4600083018461253c565b92915050565b600060808201905061290f600083018561253c565b61291c604083018461253c565b9392505050565b600060a082019050612938600083018461256b565b92915050565b6000602082019050818103600083015261295881846125d3565b905092915050565b60006020820190506129756000830184612610565b92915050565b6000604051905081810181811067ffffffffffffffff8211171561299e57600080fd5b8060405250919050565b600067ffffffffffffffff8211156129bf57600080fd5b602082029050602081019050919050565b600067ffffffffffffffff8211156129e757600080fd5b602082029050602081019050919050565b600067ffffffffffffffff821115612a0f57600080fd5b601f19601f8301169050602081019050919050565b6000819050602082019050919050565b600081519050919050565b600081519050919050565b6000602082019050919050565b600082825260208201905092915050565b600082825260208201905092915050565b600081905092915050565b600082825260208201905092915050565b6000612aa082612ac7565b9050919050565b60008115159050919050565b6000819050919050565b6000819050919050565b600073ffffffffffffffffffffffffffffffffffffffff82169050919050565b6000819050919050565b600067ffffffffffffffff82169050919050565b600060ff82169050919050565b82818337600083830152505050565b60005b83811015612b3f578082015181840152602081019050612b24565b83811115612b4e576000848401525b50505050565b6000601f19601f8301169050919050565b612b6e81612a95565b8114612b7957600080fd5b50565b612b8581612ab3565b8114612b9057600080fd5b50565b612b9c81612abd565b8114612ba757600080fd5b50565b612bb381612af1565b8114612bbe57600080fd5b5056fea365627a7a72315820b872d0a862984534ef6fbdc5ad8d81792c71085971552aa88c6e6201e49f5b5f6c6578706572696d656e74616cf564736f6c63430005100040",
  "source": "// SPDX-License-Identifier: MIT\npragma solidity >=0.4.21 <0.9.0;\npragma experimental ABIEncoderV2;\n\nimport \"./HeaderReader.sol\";\n\ncontract Subnet {\n\n  struct Header {\n    bytes32 parent_hash;\n    uint256 mix; // padding 63 | uint64 number | uint64 round_num | uint64 mainnet_num | bool finalized \n  }\n\n  struct HeaderInfo {\n    bytes32 parent_hash;\n    int number;\n    uint64 round_num;\n    int mainnet_num;\n    bool finalized;\n  }\n\n  struct Validators {\n    address[] set;\n    int threshold;\n  }\n\n  struct BlockLite {\n    bytes32 hash;\n    int number;\n  }\n\n  mapping(bytes32 => Header) header_tree;\n  mapping(int => bytes32) committed_blocks;\n  mapping(address => bool) lookup;\n  mapping(address => bool) unique_addr;\n  mapping(address => bool) masters;\n  mapping(int => Validators) validators;\n  Validators current_validators;\n  bytes32 latest_block;\n  bytes32 latest_finalized_block;\n  uint64 GAP;\n  uint64 EPOCH;\n\n  // Event types\n  event SubnetBlockAccepted(bytes32 block_hash, int number);\n  event SubnetBlockFinalized(bytes32 block_hash, int number);\n\n  // Modifier\n  modifier onlyMasters() {\n    if (!masters[msg.sender]) revert(\"Masters Only\");\n    _;\n  }\n\n  constructor(\n    address[] memory initial_validator_set,\n    bytes memory genesis_header,\n    bytes memory block1_header,\n    uint64 gap,\n    uint64 epoch\n  ) public {\n    require(initial_validator_set.length > 0, \"Validator Empty\");\n    bytes32 genesis_header_hash = keccak256(genesis_header);\n    bytes32 block1_header_hash = keccak256(block1_header);\n    (bytes32 ph, int n) = HeaderReader.getParentHashAndNumber(genesis_header);\n    (bytes32 ph1, int n1, uint64 rn) = HeaderReader.getBlock1Params(block1_header);\n    require(n == 0 && n1 == 1, \"Invalid Init Block\");\n    header_tree[genesis_header_hash] = Header({\n      parent_hash: ph,\n      mix: uint256(n) << 129 | uint256(block.number) << 1 | 1\n    });\n    header_tree[block1_header_hash] = Header({\n      parent_hash: ph1,\n      mix: uint256(n1) << 129 | uint256(rn) << 65 | uint256(block.number) << 1 | 1\n    });\n    validators[1] = Validators({\n      set: initial_validator_set,\n      threshold: int256(initial_validator_set.length * 2 / 3)\n    });\n    current_validators = validators[1];\n    updateLookup(initial_validator_set);\n    masters[msg.sender] = true;\n    latest_block = block1_header_hash;\n    latest_finalized_block = block1_header_hash;\n    committed_blocks[0] = genesis_header_hash;\n    committed_blocks[1] = block1_header_hash;\n    GAP = gap;\n    EPOCH = epoch;\n  }\n\n  function isMaster(address master) public view returns (bool) {\n    return masters[master];\n  }\n\n  function addMaster(address master) public onlyMasters {\n    masters[master] = true;\n  }\n\n  function removeMaster(address master) public onlyMasters {\n    masters[master] = false;\n  }\n\n  function receiveHeader(bytes[] memory headers) public onlyMasters {\n    for (uint x = 0; x < headers.length; x++) {\n      (\n        bytes32 parent_hash,\n        int number,\n        uint64 round_number,\n        uint64 prev_round_number,\n        bytes32 signHash,\n        bytes[] memory sigs\n      ) = HeaderReader.getValidationParams(headers[x]);\n    \n      (\n        address[] memory current,\n        address[] memory next\n      ) = HeaderReader.getEpoch(headers[x]);\n      \n      require(number > 0, \"Repeated Genesis\");\n      require(number > int256(uint256(uint64(header_tree[latest_finalized_block].mix >> 129))), \"Old Block\");\n      require(header_tree[parent_hash].mix != 0, \"Parent Missing\");\n      require(int256(uint256(uint64(header_tree[parent_hash].mix >> 129))) + 1 == number, \"Invalid N\");\n      require(uint64(header_tree[parent_hash].mix >> 65) < round_number, \"Invalid RN\");\n      require(uint64(header_tree[parent_hash].mix >> 65) == prev_round_number, \"Invalid PRN\");\n      \n      bytes32 block_hash = keccak256(headers[x]);\n      if (header_tree[block_hash].mix > 0) \n        revert(\"Repeated Header\");\n      if (current.length > 0 && next.length > 0)\n        revert(\"Malformed Block\");\n      else if (current.length > 0) {\n        if (prev_round_number < round_number - (round_number % EPOCH)) {\n          int256 gap_number = number - number % int256(uint256(EPOCH)) - int256(uint256(GAP));\n          if (gap_number < 0) {\n            gap_number = 0;\n          }\n          gap_number = gap_number + 1;\n          if (validators[gap_number].threshold > 0) {\n            if (validators[gap_number].set.length != current.length)\n              revert(\"Mismatched Validators\");\n            for (uint i = 0; i < current_validators.set.length; i++) {\n              lookup[current_validators.set[i]] = false;\n            }\n            for (uint i = 0; i < current.length; i++) {\n              lookup[validators[gap_number].set[i]] = true;\n            }\n            current_validators = validators[gap_number];\n          } else \n            revert(\"Invalid Current Block\");\n        } else\n          revert(\"Invalid Current Block\");\n      } else if (next.length > 0) {\n        if (uint64(uint256(number % int256(uint256(EPOCH)))) == EPOCH - GAP + 1) {\n          for (uint i = 0; i < next.length; i++) {\n            unique_addr[next[i]] = true;\n          }\n          for (uint i = 0; i < next.length; i++) {\n            if (!unique_addr[next[i]]) \n              revert(\"Repeated Validator\");\n            else\n              unique_addr[next[i]] = false;\n          }\n          validators[number] = Validators({\n            set: next,\n            threshold: int256(next.length * 2 / 3)\n          });\n        } else\n          revert(\"Invalid Next Block\");\n      }\n\n      int unique_counter = 0;\n      address[] memory signer_list = new address[](sigs.length);\n      for (uint i = 0; i < sigs.length; i++) {\n        address signer = recoverSigner(signHash, sigs[i]);\n        if (lookup[signer] != true) {\n          revert(\"Verification Fail\");\n        }\n        if (!unique_addr[signer]) {\n          unique_counter ++;\n          unique_addr[signer]=true;\n        } else {\n          revert(\"Verification Fail\");\n        }\n        signer_list[i] = signer;\n      }\n      for (uint i = 0; i < signer_list.length; i++) {\n        unique_addr[signer_list[i]] = false;\n      }\n      if (unique_counter < current_validators.threshold) {\n        revert(\"Verification Fail\");\n      }\n      header_tree[block_hash] = Header({\n        parent_hash: parent_hash,\n        mix: uint256(number) << 129 | uint256(round_number) << 65 | uint256(block.number) << 1\n      });\n      emit SubnetBlockAccepted(block_hash, number);\n      if (number > int256(uint256(uint64(header_tree[latest_block].mix >> 129)))) {\n        latest_block = block_hash;\n      }\n      // Look for 3 consecutive round\n      bool found_committed_flag = true;\n      bytes32 curr_hash = block_hash;\n      for (uint i = 0; i < 3; i++) {\n        if (header_tree[curr_hash].parent_hash == 0) {\n          found_committed_flag = false;\n          break;\n        }\n        bytes32 prev_hash = header_tree[curr_hash].parent_hash;\n        if (uint64(header_tree[curr_hash].mix >> 65) != uint64(header_tree[prev_hash].mix >> 65)+1) {\n          found_committed_flag = false;\n          break;\n        } else {\n          curr_hash = prev_hash;\n        }\n      }\n      if (found_committed_flag == false) continue;\n      latest_finalized_block = curr_hash;\n      // Confirm all ancestor unconfirmed block\n      while ((header_tree[curr_hash].mix & 1) != 1) {\n        header_tree[curr_hash].mix |= 1;\n        committed_blocks[int256(uint256(uint64(header_tree[curr_hash].mix >> 129)))] = curr_hash;\n        emit SubnetBlockFinalized(curr_hash, int256(uint256(uint64(header_tree[curr_hash].mix >> 129))));\n        curr_hash = header_tree[curr_hash].parent_hash;\n      }\n    }\n  }\n\n  /// signature methods.\n  function splitSignature(bytes memory sig)\n    internal\n    pure\n    returns (uint8 v, bytes32 r, bytes32 s)\n  {\n    require(sig.length == 65, \"Invalid Signature\");\n    assembly {\n      // first 32 bytes, after the length prefix.\n      r := mload(add(sig, 32))\n      // second 32 bytes.\n      s := mload(add(sig, 64))\n      // final byte (first byte of the next 32 bytes).\n      v := byte(0, mload(add(sig, 96)))\n    }\n    // TOCHECK: v needs 27 more, may related with EIP1559\n    return (v+27, r, s);\n  }\n\n  function updateLookup(address[] memory initial_validator_set) internal {\n    for (uint i = 0; i < initial_validator_set.length; i++) {\n      lookup[initial_validator_set[i]] = true;\n    }\n  }\n\n  function recoverSigner(bytes32 message, bytes memory sig)\n    internal\n    pure\n    returns (address)\n  {\n    (uint8 v, bytes32 r, bytes32 s) = splitSignature(sig);\n    return ecrecover(message, v, r, s);\n  }\n\n  function getHeader(bytes32 header_hash) public view returns (HeaderInfo memory) {\n    return HeaderInfo({\n      parent_hash: header_tree[header_hash].parent_hash,\n      number: int256(uint256(uint64(header_tree[header_hash].mix >> 129))),\n      round_num: uint64(header_tree[header_hash].mix >> 65),\n      mainnet_num: int256(uint256(uint64(header_tree[header_hash].mix >> 1))),\n      finalized: (header_tree[header_hash].mix & 1) == 1\n    });\n  }\n\n\n  function getHeaderByNumber(int number) public view returns (BlockLite memory) {\n    if (committed_blocks[number] == 0) {\n      int block_num = int256(uint256(uint64(header_tree[latest_block].mix >> 129)));\n      if (number > block_num) {\n        return BlockLite({\n          hash: bytes32(0),\n          number: 0\n        });\n      }\n      int num_gap =  block_num - number;\n      bytes32 curr_hash = latest_block;\n      for (int i = 0; i < num_gap; i++) {\n        curr_hash = header_tree[curr_hash].parent_hash;\n      }\n      return BlockLite({\n        hash: curr_hash,\n        number: int256(uint256(uint64(header_tree[curr_hash].mix >> 129)))\n      });\n    } else {\n      return BlockLite({\n        hash: committed_blocks[number],\n        number: int256(uint256(uint64(header_tree[committed_blocks[number]].mix >> 129)))\n      });\n    }\n    \n  }\n  \n  function getHeaderConfirmationStatus(bytes32 header_hash) public view returns (bool) {\n    return (header_tree[header_hash].mix & 1 == 1);\n  }\n\n  function getMainnetBlockNumber(bytes32 header_hash) public view returns (uint) {\n    return uint256(uint64(header_tree[header_hash].mix >> 1));\n  }\n\n  function getLatestBlocks() public view returns (BlockLite memory, BlockLite memory) {\n    return (\n        BlockLite({\n        hash: latest_block,\n        number: int256(uint256(uint64(header_tree[latest_block].mix >> 129)))\n      }),\n        BlockLite({\n        hash: latest_finalized_block,\n        number: int256(uint256(uint64(header_tree[latest_finalized_block].mix >> 129)))\n    }));\n  }\n\n  function getCurrentValidators() public view returns (Validators memory) {\n    return current_validators;\n  }\n}",
  "sourcePath": "/Users/sihengpan/Documents/XinFin/XDC-Subnet/mainnet_contract/contracts/Subnet.sol",
  "compiler": {
    "name": "solc",
    "version": "0.5.16+commit.9c3226ce.Emscripten.clang"
  },
  "schemaVersion": "3.4.1",
  "updatedAt": "2023-04-24T14:10:49.321Z",
  "devdoc": {
    "methods": {}
  },
  "userdoc": {
    "methods": {}
  }
}