{
  "contractName": "Subnet",
  "abi": [
    {
      "inputs": [
        {
          "internalType": "address[]",
          "name": "initial_validator_set",
          "type": "address[]"
        },
        {
          "internalType": "int256",
          "name": "threshold",
          "type": "int256"
        },
        {
          "internalType": "bytes",
          "name": "genesis_header",
          "type": "bytes"
        },
        {
          "internalType": "bytes",
          "name": "block1_header",
          "type": "bytes"
        },
        {
          "internalType": "uint64",
          "name": "gap",
          "type": "uint64"
        },
        {
          "internalType": "uint64",
          "name": "epoch",
          "type": "uint64"
        }
      ],
      "payable": false,
      "stateMutability": "nonpayable",
      "type": "constructor"
    },
    {
      "anonymous": false,
      "inputs": [
        {
          "indexed": false,
          "internalType": "bytes32",
          "name": "block_hash",
          "type": "bytes32"
        },
        {
          "indexed": false,
          "internalType": "int256",
          "name": "number",
          "type": "int256"
        }
      ],
      "name": "SubnetBlockAccepted",
      "type": "event"
    },
    {
      "anonymous": false,
      "inputs": [
        {
          "indexed": false,
          "internalType": "bytes32",
          "name": "block_hash",
          "type": "bytes32"
        },
        {
          "indexed": false,
          "internalType": "int256",
          "name": "number",
          "type": "int256"
        }
      ],
      "name": "SubnetBlockFinalized",
      "type": "event"
    },
    {
      "constant": true,
      "inputs": [
        {
          "internalType": "address",
          "name": "master",
          "type": "address"
        }
      ],
      "name": "isMaster",
      "outputs": [
        {
          "internalType": "bool",
          "name": "",
          "type": "bool"
        }
      ],
      "payable": false,
      "stateMutability": "view",
      "type": "function"
    },
    {
      "constant": false,
      "inputs": [
        {
          "internalType": "address",
          "name": "master",
          "type": "address"
        }
      ],
      "name": "addMaster",
      "outputs": [],
      "payable": false,
      "stateMutability": "nonpayable",
      "type": "function"
    },
    {
      "constant": false,
      "inputs": [
        {
          "internalType": "address",
          "name": "master",
          "type": "address"
        }
      ],
      "name": "removeMaster",
      "outputs": [],
      "payable": false,
      "stateMutability": "nonpayable",
      "type": "function"
    },
    {
      "constant": false,
      "inputs": [
        {
          "internalType": "int256",
          "name": "threshold",
          "type": "int256"
        }
      ],
      "name": "setThreshold",
      "outputs": [],
      "payable": false,
      "stateMutability": "nonpayable",
      "type": "function"
    },
    {
      "constant": false,
      "inputs": [
        {
          "internalType": "bytes",
          "name": "header",
          "type": "bytes"
        }
      ],
      "name": "receiveHeader",
      "outputs": [],
      "payable": false,
      "stateMutability": "nonpayable",
      "type": "function"
    },
    {
      "constant": true,
      "inputs": [
        {
          "internalType": "bytes32",
          "name": "header_hash",
          "type": "bytes32"
        }
      ],
      "name": "getHeader",
      "outputs": [
        {
          "internalType": "bytes",
          "name": "",
          "type": "bytes"
        }
      ],
      "payable": false,
      "stateMutability": "view",
      "type": "function"
    },
    {
      "constant": true,
      "inputs": [
        {
          "internalType": "int256",
          "name": "number",
          "type": "int256"
        }
      ],
      "name": "getHeaderByNumber",
      "outputs": [
        {
          "components": [
            {
              "internalType": "bytes32",
              "name": "hash",
              "type": "bytes32"
            },
            {
              "internalType": "int256",
              "name": "number",
              "type": "int256"
            }
          ],
          "internalType": "struct Subnet.BlockLite",
          "name": "",
          "type": "tuple"
        }
      ],
      "payable": false,
      "stateMutability": "view",
      "type": "function"
    },
    {
      "constant": true,
      "inputs": [
        {
          "internalType": "bytes32",
          "name": "header_hash",
          "type": "bytes32"
        }
      ],
      "name": "getHeaderConfirmationStatus",
      "outputs": [
        {
          "internalType": "bool",
          "name": "",
          "type": "bool"
        }
      ],
      "payable": false,
      "stateMutability": "view",
      "type": "function"
    },
    {
      "constant": true,
      "inputs": [
        {
          "internalType": "bytes32",
          "name": "header_hash",
          "type": "bytes32"
        }
      ],
      "name": "getMainnetBlockNumber",
      "outputs": [
        {
          "internalType": "uint256",
          "name": "",
          "type": "uint256"
        }
      ],
      "payable": false,
      "stateMutability": "view",
      "type": "function"
    },
    {
      "constant": true,
      "inputs": [],
      "name": "getLatestBlocks",
      "outputs": [
        {
          "components": [
            {
              "internalType": "bytes32",
              "name": "hash",
              "type": "bytes32"
            },
            {
              "internalType": "int256",
              "name": "number",
              "type": "int256"
            }
          ],
          "internalType": "struct Subnet.BlockLite",
          "name": "",
          "type": "tuple"
        },
        {
          "components": [
            {
              "internalType": "bytes32",
              "name": "hash",
              "type": "bytes32"
            },
            {
              "internalType": "int256",
              "name": "number",
              "type": "int256"
            }
          ],
          "internalType": "struct Subnet.BlockLite",
          "name": "",
          "type": "tuple"
        }
      ],
      "payable": false,
      "stateMutability": "view",
      "type": "function"
    },
    {
      "constant": true,
      "inputs": [],
      "name": "getCurrentValidators",
      "outputs": [
        {
          "components": [
            {
              "internalType": "address[]",
              "name": "set",
              "type": "address[]"
            },
            {
              "internalType": "int256",
              "name": "number",
              "type": "int256"
            },
            {
              "internalType": "int256",
              "name": "threshold",
              "type": "int256"
            }
          ],
          "internalType": "struct Subnet.Validators",
          "name": "",
          "type": "tuple"
        }
      ],
      "payable": false,
      "stateMutability": "view",
      "type": "function"
    }
  ],
  "bytecode": "0x60806040523480156200001157600080fd5b5060405162003a1138038062003a11833981810160405262000037919081019062000896565b60008651116200007e576040517f08c379a0000000000000000000000000000000000000000000000000000000008152600401620000759062000af7565b60405180910390fd5b60008513620000c4576040517f08c379a0000000000000000000000000000000000000000000000000000000008152600401620000bb9062000b19565b60405180910390fd5b60008480519060200120905060008480519060200120905060008073__HeaderReader__________________________63dc9e408b896040518263ffffffff1660e01b815260040162000118919062000ad3565b604080518083038186803b1580156200013057600080fd5b505af415801562000145573d6000803e3d6000fd5b505050506040513d601f19601f820116820180604052506200016b919081019062000977565b91509150600080600073__HeaderReader__________________________63be7558c08b6040518263ffffffff1660e01b8152600401620001ad919062000ad3565b60606040518083038186803b158015620001c657600080fd5b505af4158015620001db573d6000803e3d6000fd5b505050506040513d601f19601f82011682018060405250620002019190810190620009b8565b9250925092506040518060e00160405280888152602001858152602001600067ffffffffffffffff1681526020018681526020016001151581526020014381526020018c815250600080898152602001908152602001600020600082015181600001556020820151816001015560408201518160020160006101000a81548167ffffffffffffffff021916908367ffffffffffffffff1602179055506060820151816003015560808201518160040160006101000a81548160ff02191690831515021790555060a0820151816005015560c0820151816006019080519060200190620002ef929190620005cd565b509050506040518060e001604052808781526020018381526020018267ffffffffffffffff1681526020018481526020016001151581526020014381526020018b815250600080888152602001908152602001600020600082015181600001556020820151816001015560408201518160020160006101000a81548167ffffffffffffffff021916908367ffffffffffffffff1602179055506060820151816003015560808201518160040160006101000a81548160ff02191690831515021790555060a0820151816005015560c0820151816006019080519060200190620003da929190620005cd565b5090505060405180606001604052808e8152602001600181526020018d815250600560008201518160000190805190602001906200041a92919062000654565b506020820151816001015560408201518160020155905050620004438d6200053f60201b60201c565b6001600460003373ffffffffffffffffffffffffffffffffffffffff1673ffffffffffffffffffffffffffffffffffffffff16815260200190815260200160002060006101000a81548160ff02191690831515021790555085600b8190555085600c819055508660016000808152602001908152602001600020819055508560016000600181526020019081526020016000208190555088600d60006101000a81548167ffffffffffffffff021916908367ffffffffffffffff16021790555087600d60086101000a81548167ffffffffffffffff021916908367ffffffffffffffff1602179055505050505050505050505050505062000cf7565b60008090505b8151811015620005c9576001600260008484815181106200056257fe5b602002602001015173ffffffffffffffffffffffffffffffffffffffff1673ffffffffffffffffffffffffffffffffffffffff16815260200190815260200160002060006101000a81548160ff021916908315150217905550808060010191505062000545565b5050565b828054600181600116156101000203166002900490600052602060002090601f016020900481019282601f106200061057805160ff191683800117855562000641565b8280016001018555821562000641579182015b828111156200064057825182559160200191906001019062000623565b5b509050620006509190620006e3565b5090565b828054828255906000526020600020908101928215620006d0579160200282015b82811115620006cf5782518260006101000a81548173ffffffffffffffffffffffffffffffffffffffff021916908373ffffffffffffffffffffffffffffffffffffffff1602179055509160200191906001019062000675565b5b509050620006df91906200070b565b5090565b6200070891905b8082111562000704576000816000905550600101620006ea565b5090565b90565b6200074e91905b808211156200074a57600081816101000a81549073ffffffffffffffffffffffffffffffffffffffff02191690555060010162000712565b5090565b90565b600081519050620007628162000c8f565b92915050565b600082601f8301126200077a57600080fd5b8151620007916200078b8262000b69565b62000b3b565b91508181835260208401935060208101905083856020840282011115620007b757600080fd5b60005b83811015620007eb5781620007d0888262000751565b845260208401935060208301925050600181019050620007ba565b5050505092915050565b600081519050620008068162000ca9565b92915050565b600082601f8301126200081e57600080fd5b8151620008356200082f8262000b92565b62000b3b565b915080825260208301602083018583830111156200085257600080fd5b6200085f83828462000c48565b50505092915050565b600081519050620008798162000cc3565b92915050565b600081519050620008908162000cdd565b92915050565b60008060008060008060c08789031215620008b057600080fd5b600087015167ffffffffffffffff811115620008cb57600080fd5b620008d989828a0162000768565b9650506020620008ec89828a0162000868565b955050604087015167ffffffffffffffff8111156200090a57600080fd5b6200091889828a016200080c565b945050606087015167ffffffffffffffff8111156200093657600080fd5b6200094489828a016200080c565b93505060806200095789828a016200087f565b92505060a06200096a89828a016200087f565b9150509295509295509295565b600080604083850312156200098b57600080fd5b60006200099b85828601620007f5565b9250506020620009ae8582860162000868565b9150509250929050565b600080600060608486031215620009ce57600080fd5b6000620009de86828701620007f5565b9350506020620009f18682870162000868565b925050604062000a04868287016200087f565b9150509250925092565b600062000a1b8262000bbf565b62000a27818562000bca565b935062000a3981856020860162000c48565b62000a448162000c7e565b840191505092915050565b600062000a5e600f8362000bdb565b91507f56616c696461746f7220456d70747900000000000000000000000000000000006000830152602082019050919050565b600062000aa060118362000bdb565b91507f496e76616c6964205468726573686f6c640000000000000000000000000000006000830152602082019050919050565b6000602082019050818103600083015262000aef818462000a0e565b905092915050565b6000602082019050818103600083015262000b128162000a4f565b9050919050565b6000602082019050818103600083015262000b348162000a91565b9050919050565b6000604051905081810181811067ffffffffffffffff8211171562000b5f57600080fd5b8060405250919050565b600067ffffffffffffffff82111562000b8157600080fd5b602082029050602081019050919050565b600067ffffffffffffffff82111562000baa57600080fd5b601f19601f8301169050602081019050919050565b600081519050919050565b600082825260208201905092915050565b600082825260208201905092915050565b600062000bf98262000c14565b9050919050565b6000819050919050565b6000819050919050565b600073ffffffffffffffffffffffffffffffffffffffff82169050919050565b600067ffffffffffffffff82169050919050565b60005b8381101562000c6857808201518184015260208101905062000c4b565b8381111562000c78576000848401525b50505050565b6000601f19601f8301169050919050565b62000c9a8162000bec565b811462000ca657600080fd5b50565b62000cb48162000c00565b811462000cc057600080fd5b50565b62000cce8162000c0a565b811462000cda57600080fd5b50565b62000ce88162000c34565b811462000cf457600080fd5b50565b612d0a8062000d076000396000f3fe608060405234801561001057600080fd5b50600436106100a95760003560e01c8063b961587811610071578063b961587814610165578063c5f9dff014610195578063e2a2f0a3146101b3578063eb71f0f8146101cf578063ef0fb558146101ff578063f720f80b1461021b576100a9565b80631097d54a146100ae57806366dcb0ba146100ca5780636c624a5f146100e95780636fed6f8314610119578063884bdd8614610149575b600080fd5b6100c860048036036100c39190810190611fb9565b61024b565b005b6100d2610332565b6040516100e09291906129e9565b60405180910390f35b61010360048036036100fe919081019061204e565b6103ac565b6040516101109190612721565b60405180910390f35b610133600480360361012e919081019061204e565b6103d8565b6040516101409190612a34565b60405180910390f35b610163600480360361015e9190810190612118565b6103f7565b005b61017f600480360361017a919081019061204e565b6115a3565b60405161018c91906127aa565b60405180910390f35b61019d61165a565b6040516101aa9190612a12565b60405180910390f35b6101cd60048036036101c89190810190611fb9565b611716565b005b6101e960048036036101e49190810190612159565b6117fd565b6040516101f691906129ce565b60405180910390f35b61021960048036036102149190810190612159565b611970565b005b61023560048036036102309190810190611fb9565b611a4c565b6040516102429190612721565b60405180910390f35b600460003373ffffffffffffffffffffffffffffffffffffffff1673ffffffffffffffffffffffffffffffffffffffff16815260200190815260200160002060009054906101000a900460ff166102d7576040517f08c379a00000000000000000000000000000000000000000000000000000000081526004016102ce9061294e565b60405180910390fd5b6001600460008373ffffffffffffffffffffffffffffffffffffffff1673ffffffffffffffffffffffffffffffffffffffff16815260200190815260200160002060006101000a81548160ff02191690831515021790555050565b61033a611b85565b610342611b85565b6040518060400160405280600b548152602001600080600b548152602001908152602001600020600101548152506040518060400160405280600c548152602001600080600c54815260200190815260200160002060010154815250819150809050915091509091565b600080600083815260200190815260200160002060040160009054906101000a900460ff169050919050565b6000806000838152602001908152602001600020600501549050919050565b600460003373ffffffffffffffffffffffffffffffffffffffff1673ffffffffffffffffffffffffffffffffffffffff16815260200190815260200160002060009054906101000a900460ff16610483576040517f08c379a000000000000000000000000000000000000000000000000000000000815260040161047a9061294e565b60405180910390fd5b6000806000806000606073__HeaderReader__________________________6344e06ed4886040518263ffffffff1660e01b81526004016104c491906127cc565b60006040518083038186803b1580156104dc57600080fd5b505af41580156104f0573d6000803e3d6000fd5b505050506040513d6000823e3d601f19601f820116820180604052506105199190810190612077565b95509550955095509550955060608073__HeaderReader__________________________63750a2ae58a6040518263ffffffff1660e01b815260040161055f91906127cc565b60006040518083038186803b15801561057757600080fd5b505af415801561058b573d6000803e3d6000fd5b505050506040513d6000823e3d601f19601f820116820180604052506105b49190810190611fe2565b91509150600087136105fb576040517f08c379a00000000000000000000000000000000000000000000000000000000081526004016105f29061296e565b60405180910390fd5b600080600c548152602001908152602001600020600101548713610654576040517f08c379a000000000000000000000000000000000000000000000000000000000815260040161064b906129ae565b60405180910390fd5b6000801b6000808a81526020019081526020016000206000015414156106af576040517f08c379a00000000000000000000000000000000000000000000000000000000081526004016106a6906127ee565b60405180910390fd5b8660016000808b8152602001908152602001600020600101540114610709576040517f08c379a00000000000000000000000000000000000000000000000000000000081526004016107009061284e565b60405180910390fd5b8567ffffffffffffffff166000808a815260200190815260200160002060020160009054906101000a900467ffffffffffffffff1667ffffffffffffffff1610610788576040517f08c379a000000000000000000000000000000000000000000000000000000000815260040161077f9061298e565b60405180910390fd5b8467ffffffffffffffff166000808a815260200190815260200160002060020160009054906101000a900467ffffffffffffffff1667ffffffffffffffff1614610807576040517f08c379a00000000000000000000000000000000000000000000000000000000081526004016107fe906128ae565b60405180910390fd5b600089805190602001209050600080600083815260200190815260200160002060010154131561086c576040517f08c379a00000000000000000000000000000000000000000000000000000000081526004016108639061280e565b60405180910390fd5b6000835111801561087e575060008251115b156108be576040517f08c379a00000000000000000000000000000000000000000000000000000000081526004016108b5906128ce565b60405180910390fd5b600083511115610e0f57825160086000018054905014610913576040517f08c379a000000000000000000000000000000000000000000000000000000000815260040161090a9061292e565b60405180910390fd5b600d60089054906101000a900467ffffffffffffffff1667ffffffffffffffff168767ffffffffffffffff168161094657fe5b06870367ffffffffffffffff168667ffffffffffffffff161015610dcf576008600101546001600d60009054906101000a900467ffffffffffffffff1667ffffffffffffffff16600d60089054906101000a900467ffffffffffffffff1667ffffffffffffffff168b816109b657fe5b078b0303011415610d8f5760008090505b8351811015610a6f57600160036000600860000184815481106109e657fe5b9060005260206000200160009054906101000a900473ffffffffffffffffffffffffffffffffffffffff1673ffffffffffffffffffffffffffffffffffffffff1673ffffffffffffffffffffffffffffffffffffffff16815260200190815260200160002060006101000a81548160ff02191690831515021790555080806001019150506109c7565b5060008090505b8351811015610b965760036000858381518110610a8f57fe5b602002602001015173ffffffffffffffffffffffffffffffffffffffff1673ffffffffffffffffffffffffffffffffffffffff16815260200190815260200160002060009054906101000a900460ff16610b1e576040517f08c379a0000000000000000000000000000000000000000000000000000000008152600401610b159061292e565b60405180910390fd5b600060036000868481518110610b3057fe5b602002602001015173ffffffffffffffffffffffffffffffffffffffff1673ffffffffffffffffffffffffffffffffffffffff16815260200190815260200160002060006101000a81548160ff0219169083151502179055508080600101915050610a76565b5060008090505b600560000180549050811015610c4c5760006002600060056000018481548110610bc357fe5b9060005260206000200160009054906101000a900473ffffffffffffffffffffffffffffffffffffffff1673ffffffffffffffffffffffffffffffffffffffff1673ffffffffffffffffffffffffffffffffffffffff16815260200190815260200160002060006101000a81548160ff0219169083151502179055508080600101915050610b9d565b5060008090505b8351811015610cd457600160026000868481518110610c6e57fe5b602002602001015173ffffffffffffffffffffffffffffffffffffffff1673ffffffffffffffffffffffffffffffffffffffff16815260200190815260200160002060006101000a81548160ff0219169083151502179055508080600101915050610c53565b50600860056000820181600001908054610cef929190611ba2565b50600182015481600101556002820154816002015590505060405180606001604052806000604051908082528060200260200182016040528015610d425781602001602082028038833980820191505090505b50815260200160008152602001600081525060086000820151816000019080519060200190610d72929190611bf4565b506020820151816001015560408201518160020155905050610dca565b6040517f08c379a0000000000000000000000000000000000000000000000000000000008152600401610dc19061288e565b60405180910390fd5b610e0a565b6040517f08c379a0000000000000000000000000000000000000000000000000000000008152600401610e019061288e565b60405180910390fd5b610f30565b600082511115610f2f576001600d60009054906101000a900467ffffffffffffffff16600d60089054906101000a900467ffffffffffffffff16030167ffffffffffffffff16600d60089054906101000a900467ffffffffffffffff1667ffffffffffffffff168981610e7e57fe5b0767ffffffffffffffff161415610ef35760405180606001604052808381526020018981526020016003600285510281610eb457fe5b0481525060086000820151816000019080519060200190610ed6929190611bf4565b506020820151816001015560408201518160020155905050610f2e565b6040517f08c379a0000000000000000000000000000000000000000000000000000000008152600401610f259061282e565b60405180910390fd5b5b5b600080905060608551604051908082528060200260200182016040528015610f675781602001602082028038833980820191505090505b50905060008090505b8651811015611173576000610f9889898481518110610f8b57fe5b6020026020010151611aa2565b905060011515600260008373ffffffffffffffffffffffffffffffffffffffff1673ffffffffffffffffffffffffffffffffffffffff16815260200190815260200160002060009054906101000a900460ff1615151461102d576040517f08c379a00000000000000000000000000000000000000000000000000000000081526004016110249061286e565b60405180910390fd5b600360008273ffffffffffffffffffffffffffffffffffffffff1673ffffffffffffffffffffffffffffffffffffffff16815260200190815260200160002060009054906101000a900460ff166110e35783806001019450506001600360008373ffffffffffffffffffffffffffffffffffffffff1673ffffffffffffffffffffffffffffffffffffffff16815260200190815260200160002060006101000a81548160ff02191690831515021790555061111e565b6040517f08c379a00000000000000000000000000000000000000000000000000000000081526004016111159061286e565b60405180910390fd5b8083838151811061112b57fe5b602002602001019073ffffffffffffffffffffffffffffffffffffffff16908173ffffffffffffffffffffffffffffffffffffffff1681525050508080600101915050610f70565b5060008090505b81518110156111fb5760006003600084848151811061119557fe5b602002602001015173ffffffffffffffffffffffffffffffffffffffff1673ffffffffffffffffffffffffffffffffffffffff16815260200190815260200160002060006101000a81548160ff021916908315150217905550808060010191505061117a565b50600560020154821215611244576040517f08c379a000000000000000000000000000000000000000000000000000000000815260040161123b9061286e565b60405180910390fd5b6040518060e001604052808481526020018b81526020018a67ffffffffffffffff1681526020018c81526020016000151581526020014381526020018d815250600080858152602001908152602001600020600082015181600001556020820151816001015560408201518160020160006101000a81548167ffffffffffffffff021916908367ffffffffffffffff1602179055506060820151816003015560808201518160040160006101000a81548160ff02191690831515021790555060a0820151816005015560c0820151816006019080519060200190611329929190611c7e565b509050507fc92de1e80780c8f239052c833b238f36e1f1f03c09628a198cefab0ed37d2b23838b60405161135e92919061273c565b60405180910390a1600080600b548152602001908152602001600020600101546000808581526020019081526020016000206001015413156113a25782600b819055505b600083905060008090505b6003811015611496576000801b6000808481526020019081526020016000206003015414156113e857505050505050505050505050506115a0565b6000806000848152602001908152602001600020600301549050600160008083815260200190815260200160002060020160009054906101000a900467ffffffffffffffff160167ffffffffffffffff1660008085815260200190815260200160002060020160009054906101000a900467ffffffffffffffff1667ffffffffffffffff16146114855750505050505050505050505050506115a0565b8092505080806001019150506113ad565b5080600c819055505b6001151560008083815260200190815260200160002060040160009054906101000a900460ff1615151461159357600160008083815260200190815260200160002060040160006101000a81548160ff0219169083151502179055508060016000806000858152602001908152602001600020600101548152602001908152602001600020819055507fc87258113ecbd0404f86cc5c0155894cfc47dae8fadab01aa8eefe5b5b40bdbb816000808481526020019081526020016000206001015460405161156e92919061273c565b60405180910390a160008082815260200190815260200160002060030154905061149f565b5050505050505050505050505b50565b60606000808381526020019081526020016000206006018054600181600116156101000203166002900480601f01602080910402602001604051908101604052809291908181526020018280546001816001161561010002031660029004801561164e5780601f106116235761010080835404028352916020019161164e565b820191906000526020600020905b81548152906001019060200180831161163157829003601f168201915b50505050509050919050565b611662611cfe565b6005604051806060016040529081600082018054806020026020016040519081016040528092919081815260200182805480156116f457602002820191906000526020600020905b8160009054906101000a900473ffffffffffffffffffffffffffffffffffffffff1673ffffffffffffffffffffffffffffffffffffffff16815260200190600101908083116116aa575b5050505050815260200160018201548152602001600282015481525050905090565b600460003373ffffffffffffffffffffffffffffffffffffffff1673ffffffffffffffffffffffffffffffffffffffff16815260200190815260200160002060009054906101000a900460ff166117a2576040517f08c379a00000000000000000000000000000000000000000000000000000000081526004016117999061294e565b60405180910390fd5b6000600460008373ffffffffffffffffffffffffffffffffffffffff1673ffffffffffffffffffffffffffffffffffffffff16815260200190815260200160002060006101000a81548160ff02191690831515021790555050565b611805611b85565b6000801b6001600084815260200190815260200160002054141561190357600080600b548152602001908152602001600020600101548213156118625760405180604001604052806000801b81526020016000815250905061196b565b600082600080600b548152602001908152602001600020600101540390506000600b54905060008090505b828112156118ba57600080838152602001908152602001600020600301549150808060010191505061188d565b506040518060400160405280600080848152602001908152602001600020600001548152602001600080848152602001908152602001600020600101548152509250505061196b565b604051806040016040528060008060016000878152602001908152602001600020548152602001908152602001600020600001548152602001600080600160008781526020019081526020016000205481526020019081526020016000206001015481525090505b919050565b600460003373ffffffffffffffffffffffffffffffffffffffff1673ffffffffffffffffffffffffffffffffffffffff16815260200190815260200160002060009054906101000a900460ff166119fc576040517f08c379a00000000000000000000000000000000000000000000000000000000081526004016119f39061294e565b60405180910390fd5b60008113611a3f576040517f08c379a0000000000000000000000000000000000000000000000000000000008152600401611a369061290e565b60405180910390fd5b8060086002018190555050565b6000600460008373ffffffffffffffffffffffffffffffffffffffff1673ffffffffffffffffffffffffffffffffffffffff16815260200190815260200160002060009054906101000a900460ff169050919050565b600080600080611ab185611b11565b92509250925060018684848460405160008152602001604052604051611ada9493929190612765565b6020604051602081039080840390855afa158015611afc573d6000803e3d6000fd5b50505060206040510351935050505092915050565b60008060006041845114611b5a576040517f08c379a0000000000000000000000000000000000000000000000000000000008152600401611b51906128ee565b60405180910390fd5b6020840151915060408401519050606084015160001a9250601b830182829250925092509193909250565b604051806040016040528060008019168152602001600081525090565b828054828255906000526020600020908101928215611be35760005260206000209182015b82811115611be2578254825591600101919060010190611bc7565b5b509050611bf09190611d1f565b5090565b828054828255906000526020600020908101928215611c6d579160200282015b82811115611c6c5782518260006101000a81548173ffffffffffffffffffffffffffffffffffffffff021916908373ffffffffffffffffffffffffffffffffffffffff16021790555091602001919060010190611c14565b5b509050611c7a9190611d1f565b5090565b828054600181600116156101000203166002900490600052602060002090601f016020900481019282601f10611cbf57805160ff1916838001178555611ced565b82800160010185558215611ced579182015b82811115611cec578251825591602001919060010190611cd1565b5b509050611cfa9190611d62565b5090565b60405180606001604052806060815260200160008152602001600081525090565b611d5f91905b80821115611d5b57600081816101000a81549073ffffffffffffffffffffffffffffffffffffffff021916905550600101611d25565b5090565b90565b611d8491905b80821115611d80576000816000905550600101611d68565b5090565b90565b600081359050611d9681612c6b565b92915050565b600081519050611dab81612c6b565b92915050565b600082601f830112611dc257600080fd5b8151611dd5611dd082612a7c565b612a4f565b91508181835260208401935060208101905083856020840282011115611dfa57600080fd5b60005b83811015611e2a5781611e108882611d9c565b845260208401935060208301925050600181019050611dfd565b5050505092915050565b600082601f830112611e4557600080fd5b8151611e58611e5382612aa4565b612a4f565b9150818183526020840193506020810190508360005b83811015611e9e5781518601611e848882611ed2565b845260208401935060208301925050600181019050611e6e565b5050505092915050565b600081359050611eb781612c82565b92915050565b600081519050611ecc81612c82565b92915050565b600082601f830112611ee357600080fd5b8151611ef6611ef182612acc565b612a4f565b91508082526020830160208301858383011115611f1257600080fd5b611f1d838284612c27565b50505092915050565b600082601f830112611f3757600080fd5b8135611f4a611f4582612af8565b612a4f565b91508082526020830160208301858383011115611f6657600080fd5b611f71838284612c18565b50505092915050565b600081359050611f8981612c99565b92915050565b600081519050611f9e81612c99565b92915050565b600081519050611fb381612cb0565b92915050565b600060208284031215611fcb57600080fd5b6000611fd984828501611d87565b91505092915050565b60008060408385031215611ff557600080fd5b600083015167ffffffffffffffff81111561200f57600080fd5b61201b85828601611db1565b925050602083015167ffffffffffffffff81111561203857600080fd5b61204485828601611db1565b9150509250929050565b60006020828403121561206057600080fd5b600061206e84828501611ea8565b91505092915050565b60008060008060008060c0878903121561209057600080fd5b600061209e89828a01611ebd565b96505060206120af89828a01611f8f565b95505060406120c089828a01611fa4565b94505060606120d189828a01611fa4565b93505060806120e289828a01611ebd565b92505060a087015167ffffffffffffffff8111156120ff57600080fd5b61210b89828a01611e34565b9150509295509295509295565b60006020828403121561212a57600080fd5b600082013567ffffffffffffffff81111561214457600080fd5b61215084828501611f26565b91505092915050565b60006020828403121561216b57600080fd5b600061217984828501611f7a565b91505092915050565b600061218e838361219a565b60208301905092915050565b6121a381612b9b565b82525050565b60006121b482612b34565b6121be8185612b57565b93506121c983612b24565b8060005b838110156121fa5781516121e18882612182565b97506121ec83612b4a565b9250506001810190506121cd565b5085935050505092915050565b61221081612bad565b82525050565b61221f81612bb9565b82525050565b61222e81612bb9565b82525050565b600061223f82612b3f565b6122498185612b68565b9350612259818560208601612c27565b61226281612c5a565b840191505092915050565b600061227882612b3f565b6122828185612b79565b9350612292818560208601612c27565b61229b81612c5a565b840191505092915050565b6122af81612bc3565b82525050565b6122be81612bc3565b82525050565b60006122d1600e83612b8a565b91507f506172656e74204d697373696e670000000000000000000000000000000000006000830152602082019050919050565b6000612311600f83612b8a565b91507f52657065617465642048656164657200000000000000000000000000000000006000830152602082019050919050565b6000612351601283612b8a565b91507f496e76616c6964204e65787420426c6f636b00000000000000000000000000006000830152602082019050919050565b6000612391600983612b8a565b91507f496e76616c6964204e00000000000000000000000000000000000000000000006000830152602082019050919050565b60006123d1601183612b8a565b91507f566572696669636174696f6e204661696c0000000000000000000000000000006000830152602082019050919050565b6000612411601583612b8a565b91507f496e76616c69642043757272656e7420426c6f636b00000000000000000000006000830152602082019050919050565b6000612451600b83612b8a565b91507f496e76616c69642050524e0000000000000000000000000000000000000000006000830152602082019050919050565b6000612491600f83612b8a565b91507f4d616c666f726d656420426c6f636b00000000000000000000000000000000006000830152602082019050919050565b60006124d1601183612b8a565b91507f496e76616c6964205369676e61747572650000000000000000000000000000006000830152602082019050919050565b6000612511600b83612b8a565b91507f30205468726573686f6c640000000000000000000000000000000000000000006000830152602082019050919050565b6000612551601583612b8a565b91507f4d69736d6174636865642056616c696461746f727300000000000000000000006000830152602082019050919050565b6000612591600c83612b8a565b91507f4d617374657273204f6e6c7900000000000000000000000000000000000000006000830152602082019050919050565b60006125d1601083612b8a565b91507f52657065617465642047656e65736973000000000000000000000000000000006000830152602082019050919050565b6000612611600a83612b8a565b91507f496e76616c696420524e000000000000000000000000000000000000000000006000830152602082019050919050565b6000612651600983612b8a565b91507f4f6c6420426c6f636b00000000000000000000000000000000000000000000006000830152602082019050919050565b60408201600082015161269a6000850182612216565b5060208201516126ad60208501826122a6565b50505050565b600060608301600083015184820360008601526126d082826121a9565b91505060208301516126e560208601826122a6565b5060408301516126f860408601826122a6565b508091505092915050565b61270c81612bed565b82525050565b61271b81612c0b565b82525050565b60006020820190506127366000830184612207565b92915050565b60006040820190506127516000830185612225565b61275e60208301846122b5565b9392505050565b600060808201905061277a6000830187612225565b6127876020830186612712565b6127946040830185612225565b6127a16060830184612225565b95945050505050565b600060208201905081810360008301526127c48184612234565b905092915050565b600060208201905081810360008301526127e6818461226d565b905092915050565b60006020820190508181036000830152612807816122c4565b9050919050565b6000602082019050818103600083015261282781612304565b9050919050565b6000602082019050818103600083015261284781612344565b9050919050565b6000602082019050818103600083015261286781612384565b9050919050565b60006020820190508181036000830152612887816123c4565b9050919050565b600060208201905081810360008301526128a781612404565b9050919050565b600060208201905081810360008301526128c781612444565b9050919050565b600060208201905081810360008301526128e781612484565b9050919050565b60006020820190508181036000830152612907816124c4565b9050919050565b6000602082019050818103600083015261292781612504565b9050919050565b6000602082019050818103600083015261294781612544565b9050919050565b6000602082019050818103600083015261296781612584565b9050919050565b60006020820190508181036000830152612987816125c4565b9050919050565b600060208201905081810360008301526129a781612604565b9050919050565b600060208201905081810360008301526129c781612644565b9050919050565b60006040820190506129e36000830184612684565b92915050565b60006080820190506129fe6000830185612684565b612a0b6040830184612684565b9392505050565b60006020820190508181036000830152612a2c81846126b3565b905092915050565b6000602082019050612a496000830184612703565b92915050565b6000604051905081810181811067ffffffffffffffff82111715612a7257600080fd5b8060405250919050565b600067ffffffffffffffff821115612a9357600080fd5b602082029050602081019050919050565b600067ffffffffffffffff821115612abb57600080fd5b602082029050602081019050919050565b600067ffffffffffffffff821115612ae357600080fd5b601f19601f8301169050602081019050919050565b600067ffffffffffffffff821115612b0f57600080fd5b601f19601f8301169050602081019050919050565b6000819050602082019050919050565b600081519050919050565b600081519050919050565b6000602082019050919050565b600082825260208201905092915050565b600082825260208201905092915050565b600082825260208201905092915050565b600082825260208201905092915050565b6000612ba682612bcd565b9050919050565b60008115159050919050565b6000819050919050565b6000819050919050565b600073ffffffffffffffffffffffffffffffffffffffff82169050919050565b6000819050919050565b600067ffffffffffffffff82169050919050565b600060ff82169050919050565b82818337600083830152505050565b60005b83811015612c45578082015181840152602081019050612c2a565b83811115612c54576000848401525b50505050565b6000601f19601f8301169050919050565b612c7481612b9b565b8114612c7f57600080fd5b50565b612c8b81612bb9565b8114612c9657600080fd5b50565b612ca281612bc3565b8114612cad57600080fd5b50565b612cb981612bf7565b8114612cc457600080fd5b5056fea365627a7a72315820597c8d345dca9fd32a70889223e64030768c71bb1929330f114f2bfa19d59f1b6c6578706572696d656e74616cf564736f6c63430005100040",
  "source": "// SPDX-License-Identifier: MIT\npragma solidity >=0.4.21 <0.9.0;\npragma experimental ABIEncoderV2;\n\nimport \"./HeaderReader.sol\";\n\ncontract Subnet {\n\n  struct Header {\n    bytes32 hash;\n    int number;\n    uint64 round_num;\n    bytes32 parent_hash;\n    bool finalized;\n    uint mainnet_num;\n    bytes src;\n  }\n\n  struct Validators {\n    address[] set;\n    int number;\n    int threshold;\n  }\n\n  struct BlockLite {\n    bytes32 hash;\n    int number;\n  }\n\n  mapping(bytes32 => Header) header_tree;\n  mapping(int => bytes32) committed_blocks;\n  mapping(address => bool) lookup;\n  mapping(address => bool) unique_addr;\n  mapping(address => bool) masters;\n  Validators current_validators;\n  Validators next_validators;\n  bytes32 latest_block;\n  bytes32 latest_finalized_block;\n  uint64 private GAP;\n  uint64 private EPOCH;\n\n  // Event types\n  event SubnetBlockAccepted(bytes32 block_hash, int number);\n  event SubnetBlockFinalized(bytes32 block_hash, int number);\n\n  // Modifier\n  modifier onlyMasters() {\n    if (!masters[msg.sender]) revert(\"Masters Only\");\n    _;\n  }\n\n  constructor(\n    address[] memory initial_validator_set,\n    int threshold,\n    bytes memory genesis_header,\n    bytes memory block1_header,\n    uint64 gap,\n    uint64 epoch\n  ) public {\n    require(initial_validator_set.length > 0, \"Validator Empty\");\n    require(threshold > 0, \"Invalid Threshold\");\n    bytes32 genesis_header_hash = keccak256(genesis_header);\n    bytes32 block1_header_hash = keccak256(block1_header);\n    (bytes32 ph, int n) = HeaderReader.getParentHashAndNumber(genesis_header);\n    (bytes32 ph1, int n1, uint64 rn) = HeaderReader.getBlock1Params(block1_header);\n    header_tree[genesis_header_hash] = Header({\n      hash: genesis_header_hash,\n      number: n,\n      round_num: 0, \n      parent_hash: ph,\n      finalized: true,\n      mainnet_num: block.number,\n      src: genesis_header\n    });\n    header_tree[block1_header_hash] = Header({\n      hash: block1_header_hash,\n      number: n1,\n      round_num: rn, \n      parent_hash: ph1,\n      finalized: true,\n      mainnet_num: block.number,\n      src: block1_header\n    });\n    current_validators = Validators({\n      set: initial_validator_set,\n      number: 1,\n      threshold: threshold\n    });\n    updateLookup(initial_validator_set);\n    masters[msg.sender] = true;\n    latest_block = block1_header_hash;\n    latest_finalized_block = block1_header_hash;\n    committed_blocks[0] = genesis_header_hash;\n    committed_blocks[1] = block1_header_hash;\n    GAP = gap;\n    EPOCH = epoch;\n  }\n\n  function isMaster(address master) public view returns (bool) {\n    return masters[master];\n  }\n\n  function addMaster(address master) public onlyMasters {\n    masters[master] = true;\n  }\n\n  function removeMaster(address master) public onlyMasters {\n    masters[master] = false;\n  }\n\n  function setThreshold(int threshold) public onlyMasters {\n    require(threshold > 0, \"0 Threshold\");\n    next_validators.threshold = threshold;\n  }\n\n  function receiveHeader(bytes memory header) public onlyMasters { \n    (\n      bytes32 parent_hash,\n      int number,\n      uint64 round_number,\n      uint64 prev_round_number,\n      bytes32 signHash,\n      bytes[] memory sigs\n    ) = HeaderReader.getValidationParams(header);\n    (\n      address[] memory current,\n      address[] memory next\n    ) = HeaderReader.getEpoch(header);\n\n    require(number > 0, \"Repeated Genesis\");\n    require(number > header_tree[latest_finalized_block].number, \"Old Block\");\n    require(header_tree[parent_hash].hash != 0, \"Parent Missing\");\n    require(header_tree[parent_hash].number + 1 == number, \"Invalid N\");\n    require(header_tree[parent_hash].round_num < round_number, \"Invalid RN\");\n    require(header_tree[parent_hash].round_num == prev_round_number, \"Invalid PRN\");\n    bytes32 block_hash = keccak256(header);\n    if (header_tree[block_hash].number > 0) \n      revert(\"Repeated Header\");\n\n    if (current.length > 0 && next.length > 0)\n      revert(\"Malformed Block\");\n    else if (current.length > 0) {\n      if (next_validators.set.length != current.length)\n        revert(\"Mismatched Validators\");\n      else {\n        if (prev_round_number < round_number - (round_number % EPOCH)) {\n          if (number - number % int256(uint256(EPOCH)) - int256(uint256(GAP)) + 1 == next_validators.number) {\n            for (uint i = 0; i < current.length; i++) {\n              unique_addr[next_validators.set[i]] = true;\n            }\n            for (uint i = 0; i < current.length; i++) {\n              if (!unique_addr[current[i]]) \n                revert(\"Mismatched Validators\");\n              else\n                unique_addr[current[i]] = false;\n            }\n            for (uint i = 0; i < current_validators.set.length; i++) {\n              lookup[current_validators.set[i]] = false;\n            }\n            for (uint i = 0; i < current.length; i++) {\n              lookup[current[i]] = true;\n            }\n            current_validators = next_validators;\n            next_validators = Validators({\n              set: new address[](0),\n              number: 0,\n              threshold: 0\n            });\n          } else {\n            revert(\"Invalid Current Block\");\n          }\n        } else\n          revert(\"Invalid Current Block\");\n      }\n    }\n    else if (next.length > 0) {\n      if (uint64(uint256(number % int256(uint256(EPOCH)))) == EPOCH - GAP + 1) {\n        next_validators = Validators({\n          set: next,\n          number: number,\n          threshold: int256(next.length * 2 / 3)\n        });\n      } else\n        revert(\"Invalid Next Block\");\n    }\n\n    int unique_counter = 0;\n    address[] memory signer_list = new address[](sigs.length);\n    for (uint i = 0; i < sigs.length; i++) {\n      address signer = recoverSigner(signHash, sigs[i]);\n      if (lookup[signer] != true) {\n        revert(\"Verification Fail\");\n      }\n      if (!unique_addr[signer]) {\n        unique_counter ++;\n        unique_addr[signer]=true;\n      } else {\n        revert(\"Verification Fail\");\n      }\n      signer_list[i] = signer;\n    }\n    for (uint i = 0; i < signer_list.length; i++) {\n      unique_addr[signer_list[i]] = false;\n    }\n    if (unique_counter < current_validators.threshold) {\n      revert(\"Verification Fail\");\n    }\n    header_tree[block_hash] = Header({\n      hash: block_hash,\n      number: number,\n      round_num: round_number,\n      parent_hash: parent_hash,\n      finalized: false,\n      mainnet_num: block.number,\n      src: header\n    });\n    emit SubnetBlockAccepted(block_hash, number);\n    if (header_tree[block_hash].number > header_tree[latest_block].number) {\n      latest_block = block_hash;\n    }\n    // Look for 3 consecutive round\n    bytes32 curr_hash = block_hash;\n    for (uint i = 0; i < 3; i++) {\n      if (header_tree[curr_hash].parent_hash == 0) return;\n      bytes32 prev_hash = header_tree[curr_hash].parent_hash;\n      if (header_tree[curr_hash].round_num != header_tree[prev_hash].round_num+1) return;\n      curr_hash = prev_hash;\n    }\n    latest_finalized_block = curr_hash;\n    // Confirm all ancestor unconfirmed block\n    while (header_tree[curr_hash].finalized != true) {\n      header_tree[curr_hash].finalized = true;\n      committed_blocks[header_tree[curr_hash].number] = curr_hash;\n      emit SubnetBlockFinalized(curr_hash, header_tree[curr_hash].number);\n      curr_hash = header_tree[curr_hash].parent_hash;\n    }\n  }\n\n  /// signature methods.\n  function splitSignature(bytes memory sig)\n    internal\n    pure\n    returns (uint8 v, bytes32 r, bytes32 s)\n  {\n    require(sig.length == 65, \"Invalid Signature\");\n    assembly {\n      // first 32 bytes, after the length prefix.\n      r := mload(add(sig, 32))\n      // second 32 bytes.\n      s := mload(add(sig, 64))\n      // final byte (first byte of the next 32 bytes).\n      v := byte(0, mload(add(sig, 96)))\n    }\n    // TOCHECK: v needs 27 more, may related with EIP1559\n    return (v+27, r, s);\n  }\n\n  function updateLookup(address[] memory initial_validator_set) internal {\n    for (uint i = 0; i < initial_validator_set.length; i++) {\n      lookup[initial_validator_set[i]] = true;\n    }\n  } \n\n  function recoverSigner(bytes32 message, bytes memory sig)\n    internal\n    pure\n    returns (address)\n  {\n    (uint8 v, bytes32 r, bytes32 s) = splitSignature(sig);\n    return ecrecover(message, v, r, s);\n  }\n\n  function getHeader(bytes32 header_hash) public view returns (bytes memory) {\n    return header_tree[header_hash].src;\n  }\n\n  function getHeaderByNumber(int number) public view returns (BlockLite memory) {\n    if (committed_blocks[number] == 0) {\n      if (number > header_tree[latest_block].number) {\n        return BlockLite({\n          hash: bytes32(0),\n          number: 0\n        });\n      }\n      int num_gap = header_tree[latest_block].number - number;\n      bytes32 curr_hash = latest_block;\n      for (int i = 0; i < num_gap; i++) {\n        curr_hash = header_tree[curr_hash].parent_hash;\n      }\n      return BlockLite({\n        hash: header_tree[curr_hash].hash,\n        number: header_tree[curr_hash].number\n      });\n    } else {\n      return BlockLite({\n        hash: header_tree[committed_blocks[number]].hash,\n        number: header_tree[committed_blocks[number]].number\n      });\n    }\n    \n  }\n  \n  function getHeaderConfirmationStatus(bytes32 header_hash) public view returns (bool) {\n    return header_tree[header_hash].finalized;\n  }\n\n  function getMainnetBlockNumber(bytes32 header_hash) public view returns (uint) {\n    return header_tree[header_hash].mainnet_num;\n  }\n\n  function getLatestBlocks() public view returns (BlockLite memory, BlockLite memory) {\n    return (\n        BlockLite({\n        hash: latest_block,\n        number: header_tree[latest_block].number\n      }),\n        BlockLite({\n        hash: latest_finalized_block,\n        number: header_tree[latest_finalized_block].number\n    }));\n  }\n\n  function getCurrentValidators() public view returns (Validators memory) {\n    return current_validators;\n  }\n}",
  "sourcePath": "/Users/sihengpan/Documents/XinFin/XDC-Subnet/mainnet_contract/contracts/Subnet.sol",
  "compiler": {
    "name": "solc",
    "version": "0.5.16+commit.9c3226ce.Emscripten.clang"
  },
  "schemaVersion": "3.4.1",
  "updatedAt": "2023-04-05T01:23:08.548Z",
  "devdoc": {
    "methods": {}
  },
  "userdoc": {
    "methods": {}
  }
}