{
  "contractName": "Subnet",
  "abi": [
    {
      "inputs": [
        {
          "internalType": "address",
          "name": "lib_address",
          "type": "address"
        },
        {
          "internalType": "address[]",
          "name": "initial_validator_set",
          "type": "address[]"
        },
        {
          "internalType": "bytes",
          "name": "genesis_header",
          "type": "bytes"
        },
        {
          "internalType": "bytes",
          "name": "block1_header",
          "type": "bytes"
        },
        {
          "internalType": "uint64",
          "name": "gap",
          "type": "uint64"
        },
        {
          "internalType": "uint64",
          "name": "epoch",
          "type": "uint64"
        }
      ],
      "payable": false,
      "stateMutability": "nonpayable",
      "type": "constructor"
    },
    {
      "anonymous": false,
      "inputs": [
        {
          "indexed": false,
          "internalType": "bytes32",
          "name": "block_hash",
          "type": "bytes32"
        },
        {
          "indexed": false,
          "internalType": "int256",
          "name": "number",
          "type": "int256"
        }
      ],
      "name": "SubnetBlockAccepted",
      "type": "event"
    },
    {
      "anonymous": false,
      "inputs": [
        {
          "indexed": false,
          "internalType": "bytes32",
          "name": "block_hash",
          "type": "bytes32"
        },
        {
          "indexed": false,
          "internalType": "int256",
          "name": "number",
          "type": "int256"
        }
      ],
      "name": "SubnetBlockFinalized",
      "type": "event"
    },
    {
      "constant": true,
      "inputs": [
        {
          "internalType": "address",
          "name": "master",
          "type": "address"
        }
      ],
      "name": "isMaster",
      "outputs": [
        {
          "internalType": "bool",
          "name": "",
          "type": "bool"
        }
      ],
      "payable": false,
      "stateMutability": "view",
      "type": "function"
    },
    {
      "constant": false,
      "inputs": [
        {
          "internalType": "address",
          "name": "master",
          "type": "address"
        }
      ],
      "name": "addMaster",
      "outputs": [],
      "payable": false,
      "stateMutability": "nonpayable",
      "type": "function"
    },
    {
      "constant": false,
      "inputs": [
        {
          "internalType": "address",
          "name": "master",
          "type": "address"
        }
      ],
      "name": "removeMaster",
      "outputs": [],
      "payable": false,
      "stateMutability": "nonpayable",
      "type": "function"
    },
    {
      "constant": false,
      "inputs": [
        {
          "internalType": "bytes[]",
          "name": "headers",
          "type": "bytes[]"
        }
      ],
      "name": "receiveHeader",
      "outputs": [],
      "payable": false,
      "stateMutability": "nonpayable",
      "type": "function"
    },
    {
      "constant": true,
      "inputs": [
        {
          "internalType": "bytes32",
          "name": "block_hash",
          "type": "bytes32"
        }
      ],
      "name": "getHeader",
      "outputs": [
        {
          "components": [
            {
              "internalType": "bytes32",
              "name": "parent_hash",
              "type": "bytes32"
            },
            {
              "internalType": "int256",
              "name": "number",
              "type": "int256"
            },
            {
              "internalType": "uint64",
              "name": "round_num",
              "type": "uint64"
            },
            {
              "internalType": "int256",
              "name": "mainnet_num",
              "type": "int256"
            },
            {
              "internalType": "bool",
              "name": "finalized",
              "type": "bool"
            }
          ],
          "internalType": "struct Subnet.HeaderInfo",
          "name": "",
          "type": "tuple"
        }
      ],
      "payable": false,
      "stateMutability": "view",
      "type": "function"
    },
    {
      "constant": true,
      "inputs": [
        {
          "internalType": "int256",
          "name": "number",
          "type": "int256"
        }
      ],
      "name": "getHeaderByNumber",
      "outputs": [
        {
          "components": [
            {
              "internalType": "bytes32",
              "name": "hash",
              "type": "bytes32"
            },
            {
              "internalType": "int256",
              "name": "number",
              "type": "int256"
            }
          ],
          "internalType": "struct Subnet.BlockLite",
          "name": "",
          "type": "tuple"
        }
      ],
      "payable": false,
      "stateMutability": "view",
      "type": "function"
    },
    {
      "constant": true,
      "inputs": [],
      "name": "getLatestBlocks",
      "outputs": [
        {
          "components": [
            {
              "internalType": "bytes32",
              "name": "hash",
              "type": "bytes32"
            },
            {
              "internalType": "int256",
              "name": "number",
              "type": "int256"
            }
          ],
          "internalType": "struct Subnet.BlockLite",
          "name": "",
          "type": "tuple"
        },
        {
          "components": [
            {
              "internalType": "bytes32",
              "name": "hash",
              "type": "bytes32"
            },
            {
              "internalType": "int256",
              "name": "number",
              "type": "int256"
            }
          ],
          "internalType": "struct Subnet.BlockLite",
          "name": "",
          "type": "tuple"
        }
      ],
      "payable": false,
      "stateMutability": "view",
      "type": "function"
    },
    {
      "constant": true,
      "inputs": [],
      "name": "getCurrentValidators",
      "outputs": [
        {
          "components": [
            {
              "internalType": "address[]",
              "name": "set",
              "type": "address[]"
            },
            {
              "internalType": "int256",
              "name": "threshold",
              "type": "int256"
            }
          ],
          "internalType": "struct Subnet.Validators",
          "name": "",
          "type": "tuple"
        }
      ],
      "payable": false,
      "stateMutability": "view",
      "type": "function"
    }
  ],
  "bytecode": "0x60806040523480156200001157600080fd5b5060405162003871380380620038718339818101604052620000379190810190620008a5565b60008551116200007e576040517f08c379a0000000000000000000000000000000000000000000000000000000008152600401620000759062000b06565b60405180910390fd5b856000806101000a81548173ffffffffffffffffffffffffffffffffffffffff021916908373ffffffffffffffffffffffffffffffffffffffff1602179055506000848051906020012090506000848051906020012090506000806000809054906101000a900473ffffffffffffffffffffffffffffffffffffffff1673ffffffffffffffffffffffffffffffffffffffff1663dc9e408b896040518263ffffffff1660e01b815260040162000135919062000ae2565b604080518083038186803b1580156200014d57600080fd5b505afa15801562000162573d6000803e3d6000fd5b505050506040513d601f19601f8201168201806040525062000188919081019062000986565b9150915060008060008060009054906101000a900473ffffffffffffffffffffffffffffffffffffffff1673ffffffffffffffffffffffffffffffffffffffff1663be7558c08b6040518263ffffffff1660e01b8152600401620001ed919062000ae2565b60606040518083038186803b1580156200020657600080fd5b505afa1580156200021b573d6000803e3d6000fd5b505050506040513d601f19601f82011682018060405250620002419190810190620009c7565b925092509250600084148015620002585750600182145b6200029a576040517f08c379a0000000000000000000000000000000000000000000000000000000008152600401620002919062000b28565b60405180910390fd5b604051806040016040528086815260200160018043901b608188901b1717815250600160008981526020019081526020016000206000820151816000015560208201518160010155905050604051806040016040528084815260200160018043901b60418567ffffffffffffffff16901b608187901b17171781525060016000888152602001908152602001600020600082015181600001556020820151816001015590505060405180604001604052808d8152602001600360028f5102816200036057fe5b04815250600660006001815260200190815260200160002060008201518160000190805190602001906200039692919062000634565b5060208201518160010155905050600660006001815260200190815260200160002060076000820181600001908054620003d2929190620006c3565b5060018201548160010155905050620003f18c620004ed60201b60201c565b6001600560003373ffffffffffffffffffffffffffffffffffffffff1673ffffffffffffffffffffffffffffffffffffffff16815260200190815260200160002060006101000a81548160ff0219169083151502179055508560098190555085600a819055508660026000808152602001908152602001600020819055508560026000600181526020019081526020016000208190555088600b60006101000a81548167ffffffffffffffff021916908367ffffffffffffffff16021790555087600b60086101000a81548167ffffffffffffffff021916908367ffffffffffffffff1602179055505050505050505050505050505062000d06565b60008090505b600760000180549050811015620005a557600060036000600760000184815481106200051b57fe5b9060005260206000200160009054906101000a900473ffffffffffffffffffffffffffffffffffffffff1673ffffffffffffffffffffffffffffffffffffffff1673ffffffffffffffffffffffffffffffffffffffff16815260200190815260200160002060006101000a81548160ff0219169083151502179055508080600101915050620004f3565b5060008090505b81518110156200063057600160036000848481518110620005c957fe5b602002602001015173ffffffffffffffffffffffffffffffffffffffff1673ffffffffffffffffffffffffffffffffffffffff16815260200190815260200160002060006101000a81548160ff0219169083151502179055508080600101915050620005ac565b5050565b828054828255906000526020600020908101928215620006b0579160200282015b82811115620006af5782518260006101000a81548173ffffffffffffffffffffffffffffffffffffffff021916908373ffffffffffffffffffffffffffffffffffffffff1602179055509160200191906001019062000655565b5b509050620006bf91906200071a565b5090565b828054828255906000526020600020908101928215620007075760005260206000209182015b8281111562000706578254825591600101919060010190620006e9565b5b5090506200071691906200071a565b5090565b6200075d91905b808211156200075957600081816101000a81549073ffffffffffffffffffffffffffffffffffffffff02191690555060010162000721565b5090565b90565b600081519050620007718162000c9e565b92915050565b600082601f8301126200078957600080fd5b8151620007a06200079a8262000b78565b62000b4a565b91508181835260208401935060208101905083856020840282011115620007c657600080fd5b60005b83811015620007fa5781620007df888262000760565b845260208401935060208301925050600181019050620007c9565b5050505092915050565b600081519050620008158162000cb8565b92915050565b600082601f8301126200082d57600080fd5b8151620008446200083e8262000ba1565b62000b4a565b915080825260208301602083018583830111156200086157600080fd5b6200086e83828462000c57565b50505092915050565b600081519050620008888162000cd2565b92915050565b6000815190506200089f8162000cec565b92915050565b60008060008060008060c08789031215620008bf57600080fd5b6000620008cf89828a0162000760565b965050602087015167ffffffffffffffff811115620008ed57600080fd5b620008fb89828a0162000777565b955050604087015167ffffffffffffffff8111156200091957600080fd5b6200092789828a016200081b565b945050606087015167ffffffffffffffff8111156200094557600080fd5b6200095389828a016200081b565b93505060806200096689828a016200088e565b92505060a06200097989828a016200088e565b9150509295509295509295565b600080604083850312156200099a57600080fd5b6000620009aa8582860162000804565b9250506020620009bd8582860162000877565b9150509250929050565b600080600060608486031215620009dd57600080fd5b6000620009ed8682870162000804565b935050602062000a008682870162000877565b925050604062000a13868287016200088e565b9150509250925092565b600062000a2a8262000bce565b62000a36818562000bd9565b935062000a4881856020860162000c57565b62000a538162000c8d565b840191505092915050565b600062000a6d600f8362000bea565b91507f56616c696461746f7220456d70747900000000000000000000000000000000006000830152602082019050919050565b600062000aaf60128362000bea565b91507f496e76616c696420496e697420426c6f636b00000000000000000000000000006000830152602082019050919050565b6000602082019050818103600083015262000afe818462000a1d565b905092915050565b6000602082019050818103600083015262000b218162000a5e565b9050919050565b6000602082019050818103600083015262000b438162000aa0565b9050919050565b6000604051905081810181811067ffffffffffffffff8211171562000b6e57600080fd5b8060405250919050565b600067ffffffffffffffff82111562000b9057600080fd5b602082029050602081019050919050565b600067ffffffffffffffff82111562000bb957600080fd5b601f19601f8301169050602081019050919050565b600081519050919050565b600082825260208201905092915050565b600082825260208201905092915050565b600062000c088262000c23565b9050919050565b6000819050919050565b6000819050919050565b600073ffffffffffffffffffffffffffffffffffffffff82169050919050565b600067ffffffffffffffff82169050919050565b60005b8381101562000c7757808201518184015260208101905062000c5a565b8381111562000c87576000848401525b50505050565b6000601f19601f8301169050919050565b62000ca98162000bfb565b811462000cb557600080fd5b50565b62000cc38162000c0f565b811462000ccf57600080fd5b50565b62000cdd8162000c19565b811462000ce957600080fd5b50565b62000cf78162000c43565b811462000d0357600080fd5b50565b612b5b8062000d166000396000f3fe608060405234801561001057600080fd5b50600436106100885760003560e01c8063c5f9dff01161005b578063c5f9dff014610114578063e2a2f0a314610132578063eb71f0f81461014e578063f720f80b1461017e57610088565b80631097d54a1461008d57806366dcb0ba146100a9578063a20140c3146100c8578063b9615878146100e4575b600080fd5b6100a760048036036100a29190810190611d95565b6101ae565b005b6100b1610295565b6040516100bf929190612876565b60405180910390f35b6100e260048036036100dd9190810190611e2a565b61032d565b005b6100fe60048036036100f99190810190611e6b565b610fa7565b60405161010b919061289f565b60405180910390f35b61011c61107b565b60405161012991906128ba565b60405180910390f35b61014c60048036036101479190810190611d95565b61112d565b005b61016860048036036101639190810190611f35565b611214565b604051610175919061285b565b60405180910390f35b61019860048036036101939190810190611d95565b61137b565b6040516101a591906125b0565b60405180910390f35b600560003373ffffffffffffffffffffffffffffffffffffffff1673ffffffffffffffffffffffffffffffffffffffff16815260200190815260200160002060009054906101000a900460ff1661023a576040517f08c379a0000000000000000000000000000000000000000000000000000000008152600401610231906127bb565b60405180910390fd5b6001600560008373ffffffffffffffffffffffffffffffffffffffff1673ffffffffffffffffffffffffffffffffffffffff16815260200190815260200160002060006101000a81548160ff02191690831515021790555050565b61029d61195b565b6102a561195b565b60405180604001604052806009548152602001608160016000600954815260200190815260200160002060010154901c67ffffffffffffffff168152506040518060400160405280600a548152602001608160016000600a54815260200190815260200160002060010154901c67ffffffffffffffff16815250819150809050915091509091565b600560003373ffffffffffffffffffffffffffffffffffffffff1673ffffffffffffffffffffffffffffffffffffffff16815260200190815260200160002060009054906101000a900460ff166103b9576040517f08c379a00000000000000000000000000000000000000000000000000000000081526004016103b0906127bb565b60405180910390fd5b60008090505b8151811015610fa357600080600080600060606000809054906101000a900473ffffffffffffffffffffffffffffffffffffffff1673ffffffffffffffffffffffffffffffffffffffff166344e06ed489898151811061041b57fe5b60200260200101516040518263ffffffff1660e01b815260040161043f9190612639565b60006040518083038186803b15801561045757600080fd5b505afa15801561046b573d6000803e3d6000fd5b505050506040513d6000823e3d601f19601f820116820180604052506104949190810190611e94565b9550955095509550955095506060806000809054906101000a900473ffffffffffffffffffffffffffffffffffffffff1673ffffffffffffffffffffffffffffffffffffffff1663750a2ae58b8b815181106104ec57fe5b60200260200101516040518263ffffffff1660e01b81526004016105109190612639565b600060405180830381600087803b15801561052a57600080fd5b505af115801561053e573d6000803e3d6000fd5b505050506040513d6000823e3d601f19601f820116820180604052506105679190810190611dbe565b91509150600087136105ae576040517f08c379a00000000000000000000000000000000000000000000000000000000081526004016105a5906127db565b60405180910390fd5b608160016000600a54815260200190815260200160002060010154901c67ffffffffffffffff168713610616576040517f08c379a000000000000000000000000000000000000000000000000000000000815260040161060d9061281b565b60405180910390fd5b6000600160008a8152602001908152602001600020600101541415610670576040517f08c379a00000000000000000000000000000000000000000000000000000000081526004016106679061265b565b60405180910390fd5b8660016081600160008c815260200190815260200160002060010154901c67ffffffffffffffff1601146106d9576040517f08c379a00000000000000000000000000000000000000000000000000000000081526004016106d0906126bb565b60405180910390fd5b8567ffffffffffffffff166041600160008b815260200190815260200160002060010154901c67ffffffffffffffff1610610749576040517f08c379a0000000000000000000000000000000000000000000000000000000008152600401610740906127fb565b60405180910390fd5b8467ffffffffffffffff166041600160008b815260200190815260200160002060010154901c67ffffffffffffffff16146107b9576040517f08c379a00000000000000000000000000000000000000000000000000000000081526004016107b09061271b565b60405180910390fd5b60008a8a815181106107c757fe5b60200260200101516040516107dc9190612599565b60405180910390209050600060016000838152602001908152602001600020600101541115610840576040517f08c379a00000000000000000000000000000000000000000000000000000000081526004016108379061267b565b60405180910390fd5b60008351118015610852575060008251115b15610892576040517f08c379a00000000000000000000000000000000000000000000000000000000081526004016108899061273b565b60405180910390fd5b600083511115610b3057600b60089054906101000a900467ffffffffffffffff1667ffffffffffffffff168767ffffffffffffffff16816108cf57fe5b06870367ffffffffffffffff168667ffffffffffffffff161015610af0576000600b60009054906101000a900467ffffffffffffffff1667ffffffffffffffff16600b60089054906101000a900467ffffffffffffffff1667ffffffffffffffff168a8161093957fe5b078a03039050600081121561094d57600090505b600181019050600060066000838152602001908152602001600020600101541315610aaf5783516006600083815260200190815260200160002060000180549050146109ce576040517f08c379a00000000000000000000000000000000000000000000000000000000081526004016109c59061279b565b60405180910390fd5b610a7160066000838152602001908152602001600020600001805480602002602001604051908101604052809291908181526020018280548015610a6757602002820191906000526020600020905b8160009054906101000a900473ffffffffffffffffffffffffffffffffffffffff1673ffffffffffffffffffffffffffffffffffffffff1681526020019060010190808311610a1d575b50505050506113d1565b6006600082815260200190815260200160002060076000820181600001908054610a9c929190611978565b5060018201548160010155905050610aea565b6040517f08c379a0000000000000000000000000000000000000000000000000000000008152600401610ae19061283b565b60405180910390fd5b50610b2b565b6040517f08c379a0000000000000000000000000000000000000000000000000000000008152600401610b22906126fb565b60405180910390fd5b610ca1565b600082511115610ca0576001600b60009054906101000a900467ffffffffffffffff16600b60089054906101000a900467ffffffffffffffff16030167ffffffffffffffff16600b60089054906101000a900467ffffffffffffffff1667ffffffffffffffff168981610b9f57fe5b0767ffffffffffffffff161415610c64576000610bbb83611512565b50905080610bfe576040517f08c379a0000000000000000000000000000000000000000000000000000000008152600401610bf59061277b565b60405180910390fd5b60405180604001604052808481526020016003600286510281610c1d57fe5b04815250600660008b81526020019081526020016000206000820151816000019080519060200190610c509291906119ca565b506020820151816001015590505050610c9f565b6040517f08c379a0000000000000000000000000000000000000000000000000000000008152600401610c969061269b565b60405180910390fd5b5b5b60608451604051908082528060200260200182016040528015610cd35781602001602082028038833980820191505090505b50905060008090505b8551811015610dee576000610d0488888481518110610cf757fe5b60200260200101516116a8565b905060011515600360008373ffffffffffffffffffffffffffffffffffffffff1673ffffffffffffffffffffffffffffffffffffffff16815260200190815260200160002060009054906101000a900460ff16151514610d99576040517f08c379a0000000000000000000000000000000000000000000000000000000008152600401610d90906126db565b60405180910390fd5b80838381518110610da657fe5b602002602001019073ffffffffffffffffffffffffffffffffffffffff16908173ffffffffffffffffffffffffffffffffffffffff1681525050508080600101915050610cdc565b50600080610dfb83611512565b9150915081610e3f576040517f08c379a0000000000000000000000000000000000000000000000000000000008152600401610e36906126db565b60405180910390fd5b600760010154811215610e87576040517f08c379a0000000000000000000000000000000000000000000000000000000008152600401610e7e906126db565b60405180910390fd5b60405180604001604052808d8152602001600143901b60418d67ffffffffffffffff16901b60818f901b17178152506001600086815260200190815260200160002060008201518160000155602082015181600101559050507fc92de1e80780c8f239052c833b238f36e1f1f03c09628a198cefab0ed37d2b23848c604051610f119291906125cb565b60405180910390a1608160016000600954815260200190815260200160002060010154901c67ffffffffffffffff168b1315610f4f57836009819055505b600080610f5b86611717565b9150915081610f77575050505050505050505050505050610f96565b80600a81905550610f87816117e8565b50505050505050505050505050505b80806001019150506103bf565b5050565b610faf611a54565b6040518060a001604052806001600085815260200190815260200160002060000154815260200160816001600086815260200190815260200160002060010154901c67ffffffffffffffff16815260200160416001600086815260200190815260200160002060010154901c67ffffffffffffffff168152602001600180600086815260200190815260200160002060010154901c67ffffffffffffffff1681526020016001806001600087815260200190815260200160002060010154161415158152509050919050565b611083611a92565b60076040518060400160405290816000820180548060200260200160405190810160405280929190818152602001828054801561111557602002820191906000526020600020905b8160009054906101000a900473ffffffffffffffffffffffffffffffffffffffff1673ffffffffffffffffffffffffffffffffffffffff16815260200190600101908083116110cb575b50505050508152602001600182015481525050905090565b600560003373ffffffffffffffffffffffffffffffffffffffff1673ffffffffffffffffffffffffffffffffffffffff16815260200190815260200160002060009054906101000a900460ff166111b9576040517f08c379a00000000000000000000000000000000000000000000000000000000081526004016111b0906127bb565b60405180910390fd5b6000600560008373ffffffffffffffffffffffffffffffffffffffff1673ffffffffffffffffffffffffffffffffffffffff16815260200190815260200160002060006101000a81548160ff02191690831515021790555050565b61121c61195b565b6000801b60026000848152602001908152602001600020541415611314576000608160016000600954815260200190815260200160002060010154901c67ffffffffffffffff1690508083131561128e5760405180604001604052806000801b81526020016000815250915050611376565b600083820390506000600954905060008090505b828112156112d0576001600083815260200190815260200160002060000154915080806001019150506112a2565b50604051806040016040528082815260200160816001600085815260200190815260200160002060010154901c67ffffffffffffffff168152509350505050611376565b6040518060400160405280600260008581526020019081526020016000205481526020016081600160006002600088815260200190815260200160002054815260200190815260200160002060010154901c67ffffffffffffffff1681525090505b919050565b6000600560008373ffffffffffffffffffffffffffffffffffffffff1673ffffffffffffffffffffffffffffffffffffffff16815260200190815260200160002060009054906101000a900460ff169050919050565b60008090505b60076000018054905081101561148657600060036000600760000184815481106113fd57fe5b9060005260206000200160009054906101000a900473ffffffffffffffffffffffffffffffffffffffff1673ffffffffffffffffffffffffffffffffffffffff1673ffffffffffffffffffffffffffffffffffffffff16815260200190815260200160002060006101000a81548160ff02191690831515021790555080806001019150506113d7565b5060008090505b815181101561150e576001600360008484815181106114a857fe5b602002602001015173ffffffffffffffffffffffffffffffffffffffff1673ffffffffffffffffffffffffffffffffffffffff16815260200190815260200160002060006101000a81548160ff021916908315150217905550808060010191505061148d565b5050565b600080600090506001915060008090505b835181101561161a576004600085838151811061153c57fe5b602002602001015173ffffffffffffffffffffffffffffffffffffffff1673ffffffffffffffffffffffffffffffffffffffff16815260200190815260200160002060009054906101000a900460ff166116085781806001019250506001600460008684815181106115aa57fe5b602002602001015173ffffffffffffffffffffffffffffffffffffffff1673ffffffffffffffffffffffffffffffffffffffff16815260200190815260200160002060006101000a81548160ff02191690831515021790555061160d565b600092505b8080600101915050611523565b5060008090505b83518110156116a25760006004600086848151811061163c57fe5b602002602001015173ffffffffffffffffffffffffffffffffffffffff1673ffffffffffffffffffffffffffffffffffffffff16815260200190815260200160002060006101000a81548160ff0219169083151502179055508080600101915050611621565b50915091565b6000806000806116b7856118e7565b925092509250600186848484604051600081526020016040526040516116e094939291906125f4565b6020604051602081039080840390855afa158015611702573d6000803e3d6000fd5b50505060206040510351935050505092915050565b6000806001915082905060008090505b60038110156117e2576000801b6001600084815260200190815260200160002060000154141561175a57600092506117e2565b600060016000848152602001908152602001600020600001549050600160416001600084815260200190815260200160002060010154901c0167ffffffffffffffff1660416001600086815260200190815260200160002060010154901c67ffffffffffffffff16146117d15760009350506117e2565b809250508080600101915050611727565b50915091565b5b600180600160008481526020019081526020016000206001015416146118e457600180600083815260200190815260200160002060010160008282541792505081905550806002600060816001600086815260200190815260200160002060010154901c67ffffffffffffffff168152602001908152602001600020819055507fc87258113ecbd0404f86cc5c0155894cfc47dae8fadab01aa8eefe5b5b40bdbb8160816001600085815260200190815260200160002060010154901c67ffffffffffffffff166040516118be9291906125cb565b60405180910390a1600160008281526020019081526020016000206000015490506117e9565b50565b60008060006041845114611930576040517f08c379a00000000000000000000000000000000000000000000000000000000081526004016119279061275b565b60405180910390fd5b6020840151915060408401519050606084015160001a9250601b830182829250925092509193909250565b604051806040016040528060008019168152602001600081525090565b8280548282559060005260206000209081019282156119b95760005260206000209182015b828111156119b857825482559160010191906001019061199d565b5b5090506119c69190611aac565b5090565b828054828255906000526020600020908101928215611a43579160200282015b82811115611a425782518260006101000a81548173ffffffffffffffffffffffffffffffffffffffff021916908373ffffffffffffffffffffffffffffffffffffffff160217905550916020019190600101906119ea565b5b509050611a509190611aac565b5090565b6040518060a001604052806000801916815260200160008152602001600067ffffffffffffffff168152602001600081526020016000151581525090565b604051806040016040528060608152602001600081525090565b611aec91905b80821115611ae857600081816101000a81549073ffffffffffffffffffffffffffffffffffffffff021916905550600101611ab2565b5090565b90565b600081359050611afe81612abc565b92915050565b600081519050611b1381612abc565b92915050565b600082601f830112611b2a57600080fd5b8151611b3d611b3882612909565b6128dc565b91508181835260208401935060208101905083856020840282011115611b6257600080fd5b60005b83811015611b925781611b788882611b04565b845260208401935060208301925050600181019050611b65565b5050505092915050565b600082601f830112611bad57600080fd5b8135611bc0611bbb82612931565b6128dc565b9150818183526020840193506020810190508360005b83811015611c065781358601611bec8882611cae565b845260208401935060208301925050600181019050611bd6565b5050505092915050565b600082601f830112611c2157600080fd5b8151611c34611c2f82612931565b6128dc565b9150818183526020840193506020810190508360005b83811015611c7a5781518601611c608882611d02565b845260208401935060208301925050600181019050611c4a565b5050505092915050565b600081359050611c9381612ad3565b92915050565b600081519050611ca881612ad3565b92915050565b600082601f830112611cbf57600080fd5b8135611cd2611ccd82612959565b6128dc565b91508082526020830160208301858383011115611cee57600080fd5b611cf9838284612a69565b50505092915050565b600082601f830112611d1357600080fd5b8151611d26611d2182612959565b6128dc565b91508082526020830160208301858383011115611d4257600080fd5b611d4d838284612a78565b50505092915050565b600081359050611d6581612aea565b92915050565b600081519050611d7a81612aea565b92915050565b600081519050611d8f81612b01565b92915050565b600060208284031215611da757600080fd5b6000611db584828501611aef565b91505092915050565b60008060408385031215611dd157600080fd5b600083015167ffffffffffffffff811115611deb57600080fd5b611df785828601611b19565b925050602083015167ffffffffffffffff811115611e1457600080fd5b611e2085828601611b19565b9150509250929050565b600060208284031215611e3c57600080fd5b600082013567ffffffffffffffff811115611e5657600080fd5b611e6284828501611b9c565b91505092915050565b600060208284031215611e7d57600080fd5b6000611e8b84828501611c84565b91505092915050565b60008060008060008060c08789031215611ead57600080fd5b6000611ebb89828a01611c99565b9650506020611ecc89828a01611d6b565b9550506040611edd89828a01611d80565b9450506060611eee89828a01611d80565b9350506080611eff89828a01611c99565b92505060a087015167ffffffffffffffff811115611f1c57600080fd5b611f2889828a01611c10565b9150509295509295509295565b600060208284031215611f4757600080fd5b6000611f5584828501611d56565b91505092915050565b6000611f6a8383611f76565b60208301905092915050565b611f7f816129f6565b82525050565b6000611f9082612995565b611f9a81856129b8565b9350611fa583612985565b8060005b83811015611fd6578151611fbd8882611f5e565b9750611fc8836129ab565b925050600181019050611fa9565b5085935050505092915050565b611fec81612a08565b82525050565b611ffb81612a08565b82525050565b61200a81612a14565b82525050565b61201981612a14565b82525050565b600061202a826129a0565b61203481856129c9565b9350612044818560208601612a78565b61204d81612aab565b840191505092915050565b6000612063826129a0565b61206d81856129da565b935061207d818560208601612a78565b80840191505092915050565b61209281612a1e565b82525050565b6120a181612a1e565b82525050565b60006120b4600e836129e5565b91507f506172656e74204d697373696e670000000000000000000000000000000000006000830152602082019050919050565b60006120f4600f836129e5565b91507f52657065617465642048656164657200000000000000000000000000000000006000830152602082019050919050565b60006121346012836129e5565b91507f496e76616c6964204e65787420426c6f636b00000000000000000000000000006000830152602082019050919050565b60006121746009836129e5565b91507f496e76616c6964204e00000000000000000000000000000000000000000000006000830152602082019050919050565b60006121b46011836129e5565b91507f566572696669636174696f6e204661696c0000000000000000000000000000006000830152602082019050919050565b60006121f46015836129e5565b91507f496e76616c69642043757272656e7420426c6f636b00000000000000000000006000830152602082019050919050565b6000612234600b836129e5565b91507f496e76616c69642050524e0000000000000000000000000000000000000000006000830152602082019050919050565b6000612274600f836129e5565b91507f4d616c666f726d656420426c6f636b00000000000000000000000000000000006000830152602082019050919050565b60006122b46011836129e5565b91507f496e76616c6964205369676e61747572650000000000000000000000000000006000830152602082019050919050565b60006122f46012836129e5565b91507f52657065617465642056616c696461746f7200000000000000000000000000006000830152602082019050919050565b60006123346015836129e5565b91507f4d69736d6174636865642056616c696461746f727300000000000000000000006000830152602082019050919050565b6000612374600c836129e5565b91507f4d617374657273204f6e6c7900000000000000000000000000000000000000006000830152602082019050919050565b60006123b46010836129e5565b91507f52657065617465642047656e65736973000000000000000000000000000000006000830152602082019050919050565b60006123f4600a836129e5565b91507f496e76616c696420524e000000000000000000000000000000000000000000006000830152602082019050919050565b60006124346009836129e5565b91507f4f6c6420426c6f636b00000000000000000000000000000000000000000000006000830152602082019050919050565b6000612474601a836129e5565b91507f4d697373696e672043757272656e742056616c696461746f72730000000000006000830152602082019050919050565b6040820160008201516124bd6000850182612001565b5060208201516124d06020850182612089565b50505050565b60a0820160008201516124ec6000850182612001565b5060208201516124ff6020850182612089565b506040820151612512604085018261257b565b5060608201516125256060850182612089565b5060808201516125386080850182611fe3565b50505050565b6000604083016000830151848203600086015261255b8282611f85565b91505060208301516125706020860182612089565b508091505092915050565b61258481612a48565b82525050565b61259381612a5c565b82525050565b60006125a58284612058565b915081905092915050565b60006020820190506125c56000830184611ff2565b92915050565b60006040820190506125e06000830185612010565b6125ed6020830184612098565b9392505050565b60006080820190506126096000830187612010565b612616602083018661258a565b6126236040830185612010565b6126306060830184612010565b95945050505050565b60006020820190508181036000830152612653818461201f565b905092915050565b60006020820190508181036000830152612674816120a7565b9050919050565b60006020820190508181036000830152612694816120e7565b9050919050565b600060208201905081810360008301526126b481612127565b9050919050565b600060208201905081810360008301526126d481612167565b9050919050565b600060208201905081810360008301526126f4816121a7565b9050919050565b60006020820190508181036000830152612714816121e7565b9050919050565b6000602082019050818103600083015261273481612227565b9050919050565b6000602082019050818103600083015261275481612267565b9050919050565b60006020820190508181036000830152612774816122a7565b9050919050565b60006020820190508181036000830152612794816122e7565b9050919050565b600060208201905081810360008301526127b481612327565b9050919050565b600060208201905081810360008301526127d481612367565b9050919050565b600060208201905081810360008301526127f4816123a7565b9050919050565b60006020820190508181036000830152612814816123e7565b9050919050565b6000602082019050818103600083015261283481612427565b9050919050565b6000602082019050818103600083015261285481612467565b9050919050565b600060408201905061287060008301846124a7565b92915050565b600060808201905061288b60008301856124a7565b61289860408301846124a7565b9392505050565b600060a0820190506128b460008301846124d6565b92915050565b600060208201905081810360008301526128d4818461253e565b905092915050565b6000604051905081810181811067ffffffffffffffff821117156128ff57600080fd5b8060405250919050565b600067ffffffffffffffff82111561292057600080fd5b602082029050602081019050919050565b600067ffffffffffffffff82111561294857600080fd5b602082029050602081019050919050565b600067ffffffffffffffff82111561297057600080fd5b601f19601f8301169050602081019050919050565b6000819050602082019050919050565b600081519050919050565b600081519050919050565b6000602082019050919050565b600082825260208201905092915050565b600082825260208201905092915050565b600081905092915050565b600082825260208201905092915050565b6000612a0182612a28565b9050919050565b60008115159050919050565b6000819050919050565b6000819050919050565b600073ffffffffffffffffffffffffffffffffffffffff82169050919050565b600067ffffffffffffffff82169050919050565b600060ff82169050919050565b82818337600083830152505050565b60005b83811015612a96578082015181840152602081019050612a7b565b83811115612aa5576000848401525b50505050565b6000601f19601f8301169050919050565b612ac5816129f6565b8114612ad057600080fd5b50565b612adc81612a14565b8114612ae757600080fd5b50565b612af381612a1e565b8114612afe57600080fd5b50565b612b0a81612a48565b8114612b1557600080fd5b5056fea365627a7a72315820589b621fcf5f57f2354b35c605176a9c95a2c0b6f48b2c48995d663dabce0eca6c6578706572696d656e74616cf564736f6c63430005100040",
  "source": "// SPDX-License-Identifier: MIT\npragma solidity >=0.4.21 <0.9.0;\npragma experimental ABIEncoderV2;\n\nimport \"./HeaderReader.sol\";\n\ncontract Subnet {\n\n  HeaderReader headerReader;\n\n  // Compressed subnet header information stored on chain\n  struct Header {\n    bytes32 parent_hash;\n    uint256 mix; // padding 63 | uint64 number | uint64 round_num | uint64 mainnet_num | bool finalized \n  }\n\n  struct HeaderInfo {\n    bytes32 parent_hash;\n    int number;\n    uint64 round_num;\n    int mainnet_num;\n    bool finalized;\n  }\n\n  struct Validators {\n    address[] set;\n    int threshold;\n  }\n\n  struct BlockLite {\n    bytes32 hash;\n    int number;\n  }\n\n  mapping(bytes32 => Header) header_tree;\n  mapping(int => bytes32) committed_blocks;\n  mapping(address => bool) lookup;\n  mapping(address => bool) unique_addr;\n  mapping(address => bool) masters;\n  mapping(int => Validators) validators;\n  Validators current_validators;\n  bytes32 latest_block;\n  bytes32 latest_finalized_block;\n  uint64 GAP;\n  uint64 EPOCH;\n\n  // Event types\n  event SubnetBlockAccepted(bytes32 block_hash, int number);\n  event SubnetBlockFinalized(bytes32 block_hash, int number);\n\n  // Modifier\n  modifier onlyMasters() {\n    if (!masters[msg.sender]) revert(\"Masters Only\");\n    _;\n  }\n\n  constructor(\n    address lib_address,\n    address[] memory initial_validator_set,\n    bytes memory genesis_header,\n    bytes memory block1_header,\n    uint64 gap,\n    uint64 epoch\n  ) public {\n    require(initial_validator_set.length > 0, \"Validator Empty\");\n    headerReader = HeaderReader(lib_address);\n    bytes32 genesis_header_hash = keccak256(genesis_header);\n    bytes32 block1_header_hash = keccak256(block1_header);\n    (bytes32 ph, int n) = headerReader.getParentHashAndNumber(genesis_header);\n    (bytes32 ph1, int n1, uint64 rn) = headerReader.getBlock1Params(block1_header);\n    require(n == 0 && n1 == 1, \"Invalid Init Block\");\n    header_tree[genesis_header_hash] = Header({\n      parent_hash: ph,\n      mix: uint256(n) << 129 | uint256(block.number) << 1 | 1\n    });\n    header_tree[block1_header_hash] = Header({\n      parent_hash: ph1,\n      mix: uint256(n1) << 129 | uint256(rn) << 65 | uint256(block.number) << 1 | 1\n    });\n    validators[1] = Validators({\n      set: initial_validator_set,\n      threshold: int256(initial_validator_set.length * 2 / 3)\n    });\n    current_validators = validators[1];\n    setLookup(initial_validator_set);\n    masters[msg.sender] = true;\n    latest_block = block1_header_hash;\n    latest_finalized_block = block1_header_hash;\n    committed_blocks[0] = genesis_header_hash;\n    committed_blocks[1] = block1_header_hash;\n    GAP = gap;\n    EPOCH = epoch;\n  }\n\n  function isMaster(address master) public view returns (bool) {\n    return masters[master];\n  }\n\n  function addMaster(address master) public onlyMasters {\n    masters[master] = true;\n  }\n\n  function removeMaster(address master) public onlyMasters {\n    masters[master] = false;\n  }\n\n  /*\n  * @description core function in the contract, it can be summarized into three steps:\n  * 1. Verify subnet header meta information\n  * 2. Verify subnet header certificates\n  * 3. (Conditional) Update Committed Status for ancestor blocks\n  * @param list of rlp-encoded block headers.\n  */\n  function receiveHeader(bytes[] memory headers) public onlyMasters {\n    for (uint x = 0; x < headers.length; x++) {\n      (\n        bytes32 parent_hash,\n        int number,\n        uint64 round_number,\n        uint64 prev_round_number,\n        bytes32 signHash,\n        bytes[] memory sigs\n      ) = headerReader.getValidationParams(headers[x]);\n    \n      (\n        address[] memory current,\n        address[] memory next\n      ) = headerReader.getEpoch(headers[x]);\n      \n      // Verify subnet header meta information\n      require(number > 0, \"Repeated Genesis\");\n      require(number > int256(uint256(uint64(header_tree[latest_finalized_block].mix >> 129))), \"Old Block\");\n      require(header_tree[parent_hash].mix != 0, \"Parent Missing\");\n      require(int256(uint256(uint64(header_tree[parent_hash].mix >> 129))) + 1 == number, \"Invalid N\");\n      require(uint64(header_tree[parent_hash].mix >> 65) < round_number, \"Invalid RN\");\n      require(uint64(header_tree[parent_hash].mix >> 65) == prev_round_number, \"Invalid PRN\");\n      \n      bytes32 block_hash = keccak256(headers[x]);\n\n      // If block is the epoch block, prepared for validators switch\n      if (header_tree[block_hash].mix > 0) revert(\"Repeated Header\");\n      if (current.length > 0 && next.length > 0) revert(\"Malformed Block\");\n      else if (current.length > 0) {\n        if (prev_round_number < round_number - (round_number % EPOCH)) {\n          int256 gap_number = number - number % int256(uint256(EPOCH)) - int256(uint256(GAP));\n          // Edge case at the beginning\n          if (gap_number < 0) {\n            gap_number = 0;\n          }\n          gap_number = gap_number + 1;\n          if (validators[gap_number].threshold > 0) {\n            if (validators[gap_number].set.length != current.length) revert(\"Mismatched Validators\");\n            setLookup(validators[gap_number].set);\n            current_validators = validators[gap_number];\n          } else revert(\"Missing Current Validators\");\n        } else revert(\"Invalid Current Block\");\n      } else if (next.length > 0) {\n        if (uint64(uint256(number % int256(uint256(EPOCH)))) == EPOCH - GAP + 1) {\n\n          (bool is_validator_unique, ) = checkUniqueness(next);\n          if (!is_validator_unique) revert(\"Repeated Validator\");\n\n          validators[number] = Validators({\n            set: next,\n            threshold: int256(next.length * 2 / 3)\n          });\n        } else\n          revert(\"Invalid Next Block\");\n      }\n      // Verify subnet header certificates\n      address[] memory signer_list = new address[](sigs.length);\n      for (uint i = 0; i < sigs.length; i++) {\n        address signer = recoverSigner(signHash, sigs[i]);\n        if (lookup[signer] != true) revert(\"Verification Fail\");\n        signer_list[i] = signer;\n      }\n      (bool is_unique, int unique_counter) = checkUniqueness(signer_list);\n      if (!is_unique) revert(\"Verification Fail\"); \n      if (unique_counter < current_validators.threshold) revert(\"Verification Fail\");\n\n      // Store subnet header\n      header_tree[block_hash] = Header({\n        parent_hash: parent_hash,\n        mix: uint256(number) << 129 | uint256(round_number) << 65 | uint256(block.number) << 1\n      });\n      emit SubnetBlockAccepted(block_hash, number);\n      if (number > int256(uint256(uint64(header_tree[latest_block].mix >> 129)))) {\n        latest_block = block_hash;\n      }\n\n      // Look for commitable ancestor block\n      (bool is_committed, bytes32 committed_block) = checkCommittedStatus(block_hash);\n      if (!is_committed) continue;\n      latest_finalized_block = committed_block;\n\n      // Confirm all ancestor unconfirmed block\n      setCommittedStatus(committed_block);\n    }\n  }\n\n  function setLookup(address[] memory validator_set) internal {\n    for (uint i = 0; i < current_validators.set.length; i++) {\n      lookup[current_validators.set[i]] = false;\n    }\n    for (uint i = 0; i < validator_set.length; i++) {\n      lookup[validator_set[i]] = true;\n    }\n  }\n\n  function setCommittedStatus(bytes32 start_block) internal {\n    while ((header_tree[start_block].mix & 1) != 1) {\n      header_tree[start_block].mix |= 1;\n      committed_blocks[int256(uint256(uint64(header_tree[start_block].mix >> 129)))] = start_block;\n      emit SubnetBlockFinalized(start_block, int256(uint256(uint64(header_tree[start_block].mix >> 129))));\n      start_block = header_tree[start_block].parent_hash;\n    }\n  }\n\n  function checkUniqueness(address[] memory list) \n    internal \n    returns (bool is_unique, int unique_counter) \n  {\n    unique_counter = 0;\n    is_unique = true;\n    for (uint i = 0; i < list.length; i++) {\n      if (!unique_addr[list[i]]) {\n        unique_counter ++;\n        unique_addr[list[i]]=true;\n      } else {\n        is_unique = false;\n      }\n    }\n    for (uint i = 0; i < list.length; i++) {\n      unique_addr[list[i]] = false;\n    }\n  }\n\n  function checkCommittedStatus(bytes32 block_hash)\n    internal\n    view\n    returns (bool is_committed, bytes32 committed_block)\n  {\n    is_committed = true;\n    committed_block = block_hash;\n    for (uint i = 0; i < 3; i++) {\n      if (header_tree[committed_block].parent_hash == 0) {\n        is_committed = false;\n        break;\n      }\n      bytes32 prev_hash = header_tree[committed_block].parent_hash;\n      if (uint64(header_tree[committed_block].mix >> 65) != uint64(header_tree[prev_hash].mix >> 65)+1) {\n        is_committed = false;\n        break;\n      } else {\n        committed_block = prev_hash;\n      }\n    }\n  }\n\n\n  /// signature methods.\n  function splitSignature(bytes memory sig)\n    internal\n    pure\n    returns (uint8 v, bytes32 r, bytes32 s)\n  {\n    require(sig.length == 65, \"Invalid Signature\");\n    assembly {\n      // first 32 bytes, after the length prefix.\n      r := mload(add(sig, 32))\n      // second 32 bytes.\n      s := mload(add(sig, 64))\n      // final byte (first byte of the next 32 bytes).\n      v := byte(0, mload(add(sig, 96)))\n    }\n    // TOCHECK: v needs 27 more, may related with EIP1559\n    return (v+27, r, s);\n  }\n\n  function recoverSigner(bytes32 message, bytes memory sig)\n    internal\n    pure\n    returns (address)\n  {\n    (uint8 v, bytes32 r, bytes32 s) = splitSignature(sig);\n    return ecrecover(message, v, r, s);\n  }\n\n  /*\n  * @param subnet block hash.\n  * @return HeaderInfo struct defined above.\n  */\n  function getHeader(bytes32 block_hash) public view returns (HeaderInfo memory) {\n    return HeaderInfo({\n      parent_hash: header_tree[block_hash].parent_hash,\n      number: int256(uint256(uint64(header_tree[block_hash].mix >> 129))),\n      round_num: uint64(header_tree[block_hash].mix >> 65),\n      mainnet_num: int256(uint256(uint64(header_tree[block_hash].mix >> 1))),\n      finalized: (header_tree[block_hash].mix & 1) == 1\n    });\n  }\n\n  /*\n  * @param subnet block number.\n  * @return BlockLite struct defined above.\n  */\n  function getHeaderByNumber(int number) public view returns (BlockLite memory) {\n    if (committed_blocks[number] == 0) {\n      int block_num = int256(uint256(uint64(header_tree[latest_block].mix >> 129)));\n      if (number > block_num) {\n        return BlockLite({\n          hash: bytes32(0),\n          number: 0\n        });\n      }\n      int num_gap =  block_num - number;\n      bytes32 curr_hash = latest_block;\n      for (int i = 0; i < num_gap; i++) {\n        curr_hash = header_tree[curr_hash].parent_hash;\n      }\n      return BlockLite({\n        hash: curr_hash,\n        number: int256(uint256(uint64(header_tree[curr_hash].mix >> 129)))\n      });\n    } else {\n      return BlockLite({\n        hash: committed_blocks[number],\n        number: int256(uint256(uint64(header_tree[committed_blocks[number]].mix >> 129)))\n      });\n    }\n    \n  }\n\n  /*\n  * @return pair of BlockLite structs defined above.\n  */\n  function getLatestBlocks() public view returns (BlockLite memory, BlockLite memory) {\n    return (\n      BlockLite({\n        hash: latest_block,\n        number: int256(uint256(uint64(header_tree[latest_block].mix >> 129)))\n      }),\n      BlockLite({\n        hash: latest_finalized_block,\n        number: int256(uint256(uint64(header_tree[latest_finalized_block].mix >> 129)))\n    }));\n  }\n\n  /*\n  * @return Validators struct defined above.\n  */\n  function getCurrentValidators() public view returns (Validators memory) {\n    return current_validators;\n  }\n\n}",
  "sourcePath": "/Users/sihengpan/Documents/XinFin/XDC-Subnet/mainnet_contract/contracts/Subnet.sol",
  "compiler": {
    "name": "solc",
    "version": "0.5.16+commit.9c3226ce.Emscripten.clang"
  },
  "schemaVersion": "3.4.1",
  "updatedAt": "2023-05-26T14:48:07.922Z",
  "devdoc": {
    "methods": {}
  },
  "userdoc": {
    "methods": {}
  }
}