{
  "contractName": "Subnet",
  "abi": [
    {
      "inputs": [
        {
          "internalType": "address[]",
          "name": "initial_validator_set",
          "type": "address[]"
        },
        {
          "internalType": "int256",
          "name": "threshold",
          "type": "int256"
        },
        {
          "internalType": "bytes",
          "name": "genesis_header",
          "type": "bytes"
        },
        {
          "internalType": "bytes",
          "name": "block1_header",
          "type": "bytes"
        },
        {
          "internalType": "uint64",
          "name": "gap",
          "type": "uint64"
        },
        {
          "internalType": "uint64",
          "name": "epoch",
          "type": "uint64"
        }
      ],
      "payable": false,
      "stateMutability": "nonpayable",
      "type": "constructor"
    },
    {
      "anonymous": false,
      "inputs": [
        {
          "indexed": false,
          "internalType": "bytes32",
          "name": "block_hash",
          "type": "bytes32"
        },
        {
          "indexed": false,
          "internalType": "int256",
          "name": "number",
          "type": "int256"
        }
      ],
      "name": "SubnetBlockAccepted",
      "type": "event"
    },
    {
      "anonymous": false,
      "inputs": [
        {
          "indexed": false,
          "internalType": "bytes32",
          "name": "block_hash",
          "type": "bytes32"
        },
        {
          "indexed": false,
          "internalType": "int256",
          "name": "number",
          "type": "int256"
        }
      ],
      "name": "SubnetBlockFinalized",
      "type": "event"
    },
    {
      "constant": true,
      "inputs": [
        {
          "internalType": "address",
          "name": "master",
          "type": "address"
        }
      ],
      "name": "isMaster",
      "outputs": [
        {
          "internalType": "bool",
          "name": "",
          "type": "bool"
        }
      ],
      "payable": false,
      "stateMutability": "view",
      "type": "function"
    },
    {
      "constant": false,
      "inputs": [
        {
          "internalType": "address",
          "name": "master",
          "type": "address"
        }
      ],
      "name": "addMaster",
      "outputs": [],
      "payable": false,
      "stateMutability": "nonpayable",
      "type": "function"
    },
    {
      "constant": false,
      "inputs": [
        {
          "internalType": "address",
          "name": "master",
          "type": "address"
        }
      ],
      "name": "removeMaster",
      "outputs": [],
      "payable": false,
      "stateMutability": "nonpayable",
      "type": "function"
    },
    {
      "constant": false,
      "inputs": [
        {
          "internalType": "int256",
          "name": "threshold",
          "type": "int256"
        }
      ],
      "name": "setThreshold",
      "outputs": [],
      "payable": false,
      "stateMutability": "nonpayable",
      "type": "function"
    },
    {
      "constant": false,
      "inputs": [
        {
          "internalType": "bytes[]",
          "name": "headers",
          "type": "bytes[]"
        }
      ],
      "name": "receiveHeader",
      "outputs": [],
      "payable": false,
      "stateMutability": "nonpayable",
      "type": "function"
    },
    {
      "constant": true,
      "inputs": [
        {
          "internalType": "bytes32",
          "name": "header_hash",
          "type": "bytes32"
        }
      ],
      "name": "getHeader",
      "outputs": [
        {
          "internalType": "bytes",
          "name": "",
          "type": "bytes"
        }
      ],
      "payable": false,
      "stateMutability": "view",
      "type": "function"
    },
    {
      "constant": true,
      "inputs": [
        {
          "internalType": "int256",
          "name": "number",
          "type": "int256"
        }
      ],
      "name": "getHeaderByNumber",
      "outputs": [
        {
          "components": [
            {
              "internalType": "bytes32",
              "name": "hash",
              "type": "bytes32"
            },
            {
              "internalType": "int256",
              "name": "number",
              "type": "int256"
            }
          ],
          "internalType": "struct Subnet.BlockLite",
          "name": "",
          "type": "tuple"
        }
      ],
      "payable": false,
      "stateMutability": "view",
      "type": "function"
    },
    {
      "constant": true,
      "inputs": [
        {
          "internalType": "bytes32",
          "name": "header_hash",
          "type": "bytes32"
        }
      ],
      "name": "getHeaderConfirmationStatus",
      "outputs": [
        {
          "internalType": "bool",
          "name": "",
          "type": "bool"
        }
      ],
      "payable": false,
      "stateMutability": "view",
      "type": "function"
    },
    {
      "constant": true,
      "inputs": [
        {
          "internalType": "bytes32",
          "name": "header_hash",
          "type": "bytes32"
        }
      ],
      "name": "getMainnetBlockNumber",
      "outputs": [
        {
          "internalType": "uint256",
          "name": "",
          "type": "uint256"
        }
      ],
      "payable": false,
      "stateMutability": "view",
      "type": "function"
    },
    {
      "constant": true,
      "inputs": [],
      "name": "getLatestBlocks",
      "outputs": [
        {
          "components": [
            {
              "internalType": "bytes32",
              "name": "hash",
              "type": "bytes32"
            },
            {
              "internalType": "int256",
              "name": "number",
              "type": "int256"
            }
          ],
          "internalType": "struct Subnet.BlockLite",
          "name": "",
          "type": "tuple"
        },
        {
          "components": [
            {
              "internalType": "bytes32",
              "name": "hash",
              "type": "bytes32"
            },
            {
              "internalType": "int256",
              "name": "number",
              "type": "int256"
            }
          ],
          "internalType": "struct Subnet.BlockLite",
          "name": "",
          "type": "tuple"
        }
      ],
      "payable": false,
      "stateMutability": "view",
      "type": "function"
    },
    {
      "constant": true,
      "inputs": [],
      "name": "getCurrentValidators",
      "outputs": [
        {
          "components": [
            {
              "internalType": "address[]",
              "name": "set",
              "type": "address[]"
            },
            {
              "internalType": "int256",
              "name": "number",
              "type": "int256"
            },
            {
              "internalType": "int256",
              "name": "threshold",
              "type": "int256"
            }
          ],
          "internalType": "struct Subnet.Validators",
          "name": "",
          "type": "tuple"
        }
      ],
      "payable": false,
      "stateMutability": "view",
      "type": "function"
    }
  ],
  "bytecode": "0x60806040523480156200001157600080fd5b5060405162003b6638038062003b66833981810160405262000037919081019062000896565b60008651116200007e576040517f08c379a0000000000000000000000000000000000000000000000000000000008152600401620000759062000af7565b60405180910390fd5b60008513620000c4576040517f08c379a0000000000000000000000000000000000000000000000000000000008152600401620000bb9062000b19565b60405180910390fd5b60008480519060200120905060008480519060200120905060008073__HeaderReader__________________________63dc9e408b896040518263ffffffff1660e01b815260040162000118919062000ad3565b604080518083038186803b1580156200013057600080fd5b505af415801562000145573d6000803e3d6000fd5b505050506040513d601f19601f820116820180604052506200016b919081019062000977565b91509150600080600073__HeaderReader__________________________63be7558c08b6040518263ffffffff1660e01b8152600401620001ad919062000ad3565b60606040518083038186803b158015620001c657600080fd5b505af4158015620001db573d6000803e3d6000fd5b505050506040513d601f19601f82011682018060405250620002019190810190620009b8565b9250925092506040518060e00160405280888152602001858152602001600067ffffffffffffffff1681526020018681526020016001151581526020014381526020018c815250600080898152602001908152602001600020600082015181600001556020820151816001015560408201518160020160006101000a81548167ffffffffffffffff021916908367ffffffffffffffff1602179055506060820151816003015560808201518160040160006101000a81548160ff02191690831515021790555060a0820151816005015560c0820151816006019080519060200190620002ef929190620005cd565b509050506040518060e001604052808781526020018381526020018267ffffffffffffffff1681526020018481526020016001151581526020014381526020018b815250600080888152602001908152602001600020600082015181600001556020820151816001015560408201518160020160006101000a81548167ffffffffffffffff021916908367ffffffffffffffff1602179055506060820151816003015560808201518160040160006101000a81548160ff02191690831515021790555060a0820151816005015560c0820151816006019080519060200190620003da929190620005cd565b5090505060405180606001604052808e8152602001600181526020018d815250600560008201518160000190805190602001906200041a92919062000654565b506020820151816001015560408201518160020155905050620004438d6200053f60201b60201c565b6001600460003373ffffffffffffffffffffffffffffffffffffffff1673ffffffffffffffffffffffffffffffffffffffff16815260200190815260200160002060006101000a81548160ff02191690831515021790555085600b8190555085600c819055508660016000808152602001908152602001600020819055508560016000600181526020019081526020016000208190555088600d60006101000a81548167ffffffffffffffff021916908367ffffffffffffffff16021790555087600d60086101000a81548167ffffffffffffffff021916908367ffffffffffffffff1602179055505050505050505050505050505062000cf7565b60008090505b8151811015620005c9576001600260008484815181106200056257fe5b602002602001015173ffffffffffffffffffffffffffffffffffffffff1673ffffffffffffffffffffffffffffffffffffffff16815260200190815260200160002060006101000a81548160ff021916908315150217905550808060010191505062000545565b5050565b828054600181600116156101000203166002900490600052602060002090601f016020900481019282601f106200061057805160ff191683800117855562000641565b8280016001018555821562000641579182015b828111156200064057825182559160200191906001019062000623565b5b509050620006509190620006e3565b5090565b828054828255906000526020600020908101928215620006d0579160200282015b82811115620006cf5782518260006101000a81548173ffffffffffffffffffffffffffffffffffffffff021916908373ffffffffffffffffffffffffffffffffffffffff1602179055509160200191906001019062000675565b5b509050620006df91906200070b565b5090565b6200070891905b8082111562000704576000816000905550600101620006ea565b5090565b90565b6200074e91905b808211156200074a57600081816101000a81549073ffffffffffffffffffffffffffffffffffffffff02191690555060010162000712565b5090565b90565b600081519050620007628162000c8f565b92915050565b600082601f8301126200077a57600080fd5b8151620007916200078b8262000b69565b62000b3b565b91508181835260208401935060208101905083856020840282011115620007b757600080fd5b60005b83811015620007eb5781620007d0888262000751565b845260208401935060208301925050600181019050620007ba565b5050505092915050565b600081519050620008068162000ca9565b92915050565b600082601f8301126200081e57600080fd5b8151620008356200082f8262000b92565b62000b3b565b915080825260208301602083018583830111156200085257600080fd5b6200085f83828462000c48565b50505092915050565b600081519050620008798162000cc3565b92915050565b600081519050620008908162000cdd565b92915050565b60008060008060008060c08789031215620008b057600080fd5b600087015167ffffffffffffffff811115620008cb57600080fd5b620008d989828a0162000768565b9650506020620008ec89828a0162000868565b955050604087015167ffffffffffffffff8111156200090a57600080fd5b6200091889828a016200080c565b945050606087015167ffffffffffffffff8111156200093657600080fd5b6200094489828a016200080c565b93505060806200095789828a016200087f565b92505060a06200096a89828a016200087f565b9150509295509295509295565b600080604083850312156200098b57600080fd5b60006200099b85828601620007f5565b9250506020620009ae8582860162000868565b9150509250929050565b600080600060608486031215620009ce57600080fd5b6000620009de86828701620007f5565b9350506020620009f18682870162000868565b925050604062000a04868287016200087f565b9150509250925092565b600062000a1b8262000bbf565b62000a27818562000bca565b935062000a3981856020860162000c48565b62000a448162000c7e565b840191505092915050565b600062000a5e600f8362000bdb565b91507f56616c696461746f7220456d70747900000000000000000000000000000000006000830152602082019050919050565b600062000aa060118362000bdb565b91507f496e76616c6964205468726573686f6c640000000000000000000000000000006000830152602082019050919050565b6000602082019050818103600083015262000aef818462000a0e565b905092915050565b6000602082019050818103600083015262000b128162000a4f565b9050919050565b6000602082019050818103600083015262000b348162000a91565b9050919050565b6000604051905081810181811067ffffffffffffffff8211171562000b5f57600080fd5b8060405250919050565b600067ffffffffffffffff82111562000b8157600080fd5b602082029050602081019050919050565b600067ffffffffffffffff82111562000baa57600080fd5b601f19601f8301169050602081019050919050565b600081519050919050565b600082825260208201905092915050565b600082825260208201905092915050565b600062000bf98262000c14565b9050919050565b6000819050919050565b6000819050919050565b600073ffffffffffffffffffffffffffffffffffffffff82169050919050565b600067ffffffffffffffff82169050919050565b60005b8381101562000c6857808201518184015260208101905062000c4b565b8381111562000c78576000848401525b50505050565b6000601f19601f8301169050919050565b62000c9a8162000bec565b811462000ca657600080fd5b50565b62000cb48162000c00565b811462000cc057600080fd5b50565b62000cce8162000c0a565b811462000cda57600080fd5b50565b62000ce88162000c34565b811462000cf457600080fd5b50565b612e5f8062000d076000396000f3fe608060405234801561001057600080fd5b50600436106100a95760003560e01c8063b961587811610071578063b961587814610165578063c5f9dff014610195578063e2a2f0a3146101b3578063eb71f0f8146101cf578063ef0fb558146101ff578063f720f80b1461021b576100a9565b80631097d54a146100ae57806366dcb0ba146100ca5780636c624a5f146100e95780636fed6f8314610119578063a20140c314610149575b600080fd5b6100c860048036036100c391908101906120dc565b61024b565b005b6100d2610332565b6040516100e0929190612b54565b60405180910390f35b61010360048036036100fe91908101906121b2565b6103ac565b604051610110919061288c565b60405180910390f35b610133600480360361012e91908101906121b2565b6103d8565b6040516101409190612b9f565b60405180910390f35b610163600480360361015e9190810190612171565b6103f7565b005b61017f600480360361017a91908101906121b2565b611652565b60405161018c9190612937565b60405180910390f35b61019d611709565b6040516101aa9190612b7d565b60405180910390f35b6101cd60048036036101c891908101906120dc565b6117c5565b005b6101e960048036036101e4919081019061227c565b6118ac565b6040516101f69190612b39565b60405180910390f35b6102196004803603610214919081019061227c565b611a1f565b005b610235600480360361023091908101906120dc565b611afb565b604051610242919061288c565b60405180910390f35b600460003373ffffffffffffffffffffffffffffffffffffffff1673ffffffffffffffffffffffffffffffffffffffff16815260200190815260200160002060009054906101000a900460ff166102d7576040517f08c379a00000000000000000000000000000000000000000000000000000000081526004016102ce90612ab9565b60405180910390fd5b6001600460008373ffffffffffffffffffffffffffffffffffffffff1673ffffffffffffffffffffffffffffffffffffffff16815260200190815260200160002060006101000a81548160ff02191690831515021790555050565b61033a611c34565b610342611c34565b6040518060400160405280600b548152602001600080600b548152602001908152602001600020600101548152506040518060400160405280600c548152602001600080600c54815260200190815260200160002060010154815250819150809050915091509091565b600080600083815260200190815260200160002060040160009054906101000a900460ff169050919050565b6000806000838152602001908152602001600020600501549050919050565b600460003373ffffffffffffffffffffffffffffffffffffffff1673ffffffffffffffffffffffffffffffffffffffff16815260200190815260200160002060009054906101000a900460ff16610483576040517f08c379a000000000000000000000000000000000000000000000000000000000815260040161047a90612ab9565b60405180910390fd5b60008090505b815181101561164e576000806000806000606073__HeaderReader__________________________6344e06ed48989815181106104c257fe5b60200260200101516040518263ffffffff1660e01b81526004016104e69190612915565b60006040518083038186803b1580156104fe57600080fd5b505af4158015610512573d6000803e3d6000fd5b505050506040513d6000823e3d601f19601f8201168201806040525061053b91908101906121db565b95509550955095509550955060608073__HeaderReader__________________________63750a2ae58b8b8151811061057057fe5b60200260200101516040518263ffffffff1660e01b81526004016105949190612915565b60006040518083038186803b1580156105ac57600080fd5b505af41580156105c0573d6000803e3d6000fd5b505050506040513d6000823e3d601f19601f820116820180604052506105e99190810190612105565b9150915060008713610630576040517f08c379a000000000000000000000000000000000000000000000000000000000815260040161062790612ad9565b60405180910390fd5b600080600c548152602001908152602001600020600101548713610689576040517f08c379a000000000000000000000000000000000000000000000000000000000815260040161068090612b19565b60405180910390fd5b6000801b6000808a81526020019081526020016000206000015414156106e4576040517f08c379a00000000000000000000000000000000000000000000000000000000081526004016106db90612959565b60405180910390fd5b8660016000808b815260200190815260200160002060010154011461073e576040517f08c379a0000000000000000000000000000000000000000000000000000000008152600401610735906129b9565b60405180910390fd5b8567ffffffffffffffff166000808a815260200190815260200160002060020160009054906101000a900467ffffffffffffffff1667ffffffffffffffff16106107bd576040517f08c379a00000000000000000000000000000000000000000000000000000000081526004016107b490612af9565b60405180910390fd5b8467ffffffffffffffff166000808a815260200190815260200160002060020160009054906101000a900467ffffffffffffffff1667ffffffffffffffff161461083c576040517f08c379a000000000000000000000000000000000000000000000000000000000815260040161083390612a19565b60405180910390fd5b60008a8a8151811061084a57fe5b602002602001015160405161085f9190612875565b6040518091039020905060008060008381526020019081526020016000206001015413156108c2576040517f08c379a00000000000000000000000000000000000000000000000000000000081526004016108b990612979565b60405180910390fd5b600083511180156108d4575060008251115b15610914576040517f08c379a000000000000000000000000000000000000000000000000000000000815260040161090b90612a39565b60405180910390fd5b600083511115610e8957825160086000018054905014610969576040517f08c379a000000000000000000000000000000000000000000000000000000000815260040161096090612a99565b60405180910390fd5b600d60089054906101000a900467ffffffffffffffff1667ffffffffffffffff168767ffffffffffffffff168161099c57fe5b06870367ffffffffffffffff168667ffffffffffffffff161015610e49576000600d60009054906101000a900467ffffffffffffffff1667ffffffffffffffff16600d60089054906101000a900467ffffffffffffffff1667ffffffffffffffff168a81610a0657fe5b078a030390506000811215610a1a57600090505b600860010154600182011415610df85760008090505b600860000180549050811015610adf5760016003600060086000018481548110610a5657fe5b9060005260206000200160009054906101000a900473ffffffffffffffffffffffffffffffffffffffff1673ffffffffffffffffffffffffffffffffffffffff1673ffffffffffffffffffffffffffffffffffffffff16815260200190815260200160002060006101000a81548160ff0219169083151502179055508080600101915050610a30565b5060008090505b600860000180549050811015610c5b576003600060086000018381548110610b0a57fe5b9060005260206000200160009054906101000a900473ffffffffffffffffffffffffffffffffffffffff1673ffffffffffffffffffffffffffffffffffffffff1673ffffffffffffffffffffffffffffffffffffffff16815260200190815260200160002060009054906101000a900460ff16610bbc576040517f08c379a0000000000000000000000000000000000000000000000000000000008152600401610bb390612a99565b60405180910390fd5b60006003600060086000018481548110610bd257fe5b9060005260206000200160009054906101000a900473ffffffffffffffffffffffffffffffffffffffff1673ffffffffffffffffffffffffffffffffffffffff1673ffffffffffffffffffffffffffffffffffffffff16815260200190815260200160002060006101000a81548160ff0219169083151502179055508080600101915050610ae6565b5060008090505b600560000180549050811015610d115760006002600060056000018481548110610c8857fe5b9060005260206000200160009054906101000a900473ffffffffffffffffffffffffffffffffffffffff1673ffffffffffffffffffffffffffffffffffffffff1673ffffffffffffffffffffffffffffffffffffffff16815260200190815260200160002060006101000a81548160ff0219169083151502179055508080600101915050610c62565b5060008090505b8451811015610dc05760016002600060086000018481548110610d3757fe5b9060005260206000200160009054906101000a900473ffffffffffffffffffffffffffffffffffffffff1673ffffffffffffffffffffffffffffffffffffffff1673ffffffffffffffffffffffffffffffffffffffff16815260200190815260200160002060006101000a81548160ff0219169083151502179055508080600101915050610d18565b50600860056000820181600001908054610ddb929190611c51565b506001820154816001015560028201548160020155905050610e43565b6005600101546001820114610e42576040517f08c379a0000000000000000000000000000000000000000000000000000000008152600401610e39906129f9565b60405180910390fd5b5b50610e84565b6040517f08c379a0000000000000000000000000000000000000000000000000000000008152600401610e7b906129f9565b60405180910390fd5b610faa565b600082511115610fa9576001600d60009054906101000a900467ffffffffffffffff16600d60089054906101000a900467ffffffffffffffff16030167ffffffffffffffff16600d60089054906101000a900467ffffffffffffffff1667ffffffffffffffff168981610ef857fe5b0767ffffffffffffffff161415610f6d5760405180606001604052808381526020018981526020016003600285510281610f2e57fe5b0481525060086000820151816000019080519060200190610f50929190611ca3565b506020820151816001015560408201518160020155905050610fa8565b6040517f08c379a0000000000000000000000000000000000000000000000000000000008152600401610f9f90612999565b60405180910390fd5b5b5b600080905060608551604051908082528060200260200182016040528015610fe15781602001602082028038833980820191505090505b50905060008090505b86518110156111ed5760006110128989848151811061100557fe5b6020026020010151611b51565b905060011515600260008373ffffffffffffffffffffffffffffffffffffffff1673ffffffffffffffffffffffffffffffffffffffff16815260200190815260200160002060009054906101000a900460ff161515146110a7576040517f08c379a000000000000000000000000000000000000000000000000000000000815260040161109e906129d9565b60405180910390fd5b600360008273ffffffffffffffffffffffffffffffffffffffff1673ffffffffffffffffffffffffffffffffffffffff16815260200190815260200160002060009054906101000a900460ff1661115d5783806001019450506001600360008373ffffffffffffffffffffffffffffffffffffffff1673ffffffffffffffffffffffffffffffffffffffff16815260200190815260200160002060006101000a81548160ff021916908315150217905550611198565b6040517f08c379a000000000000000000000000000000000000000000000000000000000815260040161118f906129d9565b60405180910390fd5b808383815181106111a557fe5b602002602001019073ffffffffffffffffffffffffffffffffffffffff16908173ffffffffffffffffffffffffffffffffffffffff1681525050508080600101915050610fea565b5060008090505b81518110156112755760006003600084848151811061120f57fe5b602002602001015173ffffffffffffffffffffffffffffffffffffffff1673ffffffffffffffffffffffffffffffffffffffff16815260200190815260200160002060006101000a81548160ff02191690831515021790555080806001019150506111f4565b506005600201548212156112be576040517f08c379a00000000000000000000000000000000000000000000000000000000081526004016112b5906129d9565b60405180910390fd5b6040518060e001604052808481526020018b81526020018a67ffffffffffffffff1681526020018c81526020016000151581526020014381526020018e8e8151811061130657fe5b6020026020010151815250600080858152602001908152602001600020600082015181600001556020820151816001015560408201518160020160006101000a81548167ffffffffffffffff021916908367ffffffffffffffff1602179055506060820151816003015560808201518160040160006101000a81548160ff02191690831515021790555060a0820151816005015560c08201518160060190805190602001906113b6929190611d2d565b509050507fc92de1e80780c8f239052c833b238f36e1f1f03c09628a198cefab0ed37d2b23838b6040516113eb9291906128a7565b60405180910390a1600080600b5481526020019081526020016000206001015460008085815260200190815260200160002060010154131561142f5782600b819055505b600060019050600084905060008090505b6003811015611517576000801b6000808481526020019081526020016000206003015414156114725760009250611517565b6000806000848152602001908152602001600020600301549050600160008083815260200190815260200160002060020160009054906101000a900467ffffffffffffffff160167ffffffffffffffff1660008085815260200190815260200160002060020160009054906101000a900467ffffffffffffffff1667ffffffffffffffff1614611506576000935050611517565b809250508080600101915050611440565b506000151582151514156115375750505050505050505050505050611641565b80600c819055505b6001151560008083815260200190815260200160002060040160009054906101000a900460ff1615151461163357600160008083815260200190815260200160002060040160006101000a81548160ff0219169083151502179055508060016000806000858152602001908152602001600020600101548152602001908152602001600020819055507fc87258113ecbd0404f86cc5c0155894cfc47dae8fadab01aa8eefe5b5b40bdbb816000808481526020019081526020016000206001015460405161160e9291906128a7565b60405180910390a160008082815260200190815260200160002060030154905061153f565b505050505050505050505050505b8080600101915050610489565b5050565b60606000808381526020019081526020016000206006018054600181600116156101000203166002900480601f0160208091040260200160405190810160405280929190818152602001828054600181600116156101000203166002900480156116fd5780601f106116d2576101008083540402835291602001916116fd565b820191906000526020600020905b8154815290600101906020018083116116e057829003601f168201915b50505050509050919050565b611711611dad565b6005604051806060016040529081600082018054806020026020016040519081016040528092919081815260200182805480156117a357602002820191906000526020600020905b8160009054906101000a900473ffffffffffffffffffffffffffffffffffffffff1673ffffffffffffffffffffffffffffffffffffffff1681526020019060010190808311611759575b5050505050815260200160018201548152602001600282015481525050905090565b600460003373ffffffffffffffffffffffffffffffffffffffff1673ffffffffffffffffffffffffffffffffffffffff16815260200190815260200160002060009054906101000a900460ff16611851576040517f08c379a000000000000000000000000000000000000000000000000000000000815260040161184890612ab9565b60405180910390fd5b6000600460008373ffffffffffffffffffffffffffffffffffffffff1673ffffffffffffffffffffffffffffffffffffffff16815260200190815260200160002060006101000a81548160ff02191690831515021790555050565b6118b4611c34565b6000801b600160008481526020019081526020016000205414156119b257600080600b548152602001908152602001600020600101548213156119115760405180604001604052806000801b815260200160008152509050611a1a565b600082600080600b548152602001908152602001600020600101540390506000600b54905060008090505b8281121561196957600080838152602001908152602001600020600301549150808060010191505061193c565b5060405180604001604052806000808481526020019081526020016000206000015481526020016000808481526020019081526020016000206001015481525092505050611a1a565b604051806040016040528060008060016000878152602001908152602001600020548152602001908152602001600020600001548152602001600080600160008781526020019081526020016000205481526020019081526020016000206001015481525090505b919050565b600460003373ffffffffffffffffffffffffffffffffffffffff1673ffffffffffffffffffffffffffffffffffffffff16815260200190815260200160002060009054906101000a900460ff16611aab576040517f08c379a0000000000000000000000000000000000000000000000000000000008152600401611aa290612ab9565b60405180910390fd5b60008113611aee576040517f08c379a0000000000000000000000000000000000000000000000000000000008152600401611ae590612a79565b60405180910390fd5b8060086002018190555050565b6000600460008373ffffffffffffffffffffffffffffffffffffffff1673ffffffffffffffffffffffffffffffffffffffff16815260200190815260200160002060009054906101000a900460ff169050919050565b600080600080611b6085611bc0565b92509250925060018684848460405160008152602001604052604051611b8994939291906128d0565b6020604051602081039080840390855afa158015611bab573d6000803e3d6000fd5b50505060206040510351935050505092915050565b60008060006041845114611c09576040517f08c379a0000000000000000000000000000000000000000000000000000000008152600401611c0090612a59565b60405180910390fd5b6020840151915060408401519050606084015160001a9250601b830182829250925092509193909250565b604051806040016040528060008019168152602001600081525090565b828054828255906000526020600020908101928215611c925760005260206000209182015b82811115611c91578254825591600101919060010190611c76565b5b509050611c9f9190611dce565b5090565b828054828255906000526020600020908101928215611d1c579160200282015b82811115611d1b5782518260006101000a81548173ffffffffffffffffffffffffffffffffffffffff021916908373ffffffffffffffffffffffffffffffffffffffff16021790555091602001919060010190611cc3565b5b509050611d299190611dce565b5090565b828054600181600116156101000203166002900490600052602060002090601f016020900481019282601f10611d6e57805160ff1916838001178555611d9c565b82800160010185558215611d9c579182015b82811115611d9b578251825591602001919060010190611d80565b5b509050611da99190611e11565b5090565b60405180606001604052806060815260200160008152602001600081525090565b611e0e91905b80821115611e0a57600081816101000a81549073ffffffffffffffffffffffffffffffffffffffff021916905550600101611dd4565b5090565b90565b611e3391905b80821115611e2f576000816000905550600101611e17565b5090565b90565b600081359050611e4581612dc0565b92915050565b600081519050611e5a81612dc0565b92915050565b600082601f830112611e7157600080fd5b8151611e84611e7f82612be7565b612bba565b91508181835260208401935060208101905083856020840282011115611ea957600080fd5b60005b83811015611ed95781611ebf8882611e4b565b845260208401935060208301925050600181019050611eac565b5050505092915050565b600082601f830112611ef457600080fd5b8135611f07611f0282612c0f565b612bba565b9150818183526020840193506020810190508360005b83811015611f4d5781358601611f338882611ff5565b845260208401935060208301925050600181019050611f1d565b5050505092915050565b600082601f830112611f6857600080fd5b8151611f7b611f7682612c0f565b612bba565b9150818183526020840193506020810190508360005b83811015611fc15781518601611fa78882612049565b845260208401935060208301925050600181019050611f91565b5050505092915050565b600081359050611fda81612dd7565b92915050565b600081519050611fef81612dd7565b92915050565b600082601f83011261200657600080fd5b813561201961201482612c37565b612bba565b9150808252602083016020830185838301111561203557600080fd5b612040838284612d6d565b50505092915050565b600082601f83011261205a57600080fd5b815161206d61206882612c37565b612bba565b9150808252602083016020830185838301111561208957600080fd5b612094838284612d7c565b50505092915050565b6000813590506120ac81612dee565b92915050565b6000815190506120c181612dee565b92915050565b6000815190506120d681612e05565b92915050565b6000602082840312156120ee57600080fd5b60006120fc84828501611e36565b91505092915050565b6000806040838503121561211857600080fd5b600083015167ffffffffffffffff81111561213257600080fd5b61213e85828601611e60565b925050602083015167ffffffffffffffff81111561215b57600080fd5b61216785828601611e60565b9150509250929050565b60006020828403121561218357600080fd5b600082013567ffffffffffffffff81111561219d57600080fd5b6121a984828501611ee3565b91505092915050565b6000602082840312156121c457600080fd5b60006121d284828501611fcb565b91505092915050565b60008060008060008060c087890312156121f457600080fd5b600061220289828a01611fe0565b965050602061221389828a016120b2565b955050604061222489828a016120c7565b945050606061223589828a016120c7565b935050608061224689828a01611fe0565b92505060a087015167ffffffffffffffff81111561226357600080fd5b61226f89828a01611f57565b9150509295509295509295565b60006020828403121561228e57600080fd5b600061229c8482850161209d565b91505092915050565b60006122b183836122bd565b60208301905092915050565b6122c681612cf0565b82525050565b60006122d782612c73565b6122e18185612ca1565b93506122ec83612c63565b8060005b8381101561231d57815161230488826122a5565b975061230f83612c94565b9250506001810190506122f0565b5085935050505092915050565b61233381612d02565b82525050565b61234281612d0e565b82525050565b61235181612d0e565b82525050565b600061236282612c89565b61236c8185612cb2565b935061237c818560208601612d7c565b61238581612daf565b840191505092915050565b600061239b82612c7e565b6123a58185612cc3565b93506123b5818560208601612d7c565b6123be81612daf565b840191505092915050565b60006123d482612c7e565b6123de8185612cd4565b93506123ee818560208601612d7c565b80840191505092915050565b61240381612d18565b82525050565b61241281612d18565b82525050565b6000612425600e83612cdf565b91507f506172656e74204d697373696e670000000000000000000000000000000000006000830152602082019050919050565b6000612465600f83612cdf565b91507f52657065617465642048656164657200000000000000000000000000000000006000830152602082019050919050565b60006124a5601283612cdf565b91507f496e76616c6964204e65787420426c6f636b00000000000000000000000000006000830152602082019050919050565b60006124e5600983612cdf565b91507f496e76616c6964204e00000000000000000000000000000000000000000000006000830152602082019050919050565b6000612525601183612cdf565b91507f566572696669636174696f6e204661696c0000000000000000000000000000006000830152602082019050919050565b6000612565601583612cdf565b91507f496e76616c69642043757272656e7420426c6f636b00000000000000000000006000830152602082019050919050565b60006125a5600b83612cdf565b91507f496e76616c69642050524e0000000000000000000000000000000000000000006000830152602082019050919050565b60006125e5600f83612cdf565b91507f4d616c666f726d656420426c6f636b00000000000000000000000000000000006000830152602082019050919050565b6000612625601183612cdf565b91507f496e76616c6964205369676e61747572650000000000000000000000000000006000830152602082019050919050565b6000612665600b83612cdf565b91507f30205468726573686f6c640000000000000000000000000000000000000000006000830152602082019050919050565b60006126a5601583612cdf565b91507f4d69736d6174636865642056616c696461746f727300000000000000000000006000830152602082019050919050565b60006126e5600c83612cdf565b91507f4d617374657273204f6e6c7900000000000000000000000000000000000000006000830152602082019050919050565b6000612725601083612cdf565b91507f52657065617465642047656e65736973000000000000000000000000000000006000830152602082019050919050565b6000612765600a83612cdf565b91507f496e76616c696420524e000000000000000000000000000000000000000000006000830152602082019050919050565b60006127a5600983612cdf565b91507f4f6c6420426c6f636b00000000000000000000000000000000000000000000006000830152602082019050919050565b6040820160008201516127ee6000850182612339565b50602082015161280160208501826123fa565b50505050565b6000606083016000830151848203600086015261282482826122cc565b915050602083015161283960208601826123fa565b50604083015161284c60408601826123fa565b508091505092915050565b61286081612d42565b82525050565b61286f81612d60565b82525050565b600061288182846123c9565b915081905092915050565b60006020820190506128a1600083018461232a565b92915050565b60006040820190506128bc6000830185612348565b6128c96020830184612409565b9392505050565b60006080820190506128e56000830187612348565b6128f26020830186612866565b6128ff6040830185612348565b61290c6060830184612348565b95945050505050565b6000602082019050818103600083015261292f8184612390565b905092915050565b600060208201905081810360008301526129518184612357565b905092915050565b6000602082019050818103600083015261297281612418565b9050919050565b6000602082019050818103600083015261299281612458565b9050919050565b600060208201905081810360008301526129b281612498565b9050919050565b600060208201905081810360008301526129d2816124d8565b9050919050565b600060208201905081810360008301526129f281612518565b9050919050565b60006020820190508181036000830152612a1281612558565b9050919050565b60006020820190508181036000830152612a3281612598565b9050919050565b60006020820190508181036000830152612a52816125d8565b9050919050565b60006020820190508181036000830152612a7281612618565b9050919050565b60006020820190508181036000830152612a9281612658565b9050919050565b60006020820190508181036000830152612ab281612698565b9050919050565b60006020820190508181036000830152612ad2816126d8565b9050919050565b60006020820190508181036000830152612af281612718565b9050919050565b60006020820190508181036000830152612b1281612758565b9050919050565b60006020820190508181036000830152612b3281612798565b9050919050565b6000604082019050612b4e60008301846127d8565b92915050565b6000608082019050612b6960008301856127d8565b612b7660408301846127d8565b9392505050565b60006020820190508181036000830152612b978184612807565b905092915050565b6000602082019050612bb46000830184612857565b92915050565b6000604051905081810181811067ffffffffffffffff82111715612bdd57600080fd5b8060405250919050565b600067ffffffffffffffff821115612bfe57600080fd5b602082029050602081019050919050565b600067ffffffffffffffff821115612c2657600080fd5b602082029050602081019050919050565b600067ffffffffffffffff821115612c4e57600080fd5b601f19601f8301169050602081019050919050565b6000819050602082019050919050565b600081519050919050565b600081519050919050565b600081519050919050565b6000602082019050919050565b600082825260208201905092915050565b600082825260208201905092915050565b600082825260208201905092915050565b600081905092915050565b600082825260208201905092915050565b6000612cfb82612d22565b9050919050565b60008115159050919050565b6000819050919050565b6000819050919050565b600073ffffffffffffffffffffffffffffffffffffffff82169050919050565b6000819050919050565b600067ffffffffffffffff82169050919050565b600060ff82169050919050565b82818337600083830152505050565b60005b83811015612d9a578082015181840152602081019050612d7f565b83811115612da9576000848401525b50505050565b6000601f19601f8301169050919050565b612dc981612cf0565b8114612dd457600080fd5b50565b612de081612d0e565b8114612deb57600080fd5b50565b612df781612d18565b8114612e0257600080fd5b50565b612e0e81612d4c565b8114612e1957600080fd5b5056fea365627a7a723158200ee66d31c6f5a008be9d71e5a7e2d34113757d9469f1fd2a8b3fcc0b62d2598c6c6578706572696d656e74616cf564736f6c63430005100040",
  "source": "// SPDX-License-Identifier: MIT\npragma solidity >=0.4.21 <0.9.0;\npragma experimental ABIEncoderV2;\n\nimport \"./HeaderReader.sol\";\n\ncontract Subnet {\n\n  struct Header {\n    bytes32 hash;\n    int number;\n    uint64 round_num;\n    bytes32 parent_hash;\n    bool finalized;\n    uint mainnet_num;\n    bytes src;\n  }\n\n  struct Validators {\n    address[] set;\n    int number;\n    int threshold;\n  }\n\n  struct BlockLite {\n    bytes32 hash;\n    int number;\n  }\n\n  mapping(bytes32 => Header) header_tree;\n  mapping(int => bytes32) committed_blocks;\n  mapping(address => bool) lookup;\n  mapping(address => bool) unique_addr;\n  mapping(address => bool) masters;\n  Validators current_validators;\n  Validators next_validators;\n  bytes32 latest_block;\n  bytes32 latest_finalized_block;\n  uint64 private GAP;\n  uint64 private EPOCH;\n\n  // Event types\n  event SubnetBlockAccepted(bytes32 block_hash, int number);\n  event SubnetBlockFinalized(bytes32 block_hash, int number);\n\n  // Modifier\n  modifier onlyMasters() {\n    if (!masters[msg.sender]) revert(\"Masters Only\");\n    _;\n  }\n\n  constructor(\n    address[] memory initial_validator_set,\n    int threshold,\n    bytes memory genesis_header,\n    bytes memory block1_header,\n    uint64 gap,\n    uint64 epoch\n  ) public {\n    require(initial_validator_set.length > 0, \"Validator Empty\");\n    require(threshold > 0, \"Invalid Threshold\");\n    bytes32 genesis_header_hash = keccak256(genesis_header);\n    bytes32 block1_header_hash = keccak256(block1_header);\n    (bytes32 ph, int n) = HeaderReader.getParentHashAndNumber(genesis_header);\n    (bytes32 ph1, int n1, uint64 rn) = HeaderReader.getBlock1Params(block1_header);\n    header_tree[genesis_header_hash] = Header({\n      hash: genesis_header_hash,\n      number: n,\n      round_num: 0, \n      parent_hash: ph,\n      finalized: true,\n      mainnet_num: block.number,\n      src: genesis_header\n    });\n    header_tree[block1_header_hash] = Header({\n      hash: block1_header_hash,\n      number: n1,\n      round_num: rn, \n      parent_hash: ph1,\n      finalized: true,\n      mainnet_num: block.number,\n      src: block1_header\n    });\n    current_validators = Validators({\n      set: initial_validator_set,\n      number: 1,\n      threshold: threshold\n    });\n    updateLookup(initial_validator_set);\n    masters[msg.sender] = true;\n    latest_block = block1_header_hash;\n    latest_finalized_block = block1_header_hash;\n    committed_blocks[0] = genesis_header_hash;\n    committed_blocks[1] = block1_header_hash;\n    GAP = gap;\n    EPOCH = epoch;\n  }\n\n  function isMaster(address master) public view returns (bool) {\n    return masters[master];\n  }\n\n  function addMaster(address master) public onlyMasters {\n    masters[master] = true;\n  }\n\n  function removeMaster(address master) public onlyMasters {\n    masters[master] = false;\n  }\n\n  function setThreshold(int threshold) public onlyMasters {\n    require(threshold > 0, \"0 Threshold\");\n    next_validators.threshold = threshold;\n  }\n\n  function receiveHeader(bytes[] memory headers) public onlyMasters { \n    for (uint x = 0; x < headers.length; x++) {\n      (\n        bytes32 parent_hash,\n        int number,\n        uint64 round_number,\n        uint64 prev_round_number,\n        bytes32 signHash,\n        bytes[] memory sigs\n      ) = HeaderReader.getValidationParams(headers[x]);\n      (\n        address[] memory current,\n        address[] memory next\n      ) = HeaderReader.getEpoch(headers[x]);\n\n      require(number > 0, \"Repeated Genesis\");\n      require(number > header_tree[latest_finalized_block].number, \"Old Block\");\n      require(header_tree[parent_hash].hash != 0, \"Parent Missing\");\n      require(header_tree[parent_hash].number + 1 == number, \"Invalid N\");\n      require(header_tree[parent_hash].round_num < round_number, \"Invalid RN\");\n      require(header_tree[parent_hash].round_num == prev_round_number, \"Invalid PRN\");\n      bytes32 block_hash = keccak256(headers[x]);\n      if (header_tree[block_hash].number > 0) \n        revert(\"Repeated Header\");\n\n      if (current.length > 0 && next.length > 0)\n        revert(\"Malformed Block\");\n      else if (current.length > 0) {\n        if (next_validators.set.length != current.length)\n          revert(\"Mismatched Validators\");\n        else {\n          if (prev_round_number < round_number - (round_number % EPOCH)) {\n            int256 gap_number = number - number % int256(uint256(EPOCH)) - int256(uint256(GAP));\n            if (gap_number < 0) {\n              gap_number = 0;\n            }\n            if (gap_number + 1 == next_validators.number) {\n              for (uint i = 0; i < next_validators.set.length; i++) {\n                unique_addr[next_validators.set[i]] = true;\n              }\n              for (uint i = 0; i < next_validators.set.length; i++) {\n                if (!unique_addr[next_validators.set[i]]) \n                  revert(\"Mismatched Validators\");\n                else\n                  unique_addr[next_validators.set[i]] = false;\n              }\n              for (uint i = 0; i < current_validators.set.length; i++) {\n                lookup[current_validators.set[i]] = false;\n              }\n              for (uint i = 0; i < current.length; i++) {\n                lookup[next_validators.set[i]] = true;\n              }\n              current_validators = next_validators;\n              // next_validators = Validators({\n              //   set: new address[](0),\n              //   number: 0,\n              //   threshold: 0\n              // });\n            } else if (gap_number + 1 != current_validators.number){\n              revert(\"Invalid Current Block\");\n            }\n          } else\n            revert(\"Invalid Current Block\");\n        }\n      }\n      else if (next.length > 0) {\n        if (uint64(uint256(number % int256(uint256(EPOCH)))) == EPOCH - GAP + 1) {\n          next_validators = Validators({\n            set: next,\n            number: number,\n            threshold: int256(next.length * 2 / 3)\n          });\n        } else\n          revert(\"Invalid Next Block\");\n      }\n\n      int unique_counter = 0;\n      address[] memory signer_list = new address[](sigs.length);\n      for (uint i = 0; i < sigs.length; i++) {\n        address signer = recoverSigner(signHash, sigs[i]);\n        if (lookup[signer] != true) {\n          revert(\"Verification Fail\");\n        }\n        if (!unique_addr[signer]) {\n          unique_counter ++;\n          unique_addr[signer]=true;\n        } else {\n          revert(\"Verification Fail\");\n        }\n        signer_list[i] = signer;\n      }\n      for (uint i = 0; i < signer_list.length; i++) {\n        unique_addr[signer_list[i]] = false;\n      }\n      if (unique_counter < current_validators.threshold) {\n        revert(\"Verification Fail\");\n      }\n      header_tree[block_hash] = Header({\n        hash: block_hash,\n        number: number,\n        round_num: round_number,\n        parent_hash: parent_hash,\n        finalized: false,\n        mainnet_num: block.number,\n        src: headers[x]\n      });\n      emit SubnetBlockAccepted(block_hash, number);\n      if (header_tree[block_hash].number > header_tree[latest_block].number) {\n        latest_block = block_hash;\n      }\n      // Look for 3 consecutive round\n      bool found_committed_flag = true;\n      bytes32 curr_hash = block_hash;\n      for (uint i = 0; i < 3; i++) {\n        if (header_tree[curr_hash].parent_hash == 0) {\n          found_committed_flag = false;\n          break;\n        }\n        bytes32 prev_hash = header_tree[curr_hash].parent_hash;\n        if (header_tree[curr_hash].round_num != header_tree[prev_hash].round_num+1) {\n          found_committed_flag = false;\n          break;\n        } else {\n          curr_hash = prev_hash;\n        }\n      }\n      if (found_committed_flag == false) continue;\n      latest_finalized_block = curr_hash;\n      // Confirm all ancestor unconfirmed block\n      while (header_tree[curr_hash].finalized != true) {\n        header_tree[curr_hash].finalized = true;\n        committed_blocks[header_tree[curr_hash].number] = curr_hash;\n        emit SubnetBlockFinalized(curr_hash, header_tree[curr_hash].number);\n        curr_hash = header_tree[curr_hash].parent_hash;\n      }\n    }\n  }\n\n  /// signature methods.\n  function splitSignature(bytes memory sig)\n    internal\n    pure\n    returns (uint8 v, bytes32 r, bytes32 s)\n  {\n    require(sig.length == 65, \"Invalid Signature\");\n    assembly {\n      // first 32 bytes, after the length prefix.\n      r := mload(add(sig, 32))\n      // second 32 bytes.\n      s := mload(add(sig, 64))\n      // final byte (first byte of the next 32 bytes).\n      v := byte(0, mload(add(sig, 96)))\n    }\n    // TOCHECK: v needs 27 more, may related with EIP1559\n    return (v+27, r, s);\n  }\n\n  function updateLookup(address[] memory initial_validator_set) internal {\n    for (uint i = 0; i < initial_validator_set.length; i++) {\n      lookup[initial_validator_set[i]] = true;\n    }\n  } \n\n  function recoverSigner(bytes32 message, bytes memory sig)\n    internal\n    pure\n    returns (address)\n  {\n    (uint8 v, bytes32 r, bytes32 s) = splitSignature(sig);\n    return ecrecover(message, v, r, s);\n  }\n\n  function getHeader(bytes32 header_hash) public view returns (bytes memory) {\n    return header_tree[header_hash].src;\n  }\n\n  function getHeaderByNumber(int number) public view returns (BlockLite memory) {\n    if (committed_blocks[number] == 0) {\n      if (number > header_tree[latest_block].number) {\n        return BlockLite({\n          hash: bytes32(0),\n          number: 0\n        });\n      }\n      int num_gap = header_tree[latest_block].number - number;\n      bytes32 curr_hash = latest_block;\n      for (int i = 0; i < num_gap; i++) {\n        curr_hash = header_tree[curr_hash].parent_hash;\n      }\n      return BlockLite({\n        hash: header_tree[curr_hash].hash,\n        number: header_tree[curr_hash].number\n      });\n    } else {\n      return BlockLite({\n        hash: header_tree[committed_blocks[number]].hash,\n        number: header_tree[committed_blocks[number]].number\n      });\n    }\n    \n  }\n  \n  function getHeaderConfirmationStatus(bytes32 header_hash) public view returns (bool) {\n    return header_tree[header_hash].finalized;\n  }\n\n  function getMainnetBlockNumber(bytes32 header_hash) public view returns (uint) {\n    return header_tree[header_hash].mainnet_num;\n  }\n\n  function getLatestBlocks() public view returns (BlockLite memory, BlockLite memory) {\n    return (\n        BlockLite({\n        hash: latest_block,\n        number: header_tree[latest_block].number\n      }),\n        BlockLite({\n        hash: latest_finalized_block,\n        number: header_tree[latest_finalized_block].number\n    }));\n  }\n\n  function getCurrentValidators() public view returns (Validators memory) {\n    return current_validators;\n  }\n}",
  "sourcePath": "/Users/sihengpan/Documents/XinFin/XDC-Subnet/mainnet_contract/contracts/Subnet.sol",
  "compiler": {
    "name": "solc",
    "version": "0.5.16+commit.9c3226ce.Emscripten.clang"
  },
  "schemaVersion": "3.4.1",
  "updatedAt": "2023-04-09T21:50:42.511Z",
  "devdoc": {
    "methods": {}
  },
  "userdoc": {
    "methods": {}
  }
}