{
  "contractName": "Subnet",
  "abi": [
    {
      "inputs": [
        {
          "internalType": "address[]",
          "name": "initial_validator_set",
          "type": "address[]"
        },
        {
          "internalType": "bytes",
          "name": "block1",
          "type": "bytes"
        },
        {
          "internalType": "uint64",
          "name": "gap",
          "type": "uint64"
        },
        {
          "internalType": "uint64",
          "name": "epoch",
          "type": "uint64"
        }
      ],
      "payable": false,
      "stateMutability": "nonpayable",
      "type": "constructor"
    },
    {
      "anonymous": false,
      "inputs": [
        {
          "indexed": false,
          "internalType": "bytes32",
          "name": "block_hash",
          "type": "bytes32"
        },
        {
          "indexed": false,
          "internalType": "uint64",
          "name": "number",
          "type": "uint64"
        }
      ],
      "name": "SubnetEpochBlockAccepted",
      "type": "event"
    },
    {
      "constant": true,
      "inputs": [
        {
          "internalType": "address",
          "name": "master",
          "type": "address"
        }
      ],
      "name": "isMaster",
      "outputs": [
        {
          "internalType": "bool",
          "name": "",
          "type": "bool"
        }
      ],
      "payable": false,
      "stateMutability": "view",
      "type": "function"
    },
    {
      "constant": false,
      "inputs": [
        {
          "internalType": "address",
          "name": "master",
          "type": "address"
        }
      ],
      "name": "addMaster",
      "outputs": [],
      "payable": false,
      "stateMutability": "nonpayable",
      "type": "function"
    },
    {
      "constant": false,
      "inputs": [
        {
          "internalType": "address",
          "name": "master",
          "type": "address"
        }
      ],
      "name": "removeMaster",
      "outputs": [],
      "payable": false,
      "stateMutability": "nonpayable",
      "type": "function"
    },
    {
      "constant": false,
      "inputs": [
        {
          "internalType": "bytes[]",
          "name": "headers",
          "type": "bytes[]"
        }
      ],
      "name": "receiveHeader",
      "outputs": [],
      "payable": false,
      "stateMutability": "nonpayable",
      "type": "function"
    },
    {
      "constant": true,
      "inputs": [
        {
          "internalType": "bytes32",
          "name": "block_hash",
          "type": "bytes32"
        }
      ],
      "name": "getHeader",
      "outputs": [
        {
          "components": [
            {
              "internalType": "int256",
              "name": "number",
              "type": "int256"
            },
            {
              "internalType": "uint64",
              "name": "round_num",
              "type": "uint64"
            },
            {
              "internalType": "int256",
              "name": "mainnet_num",
              "type": "int256"
            }
          ],
          "internalType": "struct Subnet.HeaderInfo",
          "name": "",
          "type": "tuple"
        }
      ],
      "payable": false,
      "stateMutability": "view",
      "type": "function"
    },
    {
      "constant": true,
      "inputs": [
        {
          "internalType": "int256",
          "name": "number",
          "type": "int256"
        }
      ],
      "name": "getHeaderByNumber",
      "outputs": [
        {
          "components": [
            {
              "internalType": "int256",
              "name": "number",
              "type": "int256"
            },
            {
              "internalType": "uint64",
              "name": "round_num",
              "type": "uint64"
            },
            {
              "internalType": "int256",
              "name": "mainnet_num",
              "type": "int256"
            }
          ],
          "internalType": "struct Subnet.HeaderInfo",
          "name": "",
          "type": "tuple"
        },
        {
          "internalType": "bytes32",
          "name": "",
          "type": "bytes32"
        }
      ],
      "payable": false,
      "stateMutability": "view",
      "type": "function"
    },
    {
      "constant": true,
      "inputs": [
        {
          "internalType": "int256",
          "name": "idx",
          "type": "int256"
        }
      ],
      "name": "getCurrentEpochBlockByIndex",
      "outputs": [
        {
          "components": [
            {
              "internalType": "int256",
              "name": "number",
              "type": "int256"
            },
            {
              "internalType": "uint64",
              "name": "round_num",
              "type": "uint64"
            },
            {
              "internalType": "int256",
              "name": "mainnet_num",
              "type": "int256"
            }
          ],
          "internalType": "struct Subnet.HeaderInfo",
          "name": "",
          "type": "tuple"
        }
      ],
      "payable": false,
      "stateMutability": "view",
      "type": "function"
    },
    {
      "constant": true,
      "inputs": [
        {
          "internalType": "int256",
          "name": "idx",
          "type": "int256"
        }
      ],
      "name": "getNextEpochBlockByIndex",
      "outputs": [
        {
          "components": [
            {
              "internalType": "int256",
              "name": "number",
              "type": "int256"
            },
            {
              "internalType": "uint64",
              "name": "round_num",
              "type": "uint64"
            },
            {
              "internalType": "int256",
              "name": "mainnet_num",
              "type": "int256"
            }
          ],
          "internalType": "struct Subnet.HeaderInfo",
          "name": "",
          "type": "tuple"
        }
      ],
      "payable": false,
      "stateMutability": "view",
      "type": "function"
    },
    {
      "constant": true,
      "inputs": [],
      "name": "getLatestBlocks",
      "outputs": [
        {
          "components": [
            {
              "internalType": "bytes32",
              "name": "block_hash",
              "type": "bytes32"
            },
            {
              "internalType": "int256",
              "name": "number",
              "type": "int256"
            }
          ],
          "internalType": "struct Subnet.BlockLite",
          "name": "",
          "type": "tuple"
        },
        {
          "components": [
            {
              "internalType": "bytes32",
              "name": "block_hash",
              "type": "bytes32"
            },
            {
              "internalType": "int256",
              "name": "number",
              "type": "int256"
            }
          ],
          "internalType": "struct Subnet.BlockLite",
          "name": "",
          "type": "tuple"
        }
      ],
      "payable": false,
      "stateMutability": "view",
      "type": "function"
    },
    {
      "constant": true,
      "inputs": [],
      "name": "getCurrentValidators",
      "outputs": [
        {
          "components": [
            {
              "internalType": "address[]",
              "name": "set",
              "type": "address[]"
            },
            {
              "internalType": "int256",
              "name": "threshold",
              "type": "int256"
            }
          ],
          "internalType": "struct Subnet.Validators",
          "name": "",
          "type": "tuple"
        }
      ],
      "payable": false,
      "stateMutability": "view",
      "type": "function"
    }
  ],
  "bytecode": "0x60806040526000600f556000801b6010553480156200001d57600080fd5b506040516200312f3803806200312f83398181016040526200004391908101906200058d565b60008451116200008a576040517f08c379a000000000000000000000000000000000000000000000000000000000815260040162000081906200066d565b60405180910390fd5b60008380519060200120905060405180604001604052808681526020016003600288510281620000b657fe5b0481525060076000600181526020019081526020016000206000820151816000019080519060200190620000ec9291906200034a565b506020820151816001015590505060076000600181526020019081526020016000206008600082018160000190805462000128929190620003d9565b506001820154816001015590505062000147856200020360201b60201c565b6001600660003373ffffffffffffffffffffffffffffffffffffffff1673ffffffffffffffffffffffffffffffffffffffff16815260200190815260200160002060006101000a81548160ff02191690831515021790555080600a8190555082600c60006101000a81548167ffffffffffffffff021916908367ffffffffffffffff16021790555081600c60086101000a81548167ffffffffffffffff021916908367ffffffffffffffff1602179055505050505050620007d6565b60008090505b600860000180549050811015620002bb57600060046000600860000184815481106200023157fe5b9060005260206000200160009054906101000a900473ffffffffffffffffffffffffffffffffffffffff1673ffffffffffffffffffffffffffffffffffffffff1673ffffffffffffffffffffffffffffffffffffffff16815260200190815260200160002060006101000a81548160ff021916908315150217905550808060010191505062000209565b5060008090505b81518110156200034657600160046000848481518110620002df57fe5b602002602001015173ffffffffffffffffffffffffffffffffffffffff1673ffffffffffffffffffffffffffffffffffffffff16815260200190815260200160002060006101000a81548160ff0219169083151502179055508080600101915050620002c2565b5050565b828054828255906000526020600020908101928215620003c6579160200282015b82811115620003c55782518260006101000a81548173ffffffffffffffffffffffffffffffffffffffff021916908373ffffffffffffffffffffffffffffffffffffffff160217905550916020019190600101906200036b565b5b509050620003d5919062000430565b5090565b8280548282559060005260206000209081019282156200041d5760005260206000209182015b828111156200041c578254825591600101919060010190620003ff565b5b5090506200042c919062000430565b5090565b6200047391905b808211156200046f57600081816101000a81549073ffffffffffffffffffffffffffffffffffffffff02191690555060010162000437565b5090565b90565b6000815190506200048781620007a2565b92915050565b600082601f8301126200049f57600080fd5b8151620004b6620004b082620006bd565b6200068f565b91508181835260208401935060208101905083856020840282011115620004dc57600080fd5b60005b83811015620005105781620004f5888262000476565b845260208401935060208301925050600181019050620004df565b5050505092915050565b600082601f8301126200052c57600080fd5b8151620005436200053d82620006e6565b6200068f565b915080825260208301602083018583830111156200056057600080fd5b6200056d8382846200076c565b50505092915050565b6000815190506200058781620007bc565b92915050565b60008060008060808587031215620005a457600080fd5b600085015167ffffffffffffffff811115620005bf57600080fd5b620005cd878288016200048d565b945050602085015167ffffffffffffffff811115620005eb57600080fd5b620005f9878288016200051a565b93505060406200060c8782880162000576565b92505060606200061f8782880162000576565b91505092959194509250565b60006200063a600f8362000713565b91507f56616c696461746f7220456d70747900000000000000000000000000000000006000830152602082019050919050565b6000602082019050818103600083015262000688816200062b565b9050919050565b6000604051905081810181811067ffffffffffffffff82111715620006b357600080fd5b8060405250919050565b600067ffffffffffffffff821115620006d557600080fd5b602082029050602081019050919050565b600067ffffffffffffffff821115620006fe57600080fd5b601f19601f8301169050602081019050919050565b600082825260208201905092915050565b6000620007318262000738565b9050919050565b600073ffffffffffffffffffffffffffffffffffffffff82169050919050565b600067ffffffffffffffff82169050919050565b60005b838110156200078c5780820151818401526020810190506200076f565b838111156200079c576000848401525b50505050565b620007ad8162000724565b8114620007b957600080fd5b50565b620007c78162000758565b8114620007d357600080fd5b50565b61294980620007e66000396000f3fe608060405234801561001057600080fd5b506004361061009e5760003560e01c8063c5f9dff011610066578063c5f9dff01461015a578063de70e8ea14610178578063e2a2f0a3146101a8578063eb71f0f8146101c4578063f720f80b146101f55761009e565b80631097d54a146100a357806347db3785146100bf57806366dcb0ba146100ef578063a20140c31461010e578063b96158781461012a575b600080fd5b6100bd60048036036100b89190810190611cca565b610225565b005b6100d960048036036100d49190810190611e6a565b61030c565b6040516100e69190612664565b60405180910390f35b6100f761040a565b60405161010592919061263b565b60405180910390f35b61012860048036036101239190810190611d5f565b610486565b005b610144600480360361013f9190810190611da0565b610fe1565b6040516101519190612664565b60405180910390f35b610162611067565b60405161016f91906126a8565b60405180910390f35b610192600480360361018d9190810190611e6a565b611119565b60405161019f9190612664565b60405180910390f35b6101c260048036036101bd9190810190611cca565b611217565b005b6101de60048036036101d99190810190611e6a565b6112fe565b6040516101ec92919061267f565b60405180910390f35b61020f600480360361020a9190810190611cca565b61141e565b60405161021c91906123f0565b60405180910390f35b600660003373ffffffffffffffffffffffffffffffffffffffff1673ffffffffffffffffffffffffffffffffffffffff16815260200190815260200160002060009054906101000a900460ff166102b1576040517f08c379a00000000000000000000000000000000000000000000000000000000081526004016102a8906125db565b60405180910390fd5b6001600660008373ffffffffffffffffffffffffffffffffffffffff1673ffffffffffffffffffffffffffffffffffffffff16815260200190815260200160002060006101000a81548160ff02191690831515021790555050565b6103146118a3565b6002805490508210156103da57604051806060016040528060806000806002878154811061033e57fe5b9060005260206000200154815260200190815260200160002054901c815260200160406000806002878154811061037157fe5b9060005260206000200154815260200190815260200160002054901c67ffffffffffffffff168152602001600080600286815481106103ac57fe5b906000526020600020015481526020019081526020016000205467ffffffffffffffff168152509050610405565b604051806060016040528060008152602001600067ffffffffffffffff168152602001600081525090505b919050565b6104126118ce565b61041a6118ce565b6040518060400160405280600a5481526020016080600080600a54815260200190815260200160002054901c8152506040518060400160405280600b5481526020016080600080600b54815260200190815260200160002054901c815250819150809050915091509091565b600660003373ffffffffffffffffffffffffffffffffffffffff1673ffffffffffffffffffffffffffffffffffffffff16815260200190815260200160002060009054906101000a900460ff16610512576040517f08c379a0000000000000000000000000000000000000000000000000000000008152600401610509906125db565b60405180910390fd5b6003815111610556576040517f08c379a000000000000000000000000000000000000000000000000000000000815260040161054d906125fb565b60405180910390fd5b60008090505b8151811015610f4d576000806000806000606073__HeaderReader__________________________6344e06ed489898151811061059557fe5b60200260200101516040518263ffffffff1660e01b81526004016105b99190612479565b60006040518083038186803b1580156105d157600080fd5b505af41580156105e5573d6000803e3d6000fd5b505050506040513d6000823e3d601f19601f8201168201806040525061060e9190810190611dc9565b95509550955095509550955060608073__HeaderReader__________________________63750a2ae58b8b8151811061064357fe5b60200260200101516040518263ffffffff1660e01b81526004016106679190612479565b60006040518083038186803b15801561067f57600080fd5b505af4158015610693573d6000803e3d6000fd5b505050506040513d6000823e3d601f19601f820116820180604052506106bc9190810190611cf3565b9150915060008a8a815181106106ce57fe5b60200260200101516040516106e391906123d9565b6040518091039020905060008a1415610c39576000806000838152602001908152602001600020541461074b576040517f08c379a00000000000000000000000000000000000000000000000000000000081526004016107429061251b565b60405180910390fd5b6000835111801561075d575060008251115b1561079d576040517f08c379a00000000000000000000000000000000000000000000000000000000081526004016107949061255b565b60405180910390fd5b600083511115610a6e57600c60089054906101000a900467ffffffffffffffff1667ffffffffffffffff168767ffffffffffffffff16816107da57fe5b06870367ffffffffffffffff168667ffffffffffffffff161015610a2e576000600c60009054906101000a900467ffffffffffffffff1667ffffffffffffffff16600c60089054906101000a900467ffffffffffffffff1667ffffffffffffffff168a8161084457fe5b078a03039050600081121561085857600090505b6001810190506000600760008381526020019081526020016000206001015413156109ed5783516007600083815260200190815260200160002060000180549050146108d9576040517f08c379a00000000000000000000000000000000000000000000000000000000081526004016108d0906125bb565b60405180910390fd5b61097c6007600083815260200190815260200160002060000180548060200260200160405190810160405280929190818152602001828054801561097257602002820191906000526020600020905b8160009054906101000a900473ffffffffffffffffffffffffffffffffffffffff1673ffffffffffffffffffffffffffffffffffffffff1681526020019060010190808311610928575b5050505050611474565b60076000828152602001908152602001600020600860008201816000019080546109a79291906118eb565b506001820154816001015590505081600a819055506002829080600181540180825580915050906001820390600052602060002001600090919290919091505550610a28565b6040517f08c379a0000000000000000000000000000000000000000000000000000000008152600401610a1f9061261b565b60405180910390fd5b50610a69565b6040517f08c379a0000000000000000000000000000000000000000000000000000000008152600401610a609061253b565b60405180910390fd5b610c14565b600082511115610c13576001600c60009054906101000a900467ffffffffffffffff16600c60089054906101000a900467ffffffffffffffff16030167ffffffffffffffff16600c60089054906101000a900467ffffffffffffffff1667ffffffffffffffff168981610add57fe5b0767ffffffffffffffff161415610bd7576000610afb8360006115b5565b50905080610b3e576040517f08c379a0000000000000000000000000000000000000000000000000000000008152600401610b359061259b565b60405180910390fd5b60405180604001604052808481526020016003600286510281610b5d57fe5b04815250600760008b81526020019081526020016000206000820151816000019080519060200190610b9092919061193d565b506020820151816001015590505081600b81905550600382908060018154018082558091505090600182039060005260206000200160009091929091909150555050610c12565b6040517f08c379a0000000000000000000000000000000000000000000000000000000008152600401610c09906124db565b60405180910390fd5b5b5b4360408867ffffffffffffffff16901b60808a901b1717600f81905550806010819055505b60608451604051908082528060200260200182016040528015610c6b5781602001602082028038833980820191505090505b50905060008090505b8551811015610d86576000610c9c88888481518110610c8f57fe5b60200260200101516117c0565b905060011515600460008373ffffffffffffffffffffffffffffffffffffffff1673ffffffffffffffffffffffffffffffffffffffff16815260200190815260200160002060009054906101000a900460ff16151514610d31576040517f08c379a0000000000000000000000000000000000000000000000000000000008152600401610d28906124fb565b60405180910390fd5b80838381518110610d3e57fe5b602002602001019073ffffffffffffffffffffffffffffffffffffffff16908173ffffffffffffffffffffffffffffffffffffffff1681525050508080600101915050610c74565b50600080610d958360016115b5565b9150915081610dd9576040517f08c379a0000000000000000000000000000000000000000000000000000000008152600401610dd0906124fb565b60405180910390fd5b600860010154811215610e21576040517f08c379a0000000000000000000000000000000000000000000000000000000008152600401610e18906124fb565b60405180910390fd5b60008d1115610e6f57600d548c14610e6e576040517f08c379a0000000000000000000000000000000000000000000000000000000008152600401610e659061249b565b60405180910390fd5b5b60018e51038d1015610e835783600d819055505b60038e51038d1115610eff576001600e60009054906101000a900467ffffffffffffffff160167ffffffffffffffff168a67ffffffffffffffff1614610efe576040517f08c379a0000000000000000000000000000000000000000000000000000000008152600401610ef5906124bb565b60405180910390fd5b5b60038e51038d10610f345789600e60006101000a81548167ffffffffffffffff021916908367ffffffffffffffff1602179055505b505050505050505050505050808060010191505061055c565b50600f54600080601054815260200190815260200160002081905550601054600160006080600f54901c67ffffffffffffffff1667ffffffffffffffff168152602001908152602001600020819055507fed8dc7d015884c42fc36aab92ff085dd3db3528e489499315ac6a4ace36d7d896010546080600f54901c604051610fd692919061240b565b60405180910390a150565b610fe96118a3565b6040518060600160405280608060008086815260200190815260200160002054901c67ffffffffffffffff168152602001604060008086815260200190815260200160002054901c67ffffffffffffffff1681526020016000808581526020019081526020016000205467ffffffffffffffff168152509050919050565b61106f6119c7565b60086040518060400160405290816000820180548060200260200160405190810160405280929190818152602001828054801561110157602002820191906000526020600020905b8160009054906101000a900473ffffffffffffffffffffffffffffffffffffffff1673ffffffffffffffffffffffffffffffffffffffff16815260200190600101908083116110b7575b50505050508152602001600182015481525050905090565b6111216118a3565b6003805490508210156111e757604051806060016040528060806000806003878154811061114b57fe5b9060005260206000200154815260200190815260200160002054901c815260200160406000806003878154811061117e57fe5b9060005260206000200154815260200190815260200160002054901c67ffffffffffffffff168152602001600080600386815481106111b957fe5b906000526020600020015481526020019081526020016000205467ffffffffffffffff168152509050611212565b604051806060016040528060008152602001600067ffffffffffffffff168152602001600081525090505b919050565b600660003373ffffffffffffffffffffffffffffffffffffffff1673ffffffffffffffffffffffffffffffffffffffff16815260200190815260200160002060009054906101000a900460ff166112a3576040517f08c379a000000000000000000000000000000000000000000000000000000000815260040161129a906125db565b60405180910390fd5b6000600660008373ffffffffffffffffffffffffffffffffffffffff1673ffffffffffffffffffffffffffffffffffffffff16815260200190815260200160002060006101000a81548160ff02191690831515021790555050565b6113066118a3565b60008060001b600160008567ffffffffffffffff1667ffffffffffffffff16815260200190815260200160002054141561137657604051806060016040528060008152602001600067ffffffffffffffff168152602001600081525060008191508060001b905091509150611419565b6000600160008567ffffffffffffffff1667ffffffffffffffff1681526020019081526020016000205490506040518060600160405280608060008085815260200190815260200160002054901c8152602001604060008085815260200190815260200160002054901c67ffffffffffffffff1681526020016000808481526020019081526020016000205467ffffffffffffffff168152508181915092509250505b915091565b6000600660008373ffffffffffffffffffffffffffffffffffffffff1673ffffffffffffffffffffffffffffffffffffffff16815260200190815260200160002060009054906101000a900460ff169050919050565b60008090505b60086000018054905081101561152957600060046000600860000184815481106114a057fe5b9060005260206000200160009054906101000a900473ffffffffffffffffffffffffffffffffffffffff1673ffffffffffffffffffffffffffffffffffffffff1673ffffffffffffffffffffffffffffffffffffffff16815260200190815260200160002060006101000a81548160ff021916908315150217905550808060010191505061147a565b5060008090505b81518110156115b15760016004600084848151811061154b57fe5b602002602001015173ffffffffffffffffffffffffffffffffffffffff1673ffffffffffffffffffffffffffffffffffffffff16815260200190815260200160002060006101000a81548160ff0219169083151502179055508080600101915050611530565b5050565b600080600090506001915060008090505b845181101561173057600560008683815181106115df57fe5b602002602001015173ffffffffffffffffffffffffffffffffffffffff1673ffffffffffffffffffffffffffffffffffffffff16815260200190815260200160002060009054906101000a900460ff161580156116a157508315806116a057506004600086838151811061164f57fe5b602002602001015173ffffffffffffffffffffffffffffffffffffffff1673ffffffffffffffffffffffffffffffffffffffff16815260200190815260200160002060009054906101000a900460ff165b5b1561171e5781806001019250506001600560008784815181106116c057fe5b602002602001015173ffffffffffffffffffffffffffffffffffffffff1673ffffffffffffffffffffffffffffffffffffffff16815260200190815260200160002060006101000a81548160ff021916908315150217905550611723565b600092505b80806001019150506115c6565b5060008090505b84518110156117b85760006005600087848151811061175257fe5b602002602001015173ffffffffffffffffffffffffffffffffffffffff1673ffffffffffffffffffffffffffffffffffffffff16815260200190815260200160002060006101000a81548160ff0219169083151502179055508080600101915050611737565b509250929050565b6000806000806117cf8561182f565b925092509250600186848484604051600081526020016040526040516117f89493929190612434565b6020604051602081039080840390855afa15801561181a573d6000803e3d6000fd5b50505060206040510351935050505092915050565b60008060006041845114611878576040517f08c379a000000000000000000000000000000000000000000000000000000000815260040161186f9061257b565b60405180910390fd5b6020840151915060408401519050606084015160001a9250601b830182829250925092509193909250565b604051806060016040528060008152602001600067ffffffffffffffff168152602001600081525090565b604051806040016040528060008019168152602001600081525090565b82805482825590600052602060002090810192821561192c5760005260206000209182015b8281111561192b578254825591600101919060010190611910565b5b50905061193991906119e1565b5090565b8280548282559060005260206000209081019282156119b6579160200282015b828111156119b55782518260006101000a81548173ffffffffffffffffffffffffffffffffffffffff021916908373ffffffffffffffffffffffffffffffffffffffff1602179055509160200191906001019061195d565b5b5090506119c391906119e1565b5090565b604051806040016040528060608152602001600081525090565b611a2191905b80821115611a1d57600081816101000a81549073ffffffffffffffffffffffffffffffffffffffff0219169055506001016119e7565b5090565b90565b600081359050611a33816128aa565b92915050565b600081519050611a48816128aa565b92915050565b600082601f830112611a5f57600080fd5b8151611a72611a6d826126f7565b6126ca565b91508181835260208401935060208101905083856020840282011115611a9757600080fd5b60005b83811015611ac75781611aad8882611a39565b845260208401935060208301925050600181019050611a9a565b5050505092915050565b600082601f830112611ae257600080fd5b8135611af5611af08261271f565b6126ca565b9150818183526020840193506020810190508360005b83811015611b3b5781358601611b218882611be3565b845260208401935060208301925050600181019050611b0b565b5050505092915050565b600082601f830112611b5657600080fd5b8151611b69611b648261271f565b6126ca565b9150818183526020840193506020810190508360005b83811015611baf5781518601611b958882611c37565b845260208401935060208301925050600181019050611b7f565b5050505092915050565b600081359050611bc8816128c1565b92915050565b600081519050611bdd816128c1565b92915050565b600082601f830112611bf457600080fd5b8135611c07611c0282612747565b6126ca565b91508082526020830160208301858383011115611c2357600080fd5b611c2e838284612857565b50505092915050565b600082601f830112611c4857600080fd5b8151611c5b611c5682612747565b6126ca565b91508082526020830160208301858383011115611c7757600080fd5b611c82838284612866565b50505092915050565b600081359050611c9a816128d8565b92915050565b600081519050611caf816128d8565b92915050565b600081519050611cc4816128ef565b92915050565b600060208284031215611cdc57600080fd5b6000611cea84828501611a24565b91505092915050565b60008060408385031215611d0657600080fd5b600083015167ffffffffffffffff811115611d2057600080fd5b611d2c85828601611a4e565b925050602083015167ffffffffffffffff811115611d4957600080fd5b611d5585828601611a4e565b9150509250929050565b600060208284031215611d7157600080fd5b600082013567ffffffffffffffff811115611d8b57600080fd5b611d9784828501611ad1565b91505092915050565b600060208284031215611db257600080fd5b6000611dc084828501611bb9565b91505092915050565b60008060008060008060c08789031215611de257600080fd5b6000611df089828a01611bce565b9650506020611e0189828a01611ca0565b9550506040611e1289828a01611cb5565b9450506060611e2389828a01611cb5565b9350506080611e3489828a01611bce565b92505060a087015167ffffffffffffffff811115611e5157600080fd5b611e5d89828a01611b45565b9150509295509295509295565b600060208284031215611e7c57600080fd5b6000611e8a84828501611c8b565b91505092915050565b6000611e9f8383611eab565b60208301905092915050565b611eb4816127e4565b82525050565b6000611ec582612783565b611ecf81856127a6565b9350611eda83612773565b8060005b83811015611f0b578151611ef28882611e93565b9750611efd83612799565b925050600181019050611ede565b5085935050505092915050565b611f21816127f6565b82525050565b611f3081612802565b82525050565b611f3f81612802565b82525050565b6000611f508261278e565b611f5a81856127b7565b9350611f6a818560208601612866565b611f7381612899565b840191505092915050565b6000611f898261278e565b611f9381856127c8565b9350611fa3818560208601612866565b80840191505092915050565b611fb88161280c565b82525050565b6000611fcb6016836127d3565b91507f496e76616c696420426c6f636b2053657175656e6365000000000000000000006000830152602082019050919050565b600061200b6017836127d3565b91507f556e636f6d6d69747465642045706f636820426c6f636b0000000000000000006000830152602082019050919050565b600061204b6012836127d3565b91507f496e76616c6964204e65787420426c6f636b00000000000000000000000000006000830152602082019050919050565b600061208b6011836127d3565b91507f566572696669636174696f6e204661696c0000000000000000000000000000006000830152602082019050919050565b60006120cb600e836127d3565b91507f526570656174656420426c6f636b0000000000000000000000000000000000006000830152602082019050919050565b600061210b6015836127d3565b91507f496e76616c69642043757272656e7420426c6f636b00000000000000000000006000830152602082019050919050565b600061214b600f836127d3565b91507f4d616c666f726d656420426c6f636b00000000000000000000000000000000006000830152602082019050919050565b600061218b6011836127d3565b91507f496e76616c6964205369676e61747572650000000000000000000000000000006000830152602082019050919050565b60006121cb6012836127d3565b91507f52657065617465642056616c696461746f7200000000000000000000000000006000830152602082019050919050565b600061220b6015836127d3565b91507f4d69736d6174636865642056616c696461746f727300000000000000000000006000830152602082019050919050565b600061224b600c836127d3565b91507f4d617374657273204f6e6c7900000000000000000000000000000000000000006000830152602082019050919050565b600061228b6010836127d3565b91507f496e76616c69642053657175656e6365000000000000000000000000000000006000830152602082019050919050565b60006122cb601a836127d3565b91507f4d697373696e672043757272656e742056616c696461746f72730000000000006000830152602082019050919050565b6040820160008201516123146000850182611f27565b5060208201516123276020850182611faf565b50505050565b6060820160008201516123436000850182611faf565b50602082015161235660208501826123ac565b5060408201516123696040850182611faf565b50505050565b6000604083016000830151848203600086015261238c8282611eba565b91505060208301516123a16020860182611faf565b508091505092915050565b6123b581612836565b82525050565b6123c481612836565b82525050565b6123d38161284a565b82525050565b60006123e58284611f7e565b915081905092915050565b60006020820190506124056000830184611f18565b92915050565b60006040820190506124206000830185611f36565b61242d60208301846123bb565b9392505050565b60006080820190506124496000830187611f36565b61245660208301866123ca565b6124636040830185611f36565b6124706060830184611f36565b95945050505050565b600060208201905081810360008301526124938184611f45565b905092915050565b600060208201905081810360008301526124b481611fbe565b9050919050565b600060208201905081810360008301526124d481611ffe565b9050919050565b600060208201905081810360008301526124f48161203e565b9050919050565b600060208201905081810360008301526125148161207e565b9050919050565b60006020820190508181036000830152612534816120be565b9050919050565b60006020820190508181036000830152612554816120fe565b9050919050565b600060208201905081810360008301526125748161213e565b9050919050565b600060208201905081810360008301526125948161217e565b9050919050565b600060208201905081810360008301526125b4816121be565b9050919050565b600060208201905081810360008301526125d4816121fe565b9050919050565b600060208201905081810360008301526125f48161223e565b9050919050565b600060208201905081810360008301526126148161227e565b9050919050565b60006020820190508181036000830152612634816122be565b9050919050565b600060808201905061265060008301856122fe565b61265d60408301846122fe565b9392505050565b6000606082019050612679600083018461232d565b92915050565b6000608082019050612694600083018561232d565b6126a16060830184611f36565b9392505050565b600060208201905081810360008301526126c2818461236f565b905092915050565b6000604051905081810181811067ffffffffffffffff821117156126ed57600080fd5b8060405250919050565b600067ffffffffffffffff82111561270e57600080fd5b602082029050602081019050919050565b600067ffffffffffffffff82111561273657600080fd5b602082029050602081019050919050565b600067ffffffffffffffff82111561275e57600080fd5b601f19601f8301169050602081019050919050565b6000819050602082019050919050565b600081519050919050565b600081519050919050565b6000602082019050919050565b600082825260208201905092915050565b600082825260208201905092915050565b600081905092915050565b600082825260208201905092915050565b60006127ef82612816565b9050919050565b60008115159050919050565b6000819050919050565b6000819050919050565b600073ffffffffffffffffffffffffffffffffffffffff82169050919050565b600067ffffffffffffffff82169050919050565b600060ff82169050919050565b82818337600083830152505050565b60005b83811015612884578082015181840152602081019050612869565b83811115612893576000848401525b50505050565b6000601f19601f8301169050919050565b6128b3816127e4565b81146128be57600080fd5b50565b6128ca81612802565b81146128d557600080fd5b50565b6128e18161280c565b81146128ec57600080fd5b50565b6128f881612836565b811461290357600080fd5b5056fea365627a7a72315820e44fd8f00071ee60764bc0443370d85030da0c01bf7ea9d2b05579a6f9df50ad6c6578706572696d656e74616cf564736f6c63430005100040",
  "source": "// SPDX-License-Identifier: MIT\npragma solidity >=0.4.21 <0.9.0;\npragma experimental ABIEncoderV2;\n\nimport \"./HeaderReader.sol\";\n\ncontract Subnet {\n\n  struct HeaderInfo {\n    int number;\n    uint64 round_num;\n    int mainnet_num;\n  }\n\n  struct BlockLite {\n    bytes32 block_hash;\n    int number;\n  }\n\n  struct Validators {\n    address[] set;\n    int threshold;\n  }\n\n  mapping(bytes32 => uint256) header_tree; // padding 64 | uint64 number | uint64 round_num | uint64 mainnet_num\n  mapping(uint64 => bytes32) height_tree;\n  bytes32[] current_tree;\n  bytes32[] next_tree;\n  mapping(address => bool) lookup;\n  mapping(address => bool) unique_addr;\n  mapping(address => bool) masters;\n  mapping(int => Validators) validators;\n  Validators current_validators;\n  bytes32 latest_current_epoch_block;\n  bytes32 latest_next_epoch_block;\n  uint64 GAP;\n  uint64 EPOCH;\n\n  // Function temp space\n  bytes32 prev_hash;\n  uint64 prev_rn;\n  uint256 epoch_info = 0;\n  bytes32 epoch_hash = 0;\n\n  // Event types\n  event SubnetEpochBlockAccepted(bytes32 block_hash, uint64 number);\n\n  // Modifier\n  modifier onlyMasters() {\n    if (!masters[msg.sender]) revert(\"Masters Only\");\n    _;\n  }\n\n  constructor(\n    address[] memory initial_validator_set,\n    bytes memory block1,\n    uint64 gap,\n    uint64 epoch\n  ) public {\n    require(initial_validator_set.length > 0, \"Validator Empty\");\n    bytes32 block1_header_hash = keccak256(block1);\n    validators[1] = Validators({\n      set: initial_validator_set,\n      threshold: int256(initial_validator_set.length * 2 / 3)\n    });\n    current_validators = validators[1];\n    setLookup(initial_validator_set);\n    masters[msg.sender] = true;\n    latest_current_epoch_block = block1_header_hash;\n    GAP = gap;\n    EPOCH = epoch;\n  }\n\n  function isMaster(address master) public view returns (bool) {\n    return masters[master];\n  }\n\n  function addMaster(address master) public onlyMasters {\n    masters[master] = true;\n  }\n\n  function removeMaster(address master) public onlyMasters {\n    masters[master] = false;\n  }\n\n  /*\n  * @description core function in the contract, it can be summarized into three steps:\n  * 1. Verify subnet header meta information\n  * 2. Verify subnet header certificates\n  * 3. (Conditional) Update Committed Status for ancestor blocks\n  * @param list of rlp-encoded block headers.\n  */\n  function receiveHeader(bytes[] memory headers) public onlyMasters {\n    require(headers.length > 3, \"Invalid Sequence\");\n    for (uint x = 0; x < headers.length; x++) {\n      (\n        bytes32 parent_hash,\n        int number,\n        uint64 round_number,\n        uint64 prev_round_number,\n        bytes32 signHash,\n        bytes[] memory sigs\n      ) = HeaderReader.getValidationParams(headers[x]);\n    \n      (\n        address[] memory current,\n        address[] memory next\n      ) = HeaderReader.getEpoch(headers[x]);\n      bytes32 block_hash = keccak256(headers[x]);\n      if (x == 0) {\n        if (header_tree[block_hash] != 0) revert(\"Repeated Block\");\n        if (current.length > 0 && next.length > 0) revert(\"Malformed Block\");\n        else if (current.length > 0) {\n          if (prev_round_number < round_number - (round_number % EPOCH)) {\n            int256 gap_number = number - number % int256(uint256(EPOCH)) - int256(uint256(GAP));\n            // Edge case at the beginning\n            if (gap_number < 0) {\n              gap_number = 0;\n            }\n            gap_number = gap_number + 1;\n            if (validators[gap_number].threshold > 0) {\n              if (validators[gap_number].set.length != current.length) revert(\"Mismatched Validators\");\n              setLookup(validators[gap_number].set);\n              current_validators = validators[gap_number];\n              latest_current_epoch_block = block_hash;\n              current_tree.push(block_hash); \n              } else revert(\"Missing Current Validators\");\n            } else revert(\"Invalid Current Block\");\n          } else if (next.length > 0) {\n            if (uint64(uint256(number % int256(uint256(EPOCH)))) == EPOCH - GAP + 1) {\n\n              (bool is_validator_unique, ) = checkUniqueness(next, false);\n              if (!is_validator_unique) revert(\"Repeated Validator\");\n\n              validators[number] = Validators({\n                set: next,\n                threshold: int256(next.length * 2 / 3)\n              });\n              latest_next_epoch_block = block_hash;\n              next_tree.push(block_hash);\n            } else\n              revert(\"Invalid Next Block\");\n          }\n          epoch_info = uint256(number) << 128 | uint256(round_number) << 64 | uint256(block.number);\n          epoch_hash = block_hash;\n      }\n\n      // Verify subnet header certificates\n      address[] memory signer_list = new address[](sigs.length);\n      for (uint i = 0; i < sigs.length; i++) {\n        address signer = recoverSigner(signHash, sigs[i]);\n        if (lookup[signer] != true) revert(\"Verification Fail\");\n        signer_list[i] = signer;\n      }\n      (bool is_unique, int unique_counter) = checkUniqueness(signer_list, true);\n      if (!is_unique) revert(\"Verification Fail\"); \n      if (unique_counter < current_validators.threshold) revert(\"Verification Fail\");\n\n      if (x > 0) {\n        if (parent_hash != prev_hash) revert(\"Invalid Block Sequence\");\n      }\n      if (x < headers.length - 1) prev_hash = block_hash;\n      if (x > headers.length - 3) {\n        if (round_number != prev_rn + 1) revert(\"Uncommitted Epoch Block\");\n      }\n      if (x >= headers.length - 3) prev_rn = round_number;\n    }\n    header_tree[epoch_hash] = epoch_info;\n    height_tree[uint64(epoch_info >> 128)] = epoch_hash;\n    emit SubnetEpochBlockAccepted(epoch_hash, uint64(epoch_info >> 128));\n  }\n\n  function setLookup(address[] memory validator_set) internal {\n    for (uint i = 0; i < current_validators.set.length; i++) {\n      lookup[current_validators.set[i]] = false;\n    }\n    for (uint i = 0; i < validator_set.length; i++) {\n      lookup[validator_set[i]] = true;\n    }\n  }\n\n  function checkUniqueness(address[] memory list, bool needLookup) \n    internal \n    returns (bool is_verified, int unique_counter) \n  {\n    unique_counter = 0;\n    is_verified = true;\n    for (uint i = 0; i < list.length; i++) {\n      if (!unique_addr[list[i]] && (!needLookup || lookup[list[i]])) {\n        unique_counter ++;\n        unique_addr[list[i]]=true;\n      } else {\n        is_verified = false;\n      }\n    }\n    for (uint i = 0; i < list.length; i++) {\n      unique_addr[list[i]] = false;\n    }\n  }\n\n\n  /// signature methods.\n  function splitSignature(bytes memory sig)\n    internal\n    pure\n    returns (uint8 v, bytes32 r, bytes32 s)\n  {\n    require(sig.length == 65, \"Invalid Signature\");\n    assembly {\n      // first 32 bytes, after the length prefix.\n      r := mload(add(sig, 32))\n      // second 32 bytes.\n      s := mload(add(sig, 64))\n      // final byte (first byte of the next 32 bytes).\n      v := byte(0, mload(add(sig, 96)))\n    }\n    // TOCHECK: v needs 27 more, may related with EIP1559\n    return (v+27, r, s);\n  }\n\n  function recoverSigner(bytes32 message, bytes memory sig)\n    internal\n    pure\n    returns (address)\n  {\n    (uint8 v, bytes32 r, bytes32 s) = splitSignature(sig);\n    return ecrecover(message, v, r, s);\n  }\n\n  /*\n  * @param subnet block hash.\n  * @return HeaderInfo struct defined above.\n  */\n  function getHeader(bytes32 block_hash) public view returns (HeaderInfo memory) {\n    return HeaderInfo({\n      number: int256(uint256(uint64(header_tree[block_hash] >> 128))),\n      round_num: uint64(header_tree[block_hash] >> 64),\n      mainnet_num: int256(uint256(uint64(header_tree[block_hash])))\n    });\n  }\n\n  /*\n  * @param subnet block number.\n  * @return BlockLite struct defined above.\n  */\n  function getHeaderByNumber(int number) public view returns (HeaderInfo memory, bytes32) {\n    if (height_tree[uint64(uint(number))] == 0) {\n      return (\n        HeaderInfo({\n          number: 0,\n          round_num: 0,\n          mainnet_num: 0\n        }), 0\n      );\n    } else {\n      bytes32 block_hash = height_tree[uint64(uint(number))];\n      return (\n        HeaderInfo({\n          number: int(header_tree[block_hash] >> 128),\n          round_num: uint64(header_tree[block_hash] >> 64),\n          mainnet_num: int(uint(uint64(header_tree[block_hash])))\n        }), block_hash\n      );\n    }\n  }\n\n  function getCurrentEpochBlockByIndex(int idx) public view returns (HeaderInfo memory) {\n    if (uint256(idx) < current_tree.length) {\n      return (\n        HeaderInfo({\n          number: int(header_tree[current_tree[uint256(idx)]] >> 128),\n          round_num: uint64(header_tree[current_tree[uint256(idx)]] >> 64),\n          mainnet_num: int(uint(uint64(header_tree[current_tree[uint256(idx)]])))\n        })\n      );\n    } else {\n      return (\n        HeaderInfo({\n          number: 0,\n          round_num: 0,\n          mainnet_num: 0\n        })\n      );\n    }\n  }\n\n  function getNextEpochBlockByIndex(int idx) public view returns (HeaderInfo memory) {\n    if (uint256(idx) < next_tree.length) {\n      return (\n        HeaderInfo({\n          number: int(header_tree[next_tree[uint256(idx)]] >> 128),\n          round_num: uint64(header_tree[next_tree[uint256(idx)]] >> 64),\n          mainnet_num: int(uint(uint64(header_tree[next_tree[uint256(idx)]])))\n        })\n      );\n    } else {\n      return (\n        HeaderInfo({\n          number: 0,\n          round_num: 0,\n          mainnet_num: 0\n        })\n      );\n    }\n  }\n\n  /*\n  * @return pair of BlockLite structs defined above.\n  */\n  function getLatestBlocks() public view returns (BlockLite memory, BlockLite memory) {\n    return (\n      BlockLite({\n        block_hash: latest_current_epoch_block,\n        number: int(header_tree[latest_current_epoch_block] >> 128)\n      }),\n      BlockLite({\n        block_hash: latest_next_epoch_block,\n        number: int(header_tree[latest_next_epoch_block] >> 128)\n    }));\n  }\n\n  /*\n  * @return Validators struct defined above.\n  */\n  function getCurrentValidators() public view returns (Validators memory) {\n    return current_validators;\n  }\n\n}",
  "sourcePath": "/Users/sihengpan/Documents/XinFin/XDC-Subnet/mainnet_contract/contracts/Subnet.sol",
  "compiler": {
    "name": "solc",
    "version": "0.5.16+commit.9c3226ce.Emscripten.clang"
  },
  "schemaVersion": "3.4.1",
  "updatedAt": "2023-04-27T19:52:32.594Z",
  "devdoc": {
    "methods": {}
  },
  "userdoc": {
    "methods": {}
  }
}