{
  "contractName": "Subnet",
  "abi": [
    {
      "inputs": [
        {
          "internalType": "address[]",
          "name": "initial_validator_set",
          "type": "address[]"
        },
        {
          "internalType": "bytes",
          "name": "block1",
          "type": "bytes"
        },
        {
          "internalType": "uint64",
          "name": "gap",
          "type": "uint64"
        },
        {
          "internalType": "uint64",
          "name": "epoch",
          "type": "uint64"
        }
      ],
      "payable": false,
      "stateMutability": "nonpayable",
      "type": "constructor"
    },
    {
      "anonymous": false,
      "inputs": [
        {
          "indexed": false,
          "internalType": "bytes32",
          "name": "block_hash",
          "type": "bytes32"
        },
        {
          "indexed": false,
          "internalType": "uint64",
          "name": "number",
          "type": "uint64"
        }
      ],
      "name": "SubnetEpochBlockAccepted",
      "type": "event"
    },
    {
      "constant": true,
      "inputs": [
        {
          "internalType": "address",
          "name": "master",
          "type": "address"
        }
      ],
      "name": "isMaster",
      "outputs": [
        {
          "internalType": "bool",
          "name": "",
          "type": "bool"
        }
      ],
      "payable": false,
      "stateMutability": "view",
      "type": "function"
    },
    {
      "constant": false,
      "inputs": [
        {
          "internalType": "address",
          "name": "master",
          "type": "address"
        }
      ],
      "name": "addMaster",
      "outputs": [],
      "payable": false,
      "stateMutability": "nonpayable",
      "type": "function"
    },
    {
      "constant": false,
      "inputs": [
        {
          "internalType": "address",
          "name": "master",
          "type": "address"
        }
      ],
      "name": "removeMaster",
      "outputs": [],
      "payable": false,
      "stateMutability": "nonpayable",
      "type": "function"
    },
    {
      "constant": false,
      "inputs": [
        {
          "internalType": "bytes[]",
          "name": "headers",
          "type": "bytes[]"
        }
      ],
      "name": "receiveHeader",
      "outputs": [],
      "payable": false,
      "stateMutability": "nonpayable",
      "type": "function"
    },
    {
      "constant": true,
      "inputs": [
        {
          "internalType": "bytes32",
          "name": "block_hash",
          "type": "bytes32"
        }
      ],
      "name": "getHeader",
      "outputs": [
        {
          "components": [
            {
              "internalType": "int256",
              "name": "number",
              "type": "int256"
            },
            {
              "internalType": "uint64",
              "name": "round_num",
              "type": "uint64"
            },
            {
              "internalType": "int256",
              "name": "mainnet_num",
              "type": "int256"
            }
          ],
          "internalType": "struct Subnet.HeaderInfo",
          "name": "",
          "type": "tuple"
        }
      ],
      "payable": false,
      "stateMutability": "view",
      "type": "function"
    },
    {
      "constant": true,
      "inputs": [
        {
          "internalType": "int256",
          "name": "number",
          "type": "int256"
        }
      ],
      "name": "getHeaderByNumber",
      "outputs": [
        {
          "components": [
            {
              "internalType": "int256",
              "name": "number",
              "type": "int256"
            },
            {
              "internalType": "uint64",
              "name": "round_num",
              "type": "uint64"
            },
            {
              "internalType": "int256",
              "name": "mainnet_num",
              "type": "int256"
            }
          ],
          "internalType": "struct Subnet.HeaderInfo",
          "name": "",
          "type": "tuple"
        },
        {
          "internalType": "bytes32",
          "name": "",
          "type": "bytes32"
        }
      ],
      "payable": false,
      "stateMutability": "view",
      "type": "function"
    },
    {
      "constant": true,
      "inputs": [],
      "name": "getLatestBlocks",
      "outputs": [
        {
          "components": [
            {
              "internalType": "bytes32",
              "name": "block_hash",
              "type": "bytes32"
            },
            {
              "internalType": "int256",
              "name": "number",
              "type": "int256"
            }
          ],
          "internalType": "struct Subnet.BlockLite",
          "name": "",
          "type": "tuple"
        },
        {
          "components": [
            {
              "internalType": "bytes32",
              "name": "block_hash",
              "type": "bytes32"
            },
            {
              "internalType": "int256",
              "name": "number",
              "type": "int256"
            }
          ],
          "internalType": "struct Subnet.BlockLite",
          "name": "",
          "type": "tuple"
        }
      ],
      "payable": false,
      "stateMutability": "view",
      "type": "function"
    },
    {
      "constant": true,
      "inputs": [],
      "name": "getCurrentValidators",
      "outputs": [
        {
          "components": [
            {
              "internalType": "address[]",
              "name": "set",
              "type": "address[]"
            },
            {
              "internalType": "int256",
              "name": "threshold",
              "type": "int256"
            }
          ],
          "internalType": "struct Subnet.Validators",
          "name": "",
          "type": "tuple"
        }
      ],
      "payable": false,
      "stateMutability": "view",
      "type": "function"
    }
  ],
  "bytecode": "0x60806040526000600d556000801b600e553480156200001d57600080fd5b5060405162002c9338038062002c9383398181016040526200004391908101906200058d565b60008451116200008a576040517f08c379a000000000000000000000000000000000000000000000000000000000815260040162000081906200066d565b60405180910390fd5b60008380519060200120905060405180604001604052808681526020016003600288510281620000b657fe5b0481525060056000600181526020019081526020016000206000820151816000019080519060200190620000ec9291906200034a565b506020820151816001015590505060056000600181526020019081526020016000206006600082018160000190805462000128929190620003d9565b506001820154816001015590505062000147856200020360201b60201c565b6001600460003373ffffffffffffffffffffffffffffffffffffffff1673ffffffffffffffffffffffffffffffffffffffff16815260200190815260200160002060006101000a81548160ff0219169083151502179055508060088190555082600a60006101000a81548167ffffffffffffffff021916908367ffffffffffffffff16021790555081600a60086101000a81548167ffffffffffffffff021916908367ffffffffffffffff1602179055505050505050620007d6565b60008090505b600660000180549050811015620002bb57600060026000600660000184815481106200023157fe5b9060005260206000200160009054906101000a900473ffffffffffffffffffffffffffffffffffffffff1673ffffffffffffffffffffffffffffffffffffffff1673ffffffffffffffffffffffffffffffffffffffff16815260200190815260200160002060006101000a81548160ff021916908315150217905550808060010191505062000209565b5060008090505b81518110156200034657600160026000848481518110620002df57fe5b602002602001015173ffffffffffffffffffffffffffffffffffffffff1673ffffffffffffffffffffffffffffffffffffffff16815260200190815260200160002060006101000a81548160ff0219169083151502179055508080600101915050620002c2565b5050565b828054828255906000526020600020908101928215620003c6579160200282015b82811115620003c55782518260006101000a81548173ffffffffffffffffffffffffffffffffffffffff021916908373ffffffffffffffffffffffffffffffffffffffff160217905550916020019190600101906200036b565b5b509050620003d5919062000430565b5090565b8280548282559060005260206000209081019282156200041d5760005260206000209182015b828111156200041c578254825591600101919060010190620003ff565b5b5090506200042c919062000430565b5090565b6200047391905b808211156200046f57600081816101000a81549073ffffffffffffffffffffffffffffffffffffffff02191690555060010162000437565b5090565b90565b6000815190506200048781620007a2565b92915050565b600082601f8301126200049f57600080fd5b8151620004b6620004b082620006bd565b6200068f565b91508181835260208401935060208101905083856020840282011115620004dc57600080fd5b60005b83811015620005105781620004f5888262000476565b845260208401935060208301925050600181019050620004df565b5050505092915050565b600082601f8301126200052c57600080fd5b8151620005436200053d82620006e6565b6200068f565b915080825260208301602083018583830111156200056057600080fd5b6200056d8382846200076c565b50505092915050565b6000815190506200058781620007bc565b92915050565b60008060008060808587031215620005a457600080fd5b600085015167ffffffffffffffff811115620005bf57600080fd5b620005cd878288016200048d565b945050602085015167ffffffffffffffff811115620005eb57600080fd5b620005f9878288016200051a565b93505060406200060c8782880162000576565b92505060606200061f8782880162000576565b91505092959194509250565b60006200063a600f8362000713565b91507f56616c696461746f7220456d70747900000000000000000000000000000000006000830152602082019050919050565b6000602082019050818103600083015262000688816200062b565b9050919050565b6000604051905081810181811067ffffffffffffffff82111715620006b357600080fd5b8060405250919050565b600067ffffffffffffffff821115620006d557600080fd5b602082029050602081019050919050565b600067ffffffffffffffff821115620006fe57600080fd5b601f19601f8301169050602081019050919050565b600082825260208201905092915050565b6000620007318262000738565b9050919050565b600073ffffffffffffffffffffffffffffffffffffffff82169050919050565b600067ffffffffffffffff82169050919050565b60005b838110156200078c5780820151818401526020810190506200076f565b838111156200079c576000848401525b50505050565b620007ad8162000724565b8114620007b957600080fd5b50565b620007c78162000758565b8114620007d357600080fd5b50565b6124ad80620007e66000396000f3fe608060405234801561001057600080fd5b50600436106100885760003560e01c8063c5f9dff01161005b578063c5f9dff014610114578063e2a2f0a314610132578063eb71f0f81461014e578063f720f80b1461017f57610088565b80631097d54a1461008d57806366dcb0ba146100a9578063a20140c3146100c8578063b9615878146100e4575b600080fd5b6100a760048036036100a291908101906118ee565b6101af565b005b6100b1610296565b6040516100bf92919061219f565b60405180910390f35b6100e260048036036100dd9190810190611983565b610312565b005b6100fe60048036036100f991908101906119c4565b610d78565b60405161010b91906121c8565b60405180910390f35b61011c610dfe565b604051610129919061220c565b60405180910390f35b61014c600480360361014791908101906118ee565b610eb0565b005b61016860048036036101639190810190611a8e565b610f97565b6040516101769291906121e3565b60405180910390f35b610199600480360361019491908101906118ee565b6110b7565b6040516101a69190611f94565b60405180910390f35b600460003373ffffffffffffffffffffffffffffffffffffffff1673ffffffffffffffffffffffffffffffffffffffff16815260200190815260200160002060009054906101000a900460ff1661023b576040517f08c379a00000000000000000000000000000000000000000000000000000000081526004016102329061215f565b60405180910390fd5b6001600460008373ffffffffffffffffffffffffffffffffffffffff1673ffffffffffffffffffffffffffffffffffffffff16815260200190815260200160002060006101000a81548160ff02191690831515021790555050565b61029e6114c7565b6102a66114c7565b604051806040016040528060085481526020016080600080600854815260200190815260200160002054901c815250604051806040016040528060095481526020016080600080600954815260200190815260200160002054901c815250819150809050915091509091565b600460003373ffffffffffffffffffffffffffffffffffffffff1673ffffffffffffffffffffffffffffffffffffffff16815260200190815260200160002060009054906101000a900460ff1661039e576040517f08c379a00000000000000000000000000000000000000000000000000000000081526004016103959061215f565b60405180910390fd5b60008090505b8151811015610ce4576000806000806000606073__HeaderReader__________________________6344e06ed48989815181106103dd57fe5b60200260200101516040518263ffffffff1660e01b8152600401610401919061201d565b60006040518083038186803b15801561041957600080fd5b505af415801561042d573d6000803e3d6000fd5b505050506040513d6000823e3d601f19601f8201168201806040525061045691908101906119ed565b95509550955095509550955060608073__HeaderReader__________________________63750a2ae58b8b8151811061048b57fe5b60200260200101516040518263ffffffff1660e01b81526004016104af919061201d565b60006040518083038186803b1580156104c757600080fd5b505af41580156104db573d6000803e3d6000fd5b505050506040513d6000823e3d601f19601f820116820180604052506105049190810190611917565b9150915060008a8a8151811061051657fe5b602002602001015160405161052b9190611f7d565b6040518091039020905060008a14156109d25760008351118015610550575060008251115b15610590576040517f08c379a0000000000000000000000000000000000000000000000000000000008152600401610587906120df565b60405180910390fd5b60008351111561083557600a60089054906101000a900467ffffffffffffffff1667ffffffffffffffff168767ffffffffffffffff16816105cd57fe5b06870367ffffffffffffffff168667ffffffffffffffff1610156107f5576000600a60009054906101000a900467ffffffffffffffff1667ffffffffffffffff16600a60089054906101000a900467ffffffffffffffff1667ffffffffffffffff168a8161063757fe5b078a03039050600081121561064b57600090505b6001810190506000600560008381526020019081526020016000206001015413156107b45783516005600083815260200190815260200160002060000180549050146106cc576040517f08c379a00000000000000000000000000000000000000000000000000000000081526004016106c39061213f565b60405180910390fd5b61076f6005600083815260200190815260200160002060000180548060200260200160405190810160405280929190818152602001828054801561076557602002820191906000526020600020905b8160009054906101000a900473ffffffffffffffffffffffffffffffffffffffff1673ffffffffffffffffffffffffffffffffffffffff168152602001906001019080831161071b575b505050505061110d565b600560008281526020019081526020016000206006600082018160000190805461079a9291906114e4565b5060018201548160010155905050816008819055506107ef565b6040517f08c379a00000000000000000000000000000000000000000000000000000000081526004016107e69061217f565b60405180910390fd5b50610830565b6040517f08c379a0000000000000000000000000000000000000000000000000000000008152600401610827906120bf565b60405180910390fd5b6109ad565b6000825111156109ac576001600a60009054906101000a900467ffffffffffffffff16600a60089054906101000a900467ffffffffffffffff16030167ffffffffffffffff16600a60089054906101000a900467ffffffffffffffff1667ffffffffffffffff1689816108a457fe5b0767ffffffffffffffff1614156109705760006108c08361124e565b50905080610903576040517f08c379a00000000000000000000000000000000000000000000000000000000081526004016108fa9061211f565b60405180910390fd5b6040518060400160405280848152602001600360028651028161092257fe5b04815250600560008b81526020019081526020016000206000820151816000019080519060200190610955929190611536565b506020820151816001015590505081600981905550506109ab565b6040517f08c379a00000000000000000000000000000000000000000000000000000000081526004016109a29061207f565b60405180910390fd5b5b5b4360408867ffffffffffffffff16901b60808a901b1717600d8190555080600e819055505b60608451604051908082528060200260200182016040528015610a045781602001602082028038833980820191505090505b50905060008090505b8551811015610b1f576000610a3588888481518110610a2857fe5b60200260200101516113e4565b905060011515600260008373ffffffffffffffffffffffffffffffffffffffff1673ffffffffffffffffffffffffffffffffffffffff16815260200190815260200160002060009054906101000a900460ff16151514610aca576040517f08c379a0000000000000000000000000000000000000000000000000000000008152600401610ac19061209f565b60405180910390fd5b80838381518110610ad757fe5b602002602001019073ffffffffffffffffffffffffffffffffffffffff16908173ffffffffffffffffffffffffffffffffffffffff1681525050508080600101915050610a0d565b50600080610b2c8361124e565b9150915081610b70576040517f08c379a0000000000000000000000000000000000000000000000000000000008152600401610b679061209f565b60405180910390fd5b600660010154811215610bb8576040517f08c379a0000000000000000000000000000000000000000000000000000000008152600401610baf9061209f565b60405180910390fd5b60008d1115610c0657600b548c14610c05576040517f08c379a0000000000000000000000000000000000000000000000000000000008152600401610bfc9061203f565b60405180910390fd5b5b60018e51038d1015610c1a5783600b819055505b60038e51038d10610c95576001600c60009054906101000a900467ffffffffffffffff160167ffffffffffffffff168a67ffffffffffffffff1614610c94576040517f08c379a0000000000000000000000000000000000000000000000000000000008152600401610c8b9061205f565b60405180910390fd5b5b60038e51038d1115610ccb5789600c60006101000a81548167ffffffffffffffff021916908367ffffffffffffffff1602179055505b50505050505050505050505080806001019150506103a4565b50600d54600080600e54815260200190815260200160002081905550600e54600160006080600d54901c67ffffffffffffffff1667ffffffffffffffff168152602001908152602001600020819055507fed8dc7d015884c42fc36aab92ff085dd3db3528e489499315ac6a4ace36d7d89600e546080600d54901c604051610d6d929190611faf565b60405180910390a150565b610d806115c0565b6040518060600160405280608060008086815260200190815260200160002054901c67ffffffffffffffff168152602001604060008086815260200190815260200160002054901c67ffffffffffffffff1681526020016000808581526020019081526020016000205467ffffffffffffffff168152509050919050565b610e066115eb565b600660405180604001604052908160008201805480602002602001604051908101604052809291908181526020018280548015610e9857602002820191906000526020600020905b8160009054906101000a900473ffffffffffffffffffffffffffffffffffffffff1673ffffffffffffffffffffffffffffffffffffffff1681526020019060010190808311610e4e575b50505050508152602001600182015481525050905090565b600460003373ffffffffffffffffffffffffffffffffffffffff1673ffffffffffffffffffffffffffffffffffffffff16815260200190815260200160002060009054906101000a900460ff16610f3c576040517f08c379a0000000000000000000000000000000000000000000000000000000008152600401610f339061215f565b60405180910390fd5b6000600460008373ffffffffffffffffffffffffffffffffffffffff1673ffffffffffffffffffffffffffffffffffffffff16815260200190815260200160002060006101000a81548160ff02191690831515021790555050565b610f9f6115c0565b60008060001b600160008567ffffffffffffffff1667ffffffffffffffff16815260200190815260200160002054141561100f57604051806060016040528060008152602001600067ffffffffffffffff168152602001600081525060008191508060001b9050915091506110b2565b6000600160008567ffffffffffffffff1667ffffffffffffffff1681526020019081526020016000205490506040518060600160405280608060008085815260200190815260200160002054901c8152602001604060008085815260200190815260200160002054901c67ffffffffffffffff1681526020016000808481526020019081526020016000205467ffffffffffffffff168152508181915092509250505b915091565b6000600460008373ffffffffffffffffffffffffffffffffffffffff1673ffffffffffffffffffffffffffffffffffffffff16815260200190815260200160002060009054906101000a900460ff169050919050565b60008090505b6006600001805490508110156111c2576000600260006006600001848154811061113957fe5b9060005260206000200160009054906101000a900473ffffffffffffffffffffffffffffffffffffffff1673ffffffffffffffffffffffffffffffffffffffff1673ffffffffffffffffffffffffffffffffffffffff16815260200190815260200160002060006101000a81548160ff0219169083151502179055508080600101915050611113565b5060008090505b815181101561124a576001600260008484815181106111e457fe5b602002602001015173ffffffffffffffffffffffffffffffffffffffff1673ffffffffffffffffffffffffffffffffffffffff16815260200190815260200160002060006101000a81548160ff02191690831515021790555080806001019150506111c9565b5050565b600080600090506001915060008090505b8351811015611356576003600085838151811061127857fe5b602002602001015173ffffffffffffffffffffffffffffffffffffffff1673ffffffffffffffffffffffffffffffffffffffff16815260200190815260200160002060009054906101000a900460ff166113445781806001019250506001600360008684815181106112e657fe5b602002602001015173ffffffffffffffffffffffffffffffffffffffff1673ffffffffffffffffffffffffffffffffffffffff16815260200190815260200160002060006101000a81548160ff021916908315150217905550611349565b600092505b808060010191505061125f565b5060008090505b83518110156113de5760006003600086848151811061137857fe5b602002602001015173ffffffffffffffffffffffffffffffffffffffff1673ffffffffffffffffffffffffffffffffffffffff16815260200190815260200160002060006101000a81548160ff021916908315150217905550808060010191505061135d565b50915091565b6000806000806113f385611453565b9250925092506001868484846040516000815260200160405260405161141c9493929190611fd8565b6020604051602081039080840390855afa15801561143e573d6000803e3d6000fd5b50505060206040510351935050505092915050565b6000806000604184511461149c576040517f08c379a0000000000000000000000000000000000000000000000000000000008152600401611493906120ff565b60405180910390fd5b6020840151915060408401519050606084015160001a9250601b830182829250925092509193909250565b604051806040016040528060008019168152602001600081525090565b8280548282559060005260206000209081019282156115255760005260206000209182015b82811115611524578254825591600101919060010190611509565b5b5090506115329190611605565b5090565b8280548282559060005260206000209081019282156115af579160200282015b828111156115ae5782518260006101000a81548173ffffffffffffffffffffffffffffffffffffffff021916908373ffffffffffffffffffffffffffffffffffffffff16021790555091602001919060010190611556565b5b5090506115bc9190611605565b5090565b604051806060016040528060008152602001600067ffffffffffffffff168152602001600081525090565b604051806040016040528060608152602001600081525090565b61164591905b8082111561164157600081816101000a81549073ffffffffffffffffffffffffffffffffffffffff02191690555060010161160b565b5090565b90565b6000813590506116578161240e565b92915050565b60008151905061166c8161240e565b92915050565b600082601f83011261168357600080fd5b81516116966116918261225b565b61222e565b915081818352602084019350602081019050838560208402820111156116bb57600080fd5b60005b838110156116eb57816116d1888261165d565b8452602084019350602083019250506001810190506116be565b5050505092915050565b600082601f83011261170657600080fd5b813561171961171482612283565b61222e565b9150818183526020840193506020810190508360005b8381101561175f57813586016117458882611807565b84526020840193506020830192505060018101905061172f565b5050505092915050565b600082601f83011261177a57600080fd5b815161178d61178882612283565b61222e565b9150818183526020840193506020810190508360005b838110156117d357815186016117b9888261185b565b8452602084019350602083019250506001810190506117a3565b5050505092915050565b6000813590506117ec81612425565b92915050565b60008151905061180181612425565b92915050565b600082601f83011261181857600080fd5b813561182b611826826122ab565b61222e565b9150808252602083016020830185838301111561184757600080fd5b6118528382846123bb565b50505092915050565b600082601f83011261186c57600080fd5b815161187f61187a826122ab565b61222e565b9150808252602083016020830185838301111561189b57600080fd5b6118a68382846123ca565b50505092915050565b6000813590506118be8161243c565b92915050565b6000815190506118d38161243c565b92915050565b6000815190506118e881612453565b92915050565b60006020828403121561190057600080fd5b600061190e84828501611648565b91505092915050565b6000806040838503121561192a57600080fd5b600083015167ffffffffffffffff81111561194457600080fd5b61195085828601611672565b925050602083015167ffffffffffffffff81111561196d57600080fd5b61197985828601611672565b9150509250929050565b60006020828403121561199557600080fd5b600082013567ffffffffffffffff8111156119af57600080fd5b6119bb848285016116f5565b91505092915050565b6000602082840312156119d657600080fd5b60006119e4848285016117dd565b91505092915050565b60008060008060008060c08789031215611a0657600080fd5b6000611a1489828a016117f2565b9650506020611a2589828a016118c4565b9550506040611a3689828a016118d9565b9450506060611a4789828a016118d9565b9350506080611a5889828a016117f2565b92505060a087015167ffffffffffffffff811115611a7557600080fd5b611a8189828a01611769565b9150509295509295509295565b600060208284031215611aa057600080fd5b6000611aae848285016118af565b91505092915050565b6000611ac38383611acf565b60208301905092915050565b611ad881612348565b82525050565b6000611ae9826122e7565b611af3818561230a565b9350611afe836122d7565b8060005b83811015611b2f578151611b168882611ab7565b9750611b21836122fd565b925050600181019050611b02565b5085935050505092915050565b611b458161235a565b82525050565b611b5481612366565b82525050565b611b6381612366565b82525050565b6000611b74826122f2565b611b7e818561231b565b9350611b8e8185602086016123ca565b611b97816123fd565b840191505092915050565b6000611bad826122f2565b611bb7818561232c565b9350611bc78185602086016123ca565b80840191505092915050565b611bdc81612370565b82525050565b6000611bef601683612337565b91507f496e76616c696420426c6f636b2053657175656e6365000000000000000000006000830152602082019050919050565b6000611c2f601783612337565b91507f556e636f6d6d69747465642045706f636820426c6f636b0000000000000000006000830152602082019050919050565b6000611c6f601283612337565b91507f496e76616c6964204e65787420426c6f636b00000000000000000000000000006000830152602082019050919050565b6000611caf601183612337565b91507f566572696669636174696f6e204661696c0000000000000000000000000000006000830152602082019050919050565b6000611cef601583612337565b91507f496e76616c69642043757272656e7420426c6f636b00000000000000000000006000830152602082019050919050565b6000611d2f600f83612337565b91507f4d616c666f726d656420426c6f636b00000000000000000000000000000000006000830152602082019050919050565b6000611d6f601183612337565b91507f496e76616c6964205369676e61747572650000000000000000000000000000006000830152602082019050919050565b6000611daf601283612337565b91507f52657065617465642056616c696461746f7200000000000000000000000000006000830152602082019050919050565b6000611def601583612337565b91507f4d69736d6174636865642056616c696461746f727300000000000000000000006000830152602082019050919050565b6000611e2f600c83612337565b91507f4d617374657273204f6e6c7900000000000000000000000000000000000000006000830152602082019050919050565b6000611e6f601a83612337565b91507f4d697373696e672043757272656e742056616c696461746f72730000000000006000830152602082019050919050565b604082016000820151611eb86000850182611b4b565b506020820151611ecb6020850182611bd3565b50505050565b606082016000820151611ee76000850182611bd3565b506020820151611efa6020850182611f50565b506040820151611f0d6040850182611bd3565b50505050565b60006040830160008301518482036000860152611f308282611ade565b9150506020830151611f456020860182611bd3565b508091505092915050565b611f598161239a565b82525050565b611f688161239a565b82525050565b611f77816123ae565b82525050565b6000611f898284611ba2565b915081905092915050565b6000602082019050611fa96000830184611b3c565b92915050565b6000604082019050611fc46000830185611b5a565b611fd16020830184611f5f565b9392505050565b6000608082019050611fed6000830187611b5a565b611ffa6020830186611f6e565b6120076040830185611b5a565b6120146060830184611b5a565b95945050505050565b600060208201905081810360008301526120378184611b69565b905092915050565b6000602082019050818103600083015261205881611be2565b9050919050565b6000602082019050818103600083015261207881611c22565b9050919050565b6000602082019050818103600083015261209881611c62565b9050919050565b600060208201905081810360008301526120b881611ca2565b9050919050565b600060208201905081810360008301526120d881611ce2565b9050919050565b600060208201905081810360008301526120f881611d22565b9050919050565b6000602082019050818103600083015261211881611d62565b9050919050565b6000602082019050818103600083015261213881611da2565b9050919050565b6000602082019050818103600083015261215881611de2565b9050919050565b6000602082019050818103600083015261217881611e22565b9050919050565b6000602082019050818103600083015261219881611e62565b9050919050565b60006080820190506121b46000830185611ea2565b6121c16040830184611ea2565b9392505050565b60006060820190506121dd6000830184611ed1565b92915050565b60006080820190506121f86000830185611ed1565b6122056060830184611b5a565b9392505050565b600060208201905081810360008301526122268184611f13565b905092915050565b6000604051905081810181811067ffffffffffffffff8211171561225157600080fd5b8060405250919050565b600067ffffffffffffffff82111561227257600080fd5b602082029050602081019050919050565b600067ffffffffffffffff82111561229a57600080fd5b602082029050602081019050919050565b600067ffffffffffffffff8211156122c257600080fd5b601f19601f8301169050602081019050919050565b6000819050602082019050919050565b600081519050919050565b600081519050919050565b6000602082019050919050565b600082825260208201905092915050565b600082825260208201905092915050565b600081905092915050565b600082825260208201905092915050565b60006123538261237a565b9050919050565b60008115159050919050565b6000819050919050565b6000819050919050565b600073ffffffffffffffffffffffffffffffffffffffff82169050919050565b600067ffffffffffffffff82169050919050565b600060ff82169050919050565b82818337600083830152505050565b60005b838110156123e85780820151818401526020810190506123cd565b838111156123f7576000848401525b50505050565b6000601f19601f8301169050919050565b61241781612348565b811461242257600080fd5b50565b61242e81612366565b811461243957600080fd5b50565b61244581612370565b811461245057600080fd5b50565b61245c8161239a565b811461246757600080fd5b5056fea365627a7a723158204e16039cfcd7c187022fa2b62394a15af9dc446e075f2b22701dfacaf92298906c6578706572696d656e74616cf564736f6c63430005100040",
  "source": "// SPDX-License-Identifier: MIT\npragma solidity >=0.4.21 <0.9.0;\npragma experimental ABIEncoderV2;\n\nimport \"./HeaderReader.sol\";\n\ncontract Subnet {\n\n  struct HeaderInfo {\n    int number;\n    uint64 round_num;\n    int mainnet_num;\n  }\n\n  struct BlockLite {\n    bytes32 block_hash;\n    int number;\n  }\n\n  struct Validators {\n    address[] set;\n    int threshold;\n  }\n\n  mapping(bytes32 => uint256) header_tree; // padding 64 | uint64 number | uint64 round_num | uint64 mainnet_num\n  mapping(uint64 => bytes32) height_tree;\n  mapping(address => bool) lookup;\n  mapping(address => bool) unique_addr;\n  mapping(address => bool) masters;\n  mapping(int => Validators) validators;\n  Validators current_validators;\n  bytes32 latest_current_epoch_block;\n  bytes32 latest_next_epoch_block;\n  uint64 GAP;\n  uint64 EPOCH;\n\n  // Function temp space\n  bytes32 prev_hash;\n  uint64 prev_rn;\n  uint256 epoch_info = 0;\n  bytes32 epoch_hash = 0;\n\n  // Event types\n  event SubnetEpochBlockAccepted(bytes32 block_hash, uint64 number);\n\n  // Modifier\n  modifier onlyMasters() {\n    if (!masters[msg.sender]) revert(\"Masters Only\");\n    _;\n  }\n\n  constructor(\n    address[] memory initial_validator_set,\n    bytes memory block1,\n    uint64 gap,\n    uint64 epoch\n  ) public {\n    require(initial_validator_set.length > 0, \"Validator Empty\");\n    bytes32 block1_header_hash = keccak256(block1);\n    validators[1] = Validators({\n      set: initial_validator_set,\n      threshold: int256(initial_validator_set.length * 2 / 3)\n    });\n    current_validators = validators[1];\n    setLookup(initial_validator_set);\n    masters[msg.sender] = true;\n    latest_current_epoch_block = block1_header_hash;\n    GAP = gap;\n    EPOCH = epoch;\n  }\n\n  function isMaster(address master) public view returns (bool) {\n    return masters[master];\n  }\n\n  function addMaster(address master) public onlyMasters {\n    masters[master] = true;\n  }\n\n  function removeMaster(address master) public onlyMasters {\n    masters[master] = false;\n  }\n\n  /*\n  * @description core function in the contract, it can be summarized into three steps:\n  * 1. Verify subnet header meta information\n  * 2. Verify subnet header certificates\n  * 3. (Conditional) Update Committed Status for ancestor blocks\n  * @param list of rlp-encoded block headers.\n  */\n  function receiveHeader(bytes[] memory headers) public onlyMasters {\n    for (uint x = 0; x < headers.length; x++) {\n      (\n        bytes32 parent_hash,\n        int number,\n        uint64 round_number,\n        uint64 prev_round_number,\n        bytes32 signHash,\n        bytes[] memory sigs\n      ) = HeaderReader.getValidationParams(headers[x]);\n    \n      (\n        address[] memory current,\n        address[] memory next\n      ) = HeaderReader.getEpoch(headers[x]);\n      bytes32 block_hash = keccak256(headers[x]);\n      if (x == 0) {\n        if (current.length > 0 && next.length > 0) revert(\"Malformed Block\");\n        else if (current.length > 0) {\n          if (prev_round_number < round_number - (round_number % EPOCH)) {\n            int256 gap_number = number - number % int256(uint256(EPOCH)) - int256(uint256(GAP));\n            // Edge case at the beginning\n            if (gap_number < 0) {\n              gap_number = 0;\n            }\n            gap_number = gap_number + 1;\n            if (validators[gap_number].threshold > 0) {\n              if (validators[gap_number].set.length != current.length) revert(\"Mismatched Validators\");\n              setLookup(validators[gap_number].set);\n              current_validators = validators[gap_number];\n              latest_current_epoch_block = block_hash;\n              } else revert(\"Missing Current Validators\");\n            } else revert(\"Invalid Current Block\");\n          } else if (next.length > 0) {\n            if (uint64(uint256(number % int256(uint256(EPOCH)))) == EPOCH - GAP + 1) {\n\n              (bool is_validator_unique, ) = checkUniqueness(next);\n              if (!is_validator_unique) revert(\"Repeated Validator\");\n\n              validators[number] = Validators({\n                set: next,\n                threshold: int256(next.length * 2 / 3)\n              });\n              latest_next_epoch_block = block_hash;\n            } else\n              revert(\"Invalid Next Block\");\n          }\n          epoch_info = uint256(number) << 128 | uint256(round_number) << 64 | uint256(block.number);\n          epoch_hash = block_hash;\n      }\n\n      // Verify subnet header certificates\n      address[] memory signer_list = new address[](sigs.length);\n      for (uint i = 0; i < sigs.length; i++) {\n        address signer = recoverSigner(signHash, sigs[i]);\n        if (lookup[signer] != true) revert(\"Verification Fail\");\n        signer_list[i] = signer;\n      }\n      (bool is_unique, int unique_counter) = checkUniqueness(signer_list);\n      if (!is_unique) revert(\"Verification Fail\"); \n      if (unique_counter < current_validators.threshold) revert(\"Verification Fail\");\n\n      if (x > 0) {\n        if (parent_hash != prev_hash) revert(\"Invalid Block Sequence\");\n      }\n      if (x < headers.length - 1) prev_hash = block_hash;\n      if (x >= headers.length - 3) {\n        if (round_number != prev_rn + 1) revert(\"Uncommitted Epoch Block\");\n      }\n      if (x > headers.length - 3) prev_rn = round_number;\n    }\n    header_tree[epoch_hash] = epoch_info;\n    height_tree[uint64(epoch_info >> 128)] = epoch_hash;\n    emit SubnetEpochBlockAccepted(epoch_hash, uint64(epoch_info >> 128));\n  }\n\n  function setLookup(address[] memory validator_set) internal {\n    for (uint i = 0; i < current_validators.set.length; i++) {\n      lookup[current_validators.set[i]] = false;\n    }\n    for (uint i = 0; i < validator_set.length; i++) {\n      lookup[validator_set[i]] = true;\n    }\n  }\n\n  function checkUniqueness(address[] memory list) \n    internal \n    returns (bool is_unique, int unique_counter) \n  {\n    unique_counter = 0;\n    is_unique = true;\n    for (uint i = 0; i < list.length; i++) {\n      if (!unique_addr[list[i]]) {\n        unique_counter ++;\n        unique_addr[list[i]]=true;\n      } else {\n        is_unique = false;\n      }\n    }\n    for (uint i = 0; i < list.length; i++) {\n      unique_addr[list[i]] = false;\n    }\n  }\n\n\n  /// signature methods.\n  function splitSignature(bytes memory sig)\n    internal\n    pure\n    returns (uint8 v, bytes32 r, bytes32 s)\n  {\n    require(sig.length == 65, \"Invalid Signature\");\n    assembly {\n      // first 32 bytes, after the length prefix.\n      r := mload(add(sig, 32))\n      // second 32 bytes.\n      s := mload(add(sig, 64))\n      // final byte (first byte of the next 32 bytes).\n      v := byte(0, mload(add(sig, 96)))\n    }\n    // TOCHECK: v needs 27 more, may related with EIP1559\n    return (v+27, r, s);\n  }\n\n  function recoverSigner(bytes32 message, bytes memory sig)\n    internal\n    pure\n    returns (address)\n  {\n    (uint8 v, bytes32 r, bytes32 s) = splitSignature(sig);\n    return ecrecover(message, v, r, s);\n  }\n\n  /*\n  * @param subnet block hash.\n  * @return HeaderInfo struct defined above.\n  */\n  function getHeader(bytes32 block_hash) public view returns (HeaderInfo memory) {\n    return HeaderInfo({\n      number: int256(uint256(uint64(header_tree[block_hash] >> 128))),\n      round_num: uint64(header_tree[block_hash] >> 64),\n      mainnet_num: int256(uint256(uint64(header_tree[block_hash])))\n    });\n  }\n\n  /*\n  * @param subnet block number.\n  * @return BlockLite struct defined above.\n  */\n  function getHeaderByNumber(int number) public view returns (HeaderInfo memory, bytes32) {\n    if (height_tree[uint64(uint(number))] == 0) {\n      return (\n        HeaderInfo({\n          number: 0,\n          round_num: 0,\n          mainnet_num: 0\n        }), 0\n      );\n    } else {\n      bytes32 block_hash = height_tree[uint64(uint(number))];\n      return (\n        HeaderInfo({\n          number: int(header_tree[block_hash] >> 128),\n          round_num: uint64(header_tree[block_hash] >> 64),\n          mainnet_num: int(uint(uint64(header_tree[block_hash])))\n        }), block_hash\n      );\n    }\n  }\n\n  /*\n  * @return pair of BlockLite structs defined above.\n  */\n  function getLatestBlocks() public view returns (BlockLite memory, BlockLite memory) {\n    return (\n      BlockLite({\n        block_hash: latest_current_epoch_block,\n        number: int(header_tree[latest_current_epoch_block] >> 128)\n      }),\n      BlockLite({\n        block_hash: latest_next_epoch_block,\n        number: int(header_tree[latest_next_epoch_block] >> 128)\n    }));\n  }\n\n  /*\n  * @return Validators struct defined above.\n  */\n  function getCurrentValidators() public view returns (Validators memory) {\n    return current_validators;\n  }\n\n}",
  "sourcePath": "/Users/sihengpan/Documents/XinFin/XDC-Subnet/mainnet_contract/contracts/Subnet.sol",
  "compiler": {
    "name": "solc",
    "version": "0.5.16+commit.9c3226ce.Emscripten.clang"
  },
  "schemaVersion": "3.4.1",
  "updatedAt": "2023-04-26T20:08:43.337Z",
  "devdoc": {
    "methods": {}
  },
  "userdoc": {
    "methods": {}
  }
}