{
  "contractName": "Subnet",
  "abi": [
    {
      "inputs": [
        {
          "internalType": "address[]",
          "name": "initial_validator_set",
          "type": "address[]"
        },
        {
          "internalType": "bytes",
          "name": "block1",
          "type": "bytes"
        },
        {
          "internalType": "uint64",
          "name": "gap",
          "type": "uint64"
        },
        {
          "internalType": "uint64",
          "name": "epoch",
          "type": "uint64"
        }
      ],
      "payable": false,
      "stateMutability": "nonpayable",
      "type": "constructor"
    },
    {
      "anonymous": false,
      "inputs": [
        {
          "indexed": false,
          "internalType": "bytes32",
          "name": "block_hash",
          "type": "bytes32"
        },
        {
          "indexed": false,
          "internalType": "uint64",
          "name": "number",
          "type": "uint64"
        }
      ],
      "name": "SubnetEpochBlockAccepted",
      "type": "event"
    },
    {
      "constant": true,
      "inputs": [
        {
          "internalType": "address",
          "name": "master",
          "type": "address"
        }
      ],
      "name": "isMaster",
      "outputs": [
        {
          "internalType": "bool",
          "name": "",
          "type": "bool"
        }
      ],
      "payable": false,
      "stateMutability": "view",
      "type": "function"
    },
    {
      "constant": false,
      "inputs": [
        {
          "internalType": "address",
          "name": "master",
          "type": "address"
        }
      ],
      "name": "addMaster",
      "outputs": [],
      "payable": false,
      "stateMutability": "nonpayable",
      "type": "function"
    },
    {
      "constant": false,
      "inputs": [
        {
          "internalType": "address",
          "name": "master",
          "type": "address"
        }
      ],
      "name": "removeMaster",
      "outputs": [],
      "payable": false,
      "stateMutability": "nonpayable",
      "type": "function"
    },
    {
      "constant": false,
      "inputs": [
        {
          "internalType": "bytes[]",
          "name": "headers",
          "type": "bytes[]"
        }
      ],
      "name": "receiveHeader",
      "outputs": [],
      "payable": false,
      "stateMutability": "nonpayable",
      "type": "function"
    },
    {
      "constant": true,
      "inputs": [
        {
          "internalType": "bytes32",
          "name": "block_hash",
          "type": "bytes32"
        }
      ],
      "name": "getHeader",
      "outputs": [
        {
          "components": [
            {
              "internalType": "int256",
              "name": "number",
              "type": "int256"
            },
            {
              "internalType": "uint64",
              "name": "round_num",
              "type": "uint64"
            },
            {
              "internalType": "int256",
              "name": "mainnet_num",
              "type": "int256"
            }
          ],
          "internalType": "struct Subnet.HeaderInfo",
          "name": "",
          "type": "tuple"
        }
      ],
      "payable": false,
      "stateMutability": "view",
      "type": "function"
    },
    {
      "constant": true,
      "inputs": [
        {
          "internalType": "int256",
          "name": "number",
          "type": "int256"
        }
      ],
      "name": "getHeaderByNumber",
      "outputs": [
        {
          "components": [
            {
              "internalType": "int256",
              "name": "number",
              "type": "int256"
            },
            {
              "internalType": "uint64",
              "name": "round_num",
              "type": "uint64"
            },
            {
              "internalType": "int256",
              "name": "mainnet_num",
              "type": "int256"
            }
          ],
          "internalType": "struct Subnet.HeaderInfo",
          "name": "",
          "type": "tuple"
        },
        {
          "internalType": "bytes32",
          "name": "",
          "type": "bytes32"
        }
      ],
      "payable": false,
      "stateMutability": "view",
      "type": "function"
    },
    {
      "constant": true,
      "inputs": [
        {
          "internalType": "int256",
          "name": "idx",
          "type": "int256"
        }
      ],
      "name": "getCurrentEpochBlockByIndex",
      "outputs": [
        {
          "components": [
            {
              "internalType": "int256",
              "name": "number",
              "type": "int256"
            },
            {
              "internalType": "uint64",
              "name": "round_num",
              "type": "uint64"
            },
            {
              "internalType": "int256",
              "name": "mainnet_num",
              "type": "int256"
            }
          ],
          "internalType": "struct Subnet.HeaderInfo",
          "name": "",
          "type": "tuple"
        }
      ],
      "payable": false,
      "stateMutability": "view",
      "type": "function"
    },
    {
      "constant": true,
      "inputs": [
        {
          "internalType": "int256",
          "name": "idx",
          "type": "int256"
        }
      ],
      "name": "getNextEpochBlockByIndex",
      "outputs": [
        {
          "components": [
            {
              "internalType": "int256",
              "name": "number",
              "type": "int256"
            },
            {
              "internalType": "uint64",
              "name": "round_num",
              "type": "uint64"
            },
            {
              "internalType": "int256",
              "name": "mainnet_num",
              "type": "int256"
            }
          ],
          "internalType": "struct Subnet.HeaderInfo",
          "name": "",
          "type": "tuple"
        }
      ],
      "payable": false,
      "stateMutability": "view",
      "type": "function"
    },
    {
      "constant": true,
      "inputs": [],
      "name": "getLatestBlocks",
      "outputs": [
        {
          "components": [
            {
              "internalType": "bytes32",
              "name": "block_hash",
              "type": "bytes32"
            },
            {
              "internalType": "int256",
              "name": "number",
              "type": "int256"
            }
          ],
          "internalType": "struct Subnet.BlockLite",
          "name": "",
          "type": "tuple"
        },
        {
          "components": [
            {
              "internalType": "bytes32",
              "name": "block_hash",
              "type": "bytes32"
            },
            {
              "internalType": "int256",
              "name": "number",
              "type": "int256"
            }
          ],
          "internalType": "struct Subnet.BlockLite",
          "name": "",
          "type": "tuple"
        }
      ],
      "payable": false,
      "stateMutability": "view",
      "type": "function"
    },
    {
      "constant": true,
      "inputs": [],
      "name": "getCurrentValidators",
      "outputs": [
        {
          "components": [
            {
              "internalType": "address[]",
              "name": "set",
              "type": "address[]"
            },
            {
              "internalType": "int256",
              "name": "threshold",
              "type": "int256"
            }
          ],
          "internalType": "struct Subnet.Validators",
          "name": "",
          "type": "tuple"
        }
      ],
      "payable": false,
      "stateMutability": "view",
      "type": "function"
    }
  ],
  "bytecode": "0x60806040526000600f556000801b6010553480156200001d57600080fd5b50604051620030b6380380620030b683398181016040526200004391908101906200058d565b60008451116200008a576040517f08c379a000000000000000000000000000000000000000000000000000000000815260040162000081906200066d565b60405180910390fd5b60008380519060200120905060405180604001604052808681526020016003600288510281620000b657fe5b0481525060076000600181526020019081526020016000206000820151816000019080519060200190620000ec9291906200034a565b506020820151816001015590505060076000600181526020019081526020016000206008600082018160000190805462000128929190620003d9565b506001820154816001015590505062000147856200020360201b60201c565b6001600660003373ffffffffffffffffffffffffffffffffffffffff1673ffffffffffffffffffffffffffffffffffffffff16815260200190815260200160002060006101000a81548160ff02191690831515021790555080600a8190555082600c60006101000a81548167ffffffffffffffff021916908367ffffffffffffffff16021790555081600c60086101000a81548167ffffffffffffffff021916908367ffffffffffffffff1602179055505050505050620007d6565b60008090505b600860000180549050811015620002bb57600060046000600860000184815481106200023157fe5b9060005260206000200160009054906101000a900473ffffffffffffffffffffffffffffffffffffffff1673ffffffffffffffffffffffffffffffffffffffff1673ffffffffffffffffffffffffffffffffffffffff16815260200190815260200160002060006101000a81548160ff021916908315150217905550808060010191505062000209565b5060008090505b81518110156200034657600160046000848481518110620002df57fe5b602002602001015173ffffffffffffffffffffffffffffffffffffffff1673ffffffffffffffffffffffffffffffffffffffff16815260200190815260200160002060006101000a81548160ff0219169083151502179055508080600101915050620002c2565b5050565b828054828255906000526020600020908101928215620003c6579160200282015b82811115620003c55782518260006101000a81548173ffffffffffffffffffffffffffffffffffffffff021916908373ffffffffffffffffffffffffffffffffffffffff160217905550916020019190600101906200036b565b5b509050620003d5919062000430565b5090565b8280548282559060005260206000209081019282156200041d5760005260206000209182015b828111156200041c578254825591600101919060010190620003ff565b5b5090506200042c919062000430565b5090565b6200047391905b808211156200046f57600081816101000a81549073ffffffffffffffffffffffffffffffffffffffff02191690555060010162000437565b5090565b90565b6000815190506200048781620007a2565b92915050565b600082601f8301126200049f57600080fd5b8151620004b6620004b082620006bd565b6200068f565b91508181835260208401935060208101905083856020840282011115620004dc57600080fd5b60005b83811015620005105781620004f5888262000476565b845260208401935060208301925050600181019050620004df565b5050505092915050565b600082601f8301126200052c57600080fd5b8151620005436200053d82620006e6565b6200068f565b915080825260208301602083018583830111156200056057600080fd5b6200056d8382846200076c565b50505092915050565b6000815190506200058781620007bc565b92915050565b60008060008060808587031215620005a457600080fd5b600085015167ffffffffffffffff811115620005bf57600080fd5b620005cd878288016200048d565b945050602085015167ffffffffffffffff811115620005eb57600080fd5b620005f9878288016200051a565b93505060406200060c8782880162000576565b92505060606200061f8782880162000576565b91505092959194509250565b60006200063a600f8362000713565b91507f56616c696461746f7220456d70747900000000000000000000000000000000006000830152602082019050919050565b6000602082019050818103600083015262000688816200062b565b9050919050565b6000604051905081810181811067ffffffffffffffff82111715620006b357600080fd5b8060405250919050565b600067ffffffffffffffff821115620006d557600080fd5b602082029050602081019050919050565b600067ffffffffffffffff821115620006fe57600080fd5b601f19601f8301169050602081019050919050565b600082825260208201905092915050565b6000620007318262000738565b9050919050565b600073ffffffffffffffffffffffffffffffffffffffff82169050919050565b600067ffffffffffffffff82169050919050565b60005b838110156200078c5780820151818401526020810190506200076f565b838111156200079c576000848401525b50505050565b620007ad8162000724565b8114620007b957600080fd5b50565b620007c78162000758565b8114620007d357600080fd5b50565b6128d080620007e66000396000f3fe608060405234801561001057600080fd5b506004361061009e5760003560e01c8063c5f9dff011610066578063c5f9dff01461015a578063de70e8ea14610178578063e2a2f0a3146101a8578063eb71f0f8146101c4578063f720f80b146101f55761009e565b80631097d54a146100a357806347db3785146100bf57806366dcb0ba146100ef578063a20140c31461010e578063b96158781461012a575b600080fd5b6100bd60048036036100b89190810190611c51565b610225565b005b6100d960048036036100d49190810190611df1565b61030c565b6040516100e691906125eb565b60405180910390f35b6100f761040a565b6040516101059291906125c2565b60405180910390f35b61012860048036036101239190810190611ce6565b610486565b005b610144600480360361013f9190810190611d27565b610fdd565b60405161015191906125eb565b60405180910390f35b610162611063565b60405161016f919061262f565b60405180910390f35b610192600480360361018d9190810190611df1565b611115565b60405161019f91906125eb565b60405180910390f35b6101c260048036036101bd9190810190611c51565b611213565b005b6101de60048036036101d99190810190611df1565b6112fa565b6040516101ec929190612606565b60405180910390f35b61020f600480360361020a9190810190611c51565b61141a565b60405161021c9190612377565b60405180910390f35b600660003373ffffffffffffffffffffffffffffffffffffffff1673ffffffffffffffffffffffffffffffffffffffff16815260200190815260200160002060009054906101000a900460ff166102b1576040517f08c379a00000000000000000000000000000000000000000000000000000000081526004016102a890612562565b60405180910390fd5b6001600660008373ffffffffffffffffffffffffffffffffffffffff1673ffffffffffffffffffffffffffffffffffffffff16815260200190815260200160002060006101000a81548160ff02191690831515021790555050565b61031461182a565b6002805490508210156103da57604051806060016040528060806000806002878154811061033e57fe5b9060005260206000200154815260200190815260200160002054901c815260200160406000806002878154811061037157fe5b9060005260206000200154815260200190815260200160002054901c67ffffffffffffffff168152602001600080600286815481106103ac57fe5b906000526020600020015481526020019081526020016000205467ffffffffffffffff168152509050610405565b604051806060016040528060008152602001600067ffffffffffffffff168152602001600081525090505b919050565b610412611855565b61041a611855565b6040518060400160405280600a5481526020016080600080600a54815260200190815260200160002054901c8152506040518060400160405280600b5481526020016080600080600b54815260200190815260200160002054901c815250819150809050915091509091565b600660003373ffffffffffffffffffffffffffffffffffffffff1673ffffffffffffffffffffffffffffffffffffffff16815260200190815260200160002060009054906101000a900460ff16610512576040517f08c379a000000000000000000000000000000000000000000000000000000000815260040161050990612562565b60405180910390fd5b6003815111610556576040517f08c379a000000000000000000000000000000000000000000000000000000000815260040161054d90612582565b60405180910390fd5b60008090505b8151811015610f49576000806000806000606073__HeaderReader__________________________6344e06ed489898151811061059557fe5b60200260200101516040518263ffffffff1660e01b81526004016105b99190612400565b60006040518083038186803b1580156105d157600080fd5b505af41580156105e5573d6000803e3d6000fd5b505050506040513d6000823e3d601f19601f8201168201806040525061060e9190810190611d50565b95509550955095509550955060608073__HeaderReader__________________________63750a2ae58b8b8151811061064357fe5b60200260200101516040518263ffffffff1660e01b81526004016106679190612400565b60006040518083038186803b15801561067f57600080fd5b505af4158015610693573d6000803e3d6000fd5b505050506040513d6000823e3d601f19601f820116820180604052506106bc9190810190611c7a565b9150915060008a8a815181106106ce57fe5b60200260200101516040516106e39190612360565b6040518091039020905060008a1415610c37576000806000838152602001908152602001600020541461074b576040517f08c379a0000000000000000000000000000000000000000000000000000000008152600401610742906124a2565b60405180910390fd5b6000835111801561075d575060008251115b1561079d576040517f08c379a0000000000000000000000000000000000000000000000000000000008152600401610794906124e2565b60405180910390fd5b600083511115610a6e57600c60089054906101000a900467ffffffffffffffff1667ffffffffffffffff168767ffffffffffffffff16816107da57fe5b06870367ffffffffffffffff168667ffffffffffffffff161015610a2e576000600c60009054906101000a900467ffffffffffffffff1667ffffffffffffffff16600c60089054906101000a900467ffffffffffffffff1667ffffffffffffffff168a8161084457fe5b078a03039050600081121561085857600090505b6001810190506000600760008381526020019081526020016000206001015413156109ed5783516007600083815260200190815260200160002060000180549050146108d9576040517f08c379a00000000000000000000000000000000000000000000000000000000081526004016108d090612542565b60405180910390fd5b61097c6007600083815260200190815260200160002060000180548060200260200160405190810160405280929190818152602001828054801561097257602002820191906000526020600020905b8160009054906101000a900473ffffffffffffffffffffffffffffffffffffffff1673ffffffffffffffffffffffffffffffffffffffff1681526020019060010190808311610928575b5050505050611470565b60076000828152602001908152602001600020600860008201816000019080546109a7929190611872565b506001820154816001015590505081600a819055506002829080600181540180825580915050906001820390600052602060002001600090919290919091505550610a28565b6040517f08c379a0000000000000000000000000000000000000000000000000000000008152600401610a1f906125a2565b60405180910390fd5b50610a69565b6040517f08c379a0000000000000000000000000000000000000000000000000000000008152600401610a60906124c2565b60405180910390fd5b610c12565b600082511115610c11576001600c60009054906101000a900467ffffffffffffffff16600c60089054906101000a900467ffffffffffffffff16030167ffffffffffffffff16600c60089054906101000a900467ffffffffffffffff1667ffffffffffffffff168981610add57fe5b0767ffffffffffffffff161415610bd5576000610af9836115b1565b50905080610b3c576040517f08c379a0000000000000000000000000000000000000000000000000000000008152600401610b3390612522565b60405180910390fd5b60405180604001604052808481526020016003600286510281610b5b57fe5b04815250600760008b81526020019081526020016000206000820151816000019080519060200190610b8e9291906118c4565b506020820151816001015590505081600b81905550600382908060018154018082558091505090600182039060005260206000200160009091929091909150555050610c10565b6040517f08c379a0000000000000000000000000000000000000000000000000000000008152600401610c0790612462565b60405180910390fd5b5b5b4360408867ffffffffffffffff16901b60808a901b1717600f81905550806010819055505b60608451604051908082528060200260200182016040528015610c695781602001602082028038833980820191505090505b50905060008090505b8551811015610d84576000610c9a88888481518110610c8d57fe5b6020026020010151611747565b905060011515600460008373ffffffffffffffffffffffffffffffffffffffff1673ffffffffffffffffffffffffffffffffffffffff16815260200190815260200160002060009054906101000a900460ff16151514610d2f576040517f08c379a0000000000000000000000000000000000000000000000000000000008152600401610d2690612482565b60405180910390fd5b80838381518110610d3c57fe5b602002602001019073ffffffffffffffffffffffffffffffffffffffff16908173ffffffffffffffffffffffffffffffffffffffff1681525050508080600101915050610c72565b50600080610d91836115b1565b9150915081610dd5576040517f08c379a0000000000000000000000000000000000000000000000000000000008152600401610dcc90612482565b60405180910390fd5b600860010154811215610e1d576040517f08c379a0000000000000000000000000000000000000000000000000000000008152600401610e1490612482565b60405180910390fd5b60008d1115610e6b57600d548c14610e6a576040517f08c379a0000000000000000000000000000000000000000000000000000000008152600401610e6190612422565b60405180910390fd5b5b60018e51038d1015610e7f5783600d819055505b60038e51038d1115610efb576001600e60009054906101000a900467ffffffffffffffff160167ffffffffffffffff168a67ffffffffffffffff1614610efa576040517f08c379a0000000000000000000000000000000000000000000000000000000008152600401610ef190612442565b60405180910390fd5b5b60038e51038d10610f305789600e60006101000a81548167ffffffffffffffff021916908367ffffffffffffffff1602179055505b505050505050505050505050808060010191505061055c565b50600f54600080601054815260200190815260200160002081905550601054600160006080600f54901c67ffffffffffffffff1667ffffffffffffffff168152602001908152602001600020819055507fed8dc7d015884c42fc36aab92ff085dd3db3528e489499315ac6a4ace36d7d896010546080600f54901c604051610fd2929190612392565b60405180910390a150565b610fe561182a565b6040518060600160405280608060008086815260200190815260200160002054901c67ffffffffffffffff168152602001604060008086815260200190815260200160002054901c67ffffffffffffffff1681526020016000808581526020019081526020016000205467ffffffffffffffff168152509050919050565b61106b61194e565b6008604051806040016040529081600082018054806020026020016040519081016040528092919081815260200182805480156110fd57602002820191906000526020600020905b8160009054906101000a900473ffffffffffffffffffffffffffffffffffffffff1673ffffffffffffffffffffffffffffffffffffffff16815260200190600101908083116110b3575b50505050508152602001600182015481525050905090565b61111d61182a565b6003805490508210156111e357604051806060016040528060806000806003878154811061114757fe5b9060005260206000200154815260200190815260200160002054901c815260200160406000806003878154811061117a57fe5b9060005260206000200154815260200190815260200160002054901c67ffffffffffffffff168152602001600080600386815481106111b557fe5b906000526020600020015481526020019081526020016000205467ffffffffffffffff16815250905061120e565b604051806060016040528060008152602001600067ffffffffffffffff168152602001600081525090505b919050565b600660003373ffffffffffffffffffffffffffffffffffffffff1673ffffffffffffffffffffffffffffffffffffffff16815260200190815260200160002060009054906101000a900460ff1661129f576040517f08c379a000000000000000000000000000000000000000000000000000000000815260040161129690612562565b60405180910390fd5b6000600660008373ffffffffffffffffffffffffffffffffffffffff1673ffffffffffffffffffffffffffffffffffffffff16815260200190815260200160002060006101000a81548160ff02191690831515021790555050565b61130261182a565b60008060001b600160008567ffffffffffffffff1667ffffffffffffffff16815260200190815260200160002054141561137257604051806060016040528060008152602001600067ffffffffffffffff168152602001600081525060008191508060001b905091509150611415565b6000600160008567ffffffffffffffff1667ffffffffffffffff1681526020019081526020016000205490506040518060600160405280608060008085815260200190815260200160002054901c8152602001604060008085815260200190815260200160002054901c67ffffffffffffffff1681526020016000808481526020019081526020016000205467ffffffffffffffff168152508181915092509250505b915091565b6000600660008373ffffffffffffffffffffffffffffffffffffffff1673ffffffffffffffffffffffffffffffffffffffff16815260200190815260200160002060009054906101000a900460ff169050919050565b60008090505b600860000180549050811015611525576000600460006008600001848154811061149c57fe5b9060005260206000200160009054906101000a900473ffffffffffffffffffffffffffffffffffffffff1673ffffffffffffffffffffffffffffffffffffffff1673ffffffffffffffffffffffffffffffffffffffff16815260200190815260200160002060006101000a81548160ff0219169083151502179055508080600101915050611476565b5060008090505b81518110156115ad5760016004600084848151811061154757fe5b602002602001015173ffffffffffffffffffffffffffffffffffffffff1673ffffffffffffffffffffffffffffffffffffffff16815260200190815260200160002060006101000a81548160ff021916908315150217905550808060010191505061152c565b5050565b600080600090506001915060008090505b83518110156116b957600560008583815181106115db57fe5b602002602001015173ffffffffffffffffffffffffffffffffffffffff1673ffffffffffffffffffffffffffffffffffffffff16815260200190815260200160002060009054906101000a900460ff166116a757818060010192505060016005600086848151811061164957fe5b602002602001015173ffffffffffffffffffffffffffffffffffffffff1673ffffffffffffffffffffffffffffffffffffffff16815260200190815260200160002060006101000a81548160ff0219169083151502179055506116ac565b600092505b80806001019150506115c2565b5060008090505b8351811015611741576000600560008684815181106116db57fe5b602002602001015173ffffffffffffffffffffffffffffffffffffffff1673ffffffffffffffffffffffffffffffffffffffff16815260200190815260200160002060006101000a81548160ff02191690831515021790555080806001019150506116c0565b50915091565b600080600080611756856117b6565b9250925092506001868484846040516000815260200160405260405161177f94939291906123bb565b6020604051602081039080840390855afa1580156117a1573d6000803e3d6000fd5b50505060206040510351935050505092915050565b600080600060418451146117ff576040517f08c379a00000000000000000000000000000000000000000000000000000000081526004016117f690612502565b60405180910390fd5b6020840151915060408401519050606084015160001a9250601b830182829250925092509193909250565b604051806060016040528060008152602001600067ffffffffffffffff168152602001600081525090565b604051806040016040528060008019168152602001600081525090565b8280548282559060005260206000209081019282156118b35760005260206000209182015b828111156118b2578254825591600101919060010190611897565b5b5090506118c09190611968565b5090565b82805482825590600052602060002090810192821561193d579160200282015b8281111561193c5782518260006101000a81548173ffffffffffffffffffffffffffffffffffffffff021916908373ffffffffffffffffffffffffffffffffffffffff160217905550916020019190600101906118e4565b5b50905061194a9190611968565b5090565b604051806040016040528060608152602001600081525090565b6119a891905b808211156119a457600081816101000a81549073ffffffffffffffffffffffffffffffffffffffff02191690555060010161196e565b5090565b90565b6000813590506119ba81612831565b92915050565b6000815190506119cf81612831565b92915050565b600082601f8301126119e657600080fd5b81516119f96119f48261267e565b612651565b91508181835260208401935060208101905083856020840282011115611a1e57600080fd5b60005b83811015611a4e5781611a3488826119c0565b845260208401935060208301925050600181019050611a21565b5050505092915050565b600082601f830112611a6957600080fd5b8135611a7c611a77826126a6565b612651565b9150818183526020840193506020810190508360005b83811015611ac25781358601611aa88882611b6a565b845260208401935060208301925050600181019050611a92565b5050505092915050565b600082601f830112611add57600080fd5b8151611af0611aeb826126a6565b612651565b9150818183526020840193506020810190508360005b83811015611b365781518601611b1c8882611bbe565b845260208401935060208301925050600181019050611b06565b5050505092915050565b600081359050611b4f81612848565b92915050565b600081519050611b6481612848565b92915050565b600082601f830112611b7b57600080fd5b8135611b8e611b89826126ce565b612651565b91508082526020830160208301858383011115611baa57600080fd5b611bb58382846127de565b50505092915050565b600082601f830112611bcf57600080fd5b8151611be2611bdd826126ce565b612651565b91508082526020830160208301858383011115611bfe57600080fd5b611c098382846127ed565b50505092915050565b600081359050611c218161285f565b92915050565b600081519050611c368161285f565b92915050565b600081519050611c4b81612876565b92915050565b600060208284031215611c6357600080fd5b6000611c71848285016119ab565b91505092915050565b60008060408385031215611c8d57600080fd5b600083015167ffffffffffffffff811115611ca757600080fd5b611cb3858286016119d5565b925050602083015167ffffffffffffffff811115611cd057600080fd5b611cdc858286016119d5565b9150509250929050565b600060208284031215611cf857600080fd5b600082013567ffffffffffffffff811115611d1257600080fd5b611d1e84828501611a58565b91505092915050565b600060208284031215611d3957600080fd5b6000611d4784828501611b40565b91505092915050565b60008060008060008060c08789031215611d6957600080fd5b6000611d7789828a01611b55565b9650506020611d8889828a01611c27565b9550506040611d9989828a01611c3c565b9450506060611daa89828a01611c3c565b9350506080611dbb89828a01611b55565b92505060a087015167ffffffffffffffff811115611dd857600080fd5b611de489828a01611acc565b9150509295509295509295565b600060208284031215611e0357600080fd5b6000611e1184828501611c12565b91505092915050565b6000611e268383611e32565b60208301905092915050565b611e3b8161276b565b82525050565b6000611e4c8261270a565b611e56818561272d565b9350611e61836126fa565b8060005b83811015611e92578151611e798882611e1a565b9750611e8483612720565b925050600181019050611e65565b5085935050505092915050565b611ea88161277d565b82525050565b611eb781612789565b82525050565b611ec681612789565b82525050565b6000611ed782612715565b611ee1818561273e565b9350611ef18185602086016127ed565b611efa81612820565b840191505092915050565b6000611f1082612715565b611f1a818561274f565b9350611f2a8185602086016127ed565b80840191505092915050565b611f3f81612793565b82525050565b6000611f5260168361275a565b91507f496e76616c696420426c6f636b2053657175656e6365000000000000000000006000830152602082019050919050565b6000611f9260178361275a565b91507f556e636f6d6d69747465642045706f636820426c6f636b0000000000000000006000830152602082019050919050565b6000611fd260128361275a565b91507f496e76616c6964204e65787420426c6f636b00000000000000000000000000006000830152602082019050919050565b600061201260118361275a565b91507f566572696669636174696f6e204661696c0000000000000000000000000000006000830152602082019050919050565b6000612052600e8361275a565b91507f526570656174656420426c6f636b0000000000000000000000000000000000006000830152602082019050919050565b600061209260158361275a565b91507f496e76616c69642043757272656e7420426c6f636b00000000000000000000006000830152602082019050919050565b60006120d2600f8361275a565b91507f4d616c666f726d656420426c6f636b00000000000000000000000000000000006000830152602082019050919050565b600061211260118361275a565b91507f496e76616c6964205369676e61747572650000000000000000000000000000006000830152602082019050919050565b600061215260128361275a565b91507f52657065617465642056616c696461746f7200000000000000000000000000006000830152602082019050919050565b600061219260158361275a565b91507f4d69736d6174636865642056616c696461746f727300000000000000000000006000830152602082019050919050565b60006121d2600c8361275a565b91507f4d617374657273204f6e6c7900000000000000000000000000000000000000006000830152602082019050919050565b600061221260108361275a565b91507f496e76616c69642053657175656e6365000000000000000000000000000000006000830152602082019050919050565b6000612252601a8361275a565b91507f4d697373696e672043757272656e742056616c696461746f72730000000000006000830152602082019050919050565b60408201600082015161229b6000850182611eae565b5060208201516122ae6020850182611f36565b50505050565b6060820160008201516122ca6000850182611f36565b5060208201516122dd6020850182612333565b5060408201516122f06040850182611f36565b50505050565b600060408301600083015184820360008601526123138282611e41565b91505060208301516123286020860182611f36565b508091505092915050565b61233c816127bd565b82525050565b61234b816127bd565b82525050565b61235a816127d1565b82525050565b600061236c8284611f05565b915081905092915050565b600060208201905061238c6000830184611e9f565b92915050565b60006040820190506123a76000830185611ebd565b6123b46020830184612342565b9392505050565b60006080820190506123d06000830187611ebd565b6123dd6020830186612351565b6123ea6040830185611ebd565b6123f76060830184611ebd565b95945050505050565b6000602082019050818103600083015261241a8184611ecc565b905092915050565b6000602082019050818103600083015261243b81611f45565b9050919050565b6000602082019050818103600083015261245b81611f85565b9050919050565b6000602082019050818103600083015261247b81611fc5565b9050919050565b6000602082019050818103600083015261249b81612005565b9050919050565b600060208201905081810360008301526124bb81612045565b9050919050565b600060208201905081810360008301526124db81612085565b9050919050565b600060208201905081810360008301526124fb816120c5565b9050919050565b6000602082019050818103600083015261251b81612105565b9050919050565b6000602082019050818103600083015261253b81612145565b9050919050565b6000602082019050818103600083015261255b81612185565b9050919050565b6000602082019050818103600083015261257b816121c5565b9050919050565b6000602082019050818103600083015261259b81612205565b9050919050565b600060208201905081810360008301526125bb81612245565b9050919050565b60006080820190506125d76000830185612285565b6125e46040830184612285565b9392505050565b600060608201905061260060008301846122b4565b92915050565b600060808201905061261b60008301856122b4565b6126286060830184611ebd565b9392505050565b6000602082019050818103600083015261264981846122f6565b905092915050565b6000604051905081810181811067ffffffffffffffff8211171561267457600080fd5b8060405250919050565b600067ffffffffffffffff82111561269557600080fd5b602082029050602081019050919050565b600067ffffffffffffffff8211156126bd57600080fd5b602082029050602081019050919050565b600067ffffffffffffffff8211156126e557600080fd5b601f19601f8301169050602081019050919050565b6000819050602082019050919050565b600081519050919050565b600081519050919050565b6000602082019050919050565b600082825260208201905092915050565b600082825260208201905092915050565b600081905092915050565b600082825260208201905092915050565b60006127768261279d565b9050919050565b60008115159050919050565b6000819050919050565b6000819050919050565b600073ffffffffffffffffffffffffffffffffffffffff82169050919050565b600067ffffffffffffffff82169050919050565b600060ff82169050919050565b82818337600083830152505050565b60005b8381101561280b5780820151818401526020810190506127f0565b8381111561281a576000848401525b50505050565b6000601f19601f8301169050919050565b61283a8161276b565b811461284557600080fd5b50565b61285181612789565b811461285c57600080fd5b50565b61286881612793565b811461287357600080fd5b50565b61287f816127bd565b811461288a57600080fd5b5056fea365627a7a72315820f525a7c8c683553c985d6eafed4447d2b9fcc9aa23fe48f829adba2711ee4b416c6578706572696d656e74616cf564736f6c63430005100040",
  "source": "// SPDX-License-Identifier: MIT\npragma solidity >=0.4.21 <0.9.0;\npragma experimental ABIEncoderV2;\n\nimport \"./HeaderReader.sol\";\n\ncontract Subnet {\n\n  struct HeaderInfo {\n    int number;\n    uint64 round_num;\n    int mainnet_num;\n  }\n\n  struct BlockLite {\n    bytes32 block_hash;\n    int number;\n  }\n\n  struct Validators {\n    address[] set;\n    int threshold;\n  }\n\n  mapping(bytes32 => uint256) header_tree; // padding 64 | uint64 number | uint64 round_num | uint64 mainnet_num\n  mapping(uint64 => bytes32) height_tree;\n  bytes32[] current_tree;\n  bytes32[] next_tree;\n  mapping(address => bool) lookup;\n  mapping(address => bool) unique_addr;\n  mapping(address => bool) masters;\n  mapping(int => Validators) validators;\n  Validators current_validators;\n  bytes32 latest_current_epoch_block;\n  bytes32 latest_next_epoch_block;\n  uint64 GAP;\n  uint64 EPOCH;\n\n  // Function temp space\n  bytes32 prev_hash;\n  uint64 prev_rn;\n  uint256 epoch_info = 0;\n  bytes32 epoch_hash = 0;\n\n  // Event types\n  event SubnetEpochBlockAccepted(bytes32 block_hash, uint64 number);\n\n  // Modifier\n  modifier onlyMasters() {\n    if (!masters[msg.sender]) revert(\"Masters Only\");\n    _;\n  }\n\n  constructor(\n    address[] memory initial_validator_set,\n    bytes memory block1,\n    uint64 gap,\n    uint64 epoch\n  ) public {\n    require(initial_validator_set.length > 0, \"Validator Empty\");\n    bytes32 block1_header_hash = keccak256(block1);\n    validators[1] = Validators({\n      set: initial_validator_set,\n      threshold: int256(initial_validator_set.length * 2 / 3)\n    });\n    current_validators = validators[1];\n    setLookup(initial_validator_set);\n    masters[msg.sender] = true;\n    latest_current_epoch_block = block1_header_hash;\n    GAP = gap;\n    EPOCH = epoch;\n  }\n\n  function isMaster(address master) public view returns (bool) {\n    return masters[master];\n  }\n\n  function addMaster(address master) public onlyMasters {\n    masters[master] = true;\n  }\n\n  function removeMaster(address master) public onlyMasters {\n    masters[master] = false;\n  }\n\n  /*\n  * @description core function in the contract, it can be summarized into three steps:\n  * 1. Verify subnet header meta information\n  * 2. Verify subnet header certificates\n  * 3. (Conditional) Update Committed Status for ancestor blocks\n  * @param list of rlp-encoded block headers.\n  */\n  function receiveHeader(bytes[] memory headers) public onlyMasters {\n    require(headers.length > 3, \"Invalid Sequence\");\n    for (uint x = 0; x < headers.length; x++) {\n      (\n        bytes32 parent_hash,\n        int number,\n        uint64 round_number,\n        uint64 prev_round_number,\n        bytes32 signHash,\n        bytes[] memory sigs\n      ) = HeaderReader.getValidationParams(headers[x]);\n    \n      (\n        address[] memory current,\n        address[] memory next\n      ) = HeaderReader.getEpoch(headers[x]);\n      bytes32 block_hash = keccak256(headers[x]);\n      if (x == 0) {\n        if (header_tree[block_hash] != 0) revert(\"Repeated Block\");\n        if (current.length > 0 && next.length > 0) revert(\"Malformed Block\");\n        else if (current.length > 0) {\n          if (prev_round_number < round_number - (round_number % EPOCH)) {\n            int256 gap_number = number - number % int256(uint256(EPOCH)) - int256(uint256(GAP));\n            // Edge case at the beginning\n            if (gap_number < 0) {\n              gap_number = 0;\n            }\n            gap_number = gap_number + 1;\n            if (validators[gap_number].threshold > 0) {\n              if (validators[gap_number].set.length != current.length) revert(\"Mismatched Validators\");\n              setLookup(validators[gap_number].set);\n              current_validators = validators[gap_number];\n              latest_current_epoch_block = block_hash;\n              current_tree.push(block_hash); \n              } else revert(\"Missing Current Validators\");\n            } else revert(\"Invalid Current Block\");\n          } else if (next.length > 0) {\n            if (uint64(uint256(number % int256(uint256(EPOCH)))) == EPOCH - GAP + 1) {\n\n              (bool is_validator_unique, ) = checkUniqueness(next);\n              if (!is_validator_unique) revert(\"Repeated Validator\");\n\n              validators[number] = Validators({\n                set: next,\n                threshold: int256(next.length * 2 / 3)\n              });\n              latest_next_epoch_block = block_hash;\n              next_tree.push(block_hash);\n            } else\n              revert(\"Invalid Next Block\");\n          }\n          epoch_info = uint256(number) << 128 | uint256(round_number) << 64 | uint256(block.number);\n          epoch_hash = block_hash;\n      }\n\n      // Verify subnet header certificates\n      address[] memory signer_list = new address[](sigs.length);\n      for (uint i = 0; i < sigs.length; i++) {\n        address signer = recoverSigner(signHash, sigs[i]);\n        if (lookup[signer] != true) revert(\"Verification Fail\");\n        signer_list[i] = signer;\n      }\n      (bool is_unique, int unique_counter) = checkUniqueness(signer_list);\n      if (!is_unique) revert(\"Verification Fail\"); \n      if (unique_counter < current_validators.threshold) revert(\"Verification Fail\");\n\n      if (x > 0) {\n        if (parent_hash != prev_hash) revert(\"Invalid Block Sequence\");\n      }\n      if (x < headers.length - 1) prev_hash = block_hash;\n      if (x > headers.length - 3) {\n        if (round_number != prev_rn + 1) revert(\"Uncommitted Epoch Block\");\n      }\n      if (x >= headers.length - 3) prev_rn = round_number;\n    }\n    header_tree[epoch_hash] = epoch_info;\n    height_tree[uint64(epoch_info >> 128)] = epoch_hash;\n    emit SubnetEpochBlockAccepted(epoch_hash, uint64(epoch_info >> 128));\n  }\n\n  function setLookup(address[] memory validator_set) internal {\n    for (uint i = 0; i < current_validators.set.length; i++) {\n      lookup[current_validators.set[i]] = false;\n    }\n    for (uint i = 0; i < validator_set.length; i++) {\n      lookup[validator_set[i]] = true;\n    }\n  }\n\n  function checkUniqueness(address[] memory list) \n    internal \n    returns (bool is_verified, int unique_counter) \n  {\n    unique_counter = 0;\n    is_verified = true;\n    for (uint i = 0; i < list.length; i++) {\n      if (!unique_addr[list[i]]) {\n        unique_counter ++;\n        unique_addr[list[i]]=true;\n      } else {\n        is_verified = false;\n      }\n    }\n    for (uint i = 0; i < list.length; i++) {\n      unique_addr[list[i]] = false;\n    }\n  }\n\n\n  /// signature methods.\n  function splitSignature(bytes memory sig)\n    internal\n    pure\n    returns (uint8 v, bytes32 r, bytes32 s)\n  {\n    require(sig.length == 65, \"Invalid Signature\");\n    assembly {\n      // first 32 bytes, after the length prefix.\n      r := mload(add(sig, 32))\n      // second 32 bytes.\n      s := mload(add(sig, 64))\n      // final byte (first byte of the next 32 bytes).\n      v := byte(0, mload(add(sig, 96)))\n    }\n    // TOCHECK: v needs 27 more, may related with EIP1559\n    return (v+27, r, s);\n  }\n\n  function recoverSigner(bytes32 message, bytes memory sig)\n    internal\n    pure\n    returns (address)\n  {\n    (uint8 v, bytes32 r, bytes32 s) = splitSignature(sig);\n    return ecrecover(message, v, r, s);\n  }\n\n  /*\n  * @param subnet block hash.\n  * @return HeaderInfo struct defined above.\n  */\n  function getHeader(bytes32 block_hash) public view returns (HeaderInfo memory) {\n    return HeaderInfo({\n      number: int256(uint256(uint64(header_tree[block_hash] >> 128))),\n      round_num: uint64(header_tree[block_hash] >> 64),\n      mainnet_num: int256(uint256(uint64(header_tree[block_hash])))\n    });\n  }\n\n  /*\n  * @param subnet block number.\n  * @return BlockLite struct defined above.\n  */\n  function getHeaderByNumber(int number) public view returns (HeaderInfo memory, bytes32) {\n    if (height_tree[uint64(uint(number))] == 0) {\n      return (\n        HeaderInfo({\n          number: 0,\n          round_num: 0,\n          mainnet_num: 0\n        }), 0\n      );\n    } else {\n      bytes32 block_hash = height_tree[uint64(uint(number))];\n      return (\n        HeaderInfo({\n          number: int(header_tree[block_hash] >> 128),\n          round_num: uint64(header_tree[block_hash] >> 64),\n          mainnet_num: int(uint(uint64(header_tree[block_hash])))\n        }), block_hash\n      );\n    }\n  }\n\n  function getCurrentEpochBlockByIndex(int idx) public view returns (HeaderInfo memory) {\n    if (uint256(idx) < current_tree.length) {\n      return (\n        HeaderInfo({\n          number: int(header_tree[current_tree[uint256(idx)]] >> 128),\n          round_num: uint64(header_tree[current_tree[uint256(idx)]] >> 64),\n          mainnet_num: int(uint(uint64(header_tree[current_tree[uint256(idx)]])))\n        })\n      );\n    } else {\n      return (\n        HeaderInfo({\n          number: 0,\n          round_num: 0,\n          mainnet_num: 0\n        })\n      );\n    }\n  }\n\n  function getNextEpochBlockByIndex(int idx) public view returns (HeaderInfo memory) {\n    if (uint256(idx) < next_tree.length) {\n      return (\n        HeaderInfo({\n          number: int(header_tree[next_tree[uint256(idx)]] >> 128),\n          round_num: uint64(header_tree[next_tree[uint256(idx)]] >> 64),\n          mainnet_num: int(uint(uint64(header_tree[next_tree[uint256(idx)]])))\n        })\n      );\n    } else {\n      return (\n        HeaderInfo({\n          number: 0,\n          round_num: 0,\n          mainnet_num: 0\n        })\n      );\n    }\n  }\n\n  /*\n  * @return pair of BlockLite structs defined above.\n  */\n  function getLatestBlocks() public view returns (BlockLite memory, BlockLite memory) {\n    return (\n      BlockLite({\n        block_hash: latest_current_epoch_block,\n        number: int(header_tree[latest_current_epoch_block] >> 128)\n      }),\n      BlockLite({\n        block_hash: latest_next_epoch_block,\n        number: int(header_tree[latest_next_epoch_block] >> 128)\n    }));\n  }\n\n  /*\n  * @return Validators struct defined above.\n  */\n  function getCurrentValidators() public view returns (Validators memory) {\n    return current_validators;\n  }\n\n}",
  "sourcePath": "/Users/sihengpan/Documents/XinFin/XDC-Subnet/mainnet_contract/contracts/Subnet.sol",
  "compiler": {
    "name": "solc",
    "version": "0.5.16+commit.9c3226ce.Emscripten.clang"
  },
  "schemaVersion": "3.4.1",
  "updatedAt": "2023-04-27T19:56:06.673Z",
  "devdoc": {
    "methods": {}
  },
  "userdoc": {
    "methods": {}
  }
}