{
  "contractName": "TestingWrapper",
  "abi": [
    {
      "constant": true,
      "inputs": [
        {
          "internalType": "bytes",
          "name": "self",
          "type": "bytes"
        }
      ],
      "name": "encodeBytes",
      "outputs": [
        {
          "internalType": "bytes",
          "name": "",
          "type": "bytes"
        }
      ],
      "payable": false,
      "stateMutability": "pure",
      "type": "function"
    },
    {
      "constant": true,
      "inputs": [
        {
          "internalType": "bytes[]",
          "name": "self",
          "type": "bytes[]"
        }
      ],
      "name": "encodeList",
      "outputs": [
        {
          "internalType": "bytes",
          "name": "",
          "type": "bytes"
        }
      ],
      "payable": false,
      "stateMutability": "pure",
      "type": "function"
    },
    {
      "constant": true,
      "inputs": [
        {
          "internalType": "string",
          "name": "self",
          "type": "string"
        }
      ],
      "name": "encodeString",
      "outputs": [
        {
          "internalType": "bytes",
          "name": "",
          "type": "bytes"
        }
      ],
      "payable": false,
      "stateMutability": "pure",
      "type": "function"
    },
    {
      "constant": true,
      "inputs": [
        {
          "internalType": "address",
          "name": "self",
          "type": "address"
        }
      ],
      "name": "encodeAddress",
      "outputs": [
        {
          "internalType": "bytes",
          "name": "",
          "type": "bytes"
        }
      ],
      "payable": false,
      "stateMutability": "pure",
      "type": "function"
    },
    {
      "constant": true,
      "inputs": [
        {
          "internalType": "uint256",
          "name": "self",
          "type": "uint256"
        }
      ],
      "name": "encodeUint",
      "outputs": [
        {
          "internalType": "bytes",
          "name": "",
          "type": "bytes"
        }
      ],
      "payable": false,
      "stateMutability": "pure",
      "type": "function"
    },
    {
      "constant": true,
      "inputs": [
        {
          "internalType": "int256",
          "name": "self",
          "type": "int256"
        }
      ],
      "name": "encodeInt",
      "outputs": [
        {
          "internalType": "bytes",
          "name": "",
          "type": "bytes"
        }
      ],
      "payable": false,
      "stateMutability": "pure",
      "type": "function"
    },
    {
      "constant": true,
      "inputs": [
        {
          "internalType": "bool",
          "name": "self",
          "type": "bool"
        }
      ],
      "name": "encodeBool",
      "outputs": [
        {
          "internalType": "bytes",
          "name": "",
          "type": "bytes"
        }
      ],
      "payable": false,
      "stateMutability": "pure",
      "type": "function"
    }
  ],
  "bytecode": "0x608060405234801561001057600080fd5b50610f00806100206000396000f3fe608060405234801561001057600080fd5b506004361061007d5760003560e01c8063d32b1bea1161005b578063d32b1bea14610112578063d93227e214610142578063e334f32e14610172578063e3ac07f5146101a25761007d565b806316163c891461008257806375b8de15146100b2578063d30c0a64146100e2575b600080fd5b61009c60048036036100979190810190610b6f565b6101d2565b6040516100a99190610ca5565b60405180910390f35b6100cc60048036036100c79190810190610bd9565b6101e4565b6040516100d99190610ca5565b60405180910390f35b6100fc60048036036100f79190810190610c43565b6101f6565b6040516101099190610ca5565b60405180910390f35b61012c60048036036101279190810190610b05565b610208565b6040516101399190610ca5565b60405180910390f35b61015c60048036036101579190810190610b2e565b61021a565b6040516101699190610ca5565b60405180910390f35b61018c60048036036101879190810190610c02565b61022c565b6040516101999190610ca5565b60405180910390f35b6101bc60048036036101b79190810190610b98565b61023e565b6040516101c99190610ca5565b60405180910390f35b60606101dd82610250565b9050919050565b60606101ef826102e4565b9050919050565b6060610201826102f6565b9050919050565b606061021382610310565b9050919050565b60606102258261034f565b9050919050565b60606102378261037a565b9050919050565b60606102498261038c565b9050919050565b60608060016040519080825280601f01601f1916602001820160405280156102875781602001600182028038833980820191505090505b5090508261029957608060f81b61029f565b600160f81b5b816000815181106102ac57fe5b60200101907effffffffffffffffffffffffffffffffffffffffffffffffffffffffffffff1916908160001a90535080915050919050565b60606102ef826102f6565b9050919050565b6060610309610304836103eb565b61038c565b9050919050565b606080604051837414000000000000000000000000000000000000000018601482015260348101604052809150506103478161038c565b915050919050565b60608061035b8361054a565b905061037261036c825160c0610678565b8261085c565b915050919050565b60606103858261038c565b9050919050565b606080600183511480156103bd57506080836000815181106103aa57fe5b602001015160f81c60f81b60f81c60ff16105b156103ca578290506103e2565b6103df6103d984516080610678565b8461085c565b90505b80915050919050565b60608060206040519080825280601f01601f1916602001820160405280156104225781602001600182028038833980820191505090505b50905082602082015260008090505b602081101561048f57600060f81b82828151811061044b57fe5b602001015160f81c60f81b7effffffffffffffffffffffffffffffffffffffffffffffffffffffffffffff1916146104825761048f565b8080600101915050610431565b6060816020036040519080825280601f01601f1916602001820160405280156104c75781602001600182028038833980820191505090505b50905060008090505b815181101561053e578383806001019450815181106104eb57fe5b602001015160f81c60f81b82828151811061050257fe5b60200101907effffffffffffffffffffffffffffffffffffffffffffffffffffffffffffff1916908160001a90535080806001019150506104d0565b50809350505050919050565b60606000825114156105925760006040519080825280601f01601f19166020018201604052801561058a5781602001600182028038833980820191505090505b509050610673565b600080600090505b83518110156105c9578381815181106105af57fe5b60200260200101515182019150808060010191505061059a565b6060826040519080825280601f01601f1916602001820160405280156105fe5781602001600182028038833980820191505090505b5090506000602082019050600092505b855183101561066b57606086848151811061062557fe5b602002602001015190506000602082019050610643838284516108e6565b87858151811061064f57fe5b602002602001015151830192505050828060010193505061060e565b819450505050505b919050565b60608060388410156107125760016040519080825280601f01601f1916602001820160405280156106b85781602001600182028038833980820191505090505b50905082840160001b601f602081106106cd57fe5b1a60f81b816000815181106106de57fe5b60200101907effffffffffffffffffffffffffffffffffffffffffffffffffffffffffffff1916908160001a905350610852565b600080600190505b600081878161072557fe5b041461073f5781806001019250506101008102905061071a565b600182016040519080825280601f01601f1916602001820160405280156107755781602001600182028038833980820191505090505b50925060378583010160001b601f6020811061078d57fe5b1a60f81b8360008151811061079e57fe5b60200101907effffffffffffffffffffffffffffffffffffffffffffffffffffffffffffff1916908160001a905350600190505b81811161084f576101008183036101000a87816107eb57fe5b04816107f357fe5b0660001b601f6020811061080357fe5b1a60f81b83828151811061081357fe5b60200101907effffffffffffffffffffffffffffffffffffffffffffffffffffffffffffff1916908160001a90535080806001019150506107d2565b50505b8091505092915050565b6060806040519050835180825260208201818101602087015b818310156108925780518352602083019250602081019050610875565b50855192508351830184528091508282019050602086015b818310156108c757805183526020830192506020810190506108aa565b50601f19601f8851850115830101166040525050508091505092915050565b6000839050600083905060008390505b6020811061091957815183526020830192506020820191506020810390506108f6565b60006001826020036101000a0390508019835116818551168181178652505050505050505050565b60008135905061095081610e61565b92915050565b600082601f83011261096757600080fd5b813561097a61097582610cf4565b610cc7565b9150818183526020840193506020810190508360005b838110156109c057813586016109a688826109df565b845260208401935060208301925050600181019050610990565b5050505092915050565b6000813590506109d981610e78565b92915050565b600082601f8301126109f057600080fd5b8135610a036109fe82610d1c565b610cc7565b91508082526020830160208301858383011115610a1f57600080fd5b610a2a838284610e0e565b50505092915050565b600082601f830112610a4457600080fd5b8135610a57610a5282610d48565b610cc7565b91508082526020830160208301858383011115610a7357600080fd5b610a7e838284610e0e565b50505092915050565b600081359050610a9681610e8f565b92915050565b600082601f830112610aad57600080fd5b8135610ac0610abb82610d74565b610cc7565b91508082526020830160208301858383011115610adc57600080fd5b610ae7838284610e0e565b50505092915050565b600081359050610aff81610ea6565b92915050565b600060208284031215610b1757600080fd5b6000610b2584828501610941565b91505092915050565b600060208284031215610b4057600080fd5b600082013567ffffffffffffffff811115610b5a57600080fd5b610b6684828501610956565b91505092915050565b600060208284031215610b8157600080fd5b6000610b8f848285016109ca565b91505092915050565b600060208284031215610baa57600080fd5b600082013567ffffffffffffffff811115610bc457600080fd5b610bd084828501610a33565b91505092915050565b600060208284031215610beb57600080fd5b6000610bf984828501610a87565b91505092915050565b600060208284031215610c1457600080fd5b600082013567ffffffffffffffff811115610c2e57600080fd5b610c3a84828501610a9c565b91505092915050565b600060208284031215610c5557600080fd5b6000610c6384828501610af0565b91505092915050565b6000610c7782610da0565b610c818185610dab565b9350610c91818560208601610e1d565b610c9a81610e50565b840191505092915050565b60006020820190508181036000830152610cbf8184610c6c565b905092915050565b6000604051905081810181811067ffffffffffffffff82111715610cea57600080fd5b8060405250919050565b600067ffffffffffffffff821115610d0b57600080fd5b602082029050602081019050919050565b600067ffffffffffffffff821115610d3357600080fd5b601f19601f8301169050602081019050919050565b600067ffffffffffffffff821115610d5f57600080fd5b601f19601f8301169050602081019050919050565b600067ffffffffffffffff821115610d8b57600080fd5b601f19601f8301169050602081019050919050565b600081519050919050565b600082825260208201905092915050565b6000610dc782610de4565b9050919050565b60008115159050919050565b6000819050919050565b600073ffffffffffffffffffffffffffffffffffffffff82169050919050565b6000819050919050565b82818337600083830152505050565b60005b83811015610e3b578082015181840152602081019050610e20565b83811115610e4a576000848401525b50505050565b6000601f19601f8301169050919050565b610e6a81610dbc565b8114610e7557600080fd5b50565b610e8181610dce565b8114610e8c57600080fd5b50565b610e9881610dda565b8114610ea357600080fd5b50565b610eaf81610e04565b8114610eba57600080fd5b5056fea365627a7a7231582069da13fc2a8745cc7f8e40f42a3ce547707b33053a9d5c321e211cd4da20e2fe6c6578706572696d656e74616cf564736f6c63430005100040",
  "source": "// SPDX-License-Identifier: MIT\npragma solidity >=0.4.22 <0.9.0;\npragma experimental ABIEncoderV2;\n\nimport \"./RLPEncode.sol\";\n\n\n/**\n * @title TestingWrapper\n * @dev Wrapper for RLPEncode for testing.\n */\ncontract TestingWrapper {\n    /*\n     * Public functions\n     */\n    \n    /**\n     * @dev RLP encodes a byte string.\n     * @param self The byte string to encode.\n     * @return The RLP encoded string in bytes.\n     */\n    function encodeBytes(bytes memory self) public pure returns (bytes memory) {\n        return RLPEncode.encodeBytes(self);\n    }\n\n    /**\n     * @dev RLP encodes a list of RLP encoded byte byte strings.\n     * @param self The list of RLP encoded byte strings.\n     * @return The RLP encoded list of items in bytes.\n     */\n    function encodeList(bytes[] memory self) public pure returns (bytes memory) {\n        return RLPEncode.encodeList(self);\n    }\n\n    /**\n     * @dev RLP encodes a string.\n     * @param self The string to encode.\n     * @return The RLP encoded string in bytes.\n     */\n    function encodeString(string memory self) public pure returns (bytes memory) {\n        return RLPEncode.encodeString(self);\n    }\n\n    /** \n     * @dev RLP encodes an address.\n     * @param self The address to encode.\n     * @return The RLP encoded address in bytes.\n     */\n    function encodeAddress(address self) public pure returns (bytes memory) {\n        return RLPEncode.encodeAddress(self);\n    }\n\n    /** \n     * @dev RLP encodes a uint.\n     * @param self The uint to encode.\n     * @return The RLP encoded uint in bytes.\n     */\n    function encodeUint(uint self) public pure returns (bytes memory) {\n        return RLPEncode.encodeUint(self);\n    }\n\n    /** \n     * @dev RLP encodes an int.\n     * @param self The int to encode.\n     * @return The RLP encoded int in bytes.\n     */\n    function encodeInt(int self) public pure returns (bytes memory) {\n        return RLPEncode.encodeInt(self);\n    }\n\n    /** \n     * @dev RLP encodes a bool.\n     * @param self The bool to encode.\n     * @return The RLP encoded bool in bytes.\n     */\n    function encodeBool(bool self) public pure returns (bytes memory) {\n        return RLPEncode.encodeBool(self);\n    }\n}",
  "sourcePath": "/Users/sihengpan/Documents/XinFin/Subnet/contracts/TestingWrapper.sol",
  "compiler": {
    "name": "solc",
    "version": "0.5.16+commit.9c3226ce.Emscripten.clang"
  },
  "schemaVersion": "3.4.1",
  "updatedAt": "2023-01-26T08:44:40.154Z",
  "devdoc": {
    "details": "Wrapper for RLPEncode for testing.",
    "methods": {
      "encodeAddress(address)": {
        "details": "RLP encodes an address.",
        "params": {
          "self": "The address to encode."
        },
        "return": "The RLP encoded address in bytes."
      },
      "encodeBool(bool)": {
        "details": "RLP encodes a bool.",
        "params": {
          "self": "The bool to encode."
        },
        "return": "The RLP encoded bool in bytes."
      },
      "encodeBytes(bytes)": {
        "details": "RLP encodes a byte string.",
        "params": {
          "self": "The byte string to encode."
        },
        "return": "The RLP encoded string in bytes."
      },
      "encodeInt(int256)": {
        "details": "RLP encodes an int.",
        "params": {
          "self": "The int to encode."
        },
        "return": "The RLP encoded int in bytes."
      },
      "encodeList(bytes[])": {
        "details": "RLP encodes a list of RLP encoded byte byte strings.",
        "params": {
          "self": "The list of RLP encoded byte strings."
        },
        "return": "The RLP encoded list of items in bytes."
      },
      "encodeString(string)": {
        "details": "RLP encodes a string.",
        "params": {
          "self": "The string to encode."
        },
        "return": "The RLP encoded string in bytes."
      },
      "encodeUint(uint256)": {
        "details": "RLP encodes a uint.",
        "params": {
          "self": "The uint to encode."
        },
        "return": "The RLP encoded uint in bytes."
      }
    },
    "title": "TestingWrapper"
  },
  "userdoc": {
    "methods": {}
  }
}